{
  "contracts/mocks/BitmapMock.sol": {
    "BitMapMock": {
      "abi": [
        {
          "inputs": [
            {
              "internalType": "uint256",
              "name": "index",
              "type": "uint256"
            }
          ],
          "name": "get",
          "outputs": [
            {
              "internalType": "bool",
              "name": "",
              "type": "bool"
            }
          ],
          "stateMutability": "view",
          "type": "function"
        },
        {
          "inputs": [
            {
              "internalType": "uint256",
              "name": "index",
              "type": "uint256"
            }
          ],
          "name": "set",
          "outputs": [],
          "stateMutability": "nonpayable",
          "type": "function"
        },
        {
          "inputs": [
            {
              "internalType": "uint256",
              "name": "index",
              "type": "uint256"
            },
            {
              "internalType": "bool",
              "name": "value",
              "type": "bool"
            }
          ],
          "name": "setTo",
          "outputs": [],
          "stateMutability": "nonpayable",
          "type": "function"
        },
        {
          "inputs": [
            {
              "internalType": "uint256",
              "name": "index",
              "type": "uint256"
            }
          ],
          "name": "unset",
          "outputs": [],
          "stateMutability": "nonpayable",
          "type": "function"
        }
      ],
      "evm": {
        "bytecode": {
          "linkReferences": {},
          "object": "608060405234801561001057600080fd5b5061028e806100206000396000f3fe608060405234801561001057600080fd5b506004361061004c5760003560e01c8063088d22551461005157806360fe47b1146100665780639507d39a14610079578063dcc9d43c146100a0575b600080fd5b61006461005f3660046101cf565b6100b3565b005b6100646100743660046101cf565b6100c1565b61008c6100873660046101cf565b6100cc565b604051901515815260200160405180910390f35b6100646100ae3660046101e7565b6100de565b6100be6000826100ee565b50565b6100be60008261012d565b60006100d8818361016b565b92915050565b6100ea600083836101ab565b5050565b60006100fc6101008361021a565b9050600061010c6101008461022e565b600092835260209490945250604090208054600190931b1990921690915550565b600061013b6101008361021a565b9050600061014b6101008461022e565b600092835260209490945250604090208054600190931b90921790915550565b60008061017a6101008461021a565b9050600061018a6101008561022e565b6000928352602095909552506040902054600190931b909216151592915050565b80156101c0576101bb838361012d565b6101ca565b6101ca83836100ee565b505050565b6000602082840312156101e0578081fd5b5035919050565b600080604083850312156101f9578081fd5b823591506020830135801515811461020f578182fd5b809150509250929050565b60008261022957610229610242565b500490565b60008261023d5761023d610242565b500690565b634e487b7160e01b600052601260045260246000fdfea26469706673582212204a52bc38513e8e0651b27275afd377b4e825667f5bd7adccbf598b6cfd940ac864736f6c63430008030033",
          "opcodes": "PUSH1 0x80 PUSH1 0x40 MSTORE CALLVALUE DUP1 ISZERO PUSH2 0x10 JUMPI PUSH1 0x0 DUP1 REVERT JUMPDEST POP PUSH2 0x28E DUP1 PUSH2 0x20 PUSH1 0x0 CODECOPY PUSH1 0x0 RETURN INVALID PUSH1 0x80 PUSH1 0x40 MSTORE CALLVALUE DUP1 ISZERO PUSH2 0x10 JUMPI PUSH1 0x0 DUP1 REVERT JUMPDEST POP PUSH1 0x4 CALLDATASIZE LT PUSH2 0x4C JUMPI PUSH1 0x0 CALLDATALOAD PUSH1 0xE0 SHR DUP1 PUSH4 0x88D2255 EQ PUSH2 0x51 JUMPI DUP1 PUSH4 0x60FE47B1 EQ PUSH2 0x66 JUMPI DUP1 PUSH4 0x9507D39A EQ PUSH2 0x79 JUMPI DUP1 PUSH4 0xDCC9D43C EQ PUSH2 0xA0 JUMPI JUMPDEST PUSH1 0x0 DUP1 REVERT JUMPDEST PUSH2 0x64 PUSH2 0x5F CALLDATASIZE PUSH1 0x4 PUSH2 0x1CF JUMP JUMPDEST PUSH2 0xB3 JUMP JUMPDEST STOP JUMPDEST PUSH2 0x64 PUSH2 0x74 CALLDATASIZE PUSH1 0x4 PUSH2 0x1CF JUMP JUMPDEST PUSH2 0xC1 JUMP JUMPDEST PUSH2 0x8C PUSH2 0x87 CALLDATASIZE PUSH1 0x4 PUSH2 0x1CF JUMP JUMPDEST PUSH2 0xCC JUMP JUMPDEST PUSH1 0x40 MLOAD SWAP1 ISZERO ISZERO DUP2 MSTORE PUSH1 0x20 ADD PUSH1 0x40 MLOAD DUP1 SWAP2 SUB SWAP1 RETURN JUMPDEST PUSH2 0x64 PUSH2 0xAE CALLDATASIZE PUSH1 0x4 PUSH2 0x1E7 JUMP JUMPDEST PUSH2 0xDE JUMP JUMPDEST PUSH2 0xBE PUSH1 0x0 DUP3 PUSH2 0xEE JUMP JUMPDEST POP JUMP JUMPDEST PUSH2 0xBE PUSH1 0x0 DUP3 PUSH2 0x12D JUMP JUMPDEST PUSH1 0x0 PUSH2 0xD8 DUP2 DUP4 PUSH2 0x16B JUMP JUMPDEST SWAP3 SWAP2 POP POP JUMP JUMPDEST PUSH2 0xEA PUSH1 0x0 DUP4 DUP4 PUSH2 0x1AB JUMP JUMPDEST POP POP JUMP JUMPDEST PUSH1 0x0 PUSH2 0xFC PUSH2 0x100 DUP4 PUSH2 0x21A JUMP JUMPDEST SWAP1 POP PUSH1 0x0 PUSH2 0x10C PUSH2 0x100 DUP5 PUSH2 0x22E JUMP JUMPDEST PUSH1 0x0 SWAP3 DUP4 MSTORE PUSH1 0x20 SWAP5 SWAP1 SWAP5 MSTORE POP PUSH1 0x40 SWAP1 KECCAK256 DUP1 SLOAD PUSH1 0x1 SWAP1 SWAP4 SHL NOT SWAP1 SWAP3 AND SWAP1 SWAP2 SSTORE POP JUMP JUMPDEST PUSH1 0x0 PUSH2 0x13B PUSH2 0x100 DUP4 PUSH2 0x21A JUMP JUMPDEST SWAP1 POP PUSH1 0x0 PUSH2 0x14B PUSH2 0x100 DUP5 PUSH2 0x22E JUMP JUMPDEST PUSH1 0x0 SWAP3 DUP4 MSTORE PUSH1 0x20 SWAP5 SWAP1 SWAP5 MSTORE POP PUSH1 0x40 SWAP1 KECCAK256 DUP1 SLOAD PUSH1 0x1 SWAP1 SWAP4 SHL SWAP1 SWAP3 OR SWAP1 SWAP2 SSTORE POP JUMP JUMPDEST PUSH1 0x0 DUP1 PUSH2 0x17A PUSH2 0x100 DUP5 PUSH2 0x21A JUMP JUMPDEST SWAP1 POP PUSH1 0x0 PUSH2 0x18A PUSH2 0x100 DUP6 PUSH2 0x22E JUMP JUMPDEST PUSH1 0x0 SWAP3 DUP4 MSTORE PUSH1 0x20 SWAP6 SWAP1 SWAP6 MSTORE POP PUSH1 0x40 SWAP1 KECCAK256 SLOAD PUSH1 0x1 SWAP1 SWAP4 SHL SWAP1 SWAP3 AND ISZERO ISZERO SWAP3 SWAP2 POP POP JUMP JUMPDEST DUP1 ISZERO PUSH2 0x1C0 JUMPI PUSH2 0x1BB DUP4 DUP4 PUSH2 0x12D JUMP JUMPDEST PUSH2 0x1CA JUMP JUMPDEST PUSH2 0x1CA DUP4 DUP4 PUSH2 0xEE JUMP JUMPDEST POP POP POP JUMP JUMPDEST PUSH1 0x0 PUSH1 0x20 DUP3 DUP5 SUB SLT ISZERO PUSH2 0x1E0 JUMPI DUP1 DUP2 REVERT JUMPDEST POP CALLDATALOAD SWAP2 SWAP1 POP JUMP JUMPDEST PUSH1 0x0 DUP1 PUSH1 0x40 DUP4 DUP6 SUB SLT ISZERO PUSH2 0x1F9 JUMPI DUP1 DUP2 REVERT JUMPDEST DUP3 CALLDATALOAD SWAP2 POP PUSH1 0x20 DUP4 ADD CALLDATALOAD DUP1 ISZERO ISZERO DUP2 EQ PUSH2 0x20F JUMPI DUP2 DUP3 REVERT JUMPDEST DUP1 SWAP2 POP POP SWAP3 POP SWAP3 SWAP1 POP JUMP JUMPDEST PUSH1 0x0 DUP3 PUSH2 0x229 JUMPI PUSH2 0x229 PUSH2 0x242 JUMP JUMPDEST POP DIV SWAP1 JUMP JUMPDEST PUSH1 0x0 DUP3 PUSH2 0x23D JUMPI PUSH2 0x23D PUSH2 0x242 JUMP JUMPDEST POP MOD SWAP1 JUMP JUMPDEST PUSH4 0x4E487B71 PUSH1 0xE0 SHL PUSH1 0x0 MSTORE PUSH1 0x12 PUSH1 0x4 MSTORE PUSH1 0x24 PUSH1 0x0 REVERT INVALID LOG2 PUSH5 0x6970667358 0x22 SLT KECCAK256 0x4A MSTORE 0xBC CODESIZE MLOAD RETURNDATACOPY DUP15 MOD MLOAD 0xB2 PUSH19 0x75AFD377B4E825667F5BD7ADCCBF598B6CFD94 EXP 0xC8 PUSH5 0x736F6C6343 STOP ADDMOD SUB STOP CALLER "
        },
        "methodIdentifiers": {
          "get(uint256)": "9507d39a",
          "set(uint256)": "60fe47b1",
          "setTo(uint256,bool)": "dcc9d43c",
          "unset(uint256)": "088d2255"
        }
      }
    }
  }
}