{
  "_format": "hh-sol-artifact-1",
  "contractName": "ERC20PermitMock",
  "sourceName": "contracts/mocks/ERC20PermitMock.sol",
  "abi": [
    {
      "inputs": [
        {
          "internalType": "string",
          "name": "name",
          "type": "string"
        },
        {
          "internalType": "string",
          "name": "symbol",
          "type": "string"
        },
        {
          "internalType": "address",
          "name": "initialAccount",
          "type": "address"
        },
        {
          "internalType": "uint256",
          "name": "initialBalance",
          "type": "uint256"
        }
      ],
      "stateMutability": "payable",
      "type": "constructor"
    },
    {
      "anonymous": false,
      "inputs": [
        {
          "indexed": true,
          "internalType": "address",
          "name": "owner",
          "type": "address"
        },
        {
          "indexed": true,
          "internalType": "address",
          "name": "spender",
          "type": "address"
        },
        {
          "indexed": false,
          "internalType": "uint256",
          "name": "value",
          "type": "uint256"
        }
      ],
      "name": "Approval",
      "type": "event"
    },
    {
      "anonymous": false,
      "inputs": [
        {
          "indexed": true,
          "internalType": "address",
          "name": "from",
          "type": "address"
        },
        {
          "indexed": true,
          "internalType": "address",
          "name": "to",
          "type": "address"
        },
        {
          "indexed": false,
          "internalType": "uint256",
          "name": "value",
          "type": "uint256"
        }
      ],
      "name": "Transfer",
      "type": "event"
    },
    {
      "inputs": [],
      "name": "DOMAIN_SEPARATOR",
      "outputs": [
        {
          "internalType": "bytes32",
          "name": "",
          "type": "bytes32"
        }
      ],
      "stateMutability": "view",
      "type": "function"
    },
    {
      "inputs": [
        {
          "internalType": "address",
          "name": "owner",
          "type": "address"
        },
        {
          "internalType": "address",
          "name": "spender",
          "type": "address"
        }
      ],
      "name": "allowance",
      "outputs": [
        {
          "internalType": "uint256",
          "name": "",
          "type": "uint256"
        }
      ],
      "stateMutability": "view",
      "type": "function"
    },
    {
      "inputs": [
        {
          "internalType": "address",
          "name": "spender",
          "type": "address"
        },
        {
          "internalType": "uint256",
          "name": "amount",
          "type": "uint256"
        }
      ],
      "name": "approve",
      "outputs": [
        {
          "internalType": "bool",
          "name": "",
          "type": "bool"
        }
      ],
      "stateMutability": "nonpayable",
      "type": "function"
    },
    {
      "inputs": [
        {
          "internalType": "address",
          "name": "account",
          "type": "address"
        }
      ],
      "name": "balanceOf",
      "outputs": [
        {
          "internalType": "uint256",
          "name": "",
          "type": "uint256"
        }
      ],
      "stateMutability": "view",
      "type": "function"
    },
    {
      "inputs": [],
      "name": "decimals",
      "outputs": [
        {
          "internalType": "uint8",
          "name": "",
          "type": "uint8"
        }
      ],
      "stateMutability": "view",
      "type": "function"
    },
    {
      "inputs": [
        {
          "internalType": "address",
          "name": "spender",
          "type": "address"
        },
        {
          "internalType": "uint256",
          "name": "subtractedValue",
          "type": "uint256"
        }
      ],
      "name": "decreaseAllowance",
      "outputs": [
        {
          "internalType": "bool",
          "name": "",
          "type": "bool"
        }
      ],
      "stateMutability": "nonpayable",
      "type": "function"
    },
    {
      "inputs": [],
      "name": "getChainId",
      "outputs": [
        {
          "internalType": "uint256",
          "name": "",
          "type": "uint256"
        }
      ],
      "stateMutability": "view",
      "type": "function"
    },
    {
      "inputs": [
        {
          "internalType": "address",
          "name": "spender",
          "type": "address"
        },
        {
          "internalType": "uint256",
          "name": "addedValue",
          "type": "uint256"
        }
      ],
      "name": "increaseAllowance",
      "outputs": [
        {
          "internalType": "bool",
          "name": "",
          "type": "bool"
        }
      ],
      "stateMutability": "nonpayable",
      "type": "function"
    },
    {
      "inputs": [],
      "name": "name",
      "outputs": [
        {
          "internalType": "string",
          "name": "",
          "type": "string"
        }
      ],
      "stateMutability": "view",
      "type": "function"
    },
    {
      "inputs": [
        {
          "internalType": "address",
          "name": "owner",
          "type": "address"
        }
      ],
      "name": "nonces",
      "outputs": [
        {
          "internalType": "uint256",
          "name": "",
          "type": "uint256"
        }
      ],
      "stateMutability": "view",
      "type": "function"
    },
    {
      "inputs": [
        {
          "internalType": "address",
          "name": "owner",
          "type": "address"
        },
        {
          "internalType": "address",
          "name": "spender",
          "type": "address"
        },
        {
          "internalType": "uint256",
          "name": "value",
          "type": "uint256"
        },
        {
          "internalType": "uint256",
          "name": "deadline",
          "type": "uint256"
        },
        {
          "internalType": "uint8",
          "name": "v",
          "type": "uint8"
        },
        {
          "internalType": "bytes32",
          "name": "r",
          "type": "bytes32"
        },
        {
          "internalType": "bytes32",
          "name": "s",
          "type": "bytes32"
        }
      ],
      "name": "permit",
      "outputs": [],
      "stateMutability": "nonpayable",
      "type": "function"
    },
    {
      "inputs": [],
      "name": "symbol",
      "outputs": [
        {
          "internalType": "string",
          "name": "",
          "type": "string"
        }
      ],
      "stateMutability": "view",
      "type": "function"
    },
    {
      "inputs": [],
      "name": "totalSupply",
      "outputs": [
        {
          "internalType": "uint256",
          "name": "",
          "type": "uint256"
        }
      ],
      "stateMutability": "view",
      "type": "function"
    },
    {
      "inputs": [
        {
          "internalType": "address",
          "name": "recipient",
          "type": "address"
        },
        {
          "internalType": "uint256",
          "name": "amount",
          "type": "uint256"
        }
      ],
      "name": "transfer",
      "outputs": [
        {
          "internalType": "bool",
          "name": "",
          "type": "bool"
        }
      ],
      "stateMutability": "nonpayable",
      "type": "function"
    },
    {
      "inputs": [
        {
          "internalType": "address",
          "name": "sender",
          "type": "address"
        },
        {
          "internalType": "address",
          "name": "recipient",
          "type": "address"
        },
        {
          "internalType": "uint256",
          "name": "amount",
          "type": "uint256"
        }
      ],
      "name": "transferFrom",
      "outputs": [
        {
          "internalType": "bool",
          "name": "",
          "type": "bool"
        }
      ],
      "stateMutability": "nonpayable",
      "type": "function"
    }
  ],
  "bytecode": "0x6101406040527f6e71edae12b1b97f4d1f60370fef10105fa2faae0126114a169c64845d6126c9610120908152506040516200132e3803806200132e8339810160408190526200004f9162000380565b8380604051806040016040528060018152602001603160f81b815250868681600390805190602001906200008592919062000227565b5080516200009b90600490602084019062000227565b5050825160209384012082519284019290922060c083815260e08290524660a0818152604080517f8b73c3c69bb8fe3d512ecc4cf759cc79239f7b179b0ffacaa9a75d522b39400f818a01819052818301989098526060810195909552608080860193909352308583015280518086039092018252939092019092528051940193909320909252610100525062000135905082826200013f565b5050505062000487565b6001600160a01b0382166200019a5760405162461bcd60e51b815260206004820152601f60248201527f45524332303a206d696e7420746f20746865207a65726f206164647265737300604482015260640160405180910390fd5b8060026000828254620001ae91906200040f565b90915550506001600160a01b03821660009081526020819052604081208054839290620001dd9084906200040f565b90915550506040518181526001600160a01b038316906000907fddf252ad1be2c89b69c2b068fc378daa952ba7f163c4a11628f55a4df523b3ef9060200160405180910390a35050565b828054620002359062000434565b90600052602060002090601f016020900481019282620002595760008555620002a4565b82601f106200027457805160ff1916838001178555620002a4565b82800160010185558215620002a4579182015b82811115620002a457825182559160200191906001019062000287565b50620002b2929150620002b6565b5090565b5b80821115620002b25760008155600101620002b7565b600082601f830112620002de578081fd5b81516001600160401b0380821115620002fb57620002fb62000471565b604051601f8301601f19908116603f0116810190828211818310171562000326576200032662000471565b8160405283815260209250868385880101111562000342578485fd5b8491505b8382101562000365578582018301518183018401529082019062000346565b838211156200037657848385830101525b9695505050505050565b6000806000806080858703121562000396578384fd5b84516001600160401b0380821115620003ad578586fd5b620003bb88838901620002cd565b95506020870151915080821115620003d1578485fd5b50620003e087828801620002cd565b604087015190945090506001600160a01b0381168114620003ff578283fd5b6060959095015193969295505050565b600082198211156200042f57634e487b7160e01b81526011600452602481fd5b500190565b600181811c908216806200044957607f821691505b602082108114156200046b57634e487b7160e01b600052602260045260246000fd5b50919050565b634e487b7160e01b600052604160045260246000fd5b60805160a05160c05160e0516101005161012051610e57620004d7600039600061051d01526000610978015260006109c7015260006109a2015260006109240152600061094d0152610e576000f3fe608060405234801561001057600080fd5b50600436106100f55760003560e01c80633950935111610097578063a457c2d711610066578063a457c2d7146101be578063a9059cbb146101d1578063d505accf146101e4578063dd62ed3e146101f9576100f5565b8063395093511461017d57806370a08231146101905780637ecebe00146101a357806395d89b41146101b6576100f5565b806323b872dd116100d357806323b872dd1461014d578063313ce567146101605780633408e4701461016f5780633644e51514610175576100f5565b806306fdde03146100fa578063095ea7b31461011857806318160ddd1461013b575b600080fd5b610102610232565b60405161010f9190610d75565b60405180910390f35b61012b610126366004610d4c565b6102c5565b604051901515815260200161010f565b6002545b60405190815260200161010f565b61012b61015b366004610ca0565b6102db565b6040516012815260200161010f565b4661013f565b61013f61038a565b61012b61018b366004610d4c565b610399565b61013f61019e366004610c4d565b6103d5565b61013f6101b1366004610c4d565b6103f4565b610102610414565b61012b6101cc366004610d4c565b610423565b61012b6101df366004610d4c565b6104bc565b6101f76101f2366004610cdb565b6104c9565b005b61013f610207366004610c6e565b6001600160a01b03918216600090815260016020908152604080832093909416825291909152205490565b60606003805461024190610dec565b80601f016020809104026020016040519081016040528092919081815260200182805461026d90610dec565b80156102ba5780601f1061028f576101008083540402835291602001916102ba565b820191906000526020600020905b81548152906001019060200180831161029d57829003601f168201915b505050505090505b90565b60006102d233848461062d565b50600192915050565b60006102e8848484610751565b6001600160a01b0384166000908152600160209081526040808320338452909152902054828110156103725760405162461bcd60e51b815260206004820152602860248201527f45524332303a207472616e7366657220616d6f756e74206578636565647320616044820152676c6c6f77616e636560c01b60648201526084015b60405180910390fd5b61037f853385840361062d565b506001949350505050565b6000610394610920565b905090565b3360008181526001602090815260408083206001600160a01b038716845290915281205490916102d29185906103d0908690610dc8565b61062d565b6001600160a01b0381166000908152602081905260409020545b919050565b6001600160a01b0381166000908152600560205260408120545b92915050565b60606004805461024190610dec565b3360009081526001602090815260408083206001600160a01b0386168452909152812054828110156104a55760405162461bcd60e51b815260206004820152602560248201527f45524332303a2064656372656173656420616c6c6f77616e63652062656c6f77604482015264207a65726f60d81b6064820152608401610369565b6104b2338585840361062d565b5060019392505050565b60006102d2338484610751565b834211156105195760405162461bcd60e51b815260206004820152601d60248201527f45524332305065726d69743a206578706972656420646561646c696e650000006044820152606401610369565b60007f00000000000000000000000000000000000000000000000000000000000000008888886105488c610a17565b6040805160208101969096526001600160a01b0394851690860152929091166060840152608083015260a082015260c0810186905260e00160405160208183030381529060405280519060200120905060006105a382610a3f565b905060006105b382878787610a8d565b9050896001600160a01b0316816001600160a01b0316146106165760405162461bcd60e51b815260206004820152601e60248201527f45524332305065726d69743a20696e76616c6964207369676e617475726500006044820152606401610369565b6106218a8a8a61062d565b50505050505050505050565b6001600160a01b03831661068f5760405162461bcd60e51b8152602060048201526024808201527f45524332303a20617070726f76652066726f6d20746865207a65726f206164646044820152637265737360e01b6064820152608401610369565b6001600160a01b0382166106f05760405162461bcd60e51b815260206004820152602260248201527f45524332303a20617070726f766520746f20746865207a65726f206164647265604482015261737360f01b6064820152608401610369565b6001600160a01b0383811660008181526001602090815260408083209487168084529482529182902085905590518481527f8c5be1e5ebec7d5bd14f71427d1e84f3dd0314c0f7b2291e5b200ac8c7c3b925910160405180910390a3505050565b6001600160a01b0383166107b55760405162461bcd60e51b815260206004820152602560248201527f45524332303a207472616e736665722066726f6d20746865207a65726f206164604482015264647265737360d81b6064820152608401610369565b6001600160a01b0382166108175760405162461bcd60e51b815260206004820152602360248201527f45524332303a207472616e7366657220746f20746865207a65726f206164647260448201526265737360e81b6064820152608401610369565b6001600160a01b0383166000908152602081905260409020548181101561088f5760405162461bcd60e51b815260206004820152602660248201527f45524332303a207472616e7366657220616d6f756e7420657863656564732062604482015265616c616e636560d01b6064820152608401610369565b6001600160a01b038085166000908152602081905260408082208585039055918516815290812080548492906108c6908490610dc8565b92505081905550826001600160a01b0316846001600160a01b03167fddf252ad1be2c89b69c2b068fc378daa952ba7f163c4a11628f55a4df523b3ef8460405161091291815260200190565b60405180910390a350505050565b60007f000000000000000000000000000000000000000000000000000000000000000046141561097157507f00000000000000000000000000000000000000000000000000000000000000006102c2565b50604080517f00000000000000000000000000000000000000000000000000000000000000006020808301919091527f0000000000000000000000000000000000000000000000000000000000000000828401527f000000000000000000000000000000000000000000000000000000000000000060608301524660808301523060a0808401919091528351808403909101815260c090920190925280519101206102c2565b6001600160a01b03811660009081526005602052604090208054600181018255905b50919050565b600061040e610a4c610920565b8360405161190160f01b6020820152602281018390526042810182905260009060620160405160208183030381529060405280519060200120905092915050565b60007f7fffffffffffffffffffffffffffffff5d576e7357a4501ddfe92f46681b20a0821115610b0a5760405162461bcd60e51b815260206004820152602260248201527f45434453413a20696e76616c6964207369676e6174757265202773272076616c604482015261756560f01b6064820152608401610369565b8360ff16601b1480610b1f57508360ff16601c145b610b765760405162461bcd60e51b815260206004820152602260248201527f45434453413a20696e76616c6964207369676e6174757265202776272076616c604482015261756560f01b6064820152608401610369565b6040805160008082526020820180845288905260ff871692820192909252606081018590526080810184905260019060a0016020604051602081039080840390855afa158015610bca573d6000803e3d6000fd5b5050604051601f1901519150506001600160a01b038116610c2d5760405162461bcd60e51b815260206004820152601860248201527f45434453413a20696e76616c6964207369676e617475726500000000000000006044820152606401610369565b95945050505050565b80356001600160a01b03811681146103ef57600080fd5b600060208284031215610c5e578081fd5b610c6782610c36565b9392505050565b60008060408385031215610c80578081fd5b610c8983610c36565b9150610c9760208401610c36565b90509250929050565b600080600060608486031215610cb4578081fd5b610cbd84610c36565b9250610ccb60208501610c36565b9150604084013590509250925092565b600080600080600080600060e0888a031215610cf5578283fd5b610cfe88610c36565b9650610d0c60208901610c36565b95506040880135945060608801359350608088013560ff81168114610d2f578384fd5b9699959850939692959460a0840135945060c09093013592915050565b60008060408385031215610d5e578182fd5b610d6783610c36565b946020939093013593505050565b6000602080835283518082850152825b81811015610da157858101830151858201604001528201610d85565b81811115610db25783604083870101525b50601f01601f1916929092016040019392505050565b60008219821115610de757634e487b7160e01b81526011600452602481fd5b500190565b600181811c90821680610e0057607f821691505b60208210811415610a3957634e487b7160e01b600052602260045260246000fdfea26469706673582212205cda5affeb2547499437148a95ec703dabf19128fc4746e6db531f1e0fa5c25464736f6c63430008030033",
  "linkReferences": {},
  "deployedLinkReferences": {}
}