{
  "_format": "hh-sol-artifact-1",
  "contractName": "ERC1155SupplyMock",
  "sourceName": "contracts/mocks/ERC1155SupplyMock.sol",
  "abi": [
    {
      "inputs": [
        {
          "internalType": "string",
          "name": "uri",
          "type": "string"
        }
      ],
      "stateMutability": "nonpayable",
      "type": "constructor"
    },
    {
      "anonymous": false,
      "inputs": [
        {
          "indexed": true,
          "internalType": "address",
          "name": "account",
          "type": "address"
        },
        {
          "indexed": true,
          "internalType": "address",
          "name": "operator",
          "type": "address"
        },
        {
          "indexed": false,
          "internalType": "bool",
          "name": "approved",
          "type": "bool"
        }
      ],
      "name": "ApprovalForAll",
      "type": "event"
    },
    {
      "anonymous": false,
      "inputs": [
        {
          "indexed": true,
          "internalType": "address",
          "name": "operator",
          "type": "address"
        },
        {
          "indexed": true,
          "internalType": "address",
          "name": "from",
          "type": "address"
        },
        {
          "indexed": true,
          "internalType": "address",
          "name": "to",
          "type": "address"
        },
        {
          "indexed": false,
          "internalType": "uint256[]",
          "name": "ids",
          "type": "uint256[]"
        },
        {
          "indexed": false,
          "internalType": "uint256[]",
          "name": "values",
          "type": "uint256[]"
        }
      ],
      "name": "TransferBatch",
      "type": "event"
    },
    {
      "anonymous": false,
      "inputs": [
        {
          "indexed": true,
          "internalType": "address",
          "name": "operator",
          "type": "address"
        },
        {
          "indexed": true,
          "internalType": "address",
          "name": "from",
          "type": "address"
        },
        {
          "indexed": true,
          "internalType": "address",
          "name": "to",
          "type": "address"
        },
        {
          "indexed": false,
          "internalType": "uint256",
          "name": "id",
          "type": "uint256"
        },
        {
          "indexed": false,
          "internalType": "uint256",
          "name": "value",
          "type": "uint256"
        }
      ],
      "name": "TransferSingle",
      "type": "event"
    },
    {
      "anonymous": false,
      "inputs": [
        {
          "indexed": false,
          "internalType": "string",
          "name": "value",
          "type": "string"
        },
        {
          "indexed": true,
          "internalType": "uint256",
          "name": "id",
          "type": "uint256"
        }
      ],
      "name": "URI",
      "type": "event"
    },
    {
      "inputs": [
        {
          "internalType": "address",
          "name": "account",
          "type": "address"
        },
        {
          "internalType": "uint256",
          "name": "id",
          "type": "uint256"
        }
      ],
      "name": "balanceOf",
      "outputs": [
        {
          "internalType": "uint256",
          "name": "",
          "type": "uint256"
        }
      ],
      "stateMutability": "view",
      "type": "function"
    },
    {
      "inputs": [
        {
          "internalType": "address[]",
          "name": "accounts",
          "type": "address[]"
        },
        {
          "internalType": "uint256[]",
          "name": "ids",
          "type": "uint256[]"
        }
      ],
      "name": "balanceOfBatch",
      "outputs": [
        {
          "internalType": "uint256[]",
          "name": "",
          "type": "uint256[]"
        }
      ],
      "stateMutability": "view",
      "type": "function"
    },
    {
      "inputs": [
        {
          "internalType": "address",
          "name": "owner",
          "type": "address"
        },
        {
          "internalType": "uint256",
          "name": "id",
          "type": "uint256"
        },
        {
          "internalType": "uint256",
          "name": "value",
          "type": "uint256"
        }
      ],
      "name": "burn",
      "outputs": [],
      "stateMutability": "nonpayable",
      "type": "function"
    },
    {
      "inputs": [
        {
          "internalType": "address",
          "name": "owner",
          "type": "address"
        },
        {
          "internalType": "uint256[]",
          "name": "ids",
          "type": "uint256[]"
        },
        {
          "internalType": "uint256[]",
          "name": "values",
          "type": "uint256[]"
        }
      ],
      "name": "burnBatch",
      "outputs": [],
      "stateMutability": "nonpayable",
      "type": "function"
    },
    {
      "inputs": [
        {
          "internalType": "uint256",
          "name": "id",
          "type": "uint256"
        }
      ],
      "name": "exists",
      "outputs": [
        {
          "internalType": "bool",
          "name": "",
          "type": "bool"
        }
      ],
      "stateMutability": "view",
      "type": "function"
    },
    {
      "inputs": [
        {
          "internalType": "address",
          "name": "account",
          "type": "address"
        },
        {
          "internalType": "address",
          "name": "operator",
          "type": "address"
        }
      ],
      "name": "isApprovedForAll",
      "outputs": [
        {
          "internalType": "bool",
          "name": "",
          "type": "bool"
        }
      ],
      "stateMutability": "view",
      "type": "function"
    },
    {
      "inputs": [
        {
          "internalType": "address",
          "name": "to",
          "type": "address"
        },
        {
          "internalType": "uint256",
          "name": "id",
          "type": "uint256"
        },
        {
          "internalType": "uint256",
          "name": "value",
          "type": "uint256"
        },
        {
          "internalType": "bytes",
          "name": "data",
          "type": "bytes"
        }
      ],
      "name": "mint",
      "outputs": [],
      "stateMutability": "nonpayable",
      "type": "function"
    },
    {
      "inputs": [
        {
          "internalType": "address",
          "name": "to",
          "type": "address"
        },
        {
          "internalType": "uint256[]",
          "name": "ids",
          "type": "uint256[]"
        },
        {
          "internalType": "uint256[]",
          "name": "values",
          "type": "uint256[]"
        },
        {
          "internalType": "bytes",
          "name": "data",
          "type": "bytes"
        }
      ],
      "name": "mintBatch",
      "outputs": [],
      "stateMutability": "nonpayable",
      "type": "function"
    },
    {
      "inputs": [
        {
          "internalType": "address",
          "name": "from",
          "type": "address"
        },
        {
          "internalType": "address",
          "name": "to",
          "type": "address"
        },
        {
          "internalType": "uint256[]",
          "name": "ids",
          "type": "uint256[]"
        },
        {
          "internalType": "uint256[]",
          "name": "amounts",
          "type": "uint256[]"
        },
        {
          "internalType": "bytes",
          "name": "data",
          "type": "bytes"
        }
      ],
      "name": "safeBatchTransferFrom",
      "outputs": [],
      "stateMutability": "nonpayable",
      "type": "function"
    },
    {
      "inputs": [
        {
          "internalType": "address",
          "name": "from",
          "type": "address"
        },
        {
          "internalType": "address",
          "name": "to",
          "type": "address"
        },
        {
          "internalType": "uint256",
          "name": "id",
          "type": "uint256"
        },
        {
          "internalType": "uint256",
          "name": "amount",
          "type": "uint256"
        },
        {
          "internalType": "bytes",
          "name": "data",
          "type": "bytes"
        }
      ],
      "name": "safeTransferFrom",
      "outputs": [],
      "stateMutability": "nonpayable",
      "type": "function"
    },
    {
      "inputs": [
        {
          "internalType": "address",
          "name": "operator",
          "type": "address"
        },
        {
          "internalType": "bool",
          "name": "approved",
          "type": "bool"
        }
      ],
      "name": "setApprovalForAll",
      "outputs": [],
      "stateMutability": "nonpayable",
      "type": "function"
    },
    {
      "inputs": [
        {
          "internalType": "string",
          "name": "newuri",
          "type": "string"
        }
      ],
      "name": "setURI",
      "outputs": [],
      "stateMutability": "nonpayable",
      "type": "function"
    },
    {
      "inputs": [
        {
          "internalType": "bytes4",
          "name": "interfaceId",
          "type": "bytes4"
        }
      ],
      "name": "supportsInterface",
      "outputs": [
        {
          "internalType": "bool",
          "name": "",
          "type": "bool"
        }
      ],
      "stateMutability": "view",
      "type": "function"
    },
    {
      "inputs": [
        {
          "internalType": "uint256",
          "name": "id",
          "type": "uint256"
        }
      ],
      "name": "totalSupply",
      "outputs": [
        {
          "internalType": "uint256",
          "name": "",
          "type": "uint256"
        }
      ],
      "stateMutability": "view",
      "type": "function"
    },
    {
      "inputs": [
        {
          "internalType": "uint256",
          "name": "",
          "type": "uint256"
        }
      ],
      "name": "uri",
      "outputs": [
        {
          "internalType": "string",
          "name": "",
          "type": "string"
        }
      ],
      "stateMutability": "view",
      "type": "function"
    }
  ],
  "bytecode": "0x60806040523480156200001157600080fd5b506040516200225038038062002250833981016040819052620000349162000109565b808062000041816200004a565b50505062000232565b80516200005f90600290602084019062000063565b5050565b8280546200007190620001df565b90600052602060002090601f016020900481019282620000955760008555620000e0565b82601f10620000b057805160ff1916838001178555620000e0565b82800160010185558215620000e0579182015b82811115620000e0578251825591602001919060010190620000c3565b50620000ee929150620000f2565b5090565b5b80821115620000ee5760008155600101620000f3565b600060208083850312156200011c578182fd5b82516001600160401b038082111562000133578384fd5b818501915085601f83011262000147578384fd5b8151818111156200015c576200015c6200021c565b604051601f8201601f19908116603f011681019083821181831017156200018757620001876200021c565b8160405282815288868487010111156200019f578687fd5b8693505b82841015620001c25784840186015181850187015292850192620001a3565b82841115620001d357868684830101525b98975050505050505050565b600181811c90821680620001f457607f821691505b602082108114156200021657634e487b7160e01b600052602260045260246000fd5b50919050565b634e487b7160e01b600052604160045260246000fd5b61200e80620002426000396000f3fe608060405234801561001057600080fd5b50600436106100f45760003560e01c80634f558e7911610097578063bd85b03911610066578063bd85b03914610218578063e985e9c514610238578063f242432a14610274578063f5298aca14610287576100f4565b80634f558e79146101bd5780636b20c454146101df578063731133e9146101f2578063a22cb46514610205576100f4565b80630e89341c116100d35780630e89341c146101575780631f7fdffa146101775780632eb2c2d61461018a5780634e1273f41461019d576100f4565b8062fdd58e146100f957806301ffc9a71461011f57806302fe530514610142575b600080fd5b61010c61010736600461189d565b61029a565b6040519081526020015b60405180910390f35b61013261012d366004611a16565b610331565b6040519015158152602001610116565b610155610150366004611a4e565b610385565b005b61016a610165366004611a9c565b610391565b6040516101169190611c1d565b6101556101853660046117ce565b610425565b610155610198366004611654565b610437565b6101b06101ab36600461194b565b6104e0565b6040516101169190611bdc565b6101326101cb366004611a9c565b600090815260036020526040902054151590565b6101556101ed36600461175d565b610642565b6101556102003660046118f8565b610652565b610155610213366004611863565b61065e565b61010c610226366004611a9c565b60009081526003602052604090205490565b610132610246366004611622565b6001600160a01b03918216600090815260016020908152604080832093909416825291909152205460ff1690565b6101556102823660046116fa565b610772565b6101556102953660046118c6565b61080b565b60006001600160a01b03831661030b5760405162461bcd60e51b815260206004820152602b60248201527f455243313135353a2062616c616e636520717565727920666f7220746865207a60448201526a65726f206164647265737360a81b60648201526084015b60405180910390fd5b506000908152602081815260408083206001600160a01b03949094168352929052205490565b60006001600160e01b03198216636cdb3d1360e11b148061036257506001600160e01b031982166303a24d0760e21b145b8061037d57506301ffc9a760e01b6001600160e01b03198316145b90505b919050565b61038e81610816565b50565b6060600280546103a090611e6a565b80601f01602080910402602001604051908101604052809291908181526020018280546103cc90611e6a565b80156104195780601f106103ee57610100808354040283529160200191610419565b820191906000526020600020905b8154815290600101906020018083116103fc57829003601f168201915b50505050509050919050565b6104318484848461082d565b50505050565b61043f610839565b6001600160a01b0316856001600160a01b03161480610465575061046585610246610839565b6104cc5760405162461bcd60e51b815260206004820152603260248201527f455243313135353a207472616e736665722063616c6c6572206973206e6f74206044820152711bdddb995c881b9bdc88185c1c1c9bdd995960721b6064820152608401610302565b6104d9858585858561083e565b5050505050565b606081518351146105455760405162461bcd60e51b815260206004820152602960248201527f455243313135353a206163636f756e747320616e6420696473206c656e677468604482015268040dad2e6dac2e8c6d60bb1b6064820152608401610302565b6000835167ffffffffffffffff81111561056f57634e487b7160e01b600052604160045260246000fd5b604051908082528060200260200182016040528015610598578160200160208202803683370190505b50905060005b845181101561063a576105ff8582815181106105ca57634e487b7160e01b600052603260045260246000fd5b60200260200101518583815181106105f257634e487b7160e01b600052603260045260246000fd5b602002602001015161029a565b82828151811061061f57634e487b7160e01b600052603260045260246000fd5b602090810291909101015261063381611ed2565b905061059e565b509392505050565b61064d838383610a01565b505050565b61043184848484610a0c565b816001600160a01b0316610670610839565b6001600160a01b031614156106d95760405162461bcd60e51b815260206004820152602960248201527f455243313135353a2073657474696e6720617070726f76616c20737461747573604482015268103337b91039b2b63360b91b6064820152608401610302565b80600160006106e6610839565b6001600160a01b03908116825260208083019390935260409182016000908120918716808252919093529120805460ff19169215159290921790915561072a610839565b6001600160a01b03167f17307eab39ab6107e8899845ad3d59bd9653f200f220920489ca2b5937696c3183604051610766911515815260200190565b60405180910390a35050565b61077a610839565b6001600160a01b0316856001600160a01b031614806107a057506107a085610246610839565b6107fe5760405162461bcd60e51b815260206004820152602960248201527f455243313135353a2063616c6c6572206973206e6f74206f776e6572206e6f7260448201526808185c1c1c9bdd995960ba1b6064820152608401610302565b6104d98585858585610a18565b61064d838383610b49565b805161082990600290602084019061147a565b5050565b61043184848484610b54565b335b90565b815183511461085f5760405162461bcd60e51b815260040161030290611d8e565b6001600160a01b0384166108855760405162461bcd60e51b815260040161030290611cbc565b600061088f610839565b905060005b84518110156109935760008582815181106108bf57634e487b7160e01b600052603260045260246000fd5b6020026020010151905060008583815181106108eb57634e487b7160e01b600052603260045260246000fd5b602090810291909101810151600084815280835260408082206001600160a01b038e16835290935291909120549091508181101561093b5760405162461bcd60e51b815260040161030290611d44565b6000838152602081815260408083206001600160a01b038e8116855292528083208585039055908b16825281208054849290610978908490611e3b565b925050819055505050508061098c90611ed2565b9050610894565b50846001600160a01b0316866001600160a01b0316826001600160a01b03167f4a39dc06d4c0dbc64b70af90fd698a233a518aa5d07e595d983b8c0526c8f7fb87876040516109e3929190611bef565b60405180910390a46109f9818787878787610bf3565b505050505050565b61064d838383610d5e565b61043184848484610dfc565b6001600160a01b038416610a3e5760405162461bcd60e51b815260040161030290611cbc565b6000610a48610839565b9050610a62818787610a5988610e31565b6104d988610e31565b6000848152602081815260408083206001600160a01b038a16845290915290205483811015610aa35760405162461bcd60e51b815260040161030290611d44565b6000858152602081815260408083206001600160a01b038b8116855292528083208785039055908816825281208054869290610ae0908490611e3b565b909155505060408051868152602081018690526001600160a01b03808916928a821692918616917fc3d58168c5ae7397731d063d5bbf3d657854427343f4c083240f7aacaa2d0f62910160405180910390a4610b40828888888888610e8a565b50505050505050565b61064d838383610f54565b610b6084848484610f87565b60005b83518110156104d957828181518110610b8c57634e487b7160e01b600052603260045260246000fd5b602002602001015160036000868481518110610bb857634e487b7160e01b600052603260045260246000fd5b602002602001015181526020019081526020016000206000828254610bdd9190611e3b565b90915550610bec905081611ed2565b9050610b63565b6001600160a01b0384163b156109f95760405163bc197c8160e01b81526001600160a01b0385169063bc197c8190610c379089908990889088908890600401611b39565b602060405180830381600087803b158015610c5157600080fd5b505af1925050508015610c81575060408051601f3d908101601f19168201909252610c7e91810190611a32565b60015b610d2e57610c8d611f19565b806308c379a01415610cc75750610ca2611f30565b80610cad5750610cc9565b8060405162461bcd60e51b81526004016103029190611c1d565b505b60405162461bcd60e51b815260206004820152603460248201527f455243313135353a207472616e7366657220746f206e6f6e20455243313135356044820152732932b1b2b4bb32b91034b6b83632b6b2b73a32b960611b6064820152608401610302565b6001600160e01b0319811663bc197c8160e01b14610b405760405162461bcd60e51b815260040161030290611c30565b610d698383836110f9565b60005b825181101561043157818181518110610d9557634e487b7160e01b600052603260045260246000fd5b602002602001015160036000858481518110610dc157634e487b7160e01b600052603260045260246000fd5b602002602001015181526020019081526020016000206000828254610de69190611e53565b90915550610df5905081611ed2565b9050610d6c565b610e088484848461129b565b60008381526003602052604081208054849290610e26908490611e3b565b909155505050505050565b60408051600180825281830190925260609160009190602080830190803683370190505090508281600081518110610e7957634e487b7160e01b600052603260045260246000fd5b602090810291909101015292915050565b6001600160a01b0384163b156109f95760405163f23a6e6160e01b81526001600160a01b0385169063f23a6e6190610ece9089908990889088908890600401611b97565b602060405180830381600087803b158015610ee857600080fd5b505af1925050508015610f18575060408051601f3d908101601f19168201909252610f1591810190611a32565b60015b610f2457610c8d611f19565b6001600160e01b0319811663f23a6e6160e01b14610b405760405162461bcd60e51b815260040161030290611c30565b610f5f83838361136d565b60008281526003602052604081208054839290610f7d908490611e53565b9091555050505050565b6001600160a01b038416610fad5760405162461bcd60e51b815260040161030290611dd6565b8151835114610fce5760405162461bcd60e51b815260040161030290611d8e565b6000610fd8610839565b905060005b84518110156110915783818151811061100657634e487b7160e01b600052603260045260246000fd5b602002602001015160008087848151811061103157634e487b7160e01b600052603260045260246000fd5b602002602001015181526020019081526020016000206000886001600160a01b03166001600160a01b0316815260200190815260200160002060008282546110799190611e3b565b9091555081905061108981611ed2565b915050610fdd565b50846001600160a01b031660006001600160a01b0316826001600160a01b03167f4a39dc06d4c0dbc64b70af90fd698a233a518aa5d07e595d983b8c0526c8f7fb87876040516110e2929190611bef565b60405180910390a46104d981600087878787610bf3565b6001600160a01b03831661111f5760405162461bcd60e51b815260040161030290611d01565b80518251146111405760405162461bcd60e51b815260040161030290611d8e565b600061114a610839565b604080516020810190915260009052905060005b835181101561123c57600084828151811061118957634e487b7160e01b600052603260045260246000fd5b6020026020010151905060008483815181106111b557634e487b7160e01b600052603260045260246000fd5b602090810291909101810151600084815280835260408082206001600160a01b038c1683529093529190912054909150818110156112055760405162461bcd60e51b815260040161030290611c78565b6000928352602083815260408085206001600160a01b038b168652909152909220910390558061123481611ed2565b91505061115e565b5060006001600160a01b0316846001600160a01b0316826001600160a01b03167f4a39dc06d4c0dbc64b70af90fd698a233a518aa5d07e595d983b8c0526c8f7fb868660405161128d929190611bef565b60405180910390a450505050565b6001600160a01b0384166112c15760405162461bcd60e51b815260040161030290611dd6565b60006112cb610839565b90506112dd81600087610a5988610e31565b6000848152602081815260408083206001600160a01b03891684529091528120805485929061130d908490611e3b565b909155505060408051858152602081018590526001600160a01b0380881692600092918516917fc3d58168c5ae7397731d063d5bbf3d657854427343f4c083240f7aacaa2d0f62910160405180910390a46104d981600087878787610e8a565b6001600160a01b0383166113935760405162461bcd60e51b815260040161030290611d01565b600061139d610839565b90506113ce818560006113af87610e31565b6113b887610e31565b5050604080516020810190915260009052505050565b6000838152602081815260408083206001600160a01b03881684529091529020548281101561140f5760405162461bcd60e51b815260040161030290611c78565b6000848152602081815260408083206001600160a01b03898116808652918452828520888703905582518981529384018890529092908616917fc3d58168c5ae7397731d063d5bbf3d657854427343f4c083240f7aacaa2d0f62910160405180910390a45050505050565b82805461148690611e6a565b90600052602060002090601f0160209004810192826114a857600085556114ee565b82601f106114c157805160ff19168380011785556114ee565b828001600101855582156114ee579182015b828111156114ee5782518255916020019190600101906114d3565b506114fa9291506114fe565b5090565b5b808211156114fa57600081556001016114ff565b600067ffffffffffffffff83111561152d5761152d611f03565b604051611544601f8501601f191660200182611ea5565b80915083815284848401111561155957600080fd5b83836020830137600060208583010152509392505050565b80356001600160a01b038116811461038057600080fd5b600082601f830112611598578081fd5b813560206115a582611e17565b6040516115b28282611ea5565b8381528281019150858301600585901b870184018810156115d1578586fd5b855b858110156115ef578135845292840192908401906001016115d3565b5090979650505050505050565b600082601f83011261160c578081fd5b61161b83833560208501611513565b9392505050565b60008060408385031215611634578182fd5b61163d83611571565b915061164b60208401611571565b90509250929050565b600080600080600060a0868803121561166b578081fd5b61167486611571565b945061168260208701611571565b9350604086013567ffffffffffffffff8082111561169e578283fd5b6116aa89838a01611588565b945060608801359150808211156116bf578283fd5b6116cb89838a01611588565b935060808801359150808211156116e0578283fd5b506116ed888289016115fc565b9150509295509295909350565b600080600080600060a08688031215611711578081fd5b61171a86611571565b945061172860208701611571565b93506040860135925060608601359150608086013567ffffffffffffffff811115611751578182fd5b6116ed888289016115fc565b600080600060608486031215611771578283fd5b61177a84611571565b9250602084013567ffffffffffffffff80821115611796578384fd5b6117a287838801611588565b935060408601359150808211156117b7578283fd5b506117c486828701611588565b9150509250925092565b600080600080608085870312156117e3578384fd5b6117ec85611571565b9350602085013567ffffffffffffffff80821115611808578485fd5b61181488838901611588565b94506040870135915080821115611829578384fd5b61183588838901611588565b9350606087013591508082111561184a578283fd5b50611857878288016115fc565b91505092959194509250565b60008060408385031215611875578182fd5b61187e83611571565b915060208301358015158114611892578182fd5b809150509250929050565b600080604083850312156118af578182fd5b6118b883611571565b946020939093013593505050565b6000806000606084860312156118da578081fd5b6118e384611571565b95602085013595506040909401359392505050565b6000806000806080858703121561190d578182fd5b61191685611571565b93506020850135925060408501359150606085013567ffffffffffffffff81111561193f578182fd5b611857878288016115fc565b6000806040838503121561195d578182fd5b823567ffffffffffffffff80821115611974578384fd5b818501915085601f830112611987578384fd5b8135602061199482611e17565b6040516119a18282611ea5565b8381528281019150858301600585901b870184018b10156119c0578889fd5b8896505b848710156119e9576119d581611571565b8352600196909601959183019183016119c4565b50965050860135925050808211156119ff578283fd5b50611a0c85828601611588565b9150509250929050565b600060208284031215611a27578081fd5b813561161b81611fc2565b600060208284031215611a43578081fd5b815161161b81611fc2565b600060208284031215611a5f578081fd5b813567ffffffffffffffff811115611a75578182fd5b8201601f81018413611a85578182fd5b611a9484823560208401611513565b949350505050565b600060208284031215611aad578081fd5b5035919050565b6000815180845260208085019450808401835b83811015611ae357815187529582019590820190600101611ac7565b509495945050505050565b60008151808452815b81811015611b1357602081850181015186830182015201611af7565b81811115611b245782602083870101525b50601f01601f19169290920160200192915050565b6001600160a01b0386811682528516602082015260a060408201819052600090611b6590830186611ab4565b8281036060840152611b778186611ab4565b90508281036080840152611b8b8185611aee565b98975050505050505050565b6001600160a01b03868116825285166020820152604081018490526060810183905260a060808201819052600090611bd190830184611aee565b979650505050505050565b60006020825261161b6020830184611ab4565b600060408252611c026040830185611ab4565b8281036020840152611c148185611ab4565b95945050505050565b60006020825261161b6020830184611aee565b60208082526028908201527f455243313135353a204552433131353552656365697665722072656a656374656040820152676420746f6b656e7360c01b606082015260800190565b60208082526024908201527f455243313135353a206275726e20616d6f756e7420657863656564732062616c604082015263616e636560e01b606082015260800190565b60208082526025908201527f455243313135353a207472616e7366657220746f20746865207a65726f206164604082015264647265737360d81b606082015260800190565b60208082526023908201527f455243313135353a206275726e2066726f6d20746865207a65726f206164647260408201526265737360e81b606082015260800190565b6020808252602a908201527f455243313135353a20696e73756666696369656e742062616c616e636520666f60408201526939103a3930b739b332b960b11b606082015260800190565b60208082526028908201527f455243313135353a2069647320616e6420616d6f756e7473206c656e677468206040820152670dad2e6dac2e8c6d60c31b606082015260800190565b60208082526021908201527f455243313135353a206d696e7420746f20746865207a65726f206164647265736040820152607360f81b606082015260800190565b600067ffffffffffffffff821115611e3157611e31611f03565b5060051b60200190565b60008219821115611e4e57611e4e611eed565b500190565b600082821015611e6557611e65611eed565b500390565b600181811c90821680611e7e57607f821691505b60208210811415611e9f57634e487b7160e01b600052602260045260246000fd5b50919050565b601f8201601f1916810167ffffffffffffffff81118282101715611ecb57611ecb611f03565b6040525050565b6000600019821415611ee657611ee6611eed565b5060010190565b634e487b7160e01b600052601160045260246000fd5b634e487b7160e01b600052604160045260246000fd5b600060033d111561083b57600481823e5160e01c90565b600060443d1015611f405761083b565b6040516003193d81016004833e81513d67ffffffffffffffff8160248401118184111715611f7257505050505061083b565b8285019150815181811115611f8c5750505050505061083b565b843d8701016020828501011115611fa85750505050505061083b565b611fb760208286010187611ea5565b509094505050505090565b6001600160e01b03198116811461038e57600080fdfea2646970667358221220aa85b1324f84c1b6938e678804dbdf86e24f1a63e6eff07a162e57236cc4261b64736f6c63430008030033",
  "linkReferences": {},
  "deployedLinkReferences": {}
}