{
  "_format": "hh-sol-artifact-1",
  "contractName": "ERC20CappedMock",
  "sourceName": "contracts/mocks/ERC20CappedMock.sol",
  "abi": [
    {
      "inputs": [
        {
          "internalType": "string",
          "name": "name",
          "type": "string"
        },
        {
          "internalType": "string",
          "name": "symbol",
          "type": "string"
        },
        {
          "internalType": "uint256",
          "name": "cap",
          "type": "uint256"
        }
      ],
      "stateMutability": "nonpayable",
      "type": "constructor"
    },
    {
      "anonymous": false,
      "inputs": [
        {
          "indexed": true,
          "internalType": "address",
          "name": "owner",
          "type": "address"
        },
        {
          "indexed": true,
          "internalType": "address",
          "name": "spender",
          "type": "address"
        },
        {
          "indexed": false,
          "internalType": "uint256",
          "name": "value",
          "type": "uint256"
        }
      ],
      "name": "Approval",
      "type": "event"
    },
    {
      "anonymous": false,
      "inputs": [
        {
          "indexed": true,
          "internalType": "address",
          "name": "from",
          "type": "address"
        },
        {
          "indexed": true,
          "internalType": "address",
          "name": "to",
          "type": "address"
        },
        {
          "indexed": false,
          "internalType": "uint256",
          "name": "value",
          "type": "uint256"
        }
      ],
      "name": "Transfer",
      "type": "event"
    },
    {
      "inputs": [
        {
          "internalType": "address",
          "name": "owner",
          "type": "address"
        },
        {
          "internalType": "address",
          "name": "spender",
          "type": "address"
        }
      ],
      "name": "allowance",
      "outputs": [
        {
          "internalType": "uint256",
          "name": "",
          "type": "uint256"
        }
      ],
      "stateMutability": "view",
      "type": "function"
    },
    {
      "inputs": [
        {
          "internalType": "address",
          "name": "spender",
          "type": "address"
        },
        {
          "internalType": "uint256",
          "name": "amount",
          "type": "uint256"
        }
      ],
      "name": "approve",
      "outputs": [
        {
          "internalType": "bool",
          "name": "",
          "type": "bool"
        }
      ],
      "stateMutability": "nonpayable",
      "type": "function"
    },
    {
      "inputs": [
        {
          "internalType": "address",
          "name": "account",
          "type": "address"
        }
      ],
      "name": "balanceOf",
      "outputs": [
        {
          "internalType": "uint256",
          "name": "",
          "type": "uint256"
        }
      ],
      "stateMutability": "view",
      "type": "function"
    },
    {
      "inputs": [],
      "name": "cap",
      "outputs": [
        {
          "internalType": "uint256",
          "name": "",
          "type": "uint256"
        }
      ],
      "stateMutability": "view",
      "type": "function"
    },
    {
      "inputs": [],
      "name": "decimals",
      "outputs": [
        {
          "internalType": "uint8",
          "name": "",
          "type": "uint8"
        }
      ],
      "stateMutability": "view",
      "type": "function"
    },
    {
      "inputs": [
        {
          "internalType": "address",
          "name": "spender",
          "type": "address"
        },
        {
          "internalType": "uint256",
          "name": "subtractedValue",
          "type": "uint256"
        }
      ],
      "name": "decreaseAllowance",
      "outputs": [
        {
          "internalType": "bool",
          "name": "",
          "type": "bool"
        }
      ],
      "stateMutability": "nonpayable",
      "type": "function"
    },
    {
      "inputs": [
        {
          "internalType": "address",
          "name": "spender",
          "type": "address"
        },
        {
          "internalType": "uint256",
          "name": "addedValue",
          "type": "uint256"
        }
      ],
      "name": "increaseAllowance",
      "outputs": [
        {
          "internalType": "bool",
          "name": "",
          "type": "bool"
        }
      ],
      "stateMutability": "nonpayable",
      "type": "function"
    },
    {
      "inputs": [
        {
          "internalType": "address",
          "name": "to",
          "type": "address"
        },
        {
          "internalType": "uint256",
          "name": "tokenId",
          "type": "uint256"
        }
      ],
      "name": "mint",
      "outputs": [],
      "stateMutability": "nonpayable",
      "type": "function"
    },
    {
      "inputs": [],
      "name": "name",
      "outputs": [
        {
          "internalType": "string",
          "name": "",
          "type": "string"
        }
      ],
      "stateMutability": "view",
      "type": "function"
    },
    {
      "inputs": [],
      "name": "symbol",
      "outputs": [
        {
          "internalType": "string",
          "name": "",
          "type": "string"
        }
      ],
      "stateMutability": "view",
      "type": "function"
    },
    {
      "inputs": [],
      "name": "totalSupply",
      "outputs": [
        {
          "internalType": "uint256",
          "name": "",
          "type": "uint256"
        }
      ],
      "stateMutability": "view",
      "type": "function"
    },
    {
      "inputs": [
        {
          "internalType": "address",
          "name": "recipient",
          "type": "address"
        },
        {
          "internalType": "uint256",
          "name": "amount",
          "type": "uint256"
        }
      ],
      "name": "transfer",
      "outputs": [
        {
          "internalType": "bool",
          "name": "",
          "type": "bool"
        }
      ],
      "stateMutability": "nonpayable",
      "type": "function"
    },
    {
      "inputs": [
        {
          "internalType": "address",
          "name": "sender",
          "type": "address"
        },
        {
          "internalType": "address",
          "name": "recipient",
          "type": "address"
        },
        {
          "internalType": "uint256",
          "name": "amount",
          "type": "uint256"
        }
      ],
      "name": "transferFrom",
      "outputs": [
        {
          "internalType": "bool",
          "name": "",
          "type": "bool"
        }
      ],
      "stateMutability": "nonpayable",
      "type": "function"
    }
  ],
  "bytecode": "0x60a06040523480156200001157600080fd5b5060405162000da038038062000da0833981016040819052620000349162000223565b80838381600390805190602001906200004f929190620000ca565b50805162000065906004906020840190620000ca565b50505060008111620000bd5760405162461bcd60e51b815260206004820152601560248201527f45524332304361707065643a2063617020697320300000000000000000000000604482015260640160405180910390fd5b60805250620002e6915050565b828054620000d89062000293565b90600052602060002090601f016020900481019282620000fc576000855562000147565b82601f106200011757805160ff191683800117855562000147565b8280016001018555821562000147579182015b82811115620001475782518255916020019190600101906200012a565b506200015592915062000159565b5090565b5b808211156200015557600081556001016200015a565b600082601f83011262000181578081fd5b81516001600160401b03808211156200019e576200019e620002d0565b604051601f8301601f19908116603f01168101908282118183101715620001c957620001c9620002d0565b81604052838152602092508683858801011115620001e5578485fd5b8491505b83821015620002085785820183015181830184015290820190620001e9565b838211156200021957848385830101525b9695505050505050565b60008060006060848603121562000238578283fd5b83516001600160401b03808211156200024f578485fd5b6200025d8783880162000170565b9450602086015191508082111562000273578384fd5b50620002828682870162000170565b925050604084015190509250925092565b600181811c90821680620002a857607f821691505b60208210811415620002ca57634e487b7160e01b600052602260045260246000fd5b50919050565b634e487b7160e01b600052604160045260246000fd5b608051610a97620003096000396000818161014b015261077b0152610a976000f3fe608060405234801561001057600080fd5b50600436106100cf5760003560e01c8063395093511161008c57806395d89b411161006657806395d89b41146101aa578063a457c2d7146101b2578063a9059cbb146101c5578063dd62ed3e146101d8576100cf565b8063395093511461016f57806340c10f191461018257806370a0823114610197576100cf565b806306fdde03146100d4578063095ea7b3146100f257806318160ddd1461011557806323b872dd14610127578063313ce5671461013a578063355274ea14610149575b600080fd5b6100dc610211565b6040516100e991906109af565b60405180910390f35b610105610100366004610986565b6102a3565b60405190151581526020016100e9565b6002545b6040519081526020016100e9565b61010561013536600461094b565b6102b9565b604051601281526020016100e9565b7f0000000000000000000000000000000000000000000000000000000000000000610119565b61010561017d366004610986565b610368565b610195610190366004610986565b6103a4565b005b6101196101a53660046108f8565b6103b2565b6100dc6103d1565b6101056101c0366004610986565b6103e0565b6101056101d3366004610986565b610479565b6101196101e6366004610919565b6001600160a01b03918216600090815260016020908152604080832093909416825291909152205490565b60606003805461022090610a26565b80601f016020809104026020016040519081016040528092919081815260200182805461024c90610a26565b80156102995780601f1061026e57610100808354040283529160200191610299565b820191906000526020600020905b81548152906001019060200180831161027c57829003601f168201915b5050505050905090565b60006102b0338484610486565b50600192915050565b60006102c68484846105aa565b6001600160a01b0384166000908152600160209081526040808320338452909152902054828110156103505760405162461bcd60e51b815260206004820152602860248201527f45524332303a207472616e7366657220616d6f756e74206578636565647320616044820152676c6c6f77616e636560c01b60648201526084015b60405180910390fd5b61035d8533858403610486565b506001949350505050565b3360008181526001602090815260408083206001600160a01b038716845290915281205490916102b091859061039f908690610a02565b610486565b6103ae8282610779565b5050565b6001600160a01b0381166000908152602081905260409020545b919050565b60606004805461022090610a26565b3360009081526001602090815260408083206001600160a01b0386168452909152812054828110156104625760405162461bcd60e51b815260206004820152602560248201527f45524332303a2064656372656173656420616c6c6f77616e63652062656c6f77604482015264207a65726f60d81b6064820152608401610347565b61046f3385858403610486565b5060019392505050565b60006102b03384846105aa565b6001600160a01b0383166104e85760405162461bcd60e51b8152602060048201526024808201527f45524332303a20617070726f76652066726f6d20746865207a65726f206164646044820152637265737360e01b6064820152608401610347565b6001600160a01b0382166105495760405162461bcd60e51b815260206004820152602260248201527f45524332303a20617070726f766520746f20746865207a65726f206164647265604482015261737360f01b6064820152608401610347565b6001600160a01b0383811660008181526001602090815260408083209487168084529482529182902085905590518481527f8c5be1e5ebec7d5bd14f71427d1e84f3dd0314c0f7b2291e5b200ac8c7c3b925910160405180910390a3505050565b6001600160a01b03831661060e5760405162461bcd60e51b815260206004820152602560248201527f45524332303a207472616e736665722066726f6d20746865207a65726f206164604482015264647265737360d81b6064820152608401610347565b6001600160a01b0382166106705760405162461bcd60e51b815260206004820152602360248201527f45524332303a207472616e7366657220746f20746865207a65726f206164647260448201526265737360e81b6064820152608401610347565b6001600160a01b038316600090815260208190526040902054818110156106e85760405162461bcd60e51b815260206004820152602660248201527f45524332303a207472616e7366657220616d6f756e7420657863656564732062604482015265616c616e636560d01b6064820152608401610347565b6001600160a01b0380851660009081526020819052604080822085850390559185168152908120805484929061071f908490610a02565b92505081905550826001600160a01b0316846001600160a01b03167fddf252ad1be2c89b69c2b068fc378daa952ba7f163c4a11628f55a4df523b3ef8460405161076b91815260200190565b60405180910390a350505050565b7f0000000000000000000000000000000000000000000000000000000000000000816107a460025490565b6107ae9190610a02565b11156107fc5760405162461bcd60e51b815260206004820152601960248201527f45524332304361707065643a20636170206578636565646564000000000000006044820152606401610347565b6103ae82826001600160a01b0382166108575760405162461bcd60e51b815260206004820152601f60248201527f45524332303a206d696e7420746f20746865207a65726f2061646472657373006044820152606401610347565b80600260008282546108699190610a02565b90915550506001600160a01b03821660009081526020819052604081208054839290610896908490610a02565b90915550506040518181526001600160a01b038316906000907fddf252ad1be2c89b69c2b068fc378daa952ba7f163c4a11628f55a4df523b3ef9060200160405180910390a36103ae565b80356001600160a01b03811681146103cc57600080fd5b600060208284031215610909578081fd5b610912826108e1565b9392505050565b6000806040838503121561092b578081fd5b610934836108e1565b9150610942602084016108e1565b90509250929050565b60008060006060848603121561095f578081fd5b610968846108e1565b9250610976602085016108e1565b9150604084013590509250925092565b60008060408385031215610998578182fd5b6109a1836108e1565b946020939093013593505050565b6000602080835283518082850152825b818110156109db578581018301518582016040015282016109bf565b818111156109ec5783604083870101525b50601f01601f1916929092016040019392505050565b60008219821115610a2157634e487b7160e01b81526011600452602481fd5b500190565b600181811c90821680610a3a57607f821691505b60208210811415610a5b57634e487b7160e01b600052602260045260246000fd5b5091905056fea26469706673582212206d5ac3a8737eef3bbb223bcd31e640d5b698b857ef785aaf4f1b2a6f49084fbf64736f6c63430008030033",
  "linkReferences": {},
  "deployedLinkReferences": {}
}