{
    "contractName": "NEXTART",
    "abi": [
        {
            "inputs": [],
            "stateMutability": "nonpayable",
            "type": "constructor"
        },
        {
            "anonymous": false,
            "inputs": [
                {
                    "indexed": true,
                    "internalType": "address",
                    "name": "owner",
                    "type": "address"
                },
                {
                    "indexed": true,
                    "internalType": "address",
                    "name": "spender",
                    "type": "address"
                },
                {
                    "indexed": false,
                    "internalType": "uint256",
                    "name": "value",
                    "type": "uint256"
                }
            ],
            "name": "Approval",
            "type": "event"
        },
        {
            "anonymous": false,
            "inputs": [
                {
                    "indexed": true,
                    "internalType": "address",
                    "name": "previousOwner",
                    "type": "address"
                },
                {
                    "indexed": true,
                    "internalType": "address",
                    "name": "newOwner",
                    "type": "address"
                }
            ],
            "name": "OwnershipTransferred",
            "type": "event"
        },
        {
            "anonymous": false,
            "inputs": [
                {
                    "indexed": true,
                    "internalType": "address",
                    "name": "from",
                    "type": "address"
                },
                {
                    "indexed": true,
                    "internalType": "address",
                    "name": "to",
                    "type": "address"
                },
                {
                    "indexed": false,
                    "internalType": "uint256",
                    "name": "value",
                    "type": "uint256"
                }
            ],
            "name": "Transfer",
            "type": "event"
        },
        {
            "inputs": [],
            "name": "_burnStopAmount",
            "outputs": [
                {
                    "internalType": "uint256",
                    "name": "",
                    "type": "uint256"
                }
            ],
            "stateMutability": "view",
            "type": "function"
        },
        {
            "inputs": [],
            "name": "_lastTokenSupply",
            "outputs": [
                {
                    "internalType": "uint256",
                    "name": "",
                    "type": "uint256"
                }
            ],
            "stateMutability": "view",
            "type": "function"
        },
        {
            "inputs": [
                {
                    "internalType": "address",
                    "name": "owner",
                    "type": "address"
                },
                {
                    "internalType": "address",
                    "name": "spender",
                    "type": "address"
                }
            ],
            "name": "allowance",
            "outputs": [
                {
                    "internalType": "uint256",
                    "name": "",
                    "type": "uint256"
                }
            ],
            "stateMutability": "view",
            "type": "function"
        },
        {
            "inputs": [
                {
                    "internalType": "address",
                    "name": "spender",
                    "type": "address"
                },
                {
                    "internalType": "uint256",
                    "name": "amount",
                    "type": "uint256"
                }
            ],
            "name": "approve",
            "outputs": [
                {
                    "internalType": "bool",
                    "name": "",
                    "type": "bool"
                }
            ],
            "stateMutability": "nonpayable",
            "type": "function"
        },
        {
            "inputs": [
                {
                    "internalType": "address",
                    "name": "account",
                    "type": "address"
                }
            ],
            "name": "balanceOf",
            "outputs": [
                {
                    "internalType": "uint256",
                    "name": "",
                    "type": "uint256"
                }
            ],
            "stateMutability": "view",
            "type": "function"
        },
        {
            "inputs": [],
            "name": "basePercent",
            "outputs": [
                {
                    "internalType": "uint256",
                    "name": "",
                    "type": "uint256"
                }
            ],
            "stateMutability": "view",
            "type": "function"
        },
        {
            "inputs": [],
            "name": "decimals",
            "outputs": [
                {
                    "internalType": "uint8",
                    "name": "",
                    "type": "uint8"
                }
            ],
            "stateMutability": "view",
            "type": "function"
        },
        {
            "inputs": [
                {
                    "internalType": "address",
                    "name": "spender",
                    "type": "address"
                },
                {
                    "internalType": "uint256",
                    "name": "subtractedValue",
                    "type": "uint256"
                }
            ],
            "name": "decreaseAllowance",
            "outputs": [
                {
                    "internalType": "bool",
                    "name": "",
                    "type": "bool"
                }
            ],
            "stateMutability": "nonpayable",
            "type": "function"
        },
        {
            "inputs": [
                {
                    "internalType": "address",
                    "name": "spender",
                    "type": "address"
                },
                {
                    "internalType": "uint256",
                    "name": "addedValue",
                    "type": "uint256"
                }
            ],
            "name": "increaseAllowance",
            "outputs": [
                {
                    "internalType": "bool",
                    "name": "",
                    "type": "bool"
                }
            ],
            "stateMutability": "nonpayable",
            "type": "function"
        },
        {
            "inputs": [],
            "name": "name",
            "outputs": [
                {
                    "internalType": "string",
                    "name": "",
                    "type": "string"
                }
            ],
            "stateMutability": "view",
            "type": "function"
        },
        {
            "inputs": [],
            "name": "owner",
            "outputs": [
                {
                    "internalType": "address",
                    "name": "",
                    "type": "address"
                }
            ],
            "stateMutability": "view",
            "type": "function"
        },
        {
            "inputs": [],
            "name": "renounceOwnership",
            "outputs": [],
            "stateMutability": "nonpayable",
            "type": "function"
        },
        {
            "inputs": [],
            "name": "symbol",
            "outputs": [
                {
                    "internalType": "string",
                    "name": "",
                    "type": "string"
                }
            ],
            "stateMutability": "view",
            "type": "function"
        },
        {
            "inputs": [],
            "name": "totalSupply",
            "outputs": [
                {
                    "internalType": "uint256",
                    "name": "",
                    "type": "uint256"
                }
            ],
            "stateMutability": "view",
            "type": "function"
        },
        {
            "inputs": [
                {
                    "internalType": "address",
                    "name": "recipient",
                    "type": "address"
                },
                {
                    "internalType": "uint256",
                    "name": "amount",
                    "type": "uint256"
                }
            ],
            "name": "transfer",
            "outputs": [
                {
                    "internalType": "bool",
                    "name": "",
                    "type": "bool"
                }
            ],
            "stateMutability": "nonpayable",
            "type": "function"
        },
        {
            "inputs": [
                {
                    "internalType": "address",
                    "name": "sender",
                    "type": "address"
                },
                {
                    "internalType": "address",
                    "name": "recipient",
                    "type": "address"
                },
                {
                    "internalType": "uint256",
                    "name": "amount",
                    "type": "uint256"
                }
            ],
            "name": "transferFrom",
            "outputs": [
                {
                    "internalType": "bool",
                    "name": "",
                    "type": "bool"
                }
            ],
            "stateMutability": "nonpayable",
            "type": "function"
        },
        {
            "inputs": [
                {
                    "internalType": "address",
                    "name": "newOwner",
                    "type": "address"
                }
            ],
            "name": "transferOwnership",
            "outputs": [],
            "stateMutability": "nonpayable",
            "type": "function"
        }
    ],
    "bytecode": "6080604052670de0b6b3a764000060065560646007553480156200002257600080fd5b5060408051808201825260088152671b995e1d08185c9d60c21b6020808301918252835180850190945260058452644e4558547360d81b9084015281519192916200007091600391620002dd565b50805162000086906004906020840190620002dd565b505050620000a36200009d620000cd60201b60201c565b620000d1565b620000b7336006546200012360201b60201c565b6000600855620000c7336200020c565b620003e7565b3390565b600580546001600160a01b038381166001600160a01b0319831681179093556040519116919082907f8be0079c531659141344cd1fd0a4f28419497f9722a3daafe3b4186f6b6457e090600090a35050565b6001600160a01b0382166200017f5760405162461bcd60e51b815260206004820152601f60248201527f45524332303a206d696e7420746f20746865207a65726f20616464726573730060448201526064015b60405180910390fd5b806002600082825462000193919062000383565b90915550506001600160a01b03821660009081526020819052604081208054839290620001c290849062000383565b90915550506040518181526001600160a01b038316906000907fddf252ad1be2c89b69c2b068fc378daa952ba7f163c4a11628f55a4df523b3ef9060200160405180910390a35050565b6005546001600160a01b03163314620002685760405162461bcd60e51b815260206004820181905260248201527f4f776e61626c653a2063616c6c6572206973206e6f7420746865206f776e6572604482015260640162000176565b6001600160a01b038116620002cf5760405162461bcd60e51b815260206004820152602660248201527f4f776e61626c653a206e6577206f776e657220697320746865207a65726f206160448201526564647265737360d01b606482015260840162000176565b620002da81620000d1565b50565b828054620002eb90620003aa565b90600052602060002090601f0160209004810192826200030f57600085556200035a565b82601f106200032a57805160ff19168380011785556200035a565b828001600101855582156200035a579182015b828111156200035a5782518255916020019190600101906200033d565b50620003689291506200036c565b5090565b5b808211156200036857600081556001016200036d565b60008219821115620003a557634e487b7160e01b600052601160045260246000fd5b500190565b600181811c90821680620003bf57607f821691505b60208210811415620003e157634e487b7160e01b600052602260045260246000fd5b50919050565b610afc80620003f76000396000f3fe608060405234801561001057600080fd5b506004361061010b5760003560e01c80638da5cb5b116100a2578063a9059cbb11610071578063a9059cbb1461020a578063c5ac0ded1461021d578063dd62ed3e14610226578063e50e97ab1461025f578063f2fde38b1461026857600080fd5b80638da5cb5b146101cb57806395d89b41146101e6578063a39c13e7146101ee578063a457c2d7146101f757600080fd5b8063313ce567116100de578063313ce56714610176578063395093511461018557806370a0823114610198578063715018a6146101c157600080fd5b806306fdde0314610110578063095ea7b31461012e57806318160ddd1461015157806323b872dd14610163575b600080fd5b61011861027b565b6040516101259190610a10565b60405180910390f35b61014161013c3660046109e6565b61030d565b6040519015158152602001610125565b6002545b604051908152602001610125565b6101416101713660046109aa565b610323565b60405160128152602001610125565b6101416101933660046109e6565b6103d2565b6101556101a6366004610955565b6001600160a01b031660009081526020819052604090205490565b6101c961040e565b005b6005546040516001600160a01b039091168152602001610125565b610118610474565b61015560085481565b6101416102053660046109e6565b610483565b6101416102183660046109e6565b61051c565b61015560075481565b610155610234366004610977565b6001600160a01b03918216600090815260016020908152604080832093909416825291909152205490565b61015560095481565b6101c9610276366004610955565b610529565b60606003805461028a90610a8b565b80601f01602080910402602001604051908101604052809291908181526020018280546102b690610a8b565b80156103035780601f106102d857610100808354040283529160200191610303565b820191906000526020600020905b8154815290600101906020018083116102e657829003601f168201915b5050505050905090565b600061031a3384846105f4565b50600192915050565b6000610330848484610718565b6001600160a01b0384166000908152600160209081526040808320338452909152902054828110156103ba5760405162461bcd60e51b815260206004820152602860248201527f45524332303a207472616e7366657220616d6f756e74206578636565647320616044820152676c6c6f77616e636560c01b60648201526084015b60405180910390fd5b6103c785338584036105f4565b506001949350505050565b3360008181526001602090815260408083206001600160a01b0387168452909152812054909161031a918590610409908690610a65565b6105f4565b6005546001600160a01b031633146104685760405162461bcd60e51b815260206004820181905260248201527f4f776e61626c653a2063616c6c6572206973206e6f7420746865206f776e657260448201526064016103b1565b61047260006108e7565b565b60606004805461028a90610a8b565b3360009081526001602090815260408083206001600160a01b0386168452909152812054828110156105055760405162461bcd60e51b815260206004820152602560248201527f45524332303a2064656372656173656420616c6c6f77616e63652062656c6f77604482015264207a65726f60d81b60648201526084016103b1565b61051233858584036105f4565b5060019392505050565b600061031a338484610718565b6005546001600160a01b031633146105835760405162461bcd60e51b815260206004820181905260248201527f4f776e61626c653a2063616c6c6572206973206e6f7420746865206f776e657260448201526064016103b1565b6001600160a01b0381166105e85760405162461bcd60e51b815260206004820152602660248201527f4f776e61626c653a206e6577206f776e657220697320746865207a65726f206160448201526564647265737360d01b60648201526084016103b1565b6105f1816108e7565b50565b6001600160a01b0383166106565760405162461bcd60e51b8152602060048201526024808201527f45524332303a20617070726f76652066726f6d20746865207a65726f206164646044820152637265737360e01b60648201526084016103b1565b6001600160a01b0382166106b75760405162461bcd60e51b815260206004820152602260248201527f45524332303a20617070726f766520746f20746865207a65726f206164647265604482015261737360f01b60648201526084016103b1565b6001600160a01b0383811660008181526001602090815260408083209487168084529482529182902085905590518481527f8c5be1e5ebec7d5bd14f71427d1e84f3dd0314c0f7b2291e5b200ac8c7c3b925910160405180910390a3505050565b6001600160a01b03831661077c5760405162461bcd60e51b815260206004820152602560248201527f45524332303a207472616e736665722066726f6d20746865207a65726f206164604482015264647265737360d81b60648201526084016103b1565b6001600160a01b0382166107de5760405162461bcd60e51b815260206004820152602360248201527f45524332303a207472616e7366657220746f20746865207a65726f206164647260448201526265737360e81b60648201526084016103b1565b6001600160a01b038316600090815260208190526040902054818110156108565760405162461bcd60e51b815260206004820152602660248201527f45524332303a207472616e7366657220616d6f756e7420657863656564732062604482015265616c616e636560d01b60648201526084016103b1565b6001600160a01b0380851660009081526020819052604080822085850390559185168152908120805484929061088d908490610a65565b92505081905550826001600160a01b0316846001600160a01b03167fddf252ad1be2c89b69c2b068fc378daa952ba7f163c4a11628f55a4df523b3ef846040516108d991815260200190565b60405180910390a350505050565b600580546001600160a01b038381166001600160a01b0319831681179093556040519116919082907f8be0079c531659141344cd1fd0a4f28419497f9722a3daafe3b4186f6b6457e090600090a35050565b80356001600160a01b038116811461095057600080fd5b919050565b60006020828403121561096757600080fd5b61097082610939565b9392505050565b6000806040838503121561098a57600080fd5b61099383610939565b91506109a160208401610939565b90509250929050565b6000806000606084860312156109bf57600080fd5b6109c884610939565b92506109d660208501610939565b9150604084013590509250925092565b600080604083850312156109f957600080fd5b610a0283610939565b946020939093013593505050565b600060208083528351808285015260005b81811015610a3d57858101830151858201604001528201610a21565b81811115610a4f576000604083870101525b50601f01601f1916929092016040019392505050565b60008219821115610a8657634e487b7160e01b600052601160045260246000fd5b500190565b600181811c90821680610a9f57607f821691505b60208210811415610ac057634e487b7160e01b600052602260045260246000fd5b5091905056fea264697066735822122097a92a12ffa7af98f4f6b1a8f1069d10f2f655b4e4b5e4db6e670daf8164d85464736f6c63430008060033",
    "sourcePath": "/Users/Shared/crypto/nextart/contact/ERC20NextArt.sol",
    "compiler": {
        "name": "solc",
        "version": "0.8.6+commit.11564f7e"
    },
    "functionHashes": {
        "_burnStopAmount()": "a39c13e7",
        "_lastTokenSupply()": "e50e97ab",
        "allowance(address,address)": "dd62ed3e",
        "approve(address,uint256)": "095ea7b3",
        "balanceOf(address)": "70a08231",
        "basePercent()": "c5ac0ded",
        "decimals()": "313ce567",
        "decreaseAllowance(address,uint256)": "a457c2d7",
        "increaseAllowance(address,uint256)": "39509351",
        "name()": "06fdde03",
        "owner()": "8da5cb5b",
        "renounceOwnership()": "715018a6",
        "symbol()": "95d89b41",
        "totalSupply()": "18160ddd",
        "transfer(address,uint256)": "a9059cbb",
        "transferFrom(address,address,uint256)": "23b872dd",
        "transferOwnership(address)": "f2fde38b"
    },
    "gasEstimates": {
        "creation": {
            "codeDepositCost": "562400",
            "executionCost": "infinite",
            "totalCost": "infinite"
        },
        "external": {
            "_burnStopAmount()": "2362",
            "_lastTokenSupply()": "2383",
            "allowance(address,address)": "infinite",
            "approve(address,uint256)": "24642",
            "balanceOf(address)": "2607",
            "basePercent()": "2339",
            "decimals()": "200",
            "decreaseAllowance(address,uint256)": "26977",
            "increaseAllowance(address,uint256)": "26979",
            "name()": "infinite",
            "owner()": "2324",
            "renounceOwnership()": "28206",
            "symbol()": "infinite",
            "totalSupply()": "2349",
            "transfer(address,uint256)": "51187",
            "transferFrom(address,address,uint256)": "infinite",
            "transferOwnership(address)": "28422"
        }
    }
}