{
  "_format": "hh-sol-artifact-1",
  "contractName": "BitMapMock",
  "sourceName": "contracts/mocks/BitmapMock.sol",
  "abi": [
    {
      "inputs": [
        {
          "internalType": "uint256",
          "name": "index",
          "type": "uint256"
        }
      ],
      "name": "get",
      "outputs": [
        {
          "internalType": "bool",
          "name": "",
          "type": "bool"
        }
      ],
      "stateMutability": "view",
      "type": "function"
    },
    {
      "inputs": [
        {
          "internalType": "uint256",
          "name": "index",
          "type": "uint256"
        }
      ],
      "name": "set",
      "outputs": [],
      "stateMutability": "nonpayable",
      "type": "function"
    },
    {
      "inputs": [
        {
          "internalType": "uint256",
          "name": "index",
          "type": "uint256"
        },
        {
          "internalType": "bool",
          "name": "value",
          "type": "bool"
        }
      ],
      "name": "setTo",
      "outputs": [],
      "stateMutability": "nonpayable",
      "type": "function"
    },
    {
      "inputs": [
        {
          "internalType": "uint256",
          "name": "index",
          "type": "uint256"
        }
      ],
      "name": "unset",
      "outputs": [],
      "stateMutability": "nonpayable",
      "type": "function"
    }
  ],
  "bytecode": "0x608060405234801561001057600080fd5b5061028e806100206000396000f3fe608060405234801561001057600080fd5b506004361061004c5760003560e01c8063088d22551461005157806360fe47b1146100665780639507d39a14610079578063dcc9d43c146100a0575b600080fd5b61006461005f3660046101cf565b6100b3565b005b6100646100743660046101cf565b6100c1565b61008c6100873660046101cf565b6100cc565b604051901515815260200160405180910390f35b6100646100ae3660046101e7565b6100de565b6100be6000826100ee565b50565b6100be60008261012d565b60006100d8818361016b565b92915050565b6100ea600083836101ab565b5050565b60006100fc6101008361021a565b9050600061010c6101008461022e565b600092835260209490945250604090208054600190931b1990921690915550565b600061013b6101008361021a565b9050600061014b6101008461022e565b600092835260209490945250604090208054600190931b90921790915550565b60008061017a6101008461021a565b9050600061018a6101008561022e565b6000928352602095909552506040902054600190931b909216151592915050565b80156101c0576101bb838361012d565b6101ca565b6101ca83836100ee565b505050565b6000602082840312156101e0578081fd5b5035919050565b600080604083850312156101f9578081fd5b823591506020830135801515811461020f578182fd5b809150509250929050565b60008261022957610229610242565b500490565b60008261023d5761023d610242565b500690565b634e487b7160e01b600052601260045260246000fdfea26469706673582212204a52bc38513e8e0651b27275afd377b4e825667f5bd7adccbf598b6cfd940ac864736f6c63430008030033",
  "linkReferences": {},
  "deployedLinkReferences": {}
}