{
    "contractName": "AccessControlEnumerableMock",
    "abi": [
        {
            "inputs": [],
            "stateMutability": "nonpayable",
            "type": "constructor"
        },
        {
            "anonymous": false,
            "inputs": [
                {
                    "indexed": true,
                    "internalType": "bytes32",
                    "name": "role",
                    "type": "bytes32"
                },
                {
                    "indexed": true,
                    "internalType": "bytes32",
                    "name": "previousAdminRole",
                    "type": "bytes32"
                },
                {
                    "indexed": true,
                    "internalType": "bytes32",
                    "name": "newAdminRole",
                    "type": "bytes32"
                }
            ],
            "name": "RoleAdminChanged",
            "type": "event"
        },
        {
            "anonymous": false,
            "inputs": [
                {
                    "indexed": true,
                    "internalType": "bytes32",
                    "name": "role",
                    "type": "bytes32"
                },
                {
                    "indexed": true,
                    "internalType": "address",
                    "name": "account",
                    "type": "address"
                },
                {
                    "indexed": true,
                    "internalType": "address",
                    "name": "sender",
                    "type": "address"
                }
            ],
            "name": "RoleGranted",
            "type": "event"
        },
        {
            "anonymous": false,
            "inputs": [
                {
                    "indexed": true,
                    "internalType": "bytes32",
                    "name": "role",
                    "type": "bytes32"
                },
                {
                    "indexed": true,
                    "internalType": "address",
                    "name": "account",
                    "type": "address"
                },
                {
                    "indexed": true,
                    "internalType": "address",
                    "name": "sender",
                    "type": "address"
                }
            ],
            "name": "RoleRevoked",
            "type": "event"
        },
        {
            "inputs": [],
            "name": "DEFAULT_ADMIN_ROLE",
            "outputs": [
                {
                    "internalType": "bytes32",
                    "name": "",
                    "type": "bytes32"
                }
            ],
            "stateMutability": "view",
            "type": "function"
        },
        {
            "inputs": [
                {
                    "internalType": "bytes32",
                    "name": "role",
                    "type": "bytes32"
                }
            ],
            "name": "getRoleAdmin",
            "outputs": [
                {
                    "internalType": "bytes32",
                    "name": "",
                    "type": "bytes32"
                }
            ],
            "stateMutability": "view",
            "type": "function"
        },
        {
            "inputs": [
                {
                    "internalType": "bytes32",
                    "name": "role",
                    "type": "bytes32"
                },
                {
                    "internalType": "uint256",
                    "name": "index",
                    "type": "uint256"
                }
            ],
            "name": "getRoleMember",
            "outputs": [
                {
                    "internalType": "address",
                    "name": "",
                    "type": "address"
                }
            ],
            "stateMutability": "view",
            "type": "function"
        },
        {
            "inputs": [
                {
                    "internalType": "bytes32",
                    "name": "role",
                    "type": "bytes32"
                }
            ],
            "name": "getRoleMemberCount",
            "outputs": [
                {
                    "internalType": "uint256",
                    "name": "",
                    "type": "uint256"
                }
            ],
            "stateMutability": "view",
            "type": "function"
        },
        {
            "inputs": [
                {
                    "internalType": "bytes32",
                    "name": "role",
                    "type": "bytes32"
                },
                {
                    "internalType": "address",
                    "name": "account",
                    "type": "address"
                }
            ],
            "name": "grantRole",
            "outputs": [],
            "stateMutability": "nonpayable",
            "type": "function"
        },
        {
            "inputs": [
                {
                    "internalType": "bytes32",
                    "name": "role",
                    "type": "bytes32"
                },
                {
                    "internalType": "address",
                    "name": "account",
                    "type": "address"
                }
            ],
            "name": "hasRole",
            "outputs": [
                {
                    "internalType": "bool",
                    "name": "",
                    "type": "bool"
                }
            ],
            "stateMutability": "view",
            "type": "function"
        },
        {
            "inputs": [
                {
                    "internalType": "bytes32",
                    "name": "role",
                    "type": "bytes32"
                },
                {
                    "internalType": "address",
                    "name": "account",
                    "type": "address"
                }
            ],
            "name": "renounceRole",
            "outputs": [],
            "stateMutability": "nonpayable",
            "type": "function"
        },
        {
            "inputs": [
                {
                    "internalType": "bytes32",
                    "name": "role",
                    "type": "bytes32"
                },
                {
                    "internalType": "address",
                    "name": "account",
                    "type": "address"
                }
            ],
            "name": "revokeRole",
            "outputs": [],
            "stateMutability": "nonpayable",
            "type": "function"
        },
        {
            "inputs": [
                {
                    "internalType": "bytes32",
                    "name": "roleId",
                    "type": "bytes32"
                }
            ],
            "name": "senderProtected",
            "outputs": [],
            "stateMutability": "nonpayable",
            "type": "function"
        },
        {
            "inputs": [
                {
                    "internalType": "bytes32",
                    "name": "roleId",
                    "type": "bytes32"
                },
                {
                    "internalType": "bytes32",
                    "name": "adminRoleId",
                    "type": "bytes32"
                }
            ],
            "name": "setRoleAdmin",
            "outputs": [],
            "stateMutability": "nonpayable",
            "type": "function"
        },
        {
            "inputs": [
                {
                    "internalType": "bytes4",
                    "name": "interfaceId",
                    "type": "bytes4"
                }
            ],
            "name": "supportsInterface",
            "outputs": [
                {
                    "internalType": "bool",
                    "name": "",
                    "type": "bool"
                }
            ],
            "stateMutability": "view",
            "type": "function"
        }
    ],
    "bytecode": "608060405234801561001057600080fd5b5061001c600033610021565b610177565b610035828261005e60201b6102b71760201c565b60008281526001602090815260409091206100599183906102c161006c821b17901c565b505050565b610068828261008a565b5050565b6000610081836001600160a01b038416610128565b90505b92915050565b6000828152602081815260408083206001600160a01b038516845290915290205460ff16610068576000828152602081815260408083206001600160a01b03851684529091529020805460ff191660011790556100e43390565b6001600160a01b0316816001600160a01b0316837f2f8788117e7eff1d82e926ec794901d17c78024a50270940304540a733656f0d60405160405180910390a45050565b600081815260018301602052604081205461016f57508154600181810184556000848152602080822090930184905584548482528286019093526040902091909155610084565b506000610084565b610b0d806101866000396000f3fe608060405234801561001057600080fd5b50600436106100a95760003560e01c80634b9304a4116100715780634b9304a4146101425780639010d07c1461015557806391d1485414610180578063a217fddf14610193578063ca15c8731461019b578063d547741f146101ae57600080fd5b806301ffc9a7146100ae5780631e4e0091146100d6578063248a9ca3146100eb5780632f2ff15d1461011c57806336568abe1461012f575b600080fd5b6100c16100bc366004610918565b6101c1565b60405190151581526020015b60405180910390f35b6100e96100e43660046108f6565b6101ec565b005b61010e6100f93660046108a1565b60009081526020819052604090206001015490565b6040519081526020016100cd565b6100e961012a3660046108ba565b6101fa565b6100e961013d3660046108ba565b610221565b6100e96101503660046108a1565b610243565b6101686101633660046108f6565b61024e565b6040516001600160a01b0390911681526020016100cd565b6100c161018e3660046108ba565b61026d565b61010e600081565b61010e6101a93660046108a1565b610296565b6100e96101bc3660046108ba565b6102ad565b60006001600160e01b03198216635a05180f60e01b14806101e657506101e6826102d6565b92915050565b6101f6828261030b565b5050565b6102048282610356565b600082815260016020526040902061021c90826102c1565b505050565b61022b828261037c565b600082815260016020526040902061021c90826103fb565b806101f68133610410565b60008281526001602052604081206102669083610474565b9392505050565b6000918252602082815260408084206001600160a01b0393909316845291905290205460ff1690565b60008181526001602052604081206101e690610480565b61022b828261048a565b6101f682826104b0565b6000610266836001600160a01b038416610534565b60006001600160e01b03198216637965db0b60e01b14806101e657506301ffc9a760e01b6001600160e01b03198316146101e6565b600082815260208190526040808220600101805490849055905190918391839186917fbd79b86ffe0ab8e8776151514217cd7cacd52c909f66475c3af44e129f0b00ff9190a4505050565b6000828152602081905260409020600101546103728133610410565b61021c83836104b0565b6001600160a01b03811633146103f15760405162461bcd60e51b815260206004820152602f60248201527f416363657373436f6e74726f6c3a2063616e206f6e6c792072656e6f756e636560448201526e103937b632b9903337b91039b2b63360891b60648201526084015b60405180910390fd5b6101f68282610583565b6000610266836001600160a01b0384166105e8565b61041a828261026d565b6101f657610432816001600160a01b031660146106db565b61043d8360206106db565b60405160200161044e929190610942565b60408051601f198184030181529082905262461bcd60e51b82526103e8916004016109b7565b60006102668383610877565b60006101e6825490565b6000828152602081905260409020600101546104a68133610410565b61021c8383610583565b6104ba828261026d565b6101f6576000828152602081815260408083206001600160a01b03851684529091529020805460ff191660011790556104f03390565b6001600160a01b0316816001600160a01b0316837f2f8788117e7eff1d82e926ec794901d17c78024a50270940304540a733656f0d60405160405180910390a45050565b600081815260018301602052604081205461057b575081546001818101845560008481526020808220909301849055845484825282860190935260409020919091556101e6565b5060006101e6565b61058d828261026d565b156101f6576000828152602081815260408083206001600160a01b0385168085529252808320805460ff1916905551339285917ff6391f5c32d9c69d2a47ea670b442974b53935d1edc7fd64eb21e047a839171b9190a45050565b600081815260018301602052604081205480156106d157600061060c600183610a21565b855490915060009061062090600190610a21565b905081811461068557600086600001828154811061064057610640610aab565b906000526020600020015490508087600001848154811061066357610663610aab565b6000918252602080832090910192909255918252600188019052604090208390555b855486908061069657610696610a95565b6001900381819060005260206000200160009055905585600101600086815260200190815260200160002060009055600193505050506101e6565b60009150506101e6565b606060006106ea836002610a02565b6106f59060026109ea565b67ffffffffffffffff81111561070d5761070d610ac1565b6040519080825280601f01601f191660200182016040528015610737576020820181803683370190505b509050600360fc1b8160008151811061075257610752610aab565b60200101906001600160f81b031916908160001a905350600f60fb1b8160018151811061078157610781610aab565b60200101906001600160f81b031916908160001a90535060006107a5846002610a02565b6107b09060016109ea565b90505b6001811115610828576f181899199a1a9b1b9c1cb0b131b232b360811b85600f16601081106107e4576107e4610aab565b1a60f81b8282815181106107fa576107fa610aab565b60200101906001600160f81b031916908160001a90535060049490941c9361082181610a68565b90506107b3565b5083156102665760405162461bcd60e51b815260206004820181905260248201527f537472696e67733a20686578206c656e67746820696e73756666696369656e7460448201526064016103e8565b600082600001828154811061088e5761088e610aab565b9060005260206000200154905092915050565b6000602082840312156108b357600080fd5b5035919050565b600080604083850312156108cd57600080fd5b8235915060208301356001600160a01b03811681146108eb57600080fd5b809150509250929050565b6000806040838503121561090957600080fd5b50508035926020909101359150565b60006020828403121561092a57600080fd5b81356001600160e01b03198116811461026657600080fd5b7f416363657373436f6e74726f6c3a206163636f756e742000000000000000000081526000835161097a816017850160208801610a38565b7001034b99036b4b9b9b4b733903937b6329607d1b60179184019182015283516109ab816028840160208801610a38565b01602801949350505050565b60208152600082518060208401526109d6816040850160208701610a38565b601f01601f19169190910160400192915050565b600082198211156109fd576109fd610a7f565b500190565b6000816000190483118215151615610a1c57610a1c610a7f565b500290565b600082821015610a3357610a33610a7f565b500390565b60005b83811015610a53578181015183820152602001610a3b565b83811115610a62576000848401525b50505050565b600081610a7757610a77610a7f565b506000190190565b634e487b7160e01b600052601160045260246000fd5b634e487b7160e01b600052603160045260246000fd5b634e487b7160e01b600052603260045260246000fd5b634e487b7160e01b600052604160045260246000fdfea26469706673582212207b44c57d77a073d09ffbb77824217400dcd430435954f47a3f0c1f9d9b87e1d464736f6c63430008060033",
    "sourcePath": "/Users/Shared/crypto/nextart/contracts/mocks/AccessControlEnumerableMock.sol",
    "compiler": {
        "name": "solc",
        "version": "0.8.6+commit.11564f7e"
    },
    "functionHashes": {
        "DEFAULT_ADMIN_ROLE()": "a217fddf",
        "getRoleAdmin(bytes32)": "248a9ca3",
        "getRoleMember(bytes32,uint256)": "9010d07c",
        "getRoleMemberCount(bytes32)": "ca15c873",
        "grantRole(bytes32,address)": "2f2ff15d",
        "hasRole(bytes32,address)": "91d14854",
        "renounceRole(bytes32,address)": "36568abe",
        "revokeRole(bytes32,address)": "d547741f",
        "senderProtected(bytes32)": "4b9304a4",
        "setRoleAdmin(bytes32,bytes32)": "1e4e0091",
        "supportsInterface(bytes4)": "01ffc9a7"
    },
    "gasEstimates": {
        "creation": {
            "codeDepositCost": "565800",
            "executionCost": "infinite",
            "totalCost": "infinite"
        },
        "external": {
            "DEFAULT_ADMIN_ROLE()": "261",
            "getRoleAdmin(bytes32)": "2492",
            "getRoleMember(bytes32,uint256)": "infinite",
            "getRoleMemberCount(bytes32)": "infinite",
            "grantRole(bytes32,address)": "infinite",
            "hasRole(bytes32,address)": "2665",
            "renounceRole(bytes32,address)": "infinite",
            "revokeRole(bytes32,address)": "infinite",
            "senderProtected(bytes32)": "infinite",
            "setRoleAdmin(bytes32,bytes32)": "26514",
            "supportsInterface(bytes4)": "infinite"
        }
    }
}