{
    "contractName": "CallReceiverMock",
    "abi": [
        {
            "anonymous": false,
            "inputs": [],
            "name": "MockFunctionCalled",
            "type": "event"
        },
        {
            "inputs": [],
            "name": "mockFunction",
            "outputs": [
                {
                    "internalType": "string",
                    "name": "",
                    "type": "string"
                }
            ],
            "stateMutability": "payable",
            "type": "function"
        },
        {
            "inputs": [],
            "name": "mockFunctionNonPayable",
            "outputs": [
                {
                    "internalType": "string",
                    "name": "",
                    "type": "string"
                }
            ],
            "stateMutability": "nonpayable",
            "type": "function"
        },
        {
            "inputs": [],
            "name": "mockFunctionOutOfGas",
            "outputs": [],
            "stateMutability": "payable",
            "type": "function"
        },
        {
            "inputs": [],
            "name": "mockFunctionRevertsNoReason",
            "outputs": [],
            "stateMutability": "payable",
            "type": "function"
        },
        {
            "inputs": [],
            "name": "mockFunctionRevertsReason",
            "outputs": [],
            "stateMutability": "payable",
            "type": "function"
        },
        {
            "inputs": [],
            "name": "mockFunctionThrows",
            "outputs": [],
            "stateMutability": "payable",
            "type": "function"
        },
        {
            "inputs": [],
            "name": "mockFunctionWritesStorage",
            "outputs": [
                {
                    "internalType": "string",
                    "name": "",
                    "type": "string"
                }
            ],
            "stateMutability": "nonpayable",
            "type": "function"
        },
        {
            "inputs": [],
            "name": "mockStaticFunction",
            "outputs": [
                {
                    "internalType": "string",
                    "name": "",
                    "type": "string"
                }
            ],
            "stateMutability": "pure",
            "type": "function"
        },
        {
            "inputs": [],
            "name": "sharedAnswer",
            "outputs": [
                {
                    "internalType": "string",
                    "name": "",
                    "type": "string"
                }
            ],
            "stateMutability": "view",
            "type": "function"
        }
    ],
    "bytecode": "608060405234801561001057600080fd5b5061049e806100206000396000f3fe6080604052600436106100865760003560e01c80633e6fec04116100595780633e6fec04146100d0578063a793ab47146100d8578063aa04f77e146100e0578063c8fc7696146100f5578063fc40cf731461012457600080fd5b80630c0349681461008b5780630f63e42c146100955780632c81d638146100c05780633bcfaa14146100c8575b600080fd5b610093610139565b005b3480156100a157600080fd5b506100aa610185565b6040516100b79190610399565b60405180910390f35b610093600080fd5b6100936101d2565b6100aa610185565b6100936101dc565b3480156100ec57600080fd5b506100aa610223565b34801561010157600080fd5b506040805180820190915260068152650c1e0c4c8ccd60d21b60208201526100aa565b34801561013057600080fd5b506100aa610272565b60405162461bcd60e51b815260206004820152601b60248201527f43616c6c52656365697665724d6f636b3a20726576657274696e670000000000604482015260640160405180910390fd5b6040516060907f52c66ed6ec9ca819cba26fe2b2650059270d8981b295af300187a964f54a8c2390600090a1506040805180820190915260068152650c1e0c4c8ccd60d21b602082015290565b6101da610452565b565b60005b6001805480820182556000919091527fb10e2d527612073b26eecdfd717e6a320cf44b4afac2b0732d9fcbe2b7fa0cf60181905561021c81610429565b90506101df565b604080518082019091526002808252611a1960f11b60209092019182526060916102509160009190610300565b50506040805180820190915260068152650c1e0c4c8ccd60d21b602082015290565b6000805461027f906103ee565b80601f01602080910402602001604051908101604052809291908181526020018280546102ab906103ee565b80156102f85780601f106102cd576101008083540402835291602001916102f8565b820191906000526020600020905b8154815290600101906020018083116102db57829003601f168201915b505050505081565b82805461030c906103ee565b90600052602060002090601f01602090048101928261032e5760008555610374565b82601f1061034757805160ff1916838001178555610374565b82800160010185558215610374579182015b82811115610374578251825591602001919060010190610359565b50610380929150610384565b5090565b5b808211156103805760008155600101610385565b600060208083528351808285015260005b818110156103c6578581018301518582016040015282016103aa565b818111156103d8576000604083870101525b50601f01601f1916929092016040019392505050565b600181811c9082168061040257607f821691505b6020821081141561042357634e487b7160e01b600052602260045260246000fd5b50919050565b600060001982141561044b57634e487b7160e01b600052601160045260246000fd5b5060010190565b634e487b7160e01b600052600160045260246000fdfea2646970667358221220c2ae96956a6209b9fc079cb85bd77d6b3d18d08d71d63eb3e874a6f8e1a9386864736f6c63430008060033",
    "sourcePath": "/Users/Shared/crypto/nextart/contracts/mocks/CallReceiverMock.sol",
    "compiler": {
        "name": "solc",
        "version": "0.8.6+commit.11564f7e"
    },
    "functionHashes": {
        "mockFunction()": "3e6fec04",
        "mockFunctionNonPayable()": "0f63e42c",
        "mockFunctionOutOfGas()": "a793ab47",
        "mockFunctionRevertsNoReason()": "2c81d638",
        "mockFunctionRevertsReason()": "0c034968",
        "mockFunctionThrows()": "3bcfaa14",
        "mockFunctionWritesStorage()": "aa04f77e",
        "mockStaticFunction()": "c8fc7696",
        "sharedAnswer()": "fc40cf73"
    },
    "gasEstimates": {
        "creation": {
            "codeDepositCost": "236400",
            "executionCost": "275",
            "totalCost": "236675"
        },
        "external": {
            "mockFunction()": "infinite",
            "mockFunctionNonPayable()": "infinite",
            "mockFunctionOutOfGas()": "infinite",
            "mockFunctionRevertsNoReason()": "150",
            "mockFunctionRevertsReason()": "217",
            "mockFunctionThrows()": "223",
            "mockFunctionWritesStorage()": "infinite",
            "mockStaticFunction()": "infinite",
            "sharedAnswer()": "infinite"
        }
    }
}