{
    "contractName": "ConditionalEscrowMock",
    "abi": [
        {
            "anonymous": false,
            "inputs": [
                {
                    "indexed": true,
                    "internalType": "address",
                    "name": "payee",
                    "type": "address"
                },
                {
                    "indexed": false,
                    "internalType": "uint256",
                    "name": "weiAmount",
                    "type": "uint256"
                }
            ],
            "name": "Deposited",
            "type": "event"
        },
        {
            "anonymous": false,
            "inputs": [
                {
                    "indexed": true,
                    "internalType": "address",
                    "name": "previousOwner",
                    "type": "address"
                },
                {
                    "indexed": true,
                    "internalType": "address",
                    "name": "newOwner",
                    "type": "address"
                }
            ],
            "name": "OwnershipTransferred",
            "type": "event"
        },
        {
            "anonymous": false,
            "inputs": [
                {
                    "indexed": true,
                    "internalType": "address",
                    "name": "payee",
                    "type": "address"
                },
                {
                    "indexed": false,
                    "internalType": "uint256",
                    "name": "weiAmount",
                    "type": "uint256"
                }
            ],
            "name": "Withdrawn",
            "type": "event"
        },
        {
            "inputs": [
                {
                    "internalType": "address",
                    "name": "payee",
                    "type": "address"
                }
            ],
            "name": "deposit",
            "outputs": [],
            "stateMutability": "payable",
            "type": "function"
        },
        {
            "inputs": [
                {
                    "internalType": "address",
                    "name": "payee",
                    "type": "address"
                }
            ],
            "name": "depositsOf",
            "outputs": [
                {
                    "internalType": "uint256",
                    "name": "",
                    "type": "uint256"
                }
            ],
            "stateMutability": "view",
            "type": "function"
        },
        {
            "inputs": [],
            "name": "owner",
            "outputs": [
                {
                    "internalType": "address",
                    "name": "",
                    "type": "address"
                }
            ],
            "stateMutability": "view",
            "type": "function"
        },
        {
            "inputs": [],
            "name": "renounceOwnership",
            "outputs": [],
            "stateMutability": "nonpayable",
            "type": "function"
        },
        {
            "inputs": [
                {
                    "internalType": "address",
                    "name": "payee",
                    "type": "address"
                },
                {
                    "internalType": "bool",
                    "name": "allowed",
                    "type": "bool"
                }
            ],
            "name": "setAllowed",
            "outputs": [],
            "stateMutability": "nonpayable",
            "type": "function"
        },
        {
            "inputs": [
                {
                    "internalType": "address",
                    "name": "newOwner",
                    "type": "address"
                }
            ],
            "name": "transferOwnership",
            "outputs": [],
            "stateMutability": "nonpayable",
            "type": "function"
        },
        {
            "inputs": [
                {
                    "internalType": "address payable",
                    "name": "payee",
                    "type": "address"
                }
            ],
            "name": "withdraw",
            "outputs": [],
            "stateMutability": "nonpayable",
            "type": "function"
        },
        {
            "inputs": [
                {
                    "internalType": "address",
                    "name": "payee",
                    "type": "address"
                }
            ],
            "name": "withdrawalAllowed",
            "outputs": [
                {
                    "internalType": "bool",
                    "name": "",
                    "type": "bool"
                }
            ],
            "stateMutability": "view",
            "type": "function"
        }
    ],
    "bytecode": "608060405234801561001057600080fd5b5061001a3361001f565b61006f565b600080546001600160a01b038381166001600160a01b0319831681178455604051919092169283917f8be0079c531659141344cd1fd0a4f28419497f9722a3daafe3b4186f6b6457e09190a35050565b6106ec8061007e6000396000f3fe60806040526004361061007b5760003560e01c80638da5cb5b1161004e5780638da5cb5b1461014b578063e3a9db1a14610173578063f2fde38b146101b7578063f340fa01146101d757600080fd5b80634697f05d1461008057806351cff8d9146100c8578063685ca194146100e8578063715018a614610136575b600080fd5b34801561008c57600080fd5b506100c661009b366004610608565b6001600160a01b03919091166000908152600260205260409020805460ff1916911515919091179055565b005b3480156100d457600080fd5b506100c66100e33660046105e4565b6101ea565b3480156100f457600080fd5b506101216101033660046105e4565b6001600160a01b031660009081526002602052604090205460ff1690565b60405190151581526020015b60405180910390f35b34801561014257600080fd5b506100c661027f565b34801561015757600080fd5b506000546040516001600160a01b03909116815260200161012d565b34801561017f57600080fd5b506101a961018e3660046105e4565b6001600160a01b031660009081526001602052604090205490565b60405190815260200161012d565b3480156101c357600080fd5b506100c66101d23660046105e4565b6102b5565b6100c66101e53660046105e4565b61034d565b6001600160a01b03811660009081526002602052604090205460ff166102735760405162461bcd60e51b815260206004820152603360248201527f436f6e646974696f6e616c457363726f773a207061796565206973206e6f7420604482015272616c6c6f77656420746f20776974686472617760681b60648201526084015b60405180910390fd5b61027c816103e9565b50565b6000546001600160a01b031633146102a95760405162461bcd60e51b815260040161026a90610646565b6102b36000610476565b565b6000546001600160a01b031633146102df5760405162461bcd60e51b815260040161026a90610646565b6001600160a01b0381166103445760405162461bcd60e51b815260206004820152602660248201527f4f776e61626c653a206e6577206f776e657220697320746865207a65726f206160448201526564647265737360d01b606482015260840161026a565b61027c81610476565b6000546001600160a01b031633146103775760405162461bcd60e51b815260040161026a90610646565b6001600160a01b0381166000908152600160205260408120805434928392916103a190849061067b565b90915550506040518181526001600160a01b038316907f2da466a7b24304f47e87fa2e1e5a81b9831ce54fec19055ce277ca2f39ba42c4906020015b60405180910390a25050565b6000546001600160a01b031633146104135760405162461bcd60e51b815260040161026a90610646565b6001600160a01b038116600081815260016020526040812080549190559061043b90826104c6565b816001600160a01b03167f7084f5476618d8e60b11ef0d7d3f06914655adb8793e28ff7f018d4c76d505d5826040516103dd91815260200190565b600080546001600160a01b038381166001600160a01b0319831681178455604051919092169283917f8be0079c531659141344cd1fd0a4f28419497f9722a3daafe3b4186f6b6457e09190a35050565b804710156105165760405162461bcd60e51b815260206004820152601d60248201527f416464726573733a20696e73756666696369656e742062616c616e6365000000604482015260640161026a565b6000826001600160a01b03168260405160006040518083038185875af1925050503d8060008114610563576040519150601f19603f3d011682016040523d82523d6000602084013e610568565b606091505b50509050806105df5760405162461bcd60e51b815260206004820152603a60248201527f416464726573733a20756e61626c6520746f2073656e642076616c75652c207260448201527f6563697069656e74206d61792068617665207265766572746564000000000000606482015260840161026a565b505050565b6000602082840312156105f657600080fd5b8135610601816106a1565b9392505050565b6000806040838503121561061b57600080fd5b8235610626816106a1565b91506020830135801515811461063b57600080fd5b809150509250929050565b6020808252818101527f4f776e61626c653a2063616c6c6572206973206e6f7420746865206f776e6572604082015260600190565b6000821982111561069c57634e487b7160e01b600052601160045260246000fd5b500190565b6001600160a01b038116811461027c57600080fdfea2646970667358221220cc0fd6cad34f19af07f95e32583ef10415b8e832cf352c0e65fe5deadfaaf77a64736f6c63430008060033",
    "sourcePath": "/Users/Shared/crypto/nextart/contracts/mocks/ConditionalEscrowMock.sol",
    "compiler": {
        "name": "solc",
        "version": "0.8.6+commit.11564f7e"
    },
    "functionHashes": {
        "deposit(address)": "f340fa01",
        "depositsOf(address)": "e3a9db1a",
        "owner()": "8da5cb5b",
        "renounceOwnership()": "715018a6",
        "setAllowed(address,bool)": "4697f05d",
        "transferOwnership(address)": "f2fde38b",
        "withdraw(address)": "51cff8d9",
        "withdrawalAllowed(address)": "685ca194"
    },
    "gasEstimates": {
        "creation": {
            "codeDepositCost": "354400",
            "executionCost": "26234",
            "totalCost": "380634"
        },
        "external": {
            "deposit(address)": "28329",
            "depositsOf(address)": "2553",
            "owner()": "2301",
            "renounceOwnership()": "28181",
            "setAllowed(address,bool)": "24677",
            "transferOwnership(address)": "infinite",
            "withdraw(address)": "infinite",
            "withdrawalAllowed(address)": "2577"
        }
    }
}