{
    "contractName": "ECDSAMock",
    "abi": [
        {
            "inputs": [
                {
                    "internalType": "bytes32",
                    "name": "hash",
                    "type": "bytes32"
                },
                {
                    "internalType": "bytes",
                    "name": "signature",
                    "type": "bytes"
                }
            ],
            "name": "recover",
            "outputs": [
                {
                    "internalType": "address",
                    "name": "",
                    "type": "address"
                }
            ],
            "stateMutability": "pure",
            "type": "function"
        },
        {
            "inputs": [
                {
                    "internalType": "bytes32",
                    "name": "hash",
                    "type": "bytes32"
                }
            ],
            "name": "toEthSignedMessageHash",
            "outputs": [
                {
                    "internalType": "bytes32",
                    "name": "",
                    "type": "bytes32"
                }
            ],
            "stateMutability": "pure",
            "type": "function"
        }
    ],
    "bytecode": "608060405234801561001057600080fd5b50610496806100206000396000f3fe608060405234801561001057600080fd5b50600436106100365760003560e01c806319045a251461003b578063918a15cf1461006b575b600080fd5b61004e61004936600461038f565b61008c565b6040516001600160a01b0390911681526020015b60405180910390f35b61007e610079366004610376565b6100a1565b604051908152602001610062565b600061009883836100fa565b90505b92915050565b600061009b826040517f19457468657265756d205369676e6564204d6573736167653a0a3332000000006020820152603c8101829052600090605c01604051602081830303815290604052805190602001209050919050565b600081516041141561012e5760208201516040830151606084015160001a610124868285856101a3565b935050505061009b565b815160401415610156576020820151604083015161014d85838361034c565b9250505061009b565b60405162461bcd60e51b815260206004820152601f60248201527f45434453413a20696e76616c6964207369676e6174757265206c656e6774680060448201526064015b60405180910390fd5b60007f7fffffffffffffffffffffffffffffff5d576e7357a4501ddfe92f46681b20a08211156102205760405162461bcd60e51b815260206004820152602260248201527f45434453413a20696e76616c6964207369676e6174757265202773272076616c604482015261756560f01b606482015260840161019a565b8360ff16601b148061023557508360ff16601c145b61028c5760405162461bcd60e51b815260206004820152602260248201527f45434453413a20696e76616c6964207369676e6174757265202776272076616c604482015261756560f01b606482015260840161019a565b6040805160008082526020820180845288905260ff871692820192909252606081018590526080810184905260019060a0016020604051602081039080840390855afa1580156102e0573d6000803e3d6000fd5b5050604051601f1901519150506001600160a01b0381166103435760405162461bcd60e51b815260206004820152601860248201527f45434453413a20696e76616c6964207369676e61747572650000000000000000604482015260640161019a565b95945050505050565b60006001600160ff1b03821660ff83901c601b0161036c868287856101a3565b9695505050505050565b60006020828403121561038857600080fd5b5035919050565b600080604083850312156103a257600080fd5b82359150602083013567ffffffffffffffff808211156103c157600080fd5b818501915085601f8301126103d557600080fd5b8135818111156103e7576103e761044a565b604051601f8201601f19908116603f0116810190838211818310171561040f5761040f61044a565b8160405282815288602084870101111561042857600080fd5b8260208601602083013760006020848301015280955050505050509250929050565b634e487b7160e01b600052604160045260246000fdfea26469706673582212207b0f9fbf85bfa3e19cb0100146fe93bf74f0fc82430486396045e49e5e1b0a2664736f6c63430008060033",
    "sourcePath": "/Users/Shared/crypto/nextart/contracts/mocks/ECDSAMock.sol",
    "compiler": {
        "name": "solc",
        "version": "0.8.6+commit.11564f7e"
    },
    "functionHashes": {
        "recover(bytes32,bytes)": "19045a25",
        "toEthSignedMessageHash(bytes32)": "918a15cf"
    },
    "gasEstimates": {
        "creation": {
            "codeDepositCost": "234800",
            "executionCost": "275",
            "totalCost": "235075"
        },
        "external": {
            "recover(bytes32,bytes)": "infinite",
            "toEthSignedMessageHash(bytes32)": "472"
        }
    }
}