{
    "contractName": "EIP712External",
    "abi": [
        {
            "inputs": [
                {
                    "internalType": "string",
                    "name": "name",
                    "type": "string"
                },
                {
                    "internalType": "string",
                    "name": "version",
                    "type": "string"
                }
            ],
            "stateMutability": "nonpayable",
            "type": "constructor"
        },
        {
            "inputs": [],
            "name": "domainSeparator",
            "outputs": [
                {
                    "internalType": "bytes32",
                    "name": "",
                    "type": "bytes32"
                }
            ],
            "stateMutability": "view",
            "type": "function"
        },
        {
            "inputs": [],
            "name": "getChainId",
            "outputs": [
                {
                    "internalType": "uint256",
                    "name": "",
                    "type": "uint256"
                }
            ],
            "stateMutability": "view",
            "type": "function"
        },
        {
            "inputs": [
                {
                    "internalType": "bytes",
                    "name": "signature",
                    "type": "bytes"
                },
                {
                    "internalType": "address",
                    "name": "signer",
                    "type": "address"
                },
                {
                    "internalType": "address",
                    "name": "mailTo",
                    "type": "address"
                },
                {
                    "internalType": "string",
                    "name": "mailContents",
                    "type": "string"
                }
            ],
            "name": "verify",
            "outputs": [],
            "stateMutability": "view",
            "type": "function"
        }
    ],
    "bytecode": "61012060405234801561001157600080fd5b506040516108aa3803806108aa8339810160408190526100309161016a565b815160209283012081519183019190912060c082815260e08290524660a0818152604080517f8b73c3c69bb8fe3d512ecc4cf759cc79239f7b179b0ffacaa9a75d522b39400f818901819052818301979097526060810195909552608080860193909352308583015280518086039092018252939092019092528051930192909220909152610100526101e3565b600082601f8301126100cf57600080fd5b81516001600160401b03808211156100e9576100e96101cd565b604051601f8301601f19908116603f01168101908282118183101715610111576101116101cd565b8160405283815260209250868385880101111561012d57600080fd5b600091505b8382101561014f5785820183015181830184015290820190610132565b838211156101605760008385830101525b9695505050505050565b6000806040838503121561017d57600080fd5b82516001600160401b038082111561019457600080fd5b6101a0868387016100be565b935060208501519150808211156101b657600080fd5b506101c3858286016100be565b9150509250929050565b634e487b7160e01b600052604160045260246000fd5b60805160a05160c05160e051610100516106836102276000396000610285015260006102d4015260006102af015260006102330152600061025c01526106836000f3fe608060405234801561001057600080fd5b50600436106100415760003560e01c806308c6e079146100465780633408e4701461005b578063f698da251461006f575b600080fd5b610059610054366004610587565b610077565b005b465b60405190815260200160405180910390f35b61005d610123565b60006100ed7f847fc9da8ec3c72cae85ca691245eaeb0a4a1e74f77c3a919c43afda231d39ba8484805190602001206040516020016100d2939291909283526001600160a01b03919091166020830152604082015260600190565b60405160208183030381529060405280519060200120610132565b905060006100fb8287610186565b9050846001600160a01b0316816001600160a01b03161461011b57600080fd5b505050505050565b600061012d61022f565b905090565b600061018061013f61022f565b8360405161190160f01b6020820152602281018390526042810182905260009060620160405160208183030381529060405280519060200120905092915050565b92915050565b60008151604114156101ba5760208201516040830151606084015160001a6101b086828585610322565b9350505050610180565b8151604014156101e257602082015160408301516101d98583836104cb565b92505050610180565b60405162461bcd60e51b815260206004820152601f60248201527f45434453413a20696e76616c6964207369676e6174757265206c656e6774680060448201526064015b60405180910390fd5b60007f000000000000000000000000000000000000000000000000000000000000000046141561027e57507f000000000000000000000000000000000000000000000000000000000000000090565b50604080517f00000000000000000000000000000000000000000000000000000000000000006020808301919091527f0000000000000000000000000000000000000000000000000000000000000000828401527f000000000000000000000000000000000000000000000000000000000000000060608301524660808301523060a0808401919091528351808403909101815260c0909201909252805191012090565b60007f7fffffffffffffffffffffffffffffff5d576e7357a4501ddfe92f46681b20a082111561039f5760405162461bcd60e51b815260206004820152602260248201527f45434453413a20696e76616c6964207369676e6174757265202773272076616c604482015261756560f01b6064820152608401610226565b8360ff16601b14806103b457508360ff16601c145b61040b5760405162461bcd60e51b815260206004820152602260248201527f45434453413a20696e76616c6964207369676e6174757265202776272076616c604482015261756560f01b6064820152608401610226565b6040805160008082526020820180845288905260ff871692820192909252606081018590526080810184905260019060a0016020604051602081039080840390855afa15801561045f573d6000803e3d6000fd5b5050604051601f1901519150506001600160a01b0381166104c25760405162461bcd60e51b815260206004820152601860248201527f45434453413a20696e76616c6964207369676e617475726500000000000000006044820152606401610226565b95945050505050565b60006001600160ff1b03821660ff83901c601b016104eb86828785610322565b9695505050505050565b600067ffffffffffffffff8084111561051057610510610637565b604051601f8501601f19908116603f0116810190828211818310171561053857610538610637565b8160405280935085815286868601111561055157600080fd5b858560208301376000602087830101525050509392505050565b80356001600160a01b038116811461058257600080fd5b919050565b6000806000806080858703121561059d57600080fd5b843567ffffffffffffffff808211156105b557600080fd5b818701915087601f8301126105c957600080fd5b6105d8888335602085016104f5565b95506105e66020880161056b565b94506105f46040880161056b565b9350606087013591508082111561060a57600080fd5b508501601f8101871361061c57600080fd5b61062b878235602084016104f5565b91505092959194509250565b634e487b7160e01b600052604160045260246000fdfea264697066735822122084b3c538fe4641460b2457f3b0ad910c9fc93f6615a9b926673697fe5a03e1ac64736f6c63430008060033",
    "sourcePath": "/Users/Shared/crypto/nextart/contracts/mocks/EIP712External.sol",
    "compiler": {
        "name": "solc",
        "version": "0.8.6+commit.11564f7e"
    },
    "functionHashes": {
        "domainSeparator()": "f698da25",
        "getChainId()": "3408e470",
        "verify(bytes,address,address,string)": "08c6e079"
    },
    "gasEstimates": {
        "creation": {
            "codeDepositCost": "333400",
            "executionCost": "infinite",
            "totalCost": "infinite"
        },
        "external": {
            "domainSeparator()": "infinite",
            "getChainId()": "168",
            "verify(bytes,address,address,string)": "infinite"
        }
    }
}