{
    "contractName": "EnumerableMapMock",
    "abi": [
        {
            "anonymous": false,
            "inputs": [
                {
                    "indexed": false,
                    "internalType": "bool",
                    "name": "result",
                    "type": "bool"
                }
            ],
            "name": "OperationResult",
            "type": "event"
        },
        {
            "inputs": [
                {
                    "internalType": "uint256",
                    "name": "index",
                    "type": "uint256"
                }
            ],
            "name": "at",
            "outputs": [
                {
                    "internalType": "uint256",
                    "name": "key",
                    "type": "uint256"
                },
                {
                    "internalType": "address",
                    "name": "value",
                    "type": "address"
                }
            ],
            "stateMutability": "view",
            "type": "function"
        },
        {
            "inputs": [
                {
                    "internalType": "uint256",
                    "name": "key",
                    "type": "uint256"
                }
            ],
            "name": "contains",
            "outputs": [
                {
                    "internalType": "bool",
                    "name": "",
                    "type": "bool"
                }
            ],
            "stateMutability": "view",
            "type": "function"
        },
        {
            "inputs": [
                {
                    "internalType": "uint256",
                    "name": "key",
                    "type": "uint256"
                }
            ],
            "name": "get",
            "outputs": [
                {
                    "internalType": "address",
                    "name": "",
                    "type": "address"
                }
            ],
            "stateMutability": "view",
            "type": "function"
        },
        {
            "inputs": [
                {
                    "internalType": "uint256",
                    "name": "key",
                    "type": "uint256"
                },
                {
                    "internalType": "string",
                    "name": "errorMessage",
                    "type": "string"
                }
            ],
            "name": "getWithMessage",
            "outputs": [
                {
                    "internalType": "address",
                    "name": "",
                    "type": "address"
                }
            ],
            "stateMutability": "view",
            "type": "function"
        },
        {
            "inputs": [],
            "name": "length",
            "outputs": [
                {
                    "internalType": "uint256",
                    "name": "",
                    "type": "uint256"
                }
            ],
            "stateMutability": "view",
            "type": "function"
        },
        {
            "inputs": [
                {
                    "internalType": "uint256",
                    "name": "key",
                    "type": "uint256"
                }
            ],
            "name": "remove",
            "outputs": [],
            "stateMutability": "nonpayable",
            "type": "function"
        },
        {
            "inputs": [
                {
                    "internalType": "uint256",
                    "name": "key",
                    "type": "uint256"
                },
                {
                    "internalType": "address",
                    "name": "value",
                    "type": "address"
                }
            ],
            "name": "set",
            "outputs": [],
            "stateMutability": "nonpayable",
            "type": "function"
        },
        {
            "inputs": [
                {
                    "internalType": "uint256",
                    "name": "key",
                    "type": "uint256"
                }
            ],
            "name": "tryGet",
            "outputs": [
                {
                    "internalType": "bool",
                    "name": "",
                    "type": "bool"
                },
                {
                    "internalType": "address",
                    "name": "",
                    "type": "address"
                }
            ],
            "stateMutability": "view",
            "type": "function"
        }
    ],
    "bytecode": "608060405234801561001057600080fd5b50610829806100206000396000f3fe608060405234801561001057600080fd5b50600436106100885760003560e01c80639507d39a1161005b5780639507d39a14610102578063c051a3a61461012d578063c34052e014610140578063e0886f901461016357600080fd5b80631f7b6d321461008d5780632f30c6f6146100a85780634cc82215146100bd578063871394d9146100d0575b600080fd5b610095610193565b6040519081526020015b60405180910390f35b6100bb6100b6366004610695565b6101a4565b005b6100bb6100cb36600461067c565b6101f3565b6100e36100de36600461067c565b610240565b6040805192151583526001600160a01b0390911660208301520161009f565b61011561011036600461067c565b610256565b6040516001600160a01b03909116815260200161009f565b61011561013b3660046106d1565b610268565b61015361014e36600461067c565b6102b4565b604051901515815260200161009f565b61017661017136600461067c565b6102c0565b604080519283526001600160a01b0390911660208301520161009f565b600061019f60006102cd565b905090565b60006101b18184846102d8565b90507fed9840e0775590557ad736875d96c95cf1458b766335f74339951a32c82a9e33816040516101e6911515815260200190565b60405180910390a1505050565b60006101ff81836102ee565b90507fed9840e0775590557ad736875d96c95cf1458b766335f74339951a32c82a9e3381604051610234911515815260200190565b60405180910390a15050565b60008061024d8184610301565b91509150915091565b6000610262818361031f565b92915050565b60006102ac8484848080601f0160208091040260200160405190810160405280939291908181526020018383808284376000920182905250949392505061032b9050565b949350505050565b60006102628183610338565b60008061024d8184610344565b600061026282610353565b60006102ac84846001600160a01b03851661035e565b60006102fa838361037b565b9392505050565b60008080806103108686610398565b909450925050505b9250929050565b60006102fa83836103d2565b60006102ac848484610447565b60006102fa8383610493565b6000808080610310868661049f565b6000610262826104ca565b600082815260028401602052604081208290556102ac84846104d4565b600081815260028301602052604081208190556102fa83836104e0565b60008181526002830160205260408120548190806103c7576103ba8585610493565b9250600091506103189050565b600192509050610318565b6000818152600283016020526040812054801515806103f657506103f68484610493565b6102fa5760405162461bcd60e51b815260206004820152601e60248201527f456e756d657261626c654d61703a206e6f6e6578697374656e74206b6579000060448201526064015b60405180910390fd5b60008281526002840160205260408120548015158061046b575061046b8585610493565b839061048a5760405162461bcd60e51b815260040161043e919061074d565b50949350505050565b60006102fa83836104ec565b600080806104ad8585610504565b600081815260029690960160205260409095205494959350505050565b6000610262825490565b60006102fa8383610510565b60006102fa838361055f565b600081815260018301602052604081205415156102fa565b60006102fa8383610652565b600081815260018301602052604081205461055757508154600181810184556000848152602080822090930184905584548482528286019093526040902091909155610262565b506000610262565b600081815260018301602052604081205480156106485760006105836001836107a2565b8554909150600090610597906001906107a2565b90508181146105fc5760008660000182815481106105b7576105b76107dd565b90600052602060002001549050808760000184815481106105da576105da6107dd565b6000918252602080832090910192909255918252600188019052604090208390555b855486908061060d5761060d6107c7565b600190038181906000526020600020016000905590558560010160008681526020019081526020016000206000905560019350505050610262565b6000915050610262565b6000826000018281548110610669576106696107dd565b9060005260206000200154905092915050565b60006020828403121561068e57600080fd5b5035919050565b600080604083850312156106a857600080fd5b8235915060208301356001600160a01b03811681146106c657600080fd5b809150509250929050565b6000806000604084860312156106e657600080fd5b83359250602084013567ffffffffffffffff8082111561070557600080fd5b818601915086601f83011261071957600080fd5b81358181111561072857600080fd5b87602082850101111561073a57600080fd5b6020830194508093505050509250925092565b600060208083528351808285015260005b8181101561077a5785810183015185820160400152820161075e565b8181111561078c576000604083870101525b50601f01601f1916929092016040019392505050565b6000828210156107c257634e487b7160e01b600052601160045260246000fd5b500390565b634e487b7160e01b600052603160045260246000fd5b634e487b7160e01b600052603260045260246000fdfea2646970667358221220c31f4a79356aa73d0631df1d575fb222ebee4df4db6858c0f0c2770a7a9057f564736f6c63430008060033",
    "sourcePath": "/Users/Shared/crypto/nextart/contracts/mocks/EnumerableMapMock.sol",
    "compiler": {
        "name": "solc",
        "version": "0.8.6+commit.11564f7e"
    },
    "functionHashes": {
        "at(uint256)": "e0886f90",
        "contains(uint256)": "c34052e0",
        "get(uint256)": "9507d39a",
        "getWithMessage(uint256,string)": "c051a3a6",
        "length()": "1f7b6d32",
        "remove(uint256)": "4cc82215",
        "set(uint256,address)": "2f30c6f6",
        "tryGet(uint256)": "871394d9"
    },
    "gasEstimates": {
        "creation": {
            "codeDepositCost": "417800",
            "executionCost": "455",
            "totalCost": "418255"
        },
        "external": {
            "at(uint256)": "7102",
            "contains(uint256)": "infinite",
            "get(uint256)": "infinite",
            "getWithMessage(uint256,string)": "infinite",
            "length()": "infinite",
            "remove(uint256)": "infinite",
            "set(uint256,address)": "infinite",
            "tryGet(uint256)": "infinite"
        }
    }
}