{
    "contractName": "EnumerableUintSetMock",
    "abi": [
        {
            "anonymous": false,
            "inputs": [
                {
                    "indexed": false,
                    "internalType": "bool",
                    "name": "result",
                    "type": "bool"
                }
            ],
            "name": "OperationResult",
            "type": "event"
        },
        {
            "inputs": [
                {
                    "internalType": "uint256",
                    "name": "value",
                    "type": "uint256"
                }
            ],
            "name": "add",
            "outputs": [],
            "stateMutability": "nonpayable",
            "type": "function"
        },
        {
            "inputs": [
                {
                    "internalType": "uint256",
                    "name": "index",
                    "type": "uint256"
                }
            ],
            "name": "at",
            "outputs": [
                {
                    "internalType": "uint256",
                    "name": "",
                    "type": "uint256"
                }
            ],
            "stateMutability": "view",
            "type": "function"
        },
        {
            "inputs": [
                {
                    "internalType": "uint256",
                    "name": "value",
                    "type": "uint256"
                }
            ],
            "name": "contains",
            "outputs": [
                {
                    "internalType": "bool",
                    "name": "",
                    "type": "bool"
                }
            ],
            "stateMutability": "view",
            "type": "function"
        },
        {
            "inputs": [],
            "name": "length",
            "outputs": [
                {
                    "internalType": "uint256",
                    "name": "",
                    "type": "uint256"
                }
            ],
            "stateMutability": "view",
            "type": "function"
        },
        {
            "inputs": [
                {
                    "internalType": "uint256",
                    "name": "value",
                    "type": "uint256"
                }
            ],
            "name": "remove",
            "outputs": [],
            "stateMutability": "nonpayable",
            "type": "function"
        }
    ],
    "bytecode": "608060405234801561001057600080fd5b506103b6806100206000396000f3fe608060405234801561001057600080fd5b50600436106100575760003560e01c80631003e2d21461005c5780631f7b6d32146100715780634cc822151461008c578063c34052e01461009f578063e0886f90146100c2575b600080fd5b61006f61006a366004610316565b6100d5565b005b610079610122565b6040519081526020015b60405180910390f35b61006f61009a366004610316565b610133565b6100b26100ad366004610316565b61013f565b6040519015158152602001610083565b6100796100d0366004610316565b610151565b60006100e1818361015d565b90507fed9840e0775590557ad736875d96c95cf1458b766335f74339951a32c82a9e3381604051610116911515815260200190565b60405180910390a15050565b600061012e6000610170565b905090565b60006100e1818361017a565b600061014b8183610186565b92915050565b600061014b818361019e565b600061016983836101aa565b9392505050565b600061014b825490565b600061016983836101f9565b60008181526001830160205260408120541515610169565b600061016983836102ec565b60008181526001830160205260408120546101f15750815460018181018455600084815260208082209093018490558454848252828601909352604090209190915561014b565b50600061014b565b600081815260018301602052604081205480156102e257600061021d60018361032f565b85549091506000906102319060019061032f565b90508181146102965760008660000182815481106102515761025161036a565b90600052602060002001549050808760000184815481106102745761027461036a565b6000918252602080832090910192909255918252600188019052604090208390555b85548690806102a7576102a7610354565b60019003818190600052602060002001600090559055856001016000868152602001908152602001600020600090556001935050505061014b565b600091505061014b565b60008260000182815481106103035761030361036a565b9060005260206000200154905092915050565b60006020828403121561032857600080fd5b5035919050565b60008282101561034f57634e487b7160e01b600052601160045260246000fd5b500390565b634e487b7160e01b600052603160045260246000fd5b634e487b7160e01b600052603260045260246000fdfea2646970667358221220bff7bb9ceb8fd197eb3ba3b9ed03392d8c1f68ae6125c7438d3e62215dd7434064736f6c63430008060033",
    "sourcePath": "/Users/Shared/crypto/nextart/contracts/mocks/EnumerableSetMock.sol",
    "compiler": {
        "name": "solc",
        "version": "0.8.6+commit.11564f7e"
    },
    "functionHashes": {
        "add(uint256)": "1003e2d2",
        "at(uint256)": "e0886f90",
        "contains(uint256)": "c34052e0",
        "length()": "1f7b6d32",
        "remove(uint256)": "4cc82215"
    },
    "gasEstimates": {
        "creation": {
            "codeDepositCost": "190000",
            "executionCost": "232",
            "totalCost": "190232"
        },
        "external": {
            "add(uint256)": "74253",
            "at(uint256)": "4728",
            "contains(uint256)": "2576",
            "length()": "2359",
            "remove(uint256)": "infinite"
        }
    }
}