{
    "contractName": "ERC1155SupplyMock",
    "abi": [
        {
            "inputs": [
                {
                    "internalType": "string",
                    "name": "uri",
                    "type": "string"
                }
            ],
            "stateMutability": "nonpayable",
            "type": "constructor"
        },
        {
            "anonymous": false,
            "inputs": [
                {
                    "indexed": true,
                    "internalType": "address",
                    "name": "account",
                    "type": "address"
                },
                {
                    "indexed": true,
                    "internalType": "address",
                    "name": "operator",
                    "type": "address"
                },
                {
                    "indexed": false,
                    "internalType": "bool",
                    "name": "approved",
                    "type": "bool"
                }
            ],
            "name": "ApprovalForAll",
            "type": "event"
        },
        {
            "anonymous": false,
            "inputs": [
                {
                    "indexed": true,
                    "internalType": "address",
                    "name": "operator",
                    "type": "address"
                },
                {
                    "indexed": true,
                    "internalType": "address",
                    "name": "from",
                    "type": "address"
                },
                {
                    "indexed": true,
                    "internalType": "address",
                    "name": "to",
                    "type": "address"
                },
                {
                    "indexed": false,
                    "internalType": "uint256[]",
                    "name": "ids",
                    "type": "uint256[]"
                },
                {
                    "indexed": false,
                    "internalType": "uint256[]",
                    "name": "values",
                    "type": "uint256[]"
                }
            ],
            "name": "TransferBatch",
            "type": "event"
        },
        {
            "anonymous": false,
            "inputs": [
                {
                    "indexed": true,
                    "internalType": "address",
                    "name": "operator",
                    "type": "address"
                },
                {
                    "indexed": true,
                    "internalType": "address",
                    "name": "from",
                    "type": "address"
                },
                {
                    "indexed": true,
                    "internalType": "address",
                    "name": "to",
                    "type": "address"
                },
                {
                    "indexed": false,
                    "internalType": "uint256",
                    "name": "id",
                    "type": "uint256"
                },
                {
                    "indexed": false,
                    "internalType": "uint256",
                    "name": "value",
                    "type": "uint256"
                }
            ],
            "name": "TransferSingle",
            "type": "event"
        },
        {
            "anonymous": false,
            "inputs": [
                {
                    "indexed": false,
                    "internalType": "string",
                    "name": "value",
                    "type": "string"
                },
                {
                    "indexed": true,
                    "internalType": "uint256",
                    "name": "id",
                    "type": "uint256"
                }
            ],
            "name": "URI",
            "type": "event"
        },
        {
            "inputs": [
                {
                    "internalType": "address",
                    "name": "account",
                    "type": "address"
                },
                {
                    "internalType": "uint256",
                    "name": "id",
                    "type": "uint256"
                }
            ],
            "name": "balanceOf",
            "outputs": [
                {
                    "internalType": "uint256",
                    "name": "",
                    "type": "uint256"
                }
            ],
            "stateMutability": "view",
            "type": "function"
        },
        {
            "inputs": [
                {
                    "internalType": "address[]",
                    "name": "accounts",
                    "type": "address[]"
                },
                {
                    "internalType": "uint256[]",
                    "name": "ids",
                    "type": "uint256[]"
                }
            ],
            "name": "balanceOfBatch",
            "outputs": [
                {
                    "internalType": "uint256[]",
                    "name": "",
                    "type": "uint256[]"
                }
            ],
            "stateMutability": "view",
            "type": "function"
        },
        {
            "inputs": [
                {
                    "internalType": "address",
                    "name": "owner",
                    "type": "address"
                },
                {
                    "internalType": "uint256",
                    "name": "id",
                    "type": "uint256"
                },
                {
                    "internalType": "uint256",
                    "name": "value",
                    "type": "uint256"
                }
            ],
            "name": "burn",
            "outputs": [],
            "stateMutability": "nonpayable",
            "type": "function"
        },
        {
            "inputs": [
                {
                    "internalType": "address",
                    "name": "owner",
                    "type": "address"
                },
                {
                    "internalType": "uint256[]",
                    "name": "ids",
                    "type": "uint256[]"
                },
                {
                    "internalType": "uint256[]",
                    "name": "values",
                    "type": "uint256[]"
                }
            ],
            "name": "burnBatch",
            "outputs": [],
            "stateMutability": "nonpayable",
            "type": "function"
        },
        {
            "inputs": [
                {
                    "internalType": "uint256",
                    "name": "id",
                    "type": "uint256"
                }
            ],
            "name": "exists",
            "outputs": [
                {
                    "internalType": "bool",
                    "name": "",
                    "type": "bool"
                }
            ],
            "stateMutability": "view",
            "type": "function"
        },
        {
            "inputs": [
                {
                    "internalType": "address",
                    "name": "account",
                    "type": "address"
                },
                {
                    "internalType": "address",
                    "name": "operator",
                    "type": "address"
                }
            ],
            "name": "isApprovedForAll",
            "outputs": [
                {
                    "internalType": "bool",
                    "name": "",
                    "type": "bool"
                }
            ],
            "stateMutability": "view",
            "type": "function"
        },
        {
            "inputs": [
                {
                    "internalType": "address",
                    "name": "to",
                    "type": "address"
                },
                {
                    "internalType": "uint256",
                    "name": "id",
                    "type": "uint256"
                },
                {
                    "internalType": "uint256",
                    "name": "value",
                    "type": "uint256"
                },
                {
                    "internalType": "bytes",
                    "name": "data",
                    "type": "bytes"
                }
            ],
            "name": "mint",
            "outputs": [],
            "stateMutability": "nonpayable",
            "type": "function"
        },
        {
            "inputs": [
                {
                    "internalType": "address",
                    "name": "to",
                    "type": "address"
                },
                {
                    "internalType": "uint256[]",
                    "name": "ids",
                    "type": "uint256[]"
                },
                {
                    "internalType": "uint256[]",
                    "name": "values",
                    "type": "uint256[]"
                },
                {
                    "internalType": "bytes",
                    "name": "data",
                    "type": "bytes"
                }
            ],
            "name": "mintBatch",
            "outputs": [],
            "stateMutability": "nonpayable",
            "type": "function"
        },
        {
            "inputs": [
                {
                    "internalType": "address",
                    "name": "from",
                    "type": "address"
                },
                {
                    "internalType": "address",
                    "name": "to",
                    "type": "address"
                },
                {
                    "internalType": "uint256[]",
                    "name": "ids",
                    "type": "uint256[]"
                },
                {
                    "internalType": "uint256[]",
                    "name": "amounts",
                    "type": "uint256[]"
                },
                {
                    "internalType": "bytes",
                    "name": "data",
                    "type": "bytes"
                }
            ],
            "name": "safeBatchTransferFrom",
            "outputs": [],
            "stateMutability": "nonpayable",
            "type": "function"
        },
        {
            "inputs": [
                {
                    "internalType": "address",
                    "name": "from",
                    "type": "address"
                },
                {
                    "internalType": "address",
                    "name": "to",
                    "type": "address"
                },
                {
                    "internalType": "uint256",
                    "name": "id",
                    "type": "uint256"
                },
                {
                    "internalType": "uint256",
                    "name": "amount",
                    "type": "uint256"
                },
                {
                    "internalType": "bytes",
                    "name": "data",
                    "type": "bytes"
                }
            ],
            "name": "safeTransferFrom",
            "outputs": [],
            "stateMutability": "nonpayable",
            "type": "function"
        },
        {
            "inputs": [
                {
                    "internalType": "address",
                    "name": "operator",
                    "type": "address"
                },
                {
                    "internalType": "bool",
                    "name": "approved",
                    "type": "bool"
                }
            ],
            "name": "setApprovalForAll",
            "outputs": [],
            "stateMutability": "nonpayable",
            "type": "function"
        },
        {
            "inputs": [
                {
                    "internalType": "string",
                    "name": "newuri",
                    "type": "string"
                }
            ],
            "name": "setURI",
            "outputs": [],
            "stateMutability": "nonpayable",
            "type": "function"
        },
        {
            "inputs": [
                {
                    "internalType": "bytes4",
                    "name": "interfaceId",
                    "type": "bytes4"
                }
            ],
            "name": "supportsInterface",
            "outputs": [
                {
                    "internalType": "bool",
                    "name": "",
                    "type": "bool"
                }
            ],
            "stateMutability": "view",
            "type": "function"
        },
        {
            "inputs": [
                {
                    "internalType": "uint256",
                    "name": "id",
                    "type": "uint256"
                }
            ],
            "name": "totalSupply",
            "outputs": [
                {
                    "internalType": "uint256",
                    "name": "",
                    "type": "uint256"
                }
            ],
            "stateMutability": "view",
            "type": "function"
        },
        {
            "inputs": [
                {
                    "internalType": "uint256",
                    "name": "",
                    "type": "uint256"
                }
            ],
            "name": "uri",
            "outputs": [
                {
                    "internalType": "string",
                    "name": "",
                    "type": "string"
                }
            ],
            "stateMutability": "view",
            "type": "function"
        }
    ],
    "bytecode": "60806040523480156200001157600080fd5b506040516200211a3803806200211a833981016040819052620000349162000109565b808062000041816200004a565b50505062000238565b80516200005f90600290602084019062000063565b5050565b8280546200007190620001e5565b90600052602060002090601f016020900481019282620000955760008555620000e0565b82601f10620000b057805160ff1916838001178555620000e0565b82800160010185558215620000e0579182015b82811115620000e0578251825591602001919060010190620000c3565b50620000ee929150620000f2565b5090565b5b80821115620000ee5760008155600101620000f3565b600060208083850312156200011d57600080fd5b82516001600160401b03808211156200013557600080fd5b818501915085601f8301126200014a57600080fd5b8151818111156200015f576200015f62000222565b604051601f8201601f19908116603f011681019083821181831017156200018a576200018a62000222565b816040528281528886848701011115620001a357600080fd5b600093505b82841015620001c75784840186015181850187015292850192620001a8565b82841115620001d95760008684830101525b98975050505050505050565b600181811c90821680620001fa57607f821691505b602082108114156200021c57634e487b7160e01b600052602260045260246000fd5b50919050565b634e487b7160e01b600052604160045260246000fd5b611ed280620002486000396000f3fe608060405234801561001057600080fd5b50600436106100f45760003560e01c80634f558e7911610097578063bd85b03911610066578063bd85b03914610218578063e985e9c514610238578063f242432a14610274578063f5298aca1461028757600080fd5b80634f558e79146101bd5780636b20c454146101df578063731133e9146101f2578063a22cb4651461020557600080fd5b80630e89341c116100d35780630e89341c146101575780631f7fdffa146101775780632eb2c2d61461018a5780634e1273f41461019d57600080fd5b8062fdd58e146100f957806301ffc9a71461011f57806302fe530514610142575b600080fd5b61010c61010736600461173b565b61029a565b6040519081526020015b60405180910390f35b61013261012d3660046118be565b610331565b6040519015158152602001610116565b6101556101503660046118f8565b610383565b005b61016a610165366004611949565b61038f565b6040516101169190611ace565b610155610185366004611666565b610423565b6101556101983660046114e3565b610435565b6101b06101ab3660046117ed565b6104cc565b6040516101169190611a8d565b6101326101cb366004611949565b600090815260036020526040902054151590565b6101556101ed3660046115f2565b6105f6565b610155610200366004611798565b610606565b6101556102133660046116ff565b610612565b61010c610226366004611949565b60009081526003602052604090205490565b6101326102463660046114b0565b6001600160a01b03918216600090815260016020908152604080832093909416825291909152205460ff1690565b61015561028236600461158d565b6106e9565b610155610295366004611765565b610770565b60006001600160a01b03831661030b5760405162461bcd60e51b815260206004820152602b60248201527f455243313135353a2062616c616e636520717565727920666f7220746865207a60448201526a65726f206164647265737360a81b60648201526084015b60405180910390fd5b506000908152602081815260408083206001600160a01b03949094168352929052205490565b60006001600160e01b03198216636cdb3d1360e11b148061036257506001600160e01b031982166303a24d0760e21b145b8061037d57506301ffc9a760e01b6001600160e01b03198316145b92915050565b61038c8161077b565b50565b60606002805461039e90611d1b565b80601f01602080910402602001604051908101604052809291908181526020018280546103ca90611d1b565b80156104175780601f106103ec57610100808354040283529160200191610417565b820191906000526020600020905b8154815290600101906020018083116103fa57829003601f168201915b50505050509050919050565b61042f84848484610792565b50505050565b6001600160a01b03851633148061045157506104518533610246565b6104b85760405162461bcd60e51b815260206004820152603260248201527f455243313135353a207472616e736665722063616c6c6572206973206e6f74206044820152711bdddb995c881b9bdc88185c1c1c9bdd995960721b6064820152608401610302565b6104c5858585858561079e565b5050505050565b606081518351146105315760405162461bcd60e51b815260206004820152602960248201527f455243313135353a206163636f756e747320616e6420696473206c656e677468604482015268040dad2e6dac2e8c6d60bb1b6064820152608401610302565b6000835167ffffffffffffffff81111561054d5761054d611dca565b604051908082528060200260200182016040528015610576578160200160208202803683370190505b50905060005b84518110156105ee576105c185828151811061059a5761059a611db4565b60200260200101518583815181106105b4576105b4611db4565b602002602001015161029a565b8282815181106105d3576105d3611db4565b60209081029190910101526105e781611d83565b905061057c565b509392505050565b61060183838361093a565b505050565b61042f84848484610945565b336001600160a01b038316141561067d5760405162461bcd60e51b815260206004820152602960248201527f455243313135353a2073657474696e6720617070726f76616c20737461747573604482015268103337b91039b2b63360b91b6064820152608401610302565b3360008181526001602090815260408083206001600160a01b03871680855290835292819020805460ff191686151590811790915590519081529192917f17307eab39ab6107e8899845ad3d59bd9653f200f220920489ca2b5937696c31910160405180910390a35050565b6001600160a01b03851633148061070557506107058533610246565b6107635760405162461bcd60e51b815260206004820152602960248201527f455243313135353a2063616c6c6572206973206e6f74206f776e6572206e6f7260448201526808185c1c1c9bdd995960ba1b6064820152608401610302565b6104c58585858585610951565b610601838383610a77565b805161078e9060029060208401906112ff565b5050565b61042f84848484610a82565b81518351146107bf5760405162461bcd60e51b815260040161030290611c3f565b6001600160a01b0384166107e55760405162461bcd60e51b815260040161030290611b6d565b3360005b84518110156108cc57600085828151811061080657610806611db4565b60200260200101519050600085838151811061082457610824611db4565b602090810291909101810151600084815280835260408082206001600160a01b038e1683529093529190912054909150818110156108745760405162461bcd60e51b815260040161030290611bf5565b6000838152602081815260408083206001600160a01b038e8116855292528083208585039055908b168252812080548492906108b1908490611cec565b92505081905550505050806108c590611d83565b90506107e9565b50846001600160a01b0316866001600160a01b0316826001600160a01b03167f4a39dc06d4c0dbc64b70af90fd698a233a518aa5d07e595d983b8c0526c8f7fb878760405161091c929190611aa0565b60405180910390a4610932818787878787610b05565b505050505050565b610601838383610c70565b61042f84848484610cf2565b6001600160a01b0384166109775760405162461bcd60e51b815260040161030290611b6d565b3361099081878761098788610d27565b6104c588610d27565b6000848152602081815260408083206001600160a01b038a168452909152902054838110156109d15760405162461bcd60e51b815260040161030290611bf5565b6000858152602081815260408083206001600160a01b038b8116855292528083208785039055908816825281208054869290610a0e908490611cec565b909155505060408051868152602081018690526001600160a01b03808916928a821692918616917fc3d58168c5ae7397731d063d5bbf3d657854427343f4c083240f7aacaa2d0f62910160405180910390a4610a6e828888888888610d72565b50505050505050565b610601838383610e3c565b610a8e84848484610e6f565b60005b83518110156104c557828181518110610aac57610aac611db4565b602002602001015160036000868481518110610aca57610aca611db4565b602002602001015181526020019081526020016000206000828254610aef9190611cec565b90915550610afe905081611d83565b9050610a91565b6001600160a01b0384163b156109325760405163bc197c8160e01b81526001600160a01b0385169063bc197c8190610b4990899089908890889088906004016119ea565b602060405180830381600087803b158015610b6357600080fd5b505af1925050508015610b93575060408051601f3d908101601f19168201909252610b90918101906118db565b60015b610c4057610b9f611de0565b806308c379a01415610bd95750610bb4611dfc565b80610bbf5750610bdb565b8060405162461bcd60e51b81526004016103029190611ace565b505b60405162461bcd60e51b815260206004820152603460248201527f455243313135353a207472616e7366657220746f206e6f6e20455243313135356044820152732932b1b2b4bb32b91034b6b83632b6b2b73a32b960611b6064820152608401610302565b6001600160e01b0319811663bc197c8160e01b14610a6e5760405162461bcd60e51b815260040161030290611ae1565b610c7b838383610fba565b60005b825181101561042f57818181518110610c9957610c99611db4565b602002602001015160036000858481518110610cb757610cb7611db4565b602002602001015181526020019081526020016000206000828254610cdc9190611d04565b90915550610ceb905081611d83565b9050610c7e565b610cfe84848484611136565b60008381526003602052604081208054849290610d1c908490611cec565b909155505050505050565b60408051600180825281830190925260609160009190602080830190803683370190505090508281600081518110610d6157610d61611db4565b602090810291909101015292915050565b6001600160a01b0384163b156109325760405163f23a6e6160e01b81526001600160a01b0385169063f23a6e6190610db69089908990889088908890600401611a48565b602060405180830381600087803b158015610dd057600080fd5b505af1925050508015610e00575060408051601f3d908101601f19168201909252610dfd918101906118db565b60015b610e0c57610b9f611de0565b6001600160e01b0319811663f23a6e6160e01b14610a6e5760405162461bcd60e51b815260040161030290611ae1565b610e478383836111fd565b60008281526003602052604081208054839290610e65908490611d04565b9091555050505050565b6001600160a01b038416610e955760405162461bcd60e51b815260040161030290611c87565b8151835114610eb65760405162461bcd60e51b815260040161030290611c3f565b3360005b8451811015610f5257838181518110610ed557610ed5611db4565b6020026020010151600080878481518110610ef257610ef2611db4565b602002602001015181526020019081526020016000206000886001600160a01b03166001600160a01b031681526020019081526020016000206000828254610f3a9190611cec565b90915550819050610f4a81611d83565b915050610eba565b50846001600160a01b031660006001600160a01b0316826001600160a01b03167f4a39dc06d4c0dbc64b70af90fd698a233a518aa5d07e595d983b8c0526c8f7fb8787604051610fa3929190611aa0565b60405180910390a46104c581600087878787610b05565b6001600160a01b038316610fe05760405162461bcd60e51b815260040161030290611bb2565b80518251146110015760405162461bcd60e51b815260040161030290611c3f565b604080516020810190915260009081905233905b83518110156110d757600084828151811061103257611032611db4565b60200260200101519050600084838151811061105057611050611db4565b602090810291909101810151600084815280835260408082206001600160a01b038c1683529093529190912054909150818110156110a05760405162461bcd60e51b815260040161030290611b29565b6000928352602083815260408085206001600160a01b038b16865290915290922091039055806110cf81611d83565b915050611015565b5060006001600160a01b0316846001600160a01b0316826001600160a01b03167f4a39dc06d4c0dbc64b70af90fd698a233a518aa5d07e595d983b8c0526c8f7fb8686604051611128929190611aa0565b60405180910390a450505050565b6001600160a01b03841661115c5760405162461bcd60e51b815260040161030290611c87565b3361116d8160008761098788610d27565b6000848152602081815260408083206001600160a01b03891684529091528120805485929061119d908490611cec565b909155505060408051858152602081018590526001600160a01b0380881692600092918516917fc3d58168c5ae7397731d063d5bbf3d657854427343f4c083240f7aacaa2d0f62910160405180910390a46104c581600087878787610d72565b6001600160a01b0383166112235760405162461bcd60e51b815260040161030290611bb2565b336112538185600061123487610d27565b61123d87610d27565b5050604080516020810190915260009052505050565b6000838152602081815260408083206001600160a01b0388168452909152902054828110156112945760405162461bcd60e51b815260040161030290611b29565b6000848152602081815260408083206001600160a01b03898116808652918452828520888703905582518981529384018890529092908616917fc3d58168c5ae7397731d063d5bbf3d657854427343f4c083240f7aacaa2d0f62910160405180910390a45050505050565b82805461130b90611d1b565b90600052602060002090601f01602090048101928261132d5760008555611373565b82601f1061134657805160ff1916838001178555611373565b82800160010185558215611373579182015b82811115611373578251825591602001919060010190611358565b5061137f929150611383565b5090565b5b8082111561137f5760008155600101611384565b600067ffffffffffffffff8311156113b2576113b2611dca565b6040516113c9601f8501601f191660200182611d56565b8091508381528484840111156113de57600080fd5b83836020830137600060208583010152509392505050565b80356001600160a01b038116811461140d57600080fd5b919050565b600082601f83011261142357600080fd5b8135602061143082611cc8565b60405161143d8282611d56565b8381528281019150858301600585901b8701840188101561145d57600080fd5b60005b8581101561147c57813584529284019290840190600101611460565b5090979650505050505050565b600082601f83011261149a57600080fd5b6114a983833560208501611398565b9392505050565b600080604083850312156114c357600080fd5b6114cc836113f6565b91506114da602084016113f6565b90509250929050565b600080600080600060a086880312156114fb57600080fd5b611504866113f6565b9450611512602087016113f6565b9350604086013567ffffffffffffffff8082111561152f57600080fd5b61153b89838a01611412565b9450606088013591508082111561155157600080fd5b61155d89838a01611412565b9350608088013591508082111561157357600080fd5b5061158088828901611489565b9150509295509295909350565b600080600080600060a086880312156115a557600080fd5b6115ae866113f6565b94506115bc602087016113f6565b93506040860135925060608601359150608086013567ffffffffffffffff8111156115e657600080fd5b61158088828901611489565b60008060006060848603121561160757600080fd5b611610846113f6565b9250602084013567ffffffffffffffff8082111561162d57600080fd5b61163987838801611412565b9350604086013591508082111561164f57600080fd5b5061165c86828701611412565b9150509250925092565b6000806000806080858703121561167c57600080fd5b611685856113f6565b9350602085013567ffffffffffffffff808211156116a257600080fd5b6116ae88838901611412565b945060408701359150808211156116c457600080fd5b6116d088838901611412565b935060608701359150808211156116e657600080fd5b506116f387828801611489565b91505092959194509250565b6000806040838503121561171257600080fd5b61171b836113f6565b91506020830135801515811461173057600080fd5b809150509250929050565b6000806040838503121561174e57600080fd5b611757836113f6565b946020939093013593505050565b60008060006060848603121561177a57600080fd5b611783846113f6565b95602085013595506040909401359392505050565b600080600080608085870312156117ae57600080fd5b6117b7856113f6565b93506020850135925060408501359150606085013567ffffffffffffffff8111156117e157600080fd5b6116f387828801611489565b6000806040838503121561180057600080fd5b823567ffffffffffffffff8082111561181857600080fd5b818501915085601f83011261182c57600080fd5b8135602061183982611cc8565b6040516118468282611d56565b8381528281019150858301600585901b870184018b101561186657600080fd5b600096505b848710156118905761187c816113f6565b83526001969096019591830191830161186b565b50965050860135925050808211156118a757600080fd5b506118b485828601611412565b9150509250929050565b6000602082840312156118d057600080fd5b81356114a981611e86565b6000602082840312156118ed57600080fd5b81516114a981611e86565b60006020828403121561190a57600080fd5b813567ffffffffffffffff81111561192157600080fd5b8201601f8101841361193257600080fd5b61194184823560208401611398565b949350505050565b60006020828403121561195b57600080fd5b5035919050565b600081518084526020808501945080840160005b8381101561199257815187529582019590820190600101611976565b509495945050505050565b6000815180845260005b818110156119c3576020818501810151868301820152016119a7565b818111156119d5576000602083870101525b50601f01601f19169290920160200192915050565b6001600160a01b0386811682528516602082015260a060408201819052600090611a1690830186611962565b8281036060840152611a288186611962565b90508281036080840152611a3c818561199d565b98975050505050505050565b6001600160a01b03868116825285166020820152604081018490526060810183905260a060808201819052600090611a829083018461199d565b979650505050505050565b6020815260006114a96020830184611962565b604081526000611ab36040830185611962565b8281036020840152611ac58185611962565b95945050505050565b6020815260006114a9602083018461199d565b60208082526028908201527f455243313135353a204552433131353552656365697665722072656a656374656040820152676420746f6b656e7360c01b606082015260800190565b60208082526024908201527f455243313135353a206275726e20616d6f756e7420657863656564732062616c604082015263616e636560e01b606082015260800190565b60208082526025908201527f455243313135353a207472616e7366657220746f20746865207a65726f206164604082015264647265737360d81b606082015260800190565b60208082526023908201527f455243313135353a206275726e2066726f6d20746865207a65726f206164647260408201526265737360e81b606082015260800190565b6020808252602a908201527f455243313135353a20696e73756666696369656e742062616c616e636520666f60408201526939103a3930b739b332b960b11b606082015260800190565b60208082526028908201527f455243313135353a2069647320616e6420616d6f756e7473206c656e677468206040820152670dad2e6dac2e8c6d60c31b606082015260800190565b60208082526021908201527f455243313135353a206d696e7420746f20746865207a65726f206164647265736040820152607360f81b606082015260800190565b600067ffffffffffffffff821115611ce257611ce2611dca565b5060051b60200190565b60008219821115611cff57611cff611d9e565b500190565b600082821015611d1657611d16611d9e565b500390565b600181811c90821680611d2f57607f821691505b60208210811415611d5057634e487b7160e01b600052602260045260246000fd5b50919050565b601f8201601f1916810167ffffffffffffffff81118282101715611d7c57611d7c611dca565b6040525050565b6000600019821415611d9757611d97611d9e565b5060010190565b634e487b7160e01b600052601160045260246000fd5b634e487b7160e01b600052603260045260246000fd5b634e487b7160e01b600052604160045260246000fd5b600060033d1115611df95760046000803e5060005160e01c5b90565b600060443d1015611e0a5790565b6040516003193d81016004833e81513d67ffffffffffffffff8160248401118184111715611e3a57505050505090565b8285019150815181811115611e525750505050505090565b843d8701016020828501011115611e6c5750505050505090565b611e7b60208286010187611d56565b509095945050505050565b6001600160e01b03198116811461038c57600080fdfea2646970667358221220ba5c0998d324d8fe74224bf3b9220cfde8f122ad66b8fca81060c7631678915664736f6c63430008060033",
    "sourcePath": "/Users/Shared/crypto/nextart/contracts/mocks/ERC1155SupplyMock.sol",
    "compiler": {
        "name": "solc",
        "version": "0.8.6+commit.11564f7e"
    },
    "functionHashes": {
        "balanceOf(address,uint256)": "00fdd58e",
        "balanceOfBatch(address[],uint256[])": "4e1273f4",
        "burn(address,uint256,uint256)": "f5298aca",
        "burnBatch(address,uint256[],uint256[])": "6b20c454",
        "exists(uint256)": "4f558e79",
        "isApprovedForAll(address,address)": "e985e9c5",
        "mint(address,uint256,uint256,bytes)": "731133e9",
        "mintBatch(address,uint256[],uint256[],bytes)": "1f7fdffa",
        "safeBatchTransferFrom(address,address,uint256[],uint256[],bytes)": "2eb2c2d6",
        "safeTransferFrom(address,address,uint256,uint256,bytes)": "f242432a",
        "setApprovalForAll(address,bool)": "a22cb465",
        "setURI(string)": "02fe5305",
        "supportsInterface(bytes4)": "01ffc9a7",
        "totalSupply(uint256)": "bd85b039",
        "uri(uint256)": "0e89341c"
    },
    "gasEstimates": {
        "creation": {
            "codeDepositCost": "1578000",
            "executionCost": "infinite",
            "totalCost": "infinite"
        },
        "external": {
            "balanceOf(address,uint256)": "2695",
            "balanceOfBatch(address[],uint256[])": "infinite",
            "burn(address,uint256,uint256)": "infinite",
            "burnBatch(address,uint256[],uint256[])": "infinite",
            "exists(uint256)": "2473",
            "isApprovedForAll(address,address)": "infinite",
            "mint(address,uint256,uint256,bytes)": "infinite",
            "mintBatch(address,uint256[],uint256[],bytes)": "infinite",
            "safeBatchTransferFrom(address,address,uint256[],uint256[],bytes)": "infinite",
            "safeTransferFrom(address,address,uint256,uint256,bytes)": "infinite",
            "setApprovalForAll(address,bool)": "26717",
            "setURI(string)": "infinite",
            "supportsInterface(bytes4)": "567",
            "totalSupply(uint256)": "2449",
            "uri(uint256)": "infinite"
        },
        "internal": {
            "_burn(address,uint256,uint256)": "infinite",
            "_burnBatch(address,uint256[] memory,uint256[] memory)": "infinite",
            "_mint(address,uint256,uint256,bytes memory)": "infinite",
            "_mintBatch(address,uint256[] memory,uint256[] memory,bytes memory)": "infinite"
        }
    }
}