{
    "contractName": "ERC1271WalletMock",
    "abi": [
        {
            "inputs": [
                {
                    "internalType": "address",
                    "name": "originalOwner",
                    "type": "address"
                }
            ],
            "stateMutability": "nonpayable",
            "type": "constructor"
        },
        {
            "anonymous": false,
            "inputs": [
                {
                    "indexed": true,
                    "internalType": "address",
                    "name": "previousOwner",
                    "type": "address"
                },
                {
                    "indexed": true,
                    "internalType": "address",
                    "name": "newOwner",
                    "type": "address"
                }
            ],
            "name": "OwnershipTransferred",
            "type": "event"
        },
        {
            "inputs": [
                {
                    "internalType": "bytes32",
                    "name": "hash",
                    "type": "bytes32"
                },
                {
                    "internalType": "bytes",
                    "name": "signature",
                    "type": "bytes"
                }
            ],
            "name": "isValidSignature",
            "outputs": [
                {
                    "internalType": "bytes4",
                    "name": "magicValue",
                    "type": "bytes4"
                }
            ],
            "stateMutability": "view",
            "type": "function"
        },
        {
            "inputs": [],
            "name": "owner",
            "outputs": [
                {
                    "internalType": "address",
                    "name": "",
                    "type": "address"
                }
            ],
            "stateMutability": "view",
            "type": "function"
        },
        {
            "inputs": [],
            "name": "renounceOwnership",
            "outputs": [],
            "stateMutability": "nonpayable",
            "type": "function"
        },
        {
            "inputs": [
                {
                    "internalType": "address",
                    "name": "newOwner",
                    "type": "address"
                }
            ],
            "name": "transferOwnership",
            "outputs": [],
            "stateMutability": "nonpayable",
            "type": "function"
        }
    ],
    "bytecode": "608060405234801561001057600080fd5b506040516107d23803806107d283398101604081905261002f91610167565b61003833610047565b61004181610097565b50610197565b600080546001600160a01b038381166001600160a01b0319831681178455604051919092169283917f8be0079c531659141344cd1fd0a4f28419497f9722a3daafe3b4186f6b6457e09190a35050565b6000546001600160a01b031633146100f65760405162461bcd60e51b815260206004820181905260248201527f4f776e61626c653a2063616c6c6572206973206e6f7420746865206f776e657260448201526064015b60405180910390fd5b6001600160a01b03811661015b5760405162461bcd60e51b815260206004820152602660248201527f4f776e61626c653a206e6577206f776e657220697320746865207a65726f206160448201526564647265737360d01b60648201526084016100ed565b61016481610047565b50565b60006020828403121561017957600080fd5b81516001600160a01b038116811461019057600080fd5b9392505050565b61062c806101a66000396000f3fe608060405234801561001057600080fd5b506004361061004c5760003560e01c80631626ba7e14610051578063715018a6146100825780638da5cb5b1461008c578063f2fde38b146100a7575b600080fd5b61006461005f366004610525565b6100ba565b6040516001600160e01b031990911681526020015b60405180910390f35b61008a6100f8565b005b6000546040516001600160a01b039091168152602001610079565b61008a6100b53660046104f5565b610163565b600080546001600160a01b03166100d1848461022e565b6001600160a01b0316146100e65760006100ef565b630b135d3f60e11b5b90505b92915050565b6000546001600160a01b031633146101575760405162461bcd60e51b815260206004820181905260248201527f4f776e61626c653a2063616c6c6572206973206e6f7420746865206f776e657260448201526064015b60405180910390fd5b61016160006102d2565b565b6000546001600160a01b031633146101bd5760405162461bcd60e51b815260206004820181905260248201527f4f776e61626c653a2063616c6c6572206973206e6f7420746865206f776e6572604482015260640161014e565b6001600160a01b0381166102225760405162461bcd60e51b815260206004820152602660248201527f4f776e61626c653a206e6577206f776e657220697320746865207a65726f206160448201526564647265737360d01b606482015260840161014e565b61022b816102d2565b50565b60008151604114156102625760208201516040830151606084015160001a61025886828585610322565b93505050506100f2565b81516040141561028a57602082015160408301516102818583836104cb565b925050506100f2565b60405162461bcd60e51b815260206004820152601f60248201527f45434453413a20696e76616c6964207369676e6174757265206c656e67746800604482015260640161014e565b600080546001600160a01b038381166001600160a01b0319831681178455604051919092169283917f8be0079c531659141344cd1fd0a4f28419497f9722a3daafe3b4186f6b6457e09190a35050565b60007f7fffffffffffffffffffffffffffffff5d576e7357a4501ddfe92f46681b20a082111561039f5760405162461bcd60e51b815260206004820152602260248201527f45434453413a20696e76616c6964207369676e6174757265202773272076616c604482015261756560f01b606482015260840161014e565b8360ff16601b14806103b457508360ff16601c145b61040b5760405162461bcd60e51b815260206004820152602260248201527f45434453413a20696e76616c6964207369676e6174757265202776272076616c604482015261756560f01b606482015260840161014e565b6040805160008082526020820180845288905260ff871692820192909252606081018590526080810184905260019060a0016020604051602081039080840390855afa15801561045f573d6000803e3d6000fd5b5050604051601f1901519150506001600160a01b0381166104c25760405162461bcd60e51b815260206004820152601860248201527f45434453413a20696e76616c6964207369676e61747572650000000000000000604482015260640161014e565b95945050505050565b60006001600160ff1b03821660ff83901c601b016104eb86828785610322565b9695505050505050565b60006020828403121561050757600080fd5b81356001600160a01b038116811461051e57600080fd5b9392505050565b6000806040838503121561053857600080fd5b82359150602083013567ffffffffffffffff8082111561055757600080fd5b818501915085601f83011261056b57600080fd5b81358181111561057d5761057d6105e0565b604051601f8201601f19908116603f011681019083821181831017156105a5576105a56105e0565b816040528281528860208487010111156105be57600080fd5b8260208601602083013760006020848301015280955050505050509250929050565b634e487b7160e01b600052604160045260246000fdfea26469706673582212201f2df97849061cd6285245efcad71b22837164167a2d73497201c636ddf4206d64736f6c63430008060033",
    "sourcePath": "/Users/Shared/crypto/nextart/contracts/mocks/ERC1271WalletMock.sol",
    "compiler": {
        "name": "solc",
        "version": "0.8.6+commit.11564f7e"
    },
    "functionHashes": {
        "isValidSignature(bytes32,bytes)": "1626ba7e",
        "owner()": "8da5cb5b",
        "renounceOwnership()": "715018a6",
        "transferOwnership(address)": "f2fde38b"
    },
    "gasEstimates": {
        "creation": {
            "codeDepositCost": "316000",
            "executionCost": "infinite",
            "totalCost": "infinite"
        },
        "external": {
            "isValidSignature(bytes32,bytes)": "infinite",
            "owner()": "2323",
            "renounceOwnership()": "28114",
            "transferOwnership(address)": "28318"
        }
    }
}