{
    "contractName": "ERC1155BurnableMock",
    "abi": [
        {
            "inputs": [
                {
                    "internalType": "string",
                    "name": "uri",
                    "type": "string"
                }
            ],
            "stateMutability": "nonpayable",
            "type": "constructor"
        },
        {
            "anonymous": false,
            "inputs": [
                {
                    "indexed": true,
                    "internalType": "address",
                    "name": "account",
                    "type": "address"
                },
                {
                    "indexed": true,
                    "internalType": "address",
                    "name": "operator",
                    "type": "address"
                },
                {
                    "indexed": false,
                    "internalType": "bool",
                    "name": "approved",
                    "type": "bool"
                }
            ],
            "name": "ApprovalForAll",
            "type": "event"
        },
        {
            "anonymous": false,
            "inputs": [
                {
                    "indexed": true,
                    "internalType": "address",
                    "name": "operator",
                    "type": "address"
                },
                {
                    "indexed": true,
                    "internalType": "address",
                    "name": "from",
                    "type": "address"
                },
                {
                    "indexed": true,
                    "internalType": "address",
                    "name": "to",
                    "type": "address"
                },
                {
                    "indexed": false,
                    "internalType": "uint256[]",
                    "name": "ids",
                    "type": "uint256[]"
                },
                {
                    "indexed": false,
                    "internalType": "uint256[]",
                    "name": "values",
                    "type": "uint256[]"
                }
            ],
            "name": "TransferBatch",
            "type": "event"
        },
        {
            "anonymous": false,
            "inputs": [
                {
                    "indexed": true,
                    "internalType": "address",
                    "name": "operator",
                    "type": "address"
                },
                {
                    "indexed": true,
                    "internalType": "address",
                    "name": "from",
                    "type": "address"
                },
                {
                    "indexed": true,
                    "internalType": "address",
                    "name": "to",
                    "type": "address"
                },
                {
                    "indexed": false,
                    "internalType": "uint256",
                    "name": "id",
                    "type": "uint256"
                },
                {
                    "indexed": false,
                    "internalType": "uint256",
                    "name": "value",
                    "type": "uint256"
                }
            ],
            "name": "TransferSingle",
            "type": "event"
        },
        {
            "anonymous": false,
            "inputs": [
                {
                    "indexed": false,
                    "internalType": "string",
                    "name": "value",
                    "type": "string"
                },
                {
                    "indexed": true,
                    "internalType": "uint256",
                    "name": "id",
                    "type": "uint256"
                }
            ],
            "name": "URI",
            "type": "event"
        },
        {
            "inputs": [
                {
                    "internalType": "address",
                    "name": "account",
                    "type": "address"
                },
                {
                    "internalType": "uint256",
                    "name": "id",
                    "type": "uint256"
                }
            ],
            "name": "balanceOf",
            "outputs": [
                {
                    "internalType": "uint256",
                    "name": "",
                    "type": "uint256"
                }
            ],
            "stateMutability": "view",
            "type": "function"
        },
        {
            "inputs": [
                {
                    "internalType": "address[]",
                    "name": "accounts",
                    "type": "address[]"
                },
                {
                    "internalType": "uint256[]",
                    "name": "ids",
                    "type": "uint256[]"
                }
            ],
            "name": "balanceOfBatch",
            "outputs": [
                {
                    "internalType": "uint256[]",
                    "name": "",
                    "type": "uint256[]"
                }
            ],
            "stateMutability": "view",
            "type": "function"
        },
        {
            "inputs": [
                {
                    "internalType": "address",
                    "name": "account",
                    "type": "address"
                },
                {
                    "internalType": "uint256",
                    "name": "id",
                    "type": "uint256"
                },
                {
                    "internalType": "uint256",
                    "name": "value",
                    "type": "uint256"
                }
            ],
            "name": "burn",
            "outputs": [],
            "stateMutability": "nonpayable",
            "type": "function"
        },
        {
            "inputs": [
                {
                    "internalType": "address",
                    "name": "account",
                    "type": "address"
                },
                {
                    "internalType": "uint256[]",
                    "name": "ids",
                    "type": "uint256[]"
                },
                {
                    "internalType": "uint256[]",
                    "name": "values",
                    "type": "uint256[]"
                }
            ],
            "name": "burnBatch",
            "outputs": [],
            "stateMutability": "nonpayable",
            "type": "function"
        },
        {
            "inputs": [
                {
                    "internalType": "address",
                    "name": "account",
                    "type": "address"
                },
                {
                    "internalType": "address",
                    "name": "operator",
                    "type": "address"
                }
            ],
            "name": "isApprovedForAll",
            "outputs": [
                {
                    "internalType": "bool",
                    "name": "",
                    "type": "bool"
                }
            ],
            "stateMutability": "view",
            "type": "function"
        },
        {
            "inputs": [
                {
                    "internalType": "address",
                    "name": "to",
                    "type": "address"
                },
                {
                    "internalType": "uint256",
                    "name": "id",
                    "type": "uint256"
                },
                {
                    "internalType": "uint256",
                    "name": "value",
                    "type": "uint256"
                },
                {
                    "internalType": "bytes",
                    "name": "data",
                    "type": "bytes"
                }
            ],
            "name": "mint",
            "outputs": [],
            "stateMutability": "nonpayable",
            "type": "function"
        },
        {
            "inputs": [
                {
                    "internalType": "address",
                    "name": "from",
                    "type": "address"
                },
                {
                    "internalType": "address",
                    "name": "to",
                    "type": "address"
                },
                {
                    "internalType": "uint256[]",
                    "name": "ids",
                    "type": "uint256[]"
                },
                {
                    "internalType": "uint256[]",
                    "name": "amounts",
                    "type": "uint256[]"
                },
                {
                    "internalType": "bytes",
                    "name": "data",
                    "type": "bytes"
                }
            ],
            "name": "safeBatchTransferFrom",
            "outputs": [],
            "stateMutability": "nonpayable",
            "type": "function"
        },
        {
            "inputs": [
                {
                    "internalType": "address",
                    "name": "from",
                    "type": "address"
                },
                {
                    "internalType": "address",
                    "name": "to",
                    "type": "address"
                },
                {
                    "internalType": "uint256",
                    "name": "id",
                    "type": "uint256"
                },
                {
                    "internalType": "uint256",
                    "name": "amount",
                    "type": "uint256"
                },
                {
                    "internalType": "bytes",
                    "name": "data",
                    "type": "bytes"
                }
            ],
            "name": "safeTransferFrom",
            "outputs": [],
            "stateMutability": "nonpayable",
            "type": "function"
        },
        {
            "inputs": [
                {
                    "internalType": "address",
                    "name": "operator",
                    "type": "address"
                },
                {
                    "internalType": "bool",
                    "name": "approved",
                    "type": "bool"
                }
            ],
            "name": "setApprovalForAll",
            "outputs": [],
            "stateMutability": "nonpayable",
            "type": "function"
        },
        {
            "inputs": [
                {
                    "internalType": "bytes4",
                    "name": "interfaceId",
                    "type": "bytes4"
                }
            ],
            "name": "supportsInterface",
            "outputs": [
                {
                    "internalType": "bool",
                    "name": "",
                    "type": "bool"
                }
            ],
            "stateMutability": "view",
            "type": "function"
        },
        {
            "inputs": [
                {
                    "internalType": "uint256",
                    "name": "",
                    "type": "uint256"
                }
            ],
            "name": "uri",
            "outputs": [
                {
                    "internalType": "string",
                    "name": "",
                    "type": "string"
                }
            ],
            "stateMutability": "view",
            "type": "function"
        }
    ],
    "bytecode": "60806040523480156200001157600080fd5b5060405162001c2a38038062001c2a833981016040819052620000349162000107565b80620000408162000048565b505062000236565b80516200005d90600290602084019062000061565b5050565b8280546200006f90620001e3565b90600052602060002090601f016020900481019282620000935760008555620000de565b82601f10620000ae57805160ff1916838001178555620000de565b82800160010185558215620000de579182015b82811115620000de578251825591602001919060010190620000c1565b50620000ec929150620000f0565b5090565b5b80821115620000ec5760008155600101620000f1565b600060208083850312156200011b57600080fd5b82516001600160401b03808211156200013357600080fd5b818501915085601f8301126200014857600080fd5b8151818111156200015d576200015d62000220565b604051601f8201601f19908116603f0116810190838211818310171562000188576200018862000220565b816040528281528886848701011115620001a157600080fd5b600093505b82841015620001c55784840186015181850187015292850192620001a6565b82841115620001d75760008684830101525b98975050505050505050565b600181811c90821680620001f857607f821691505b602082108114156200021a57634e487b7160e01b600052602260045260246000fd5b50919050565b634e487b7160e01b600052604160045260246000fd5b6119e480620002466000396000f3fe608060405234801561001057600080fd5b50600436106100a85760003560e01c80636b20c454116100715780636b20c4541461014b578063731133e91461015e578063a22cb46514610171578063e985e9c514610184578063f242432a146101c0578063f5298aca146101d357600080fd5b8062fdd58e146100ad57806301ffc9a7146100d35780630e89341c146100f65780632eb2c2d6146101165780634e1273f41461012b575b600080fd5b6100c06100bb366004611297565b6101e6565b6040519081526020015b60405180910390f35b6100e66100e1366004611426565b61027d565b60405190151581526020016100ca565b610109610104366004611467565b6102cf565b6040516100ca91906115ec565b6101296101243660046110d8565b610363565b005b61013e610139366004611355565b6103fa565b6040516100ca91906115ab565b6101296101593660046111e7565b610524565b61012961016c3660046112f4565b61056c565b61012961017f36600461125b565b61057e565b6100e66101923660046110a5565b6001600160a01b03918216600090815260016020908152604080832093909416825291909152205460ff1690565b6101296101ce366004611182565b610655565b6101296101e13660046112c1565b61069a565b60006001600160a01b0383166102575760405162461bcd60e51b815260206004820152602b60248201527f455243313135353a2062616c616e636520717565727920666f7220746865207a60448201526a65726f206164647265737360a81b60648201526084015b60405180910390fd5b506000908152602081815260408083206001600160a01b03949094168352929052205490565b60006001600160e01b03198216636cdb3d1360e11b14806102ae57506001600160e01b031982166303a24d0760e21b145b806102c957506301ffc9a760e01b6001600160e01b03198316145b92915050565b6060600280546102de9061182a565b80601f016020809104026020016040519081016040528092919081815260200182805461030a9061182a565b80156103575780601f1061032c57610100808354040283529160200191610357565b820191906000526020600020905b81548152906001019060200180831161033a57829003601f168201915b50505050509050919050565b6001600160a01b03851633148061037f575061037f8533610192565b6103e65760405162461bcd60e51b815260206004820152603260248201527f455243313135353a207472616e736665722063616c6c6572206973206e6f74206044820152711bdddb995c881b9bdc88185c1c1c9bdd995960721b606482015260840161024e565b6103f385858585856106dd565b5050505050565b6060815183511461045f5760405162461bcd60e51b815260206004820152602960248201527f455243313135353a206163636f756e747320616e6420696473206c656e677468604482015268040dad2e6dac2e8c6d60bb1b606482015260840161024e565b6000835167ffffffffffffffff81111561047b5761047b6118d9565b6040519080825280602002602001820160405280156104a4578160200160208202803683370190505b50905060005b845181101561051c576104ef8582815181106104c8576104c86118c3565b60200260200101518583815181106104e2576104e26118c3565b60200260200101516101e6565b828281518110610501576105016118c3565b602090810291909101015261051581611892565b90506104aa565b509392505050565b6001600160a01b03831633148061054057506105408333610192565b61055c5760405162461bcd60e51b815260040161024e9061168b565b610567838383610879565b505050565b610578848484846109f5565b50505050565b336001600160a01b03831614156105e95760405162461bcd60e51b815260206004820152602960248201527f455243313135353a2073657474696e6720617070726f76616c20737461747573604482015268103337b91039b2b63360b91b606482015260840161024e565b3360008181526001602090815260408083206001600160a01b03871680855290835292819020805460ff191686151590811790915590519081529192917f17307eab39ab6107e8899845ad3d59bd9653f200f220920489ca2b5937696c31910160405180910390a35050565b6001600160a01b03851633148061067157506106718533610192565b61068d5760405162461bcd60e51b815260040161024e9061168b565b6103f38585858585610aff565b6001600160a01b0383163314806106b657506106b68333610192565b6106d25760405162461bcd60e51b815260040161024e9061168b565b610567838383610c1c565b81518351146106fe5760405162461bcd60e51b815260040161024e906117a6565b6001600160a01b0384166107245760405162461bcd60e51b815260040161024e906116d4565b3360005b845181101561080b576000858281518110610745576107456118c3565b602002602001015190506000858381518110610763576107636118c3565b602090810291909101810151600084815280835260408082206001600160a01b038e1683529093529190912054909150818110156107b35760405162461bcd60e51b815260040161024e9061175c565b6000838152602081815260408083206001600160a01b038e8116855292528083208585039055908b168252812080548492906107f0908490611812565b925050819055505050508061080490611892565b9050610728565b50846001600160a01b0316866001600160a01b0316826001600160a01b03167f4a39dc06d4c0dbc64b70af90fd698a233a518aa5d07e595d983b8c0526c8f7fb878760405161085b9291906115be565b60405180910390a4610871818787878787610d1e565b505050505050565b6001600160a01b03831661089f5760405162461bcd60e51b815260040161024e90611719565b80518251146108c05760405162461bcd60e51b815260040161024e906117a6565b604080516020810190915260009081905233905b83518110156109965760008482815181106108f1576108f16118c3565b60200260200101519050600084838151811061090f5761090f6118c3565b602090810291909101810151600084815280835260408082206001600160a01b038c16835290935291909120549091508181101561095f5760405162461bcd60e51b815260040161024e90611647565b6000928352602083815260408085206001600160a01b038b168652909152909220910390558061098e81611892565b9150506108d4565b5060006001600160a01b0316846001600160a01b0316826001600160a01b03167f4a39dc06d4c0dbc64b70af90fd698a233a518aa5d07e595d983b8c0526c8f7fb86866040516109e79291906115be565b60405180910390a450505050565b6001600160a01b038416610a555760405162461bcd60e51b815260206004820152602160248201527f455243313135353a206d696e7420746f20746865207a65726f206164647265736044820152607360f81b606482015260840161024e565b33610a6f81600087610a6688610e89565b6103f388610e89565b6000848152602081815260408083206001600160a01b038916845290915281208054859290610a9f908490611812565b909155505060408051858152602081018590526001600160a01b0380881692600092918516917fc3d58168c5ae7397731d063d5bbf3d657854427343f4c083240f7aacaa2d0f62910160405180910390a46103f381600087878787610ed4565b6001600160a01b038416610b255760405162461bcd60e51b815260040161024e906116d4565b33610b35818787610a6688610e89565b6000848152602081815260408083206001600160a01b038a16845290915290205483811015610b765760405162461bcd60e51b815260040161024e9061175c565b6000858152602081815260408083206001600160a01b038b8116855292528083208785039055908816825281208054869290610bb3908490611812565b909155505060408051868152602081018690526001600160a01b03808916928a821692918616917fc3d58168c5ae7397731d063d5bbf3d657854427343f4c083240f7aacaa2d0f62910160405180910390a4610c13828888888888610ed4565b50505050505050565b6001600160a01b038316610c425760405162461bcd60e51b815260040161024e90611719565b33610c7281856000610c5387610e89565b610c5c87610e89565b5050604080516020810190915260009052505050565b6000838152602081815260408083206001600160a01b038816845290915290205482811015610cb35760405162461bcd60e51b815260040161024e90611647565b6000848152602081815260408083206001600160a01b03898116808652918452828520888703905582518981529384018890529092908616917fc3d58168c5ae7397731d063d5bbf3d657854427343f4c083240f7aacaa2d0f62910160405180910390a45050505050565b6001600160a01b0384163b156108715760405163bc197c8160e01b81526001600160a01b0385169063bc197c8190610d629089908990889088908890600401611508565b602060405180830381600087803b158015610d7c57600080fd5b505af1925050508015610dac575060408051601f3d908101601f19168201909252610da99181019061144a565b60015b610e5957610db86118ef565b806308c379a01415610df25750610dcd61190b565b80610dd85750610df4565b8060405162461bcd60e51b815260040161024e91906115ec565b505b60405162461bcd60e51b815260206004820152603460248201527f455243313135353a207472616e7366657220746f206e6f6e20455243313135356044820152732932b1b2b4bb32b91034b6b83632b6b2b73a32b960611b606482015260840161024e565b6001600160e01b0319811663bc197c8160e01b14610c135760405162461bcd60e51b815260040161024e906115ff565b60408051600180825281830190925260609160009190602080830190803683370190505090508281600081518110610ec357610ec36118c3565b602090810291909101015292915050565b6001600160a01b0384163b156108715760405163f23a6e6160e01b81526001600160a01b0385169063f23a6e6190610f189089908990889088908890600401611566565b602060405180830381600087803b158015610f3257600080fd5b505af1925050508015610f62575060408051601f3d908101601f19168201909252610f5f9181019061144a565b60015b610f6e57610db86118ef565b6001600160e01b0319811663f23a6e6160e01b14610c135760405162461bcd60e51b815260040161024e906115ff565b80356001600160a01b0381168114610fb557600080fd5b919050565b600082601f830112610fcb57600080fd5b81356020610fd8826117ee565b604051610fe58282611865565b8381528281019150858301600585901b8701840188101561100557600080fd5b60005b8581101561102457813584529284019290840190600101611008565b5090979650505050505050565b600082601f83011261104257600080fd5b813567ffffffffffffffff81111561105c5761105c6118d9565b604051611073601f8301601f191660200182611865565b81815284602083860101111561108857600080fd5b816020850160208301376000918101602001919091529392505050565b600080604083850312156110b857600080fd5b6110c183610f9e565b91506110cf60208401610f9e565b90509250929050565b600080600080600060a086880312156110f057600080fd5b6110f986610f9e565b945061110760208701610f9e565b9350604086013567ffffffffffffffff8082111561112457600080fd5b61113089838a01610fba565b9450606088013591508082111561114657600080fd5b61115289838a01610fba565b9350608088013591508082111561116857600080fd5b5061117588828901611031565b9150509295509295909350565b600080600080600060a0868803121561119a57600080fd5b6111a386610f9e565b94506111b160208701610f9e565b93506040860135925060608601359150608086013567ffffffffffffffff8111156111db57600080fd5b61117588828901611031565b6000806000606084860312156111fc57600080fd5b61120584610f9e565b9250602084013567ffffffffffffffff8082111561122257600080fd5b61122e87838801610fba565b9350604086013591508082111561124457600080fd5b5061125186828701610fba565b9150509250925092565b6000806040838503121561126e57600080fd5b61127783610f9e565b91506020830135801515811461128c57600080fd5b809150509250929050565b600080604083850312156112aa57600080fd5b6112b383610f9e565b946020939093013593505050565b6000806000606084860312156112d657600080fd5b6112df84610f9e565b95602085013595506040909401359392505050565b6000806000806080858703121561130a57600080fd5b61131385610f9e565b93506020850135925060408501359150606085013567ffffffffffffffff81111561133d57600080fd5b61134987828801611031565b91505092959194509250565b6000806040838503121561136857600080fd5b823567ffffffffffffffff8082111561138057600080fd5b818501915085601f83011261139457600080fd5b813560206113a1826117ee565b6040516113ae8282611865565b8381528281019150858301600585901b870184018b10156113ce57600080fd5b600096505b848710156113f8576113e481610f9e565b8352600196909601959183019183016113d3565b509650508601359250508082111561140f57600080fd5b5061141c85828601610fba565b9150509250929050565b60006020828403121561143857600080fd5b813561144381611995565b9392505050565b60006020828403121561145c57600080fd5b815161144381611995565b60006020828403121561147957600080fd5b5035919050565b600081518084526020808501945080840160005b838110156114b057815187529582019590820190600101611494565b509495945050505050565b6000815180845260005b818110156114e1576020818501810151868301820152016114c5565b818111156114f3576000602083870101525b50601f01601f19169290920160200192915050565b6001600160a01b0386811682528516602082015260a06040820181905260009061153490830186611480565b82810360608401526115468186611480565b9050828103608084015261155a81856114bb565b98975050505050505050565b6001600160a01b03868116825285166020820152604081018490526060810183905260a0608082018190526000906115a0908301846114bb565b979650505050505050565b6020815260006114436020830184611480565b6040815260006115d16040830185611480565b82810360208401526115e38185611480565b95945050505050565b60208152600061144360208301846114bb565b60208082526028908201527f455243313135353a204552433131353552656365697665722072656a656374656040820152676420746f6b656e7360c01b606082015260800190565b60208082526024908201527f455243313135353a206275726e20616d6f756e7420657863656564732062616c604082015263616e636560e01b606082015260800190565b60208082526029908201527f455243313135353a2063616c6c6572206973206e6f74206f776e6572206e6f7260408201526808185c1c1c9bdd995960ba1b606082015260800190565b60208082526025908201527f455243313135353a207472616e7366657220746f20746865207a65726f206164604082015264647265737360d81b606082015260800190565b60208082526023908201527f455243313135353a206275726e2066726f6d20746865207a65726f206164647260408201526265737360e81b606082015260800190565b6020808252602a908201527f455243313135353a20696e73756666696369656e742062616c616e636520666f60408201526939103a3930b739b332b960b11b606082015260800190565b60208082526028908201527f455243313135353a2069647320616e6420616d6f756e7473206c656e677468206040820152670dad2e6dac2e8c6d60c31b606082015260800190565b600067ffffffffffffffff821115611808576118086118d9565b5060051b60200190565b60008219821115611825576118256118ad565b500190565b600181811c9082168061183e57607f821691505b6020821081141561185f57634e487b7160e01b600052602260045260246000fd5b50919050565b601f8201601f1916810167ffffffffffffffff8111828210171561188b5761188b6118d9565b6040525050565b60006000198214156118a6576118a66118ad565b5060010190565b634e487b7160e01b600052601160045260246000fd5b634e487b7160e01b600052603260045260246000fd5b634e487b7160e01b600052604160045260246000fd5b600060033d11156119085760046000803e5060005160e01c5b90565b600060443d10156119195790565b6040516003193d81016004833e81513d67ffffffffffffffff816024840111818411171561194957505050505090565b82850191508151818111156119615750505050505090565b843d870101602082850101111561197b5750505050505090565b61198a60208286010187611865565b509095945050505050565b6001600160e01b0319811681146119ab57600080fd5b5056fea26469706673582212208b4fca8bc314e36a943f87c91e6a9b12085ba4ea82d3a004748f4c3941ddd10264736f6c63430008060033",
    "sourcePath": "/Users/Shared/crypto/nextart/contracts/mocks/ERC1155BurnableMock.sol",
    "compiler": {
        "name": "solc",
        "version": "0.8.6+commit.11564f7e"
    },
    "functionHashes": {
        "balanceOf(address,uint256)": "00fdd58e",
        "balanceOfBatch(address[],uint256[])": "4e1273f4",
        "burn(address,uint256,uint256)": "f5298aca",
        "burnBatch(address,uint256[],uint256[])": "6b20c454",
        "isApprovedForAll(address,address)": "e985e9c5",
        "mint(address,uint256,uint256,bytes)": "731133e9",
        "safeBatchTransferFrom(address,address,uint256[],uint256[],bytes)": "2eb2c2d6",
        "safeTransferFrom(address,address,uint256,uint256,bytes)": "f242432a",
        "setApprovalForAll(address,bool)": "a22cb465",
        "supportsInterface(bytes4)": "01ffc9a7",
        "uri(uint256)": "0e89341c"
    },
    "gasEstimates": {
        "creation": {
            "codeDepositCost": "1325600",
            "executionCost": "infinite",
            "totalCost": "infinite"
        },
        "external": {
            "balanceOf(address,uint256)": "2672",
            "balanceOfBatch(address[],uint256[])": "infinite",
            "burn(address,uint256,uint256)": "infinite",
            "burnBatch(address,uint256[],uint256[])": "infinite",
            "isApprovedForAll(address,address)": "infinite",
            "mint(address,uint256,uint256,bytes)": "infinite",
            "safeBatchTransferFrom(address,address,uint256[],uint256[],bytes)": "infinite",
            "safeTransferFrom(address,address,uint256,uint256,bytes)": "infinite",
            "setApprovalForAll(address,bool)": "26672",
            "supportsInterface(bytes4)": "544",
            "uri(uint256)": "infinite"
        }
    }
}