{
    "contractName": "ERC1155Mock",
    "abi": [
        {
            "inputs": [
                {
                    "internalType": "string",
                    "name": "uri",
                    "type": "string"
                }
            ],
            "stateMutability": "nonpayable",
            "type": "constructor"
        },
        {
            "anonymous": false,
            "inputs": [
                {
                    "indexed": true,
                    "internalType": "address",
                    "name": "account",
                    "type": "address"
                },
                {
                    "indexed": true,
                    "internalType": "address",
                    "name": "operator",
                    "type": "address"
                },
                {
                    "indexed": false,
                    "internalType": "bool",
                    "name": "approved",
                    "type": "bool"
                }
            ],
            "name": "ApprovalForAll",
            "type": "event"
        },
        {
            "anonymous": false,
            "inputs": [
                {
                    "indexed": true,
                    "internalType": "address",
                    "name": "operator",
                    "type": "address"
                },
                {
                    "indexed": true,
                    "internalType": "address",
                    "name": "from",
                    "type": "address"
                },
                {
                    "indexed": true,
                    "internalType": "address",
                    "name": "to",
                    "type": "address"
                },
                {
                    "indexed": false,
                    "internalType": "uint256[]",
                    "name": "ids",
                    "type": "uint256[]"
                },
                {
                    "indexed": false,
                    "internalType": "uint256[]",
                    "name": "values",
                    "type": "uint256[]"
                }
            ],
            "name": "TransferBatch",
            "type": "event"
        },
        {
            "anonymous": false,
            "inputs": [
                {
                    "indexed": true,
                    "internalType": "address",
                    "name": "operator",
                    "type": "address"
                },
                {
                    "indexed": true,
                    "internalType": "address",
                    "name": "from",
                    "type": "address"
                },
                {
                    "indexed": true,
                    "internalType": "address",
                    "name": "to",
                    "type": "address"
                },
                {
                    "indexed": false,
                    "internalType": "uint256",
                    "name": "id",
                    "type": "uint256"
                },
                {
                    "indexed": false,
                    "internalType": "uint256",
                    "name": "value",
                    "type": "uint256"
                }
            ],
            "name": "TransferSingle",
            "type": "event"
        },
        {
            "anonymous": false,
            "inputs": [
                {
                    "indexed": false,
                    "internalType": "string",
                    "name": "value",
                    "type": "string"
                },
                {
                    "indexed": true,
                    "internalType": "uint256",
                    "name": "id",
                    "type": "uint256"
                }
            ],
            "name": "URI",
            "type": "event"
        },
        {
            "inputs": [
                {
                    "internalType": "address",
                    "name": "account",
                    "type": "address"
                },
                {
                    "internalType": "uint256",
                    "name": "id",
                    "type": "uint256"
                }
            ],
            "name": "balanceOf",
            "outputs": [
                {
                    "internalType": "uint256",
                    "name": "",
                    "type": "uint256"
                }
            ],
            "stateMutability": "view",
            "type": "function"
        },
        {
            "inputs": [
                {
                    "internalType": "address[]",
                    "name": "accounts",
                    "type": "address[]"
                },
                {
                    "internalType": "uint256[]",
                    "name": "ids",
                    "type": "uint256[]"
                }
            ],
            "name": "balanceOfBatch",
            "outputs": [
                {
                    "internalType": "uint256[]",
                    "name": "",
                    "type": "uint256[]"
                }
            ],
            "stateMutability": "view",
            "type": "function"
        },
        {
            "inputs": [
                {
                    "internalType": "address",
                    "name": "owner",
                    "type": "address"
                },
                {
                    "internalType": "uint256",
                    "name": "id",
                    "type": "uint256"
                },
                {
                    "internalType": "uint256",
                    "name": "value",
                    "type": "uint256"
                }
            ],
            "name": "burn",
            "outputs": [],
            "stateMutability": "nonpayable",
            "type": "function"
        },
        {
            "inputs": [
                {
                    "internalType": "address",
                    "name": "owner",
                    "type": "address"
                },
                {
                    "internalType": "uint256[]",
                    "name": "ids",
                    "type": "uint256[]"
                },
                {
                    "internalType": "uint256[]",
                    "name": "values",
                    "type": "uint256[]"
                }
            ],
            "name": "burnBatch",
            "outputs": [],
            "stateMutability": "nonpayable",
            "type": "function"
        },
        {
            "inputs": [
                {
                    "internalType": "address",
                    "name": "account",
                    "type": "address"
                },
                {
                    "internalType": "address",
                    "name": "operator",
                    "type": "address"
                }
            ],
            "name": "isApprovedForAll",
            "outputs": [
                {
                    "internalType": "bool",
                    "name": "",
                    "type": "bool"
                }
            ],
            "stateMutability": "view",
            "type": "function"
        },
        {
            "inputs": [
                {
                    "internalType": "address",
                    "name": "to",
                    "type": "address"
                },
                {
                    "internalType": "uint256",
                    "name": "id",
                    "type": "uint256"
                },
                {
                    "internalType": "uint256",
                    "name": "value",
                    "type": "uint256"
                },
                {
                    "internalType": "bytes",
                    "name": "data",
                    "type": "bytes"
                }
            ],
            "name": "mint",
            "outputs": [],
            "stateMutability": "nonpayable",
            "type": "function"
        },
        {
            "inputs": [
                {
                    "internalType": "address",
                    "name": "to",
                    "type": "address"
                },
                {
                    "internalType": "uint256[]",
                    "name": "ids",
                    "type": "uint256[]"
                },
                {
                    "internalType": "uint256[]",
                    "name": "values",
                    "type": "uint256[]"
                },
                {
                    "internalType": "bytes",
                    "name": "data",
                    "type": "bytes"
                }
            ],
            "name": "mintBatch",
            "outputs": [],
            "stateMutability": "nonpayable",
            "type": "function"
        },
        {
            "inputs": [
                {
                    "internalType": "address",
                    "name": "from",
                    "type": "address"
                },
                {
                    "internalType": "address",
                    "name": "to",
                    "type": "address"
                },
                {
                    "internalType": "uint256[]",
                    "name": "ids",
                    "type": "uint256[]"
                },
                {
                    "internalType": "uint256[]",
                    "name": "amounts",
                    "type": "uint256[]"
                },
                {
                    "internalType": "bytes",
                    "name": "data",
                    "type": "bytes"
                }
            ],
            "name": "safeBatchTransferFrom",
            "outputs": [],
            "stateMutability": "nonpayable",
            "type": "function"
        },
        {
            "inputs": [
                {
                    "internalType": "address",
                    "name": "from",
                    "type": "address"
                },
                {
                    "internalType": "address",
                    "name": "to",
                    "type": "address"
                },
                {
                    "internalType": "uint256",
                    "name": "id",
                    "type": "uint256"
                },
                {
                    "internalType": "uint256",
                    "name": "amount",
                    "type": "uint256"
                },
                {
                    "internalType": "bytes",
                    "name": "data",
                    "type": "bytes"
                }
            ],
            "name": "safeTransferFrom",
            "outputs": [],
            "stateMutability": "nonpayable",
            "type": "function"
        },
        {
            "inputs": [
                {
                    "internalType": "address",
                    "name": "operator",
                    "type": "address"
                },
                {
                    "internalType": "bool",
                    "name": "approved",
                    "type": "bool"
                }
            ],
            "name": "setApprovalForAll",
            "outputs": [],
            "stateMutability": "nonpayable",
            "type": "function"
        },
        {
            "inputs": [
                {
                    "internalType": "string",
                    "name": "newuri",
                    "type": "string"
                }
            ],
            "name": "setURI",
            "outputs": [],
            "stateMutability": "nonpayable",
            "type": "function"
        },
        {
            "inputs": [
                {
                    "internalType": "bytes4",
                    "name": "interfaceId",
                    "type": "bytes4"
                }
            ],
            "name": "supportsInterface",
            "outputs": [
                {
                    "internalType": "bool",
                    "name": "",
                    "type": "bool"
                }
            ],
            "stateMutability": "view",
            "type": "function"
        },
        {
            "inputs": [
                {
                    "internalType": "uint256",
                    "name": "",
                    "type": "uint256"
                }
            ],
            "name": "uri",
            "outputs": [
                {
                    "internalType": "string",
                    "name": "",
                    "type": "string"
                }
            ],
            "stateMutability": "view",
            "type": "function"
        }
    ],
    "bytecode": "60806040523480156200001157600080fd5b5060405162001efe38038062001efe833981016040819052620000349162000107565b80620000408162000048565b505062000236565b80516200005d90600290602084019062000061565b5050565b8280546200006f90620001e3565b90600052602060002090601f016020900481019282620000935760008555620000de565b82601f10620000ae57805160ff1916838001178555620000de565b82800160010185558215620000de579182015b82811115620000de578251825591602001919060010190620000c1565b50620000ec929150620000f0565b5090565b5b80821115620000ec5760008155600101620000f1565b600060208083850312156200011b57600080fd5b82516001600160401b03808211156200013357600080fd5b818501915085601f8301126200014857600080fd5b8151818111156200015d576200015d62000220565b604051601f8201601f19908116603f0116810190838211818310171562000188576200018862000220565b816040528281528886848701011115620001a157600080fd5b600093505b82841015620001c55784840186015181850187015292850192620001a6565b82841115620001d75760008684830101525b98975050505050505050565b600181811c90821680620001f857607f821691505b602082108114156200021a57634e487b7160e01b600052602260045260246000fd5b50919050565b634e487b7160e01b600052604160045260246000fd5b611cb880620002466000396000f3fe608060405234801561001057600080fd5b50600436106100ce5760003560e01c80634e1273f41161008c578063a22cb46511610066578063a22cb465146101bd578063e985e9c5146101d0578063f242432a1461020c578063f5298aca1461021f57600080fd5b80634e1273f4146101775780636b20c45414610197578063731133e9146101aa57600080fd5b8062fdd58e146100d357806301ffc9a7146100f957806302fe53051461011c5780630e89341c146101315780631f7fdffa146101515780632eb2c2d614610164575b600080fd5b6100e66100e1366004611538565b610232565b6040519081526020015b60405180910390f35b61010c6101073660046116bb565b6102c9565b60405190151581526020016100f0565b61012f61012a3660046116f5565b61031b565b005b61014461013f366004611746565b610327565b6040516100f091906118cb565b61012f61015f366004611463565b6103bb565b61012f6101723660046112e0565b6103cd565b61018a6101853660046115ea565b610464565b6040516100f0919061188a565b61012f6101a53660046113ef565b61058e565b61012f6101b8366004611595565b61059e565b61012f6101cb3660046114fc565b6105aa565b61010c6101de3660046112ad565b6001600160a01b03918216600090815260016020908152604080832093909416825291909152205460ff1690565b61012f61021a36600461138a565b610681565b61012f61022d366004611562565b610708565b60006001600160a01b0383166102a35760405162461bcd60e51b815260206004820152602b60248201527f455243313135353a2062616c616e636520717565727920666f7220746865207a60448201526a65726f206164647265737360a81b60648201526084015b60405180910390fd5b506000908152602081815260408083206001600160a01b03949094168352929052205490565b60006001600160e01b03198216636cdb3d1360e11b14806102fa57506001600160e01b031982166303a24d0760e21b145b8061031557506301ffc9a760e01b6001600160e01b03198316145b92915050565b61032481610713565b50565b60606002805461033690611b01565b80601f016020809104026020016040519081016040528092919081815260200182805461036290611b01565b80156103af5780601f10610384576101008083540402835291602001916103af565b820191906000526020600020905b81548152906001019060200180831161039257829003601f168201915b50505050509050919050565b6103c78484848461072a565b50505050565b6001600160a01b0385163314806103e957506103e985336101de565b6104505760405162461bcd60e51b815260206004820152603260248201527f455243313135353a207472616e736665722063616c6c6572206973206e6f74206044820152711bdddb995c881b9bdc88185c1c1c9bdd995960721b606482015260840161029a565b61045d8585858585610875565b5050505050565b606081518351146104c95760405162461bcd60e51b815260206004820152602960248201527f455243313135353a206163636f756e747320616e6420696473206c656e677468604482015268040dad2e6dac2e8c6d60bb1b606482015260840161029a565b6000835167ffffffffffffffff8111156104e5576104e5611bb0565b60405190808252806020026020018201604052801561050e578160200160208202803683370190505b50905060005b84518110156105865761055985828151811061053257610532611b9a565b602002602001015185838151811061054c5761054c611b9a565b6020026020010151610232565b82828151811061056b5761056b611b9a565b602090810291909101015261057f81611b69565b9050610514565b509392505050565b610599838383610a11565b505050565b6103c784848484610b8d565b336001600160a01b03831614156106155760405162461bcd60e51b815260206004820152602960248201527f455243313135353a2073657474696e6720617070726f76616c20737461747573604482015268103337b91039b2b63360b91b606482015260840161029a565b3360008181526001602090815260408083206001600160a01b03871680855290835292819020805460ff191686151590811790915590519081529192917f17307eab39ab6107e8899845ad3d59bd9653f200f220920489ca2b5937696c31910160405180910390a35050565b6001600160a01b03851633148061069d575061069d85336101de565b6106fb5760405162461bcd60e51b815260206004820152602960248201527f455243313135353a2063616c6c6572206973206e6f74206f776e6572206e6f7260448201526808185c1c1c9bdd995960ba1b606482015260840161029a565b61045d8585858585610c5d565b610599838383610d7a565b80516107269060029060208401906110fc565b5050565b6001600160a01b0384166107505760405162461bcd60e51b815260040161029a90611a84565b81518351146107715760405162461bcd60e51b815260040161029a90611a3c565b3360005b845181101561080d5783818151811061079057610790611b9a565b60200260200101516000808784815181106107ad576107ad611b9a565b602002602001015181526020019081526020016000206000886001600160a01b03166001600160a01b0316815260200190815260200160002060008282546107f59190611ae9565b9091555081905061080581611b69565b915050610775565b50846001600160a01b031660006001600160a01b0316826001600160a01b03167f4a39dc06d4c0dbc64b70af90fd698a233a518aa5d07e595d983b8c0526c8f7fb878760405161085e92919061189d565b60405180910390a461045d81600087878787610e7c565b81518351146108965760405162461bcd60e51b815260040161029a90611a3c565b6001600160a01b0384166108bc5760405162461bcd60e51b815260040161029a9061196a565b3360005b84518110156109a35760008582815181106108dd576108dd611b9a565b6020026020010151905060008583815181106108fb576108fb611b9a565b602090810291909101810151600084815280835260408082206001600160a01b038e16835290935291909120549091508181101561094b5760405162461bcd60e51b815260040161029a906119f2565b6000838152602081815260408083206001600160a01b038e8116855292528083208585039055908b16825281208054849290610988908490611ae9565b925050819055505050508061099c90611b69565b90506108c0565b50846001600160a01b0316866001600160a01b0316826001600160a01b03167f4a39dc06d4c0dbc64b70af90fd698a233a518aa5d07e595d983b8c0526c8f7fb87876040516109f392919061189d565b60405180910390a4610a09818787878787610e7c565b505050505050565b6001600160a01b038316610a375760405162461bcd60e51b815260040161029a906119af565b8051825114610a585760405162461bcd60e51b815260040161029a90611a3c565b604080516020810190915260009081905233905b8351811015610b2e576000848281518110610a8957610a89611b9a565b602002602001015190506000848381518110610aa757610aa7611b9a565b602090810291909101810151600084815280835260408082206001600160a01b038c168352909352919091205490915081811015610af75760405162461bcd60e51b815260040161029a90611926565b6000928352602083815260408085206001600160a01b038b1686529091529092209103905580610b2681611b69565b915050610a6c565b5060006001600160a01b0316846001600160a01b0316826001600160a01b03167f4a39dc06d4c0dbc64b70af90fd698a233a518aa5d07e595d983b8c0526c8f7fb8686604051610b7f92919061189d565b60405180910390a450505050565b6001600160a01b038416610bb35760405162461bcd60e51b815260040161029a90611a84565b33610bcd81600087610bc488610fe7565b61045d88610fe7565b6000848152602081815260408083206001600160a01b038916845290915281208054859290610bfd908490611ae9565b909155505060408051858152602081018590526001600160a01b0380881692600092918516917fc3d58168c5ae7397731d063d5bbf3d657854427343f4c083240f7aacaa2d0f62910160405180910390a461045d81600087878787611032565b6001600160a01b038416610c835760405162461bcd60e51b815260040161029a9061196a565b33610c93818787610bc488610fe7565b6000848152602081815260408083206001600160a01b038a16845290915290205483811015610cd45760405162461bcd60e51b815260040161029a906119f2565b6000858152602081815260408083206001600160a01b038b8116855292528083208785039055908816825281208054869290610d11908490611ae9565b909155505060408051868152602081018690526001600160a01b03808916928a821692918616917fc3d58168c5ae7397731d063d5bbf3d657854427343f4c083240f7aacaa2d0f62910160405180910390a4610d71828888888888611032565b50505050505050565b6001600160a01b038316610da05760405162461bcd60e51b815260040161029a906119af565b33610dd081856000610db187610fe7565b610dba87610fe7565b5050604080516020810190915260009052505050565b6000838152602081815260408083206001600160a01b038816845290915290205482811015610e115760405162461bcd60e51b815260040161029a90611926565b6000848152602081815260408083206001600160a01b03898116808652918452828520888703905582518981529384018890529092908616917fc3d58168c5ae7397731d063d5bbf3d657854427343f4c083240f7aacaa2d0f62910160405180910390a45050505050565b6001600160a01b0384163b15610a095760405163bc197c8160e01b81526001600160a01b0385169063bc197c8190610ec090899089908890889088906004016117e7565b602060405180830381600087803b158015610eda57600080fd5b505af1925050508015610f0a575060408051601f3d908101601f19168201909252610f07918101906116d8565b60015b610fb757610f16611bc6565b806308c379a01415610f505750610f2b611be2565b80610f365750610f52565b8060405162461bcd60e51b815260040161029a91906118cb565b505b60405162461bcd60e51b815260206004820152603460248201527f455243313135353a207472616e7366657220746f206e6f6e20455243313135356044820152732932b1b2b4bb32b91034b6b83632b6b2b73a32b960611b606482015260840161029a565b6001600160e01b0319811663bc197c8160e01b14610d715760405162461bcd60e51b815260040161029a906118de565b6040805160018082528183019092526060916000919060208083019080368337019050509050828160008151811061102157611021611b9a565b602090810291909101015292915050565b6001600160a01b0384163b15610a095760405163f23a6e6160e01b81526001600160a01b0385169063f23a6e61906110769089908990889088908890600401611845565b602060405180830381600087803b15801561109057600080fd5b505af19250505080156110c0575060408051601f3d908101601f191682019092526110bd918101906116d8565b60015b6110cc57610f16611bc6565b6001600160e01b0319811663f23a6e6160e01b14610d715760405162461bcd60e51b815260040161029a906118de565b82805461110890611b01565b90600052602060002090601f01602090048101928261112a5760008555611170565b82601f1061114357805160ff1916838001178555611170565b82800160010185558215611170579182015b82811115611170578251825591602001919060010190611155565b5061117c929150611180565b5090565b5b8082111561117c5760008155600101611181565b600067ffffffffffffffff8311156111af576111af611bb0565b6040516111c6601f8501601f191660200182611b3c565b8091508381528484840111156111db57600080fd5b83836020830137600060208583010152509392505050565b80356001600160a01b038116811461120a57600080fd5b919050565b600082601f83011261122057600080fd5b8135602061122d82611ac5565b60405161123a8282611b3c565b8381528281019150858301600585901b8701840188101561125a57600080fd5b60005b858110156112795781358452928401929084019060010161125d565b5090979650505050505050565b600082601f83011261129757600080fd5b6112a683833560208501611195565b9392505050565b600080604083850312156112c057600080fd5b6112c9836111f3565b91506112d7602084016111f3565b90509250929050565b600080600080600060a086880312156112f857600080fd5b611301866111f3565b945061130f602087016111f3565b9350604086013567ffffffffffffffff8082111561132c57600080fd5b61133889838a0161120f565b9450606088013591508082111561134e57600080fd5b61135a89838a0161120f565b9350608088013591508082111561137057600080fd5b5061137d88828901611286565b9150509295509295909350565b600080600080600060a086880312156113a257600080fd5b6113ab866111f3565b94506113b9602087016111f3565b93506040860135925060608601359150608086013567ffffffffffffffff8111156113e357600080fd5b61137d88828901611286565b60008060006060848603121561140457600080fd5b61140d846111f3565b9250602084013567ffffffffffffffff8082111561142a57600080fd5b6114368783880161120f565b9350604086013591508082111561144c57600080fd5b506114598682870161120f565b9150509250925092565b6000806000806080858703121561147957600080fd5b611482856111f3565b9350602085013567ffffffffffffffff8082111561149f57600080fd5b6114ab8883890161120f565b945060408701359150808211156114c157600080fd5b6114cd8883890161120f565b935060608701359150808211156114e357600080fd5b506114f087828801611286565b91505092959194509250565b6000806040838503121561150f57600080fd5b611518836111f3565b91506020830135801515811461152d57600080fd5b809150509250929050565b6000806040838503121561154b57600080fd5b611554836111f3565b946020939093013593505050565b60008060006060848603121561157757600080fd5b611580846111f3565b95602085013595506040909401359392505050565b600080600080608085870312156115ab57600080fd5b6115b4856111f3565b93506020850135925060408501359150606085013567ffffffffffffffff8111156115de57600080fd5b6114f087828801611286565b600080604083850312156115fd57600080fd5b823567ffffffffffffffff8082111561161557600080fd5b818501915085601f83011261162957600080fd5b8135602061163682611ac5565b6040516116438282611b3c565b8381528281019150858301600585901b870184018b101561166357600080fd5b600096505b8487101561168d57611679816111f3565b835260019690960195918301918301611668565b50965050860135925050808211156116a457600080fd5b506116b18582860161120f565b9150509250929050565b6000602082840312156116cd57600080fd5b81356112a681611c6c565b6000602082840312156116ea57600080fd5b81516112a681611c6c565b60006020828403121561170757600080fd5b813567ffffffffffffffff81111561171e57600080fd5b8201601f8101841361172f57600080fd5b61173e84823560208401611195565b949350505050565b60006020828403121561175857600080fd5b5035919050565b600081518084526020808501945080840160005b8381101561178f57815187529582019590820190600101611773565b509495945050505050565b6000815180845260005b818110156117c0576020818501810151868301820152016117a4565b818111156117d2576000602083870101525b50601f01601f19169290920160200192915050565b6001600160a01b0386811682528516602082015260a0604082018190526000906118139083018661175f565b8281036060840152611825818661175f565b90508281036080840152611839818561179a565b98975050505050505050565b6001600160a01b03868116825285166020820152604081018490526060810183905260a06080820181905260009061187f9083018461179a565b979650505050505050565b6020815260006112a6602083018461175f565b6040815260006118b0604083018561175f565b82810360208401526118c2818561175f565b95945050505050565b6020815260006112a6602083018461179a565b60208082526028908201527f455243313135353a204552433131353552656365697665722072656a656374656040820152676420746f6b656e7360c01b606082015260800190565b60208082526024908201527f455243313135353a206275726e20616d6f756e7420657863656564732062616c604082015263616e636560e01b606082015260800190565b60208082526025908201527f455243313135353a207472616e7366657220746f20746865207a65726f206164604082015264647265737360d81b606082015260800190565b60208082526023908201527f455243313135353a206275726e2066726f6d20746865207a65726f206164647260408201526265737360e81b606082015260800190565b6020808252602a908201527f455243313135353a20696e73756666696369656e742062616c616e636520666f60408201526939103a3930b739b332b960b11b606082015260800190565b60208082526028908201527f455243313135353a2069647320616e6420616d6f756e7473206c656e677468206040820152670dad2e6dac2e8c6d60c31b606082015260800190565b60208082526021908201527f455243313135353a206d696e7420746f20746865207a65726f206164647265736040820152607360f81b606082015260800190565b600067ffffffffffffffff821115611adf57611adf611bb0565b5060051b60200190565b60008219821115611afc57611afc611b84565b500190565b600181811c90821680611b1557607f821691505b60208210811415611b3657634e487b7160e01b600052602260045260246000fd5b50919050565b601f8201601f1916810167ffffffffffffffff81118282101715611b6257611b62611bb0565b6040525050565b6000600019821415611b7d57611b7d611b84565b5060010190565b634e487b7160e01b600052601160045260246000fd5b634e487b7160e01b600052603260045260246000fd5b634e487b7160e01b600052604160045260246000fd5b600060033d1115611bdf5760046000803e5060005160e01c5b90565b600060443d1015611bf05790565b6040516003193d81016004833e81513d67ffffffffffffffff8160248401118184111715611c2057505050505090565b8285019150815181811115611c385750505050505090565b843d8701016020828501011115611c525750505050505090565b611c6160208286010187611b3c565b509095945050505050565b6001600160e01b03198116811461032457600080fdfea26469706673582212204972708337ef4c2230075b463c7ae876bea34dc2f5e4a8130e7a8fd97bd21f3164736f6c63430008060033",
    "sourcePath": "/Users/Shared/crypto/nextart/contracts/mocks/ERC1155Mock.sol",
    "compiler": {
        "name": "solc",
        "version": "0.8.6+commit.11564f7e"
    },
    "functionHashes": {
        "balanceOf(address,uint256)": "00fdd58e",
        "balanceOfBatch(address[],uint256[])": "4e1273f4",
        "burn(address,uint256,uint256)": "f5298aca",
        "burnBatch(address,uint256[],uint256[])": "6b20c454",
        "isApprovedForAll(address,address)": "e985e9c5",
        "mint(address,uint256,uint256,bytes)": "731133e9",
        "mintBatch(address,uint256[],uint256[],bytes)": "1f7fdffa",
        "safeBatchTransferFrom(address,address,uint256[],uint256[],bytes)": "2eb2c2d6",
        "safeTransferFrom(address,address,uint256,uint256,bytes)": "f242432a",
        "setApprovalForAll(address,bool)": "a22cb465",
        "setURI(string)": "02fe5305",
        "supportsInterface(bytes4)": "01ffc9a7",
        "uri(uint256)": "0e89341c"
    },
    "gasEstimates": {
        "creation": {
            "codeDepositCost": "1470400",
            "executionCost": "infinite",
            "totalCost": "infinite"
        },
        "external": {
            "balanceOf(address,uint256)": "2672",
            "balanceOfBatch(address[],uint256[])": "infinite",
            "burn(address,uint256,uint256)": "infinite",
            "burnBatch(address,uint256[],uint256[])": "infinite",
            "isApprovedForAll(address,address)": "infinite",
            "mint(address,uint256,uint256,bytes)": "infinite",
            "mintBatch(address,uint256[],uint256[],bytes)": "infinite",
            "safeBatchTransferFrom(address,address,uint256[],uint256[],bytes)": "infinite",
            "safeTransferFrom(address,address,uint256,uint256,bytes)": "infinite",
            "setApprovalForAll(address,bool)": "26650",
            "setURI(string)": "infinite",
            "supportsInterface(bytes4)": "544",
            "uri(uint256)": "infinite"
        }
    }
}