{
    "contractName": "ERC20FlashMintMock",
    "abi": [
        {
            "inputs": [
                {
                    "internalType": "string",
                    "name": "name",
                    "type": "string"
                },
                {
                    "internalType": "string",
                    "name": "symbol",
                    "type": "string"
                },
                {
                    "internalType": "address",
                    "name": "initialAccount",
                    "type": "address"
                },
                {
                    "internalType": "uint256",
                    "name": "initialBalance",
                    "type": "uint256"
                }
            ],
            "stateMutability": "nonpayable",
            "type": "constructor"
        },
        {
            "anonymous": false,
            "inputs": [
                {
                    "indexed": true,
                    "internalType": "address",
                    "name": "owner",
                    "type": "address"
                },
                {
                    "indexed": true,
                    "internalType": "address",
                    "name": "spender",
                    "type": "address"
                },
                {
                    "indexed": false,
                    "internalType": "uint256",
                    "name": "value",
                    "type": "uint256"
                }
            ],
            "name": "Approval",
            "type": "event"
        },
        {
            "anonymous": false,
            "inputs": [
                {
                    "indexed": true,
                    "internalType": "address",
                    "name": "from",
                    "type": "address"
                },
                {
                    "indexed": true,
                    "internalType": "address",
                    "name": "to",
                    "type": "address"
                },
                {
                    "indexed": false,
                    "internalType": "uint256",
                    "name": "value",
                    "type": "uint256"
                }
            ],
            "name": "Transfer",
            "type": "event"
        },
        {
            "inputs": [
                {
                    "internalType": "address",
                    "name": "owner",
                    "type": "address"
                },
                {
                    "internalType": "address",
                    "name": "spender",
                    "type": "address"
                }
            ],
            "name": "allowance",
            "outputs": [
                {
                    "internalType": "uint256",
                    "name": "",
                    "type": "uint256"
                }
            ],
            "stateMutability": "view",
            "type": "function"
        },
        {
            "inputs": [
                {
                    "internalType": "address",
                    "name": "spender",
                    "type": "address"
                },
                {
                    "internalType": "uint256",
                    "name": "amount",
                    "type": "uint256"
                }
            ],
            "name": "approve",
            "outputs": [
                {
                    "internalType": "bool",
                    "name": "",
                    "type": "bool"
                }
            ],
            "stateMutability": "nonpayable",
            "type": "function"
        },
        {
            "inputs": [
                {
                    "internalType": "address",
                    "name": "account",
                    "type": "address"
                }
            ],
            "name": "balanceOf",
            "outputs": [
                {
                    "internalType": "uint256",
                    "name": "",
                    "type": "uint256"
                }
            ],
            "stateMutability": "view",
            "type": "function"
        },
        {
            "inputs": [],
            "name": "decimals",
            "outputs": [
                {
                    "internalType": "uint8",
                    "name": "",
                    "type": "uint8"
                }
            ],
            "stateMutability": "view",
            "type": "function"
        },
        {
            "inputs": [
                {
                    "internalType": "address",
                    "name": "spender",
                    "type": "address"
                },
                {
                    "internalType": "uint256",
                    "name": "subtractedValue",
                    "type": "uint256"
                }
            ],
            "name": "decreaseAllowance",
            "outputs": [
                {
                    "internalType": "bool",
                    "name": "",
                    "type": "bool"
                }
            ],
            "stateMutability": "nonpayable",
            "type": "function"
        },
        {
            "inputs": [
                {
                    "internalType": "address",
                    "name": "token",
                    "type": "address"
                },
                {
                    "internalType": "uint256",
                    "name": "amount",
                    "type": "uint256"
                }
            ],
            "name": "flashFee",
            "outputs": [
                {
                    "internalType": "uint256",
                    "name": "",
                    "type": "uint256"
                }
            ],
            "stateMutability": "view",
            "type": "function"
        },
        {
            "inputs": [
                {
                    "internalType": "contract IERC3156FlashBorrower",
                    "name": "receiver",
                    "type": "address"
                },
                {
                    "internalType": "address",
                    "name": "token",
                    "type": "address"
                },
                {
                    "internalType": "uint256",
                    "name": "amount",
                    "type": "uint256"
                },
                {
                    "internalType": "bytes",
                    "name": "data",
                    "type": "bytes"
                }
            ],
            "name": "flashLoan",
            "outputs": [
                {
                    "internalType": "bool",
                    "name": "",
                    "type": "bool"
                }
            ],
            "stateMutability": "nonpayable",
            "type": "function"
        },
        {
            "inputs": [
                {
                    "internalType": "address",
                    "name": "spender",
                    "type": "address"
                },
                {
                    "internalType": "uint256",
                    "name": "addedValue",
                    "type": "uint256"
                }
            ],
            "name": "increaseAllowance",
            "outputs": [
                {
                    "internalType": "bool",
                    "name": "",
                    "type": "bool"
                }
            ],
            "stateMutability": "nonpayable",
            "type": "function"
        },
        {
            "inputs": [
                {
                    "internalType": "address",
                    "name": "token",
                    "type": "address"
                }
            ],
            "name": "maxFlashLoan",
            "outputs": [
                {
                    "internalType": "uint256",
                    "name": "",
                    "type": "uint256"
                }
            ],
            "stateMutability": "view",
            "type": "function"
        },
        {
            "inputs": [],
            "name": "name",
            "outputs": [
                {
                    "internalType": "string",
                    "name": "",
                    "type": "string"
                }
            ],
            "stateMutability": "view",
            "type": "function"
        },
        {
            "inputs": [],
            "name": "symbol",
            "outputs": [
                {
                    "internalType": "string",
                    "name": "",
                    "type": "string"
                }
            ],
            "stateMutability": "view",
            "type": "function"
        },
        {
            "inputs": [],
            "name": "totalSupply",
            "outputs": [
                {
                    "internalType": "uint256",
                    "name": "",
                    "type": "uint256"
                }
            ],
            "stateMutability": "view",
            "type": "function"
        },
        {
            "inputs": [
                {
                    "internalType": "address",
                    "name": "recipient",
                    "type": "address"
                },
                {
                    "internalType": "uint256",
                    "name": "amount",
                    "type": "uint256"
                }
            ],
            "name": "transfer",
            "outputs": [
                {
                    "internalType": "bool",
                    "name": "",
                    "type": "bool"
                }
            ],
            "stateMutability": "nonpayable",
            "type": "function"
        },
        {
            "inputs": [
                {
                    "internalType": "address",
                    "name": "sender",
                    "type": "address"
                },
                {
                    "internalType": "address",
                    "name": "recipient",
                    "type": "address"
                },
                {
                    "internalType": "uint256",
                    "name": "amount",
                    "type": "uint256"
                }
            ],
            "name": "transferFrom",
            "outputs": [
                {
                    "internalType": "bool",
                    "name": "",
                    "type": "bool"
                }
            ],
            "stateMutability": "nonpayable",
            "type": "function"
        }
    ],
    "bytecode": "60806040523480156200001157600080fd5b5060405162001303380380620013038339810160408190526200003491620002c7565b8351849084906200004d9060039060208501906200016a565b508051620000639060049060208401906200016a565b5050506200007882826200008260201b60201c565b50505050620003d4565b6001600160a01b038216620000dd5760405162461bcd60e51b815260206004820152601f60248201527f45524332303a206d696e7420746f20746865207a65726f206164647265737300604482015260640160405180910390fd5b8060026000828254620000f191906200035a565b90915550506001600160a01b03821660009081526020819052604081208054839290620001209084906200035a565b90915550506040518181526001600160a01b038316906000907fddf252ad1be2c89b69c2b068fc378daa952ba7f163c4a11628f55a4df523b3ef9060200160405180910390a35050565b828054620001789062000381565b90600052602060002090601f0160209004810192826200019c5760008555620001e7565b82601f10620001b757805160ff1916838001178555620001e7565b82800160010185558215620001e7579182015b82811115620001e7578251825591602001919060010190620001ca565b50620001f5929150620001f9565b5090565b5b80821115620001f55760008155600101620001fa565b600082601f8301126200022257600080fd5b81516001600160401b03808211156200023f576200023f620003be565b604051601f8301601f19908116603f011681019082821181831017156200026a576200026a620003be565b816040528381526020925086838588010111156200028757600080fd5b600091505b83821015620002ab57858201830151818301840152908201906200028c565b83821115620002bd5760008385830101525b9695505050505050565b60008060008060808587031215620002de57600080fd5b84516001600160401b0380821115620002f657600080fd5b620003048883890162000210565b955060208701519150808211156200031b57600080fd5b506200032a8782880162000210565b604087015190945090506001600160a01b03811681146200034a57600080fd5b6060959095015193969295505050565b600082198211156200037c57634e487b7160e01b600052601160045260246000fd5b500190565b600181811c908216806200039657607f821691505b60208210811415620003b857634e487b7160e01b600052602260045260246000fd5b50919050565b634e487b7160e01b600052604160045260246000fd5b610f1f80620003e46000396000f3fe608060405234801561001057600080fd5b50600436106100ea5760003560e01c8063613255ab1161008c578063a457c2d711610066578063a457c2d7146101ce578063a9059cbb146101e1578063d9d98ce4146101f4578063dd62ed3e1461020757600080fd5b8063613255ab1461018a57806370a082311461019d57806395d89b41146101c657600080fd5b806323b872dd116100c857806323b872dd14610142578063313ce5671461015557806339509351146101645780635cffe9de1461017757600080fd5b806306fdde03146100ef578063095ea7b31461010d57806318160ddd14610130575b600080fd5b6100f7610240565b6040516101049190610dfc565b60405180910390f35b61012061011b366004610cbc565b6102d2565b6040519015158152602001610104565b6002545b604051908152602001610104565b610120610150366004610c7b565b6102e8565b60405160128152602001610104565b610120610172366004610cbc565b610397565b610120610185366004610d01565b6103d3565b610134610198366004610c1e565b6105bf565b6101346101ab366004610c1e565b6001600160a01b031660009081526020819052604090205490565b6100f76105ed565b6101206101dc366004610cbc565b6105fc565b6101206101ef366004610cbc565b610695565b610134610202366004610cbc565b6106a2565b610134610215366004610c42565b6001600160a01b03918216600090815260016020908152604080832093909416825291909152205490565b60606003805461024f90610e80565b80601f016020809104026020016040519081016040528092919081815260200182805461027b90610e80565b80156102c85780601f1061029d576101008083540402835291602001916102c8565b820191906000526020600020905b8154815290600101906020018083116102ab57829003601f168201915b5050505050905090565b60006102df338484610705565b50600192915050565b60006102f584848461082a565b6001600160a01b03841660009081526001602090815260408083203384529091529020548281101561037f5760405162461bcd60e51b815260206004820152602860248201527f45524332303a207472616e7366657220616d6f756e74206578636565647320616044820152676c6c6f77616e636560c01b60648201526084015b60405180910390fd5b61038c8533858403610705565b506001949350505050565b3360008181526001602090815260408083206001600160a01b038716845290915281205490916102df9185906103ce908690610e51565b610705565b6000806103e086866106a2565b90506103ec87866109f9565b6040516323e30c8b60e01b81527f439148f0bbc682ca079e46d6e2c2f0c1e3b820f1a291b069d8882abf8cf18dd9906001600160a01b038916906323e30c8b906104449033908b908b9088908c908c90600401610da0565b602060405180830381600087803b15801561045e57600080fd5b505af1158015610472573d6000803e3d6000fd5b505050506040513d601f19601f820116820180604052508101906104969190610ce8565b146104ef5760405162461bcd60e51b8152602060048201526024808201527f4552433230466c6173684d696e743a20696e76616c69642072657475726e2076604482015263616c756560e01b6064820152608401610376565b6001600160a01b038716600090815260016020908152604080832030845290915290205461051d8287610e51565b8110156105845760405162461bcd60e51b815260206004820152602f60248201527f4552433230466c6173684d696e743a20616c6c6f77616e636520646f6573206e60448201526e1bdd08185b1b1bddc81c99599d5b99608a1b6064820152608401610376565b61059e8830846105948a86610e69565b6103ce9190610e69565b6105b1886105ac8489610e51565b610ad8565b506001979650505050505050565b60006001600160a01b03821630146105d85760006105e7565b6002546105e790600019610e69565b92915050565b60606004805461024f90610e80565b3360009081526001602090815260408083206001600160a01b03861684529091528120548281101561067e5760405162461bcd60e51b815260206004820152602560248201527f45524332303a2064656372656173656420616c6c6f77616e63652062656c6f77604482015264207a65726f60d81b6064820152608401610376565b61068b3385858403610705565b5060019392505050565b60006102df33848461082a565b60006001600160a01b03831630146106fc5760405162461bcd60e51b815260206004820152601b60248201527f4552433230466c6173684d696e743a2077726f6e6720746f6b656e00000000006044820152606401610376565b50600092915050565b6001600160a01b0383166107675760405162461bcd60e51b8152602060048201526024808201527f45524332303a20617070726f76652066726f6d20746865207a65726f206164646044820152637265737360e01b6064820152608401610376565b6001600160a01b0382166107c85760405162461bcd60e51b815260206004820152602260248201527f45524332303a20617070726f766520746f20746865207a65726f206164647265604482015261737360f01b6064820152608401610376565b6001600160a01b0383811660008181526001602090815260408083209487168084529482529182902085905590518481527f8c5be1e5ebec7d5bd14f71427d1e84f3dd0314c0f7b2291e5b200ac8c7c3b92591015b60405180910390a3505050565b6001600160a01b03831661088e5760405162461bcd60e51b815260206004820152602560248201527f45524332303a207472616e736665722066726f6d20746865207a65726f206164604482015264647265737360d81b6064820152608401610376565b6001600160a01b0382166108f05760405162461bcd60e51b815260206004820152602360248201527f45524332303a207472616e7366657220746f20746865207a65726f206164647260448201526265737360e81b6064820152608401610376565b6001600160a01b038316600090815260208190526040902054818110156109685760405162461bcd60e51b815260206004820152602660248201527f45524332303a207472616e7366657220616d6f756e7420657863656564732062604482015265616c616e636560d01b6064820152608401610376565b6001600160a01b0380851660009081526020819052604080822085850390559185168152908120805484929061099f908490610e51565b92505081905550826001600160a01b0316846001600160a01b03167fddf252ad1be2c89b69c2b068fc378daa952ba7f163c4a11628f55a4df523b3ef846040516109eb91815260200190565b60405180910390a350505050565b6001600160a01b038216610a4f5760405162461bcd60e51b815260206004820152601f60248201527f45524332303a206d696e7420746f20746865207a65726f2061646472657373006044820152606401610376565b8060026000828254610a619190610e51565b90915550506001600160a01b03821660009081526020819052604081208054839290610a8e908490610e51565b90915550506040518181526001600160a01b038316906000907fddf252ad1be2c89b69c2b068fc378daa952ba7f163c4a11628f55a4df523b3ef9060200160405180910390a35050565b6001600160a01b038216610b385760405162461bcd60e51b815260206004820152602160248201527f45524332303a206275726e2066726f6d20746865207a65726f206164647265736044820152607360f81b6064820152608401610376565b6001600160a01b03821660009081526020819052604090205481811015610bac5760405162461bcd60e51b815260206004820152602260248201527f45524332303a206275726e20616d6f756e7420657863656564732062616c616e604482015261636560f01b6064820152608401610376565b6001600160a01b0383166000908152602081905260408120838303905560028054849290610bdb908490610e69565b90915550506040518281526000906001600160a01b038516907fddf252ad1be2c89b69c2b068fc378daa952ba7f163c4a11628f55a4df523b3ef9060200161081d565b600060208284031215610c3057600080fd5b8135610c3b81610ed1565b9392505050565b60008060408385031215610c5557600080fd5b8235610c6081610ed1565b91506020830135610c7081610ed1565b809150509250929050565b600080600060608486031215610c9057600080fd5b8335610c9b81610ed1565b92506020840135610cab81610ed1565b929592945050506040919091013590565b60008060408385031215610ccf57600080fd5b8235610cda81610ed1565b946020939093013593505050565b600060208284031215610cfa57600080fd5b5051919050565b600080600080600060808688031215610d1957600080fd5b8535610d2481610ed1565b94506020860135610d3481610ed1565b935060408601359250606086013567ffffffffffffffff80821115610d5857600080fd5b818801915088601f830112610d6c57600080fd5b813581811115610d7b57600080fd5b896020828501011115610d8d57600080fd5b9699959850939650602001949392505050565b6001600160a01b03878116825286166020820152604081018590526060810184905260a06080820181905281018290526000828460c0840137600060c0848401015260c0601f19601f8501168301019050979650505050505050565b600060208083528351808285015260005b81811015610e2957858101830151858201604001528201610e0d565b81811115610e3b576000604083870101525b50601f01601f1916929092016040019392505050565b60008219821115610e6457610e64610ebb565b500190565b600082821015610e7b57610e7b610ebb565b500390565b600181811c90821680610e9457607f821691505b60208210811415610eb557634e487b7160e01b600052602260045260246000fd5b50919050565b634e487b7160e01b600052601160045260246000fd5b6001600160a01b0381168114610ee657600080fd5b5056fea26469706673582212208006c6d0afd3eef3739b29824af21eb34f0b54a778ef48367e70fc53cdec50a964736f6c63430008060033",
    "sourcePath": "/Users/Shared/crypto/nextart/contracts/mocks/ERC20FlashMintMock.sol",
    "compiler": {
        "name": "solc",
        "version": "0.8.6+commit.11564f7e"
    },
    "functionHashes": {
        "allowance(address,address)": "dd62ed3e",
        "approve(address,uint256)": "095ea7b3",
        "balanceOf(address)": "70a08231",
        "decimals()": "313ce567",
        "decreaseAllowance(address,uint256)": "a457c2d7",
        "flashFee(address,uint256)": "d9d98ce4",
        "flashLoan(address,address,uint256,bytes)": "5cffe9de",
        "increaseAllowance(address,uint256)": "39509351",
        "maxFlashLoan(address)": "613255ab",
        "name()": "06fdde03",
        "symbol()": "95d89b41",
        "totalSupply()": "18160ddd",
        "transfer(address,uint256)": "a9059cbb",
        "transferFrom(address,address,uint256)": "23b872dd"
    },
    "gasEstimates": {
        "creation": {
            "codeDepositCost": "774200",
            "executionCost": "infinite",
            "totalCost": "infinite"
        },
        "external": {
            "allowance(address,address)": "infinite",
            "approve(address,uint256)": "24637",
            "balanceOf(address)": "2579",
            "decimals()": "222",
            "decreaseAllowance(address,uint256)": "26905",
            "flashFee(address,uint256)": "533",
            "flashLoan(address,address,uint256,bytes)": "infinite",
            "increaseAllowance(address,uint256)": "26996",
            "maxFlashLoan(address)": "2602",
            "name()": "infinite",
            "symbol()": "infinite",
            "totalSupply()": "2349",
            "transfer(address,uint256)": "51203",
            "transferFrom(address,address,uint256)": "infinite"
        }
    }
}