{
    "contractName": "ERC2771ContextMock",
    "abi": [
        {
            "inputs": [
                {
                    "internalType": "address",
                    "name": "trustedForwarder",
                    "type": "address"
                }
            ],
            "stateMutability": "nonpayable",
            "type": "constructor"
        },
        {
            "anonymous": false,
            "inputs": [
                {
                    "indexed": false,
                    "internalType": "bytes",
                    "name": "data",
                    "type": "bytes"
                },
                {
                    "indexed": false,
                    "internalType": "uint256",
                    "name": "integerValue",
                    "type": "uint256"
                },
                {
                    "indexed": false,
                    "internalType": "string",
                    "name": "stringValue",
                    "type": "string"
                }
            ],
            "name": "Data",
            "type": "event"
        },
        {
            "anonymous": false,
            "inputs": [
                {
                    "indexed": false,
                    "internalType": "address",
                    "name": "sender",
                    "type": "address"
                }
            ],
            "name": "Sender",
            "type": "event"
        },
        {
            "inputs": [
                {
                    "internalType": "address",
                    "name": "forwarder",
                    "type": "address"
                }
            ],
            "name": "isTrustedForwarder",
            "outputs": [
                {
                    "internalType": "bool",
                    "name": "",
                    "type": "bool"
                }
            ],
            "stateMutability": "view",
            "type": "function"
        },
        {
            "inputs": [
                {
                    "internalType": "uint256",
                    "name": "integerValue",
                    "type": "uint256"
                },
                {
                    "internalType": "string",
                    "name": "stringValue",
                    "type": "string"
                }
            ],
            "name": "msgData",
            "outputs": [],
            "stateMutability": "nonpayable",
            "type": "function"
        },
        {
            "inputs": [],
            "name": "msgSender",
            "outputs": [],
            "stateMutability": "nonpayable",
            "type": "function"
        }
    ],
    "bytecode": "608060405234801561001057600080fd5b5060405161044a38038061044a83398101604081905261002f91610054565b600080546001600160a01b0319166001600160a01b0392909216919091179055610084565b60006020828403121561006657600080fd5b81516001600160a01b038116811461007d57600080fd5b9392505050565b6103b7806100936000396000f3fe608060405234801561001057600080fd5b50600436106100415760003560e01c8063376bf26214610046578063572b6c051461005b578063d737d0c714610091575b600080fd5b6100596100543660046101d9565b610099565b005b61007d6100693660046101a9565b6000546001600160a01b0391821691161490565b604051901515815260200160405180910390f35b6100596100e0565b7faf235354a0a47c91ee171961326335cb2d1a8e55b8a89859b0e61eb049e50ea06100c2610126565b84846040516100d49493929190610294565b60405180910390a15050565b7fd6558c3ed910d959271054471fd1c326679d9fece99c5091b00ed89627cf2bfc610109610139565b6040516001600160a01b03909116815260200160405180910390a1565b366000610131610148565b915091509091565b6000610143610183565b905090565b600080543691906001600160a01b031633141561017b576000803661016e601482610346565b926101319392919061031c565b600036610131565b600080546001600160a01b03163314156101a4575060131936013560601c90565b503390565b6000602082840312156101bb57600080fd5b81356001600160a01b03811681146101d257600080fd5b9392505050565b600080604083850312156101ec57600080fd5b82359150602083013567ffffffffffffffff8082111561020b57600080fd5b818501915085601f83011261021f57600080fd5b8135818111156102315761023161036b565b604051601f8201601f19908116603f011681019083821181831017156102595761025961036b565b8160405282815288602084870101111561027257600080fd5b8260208601602083013760006020848301015280955050505050509250929050565b60608152836060820152838560808301376000608085830101526000601f1980601f8701168301602086818601526080858303016040860152855180608084015260005b818110156102f45787810183015184820160a0015282016102d8565b8181111561030657600060a083860101525b50601f019092160160a001979650505050505050565b6000808585111561032c57600080fd5b8386111561033957600080fd5b5050820193919092039150565b60008282101561036657634e487b7160e01b600052601160045260246000fd5b500390565b634e487b7160e01b600052604160045260246000fdfea2646970667358221220173f3f582488854ff2603076af89527fc3f6c771cf57e4827f6734cb8e25c2ef64736f6c63430008060033",
    "sourcePath": "/Users/Shared/crypto/nextart/contracts/mocks/ERC2771ContextMock.sol",
    "compiler": {
        "name": "solc",
        "version": "0.8.6+commit.11564f7e"
    },
    "functionHashes": {
        "isTrustedForwarder(address)": "572b6c05",
        "msgData(uint256,string)": "376bf262",
        "msgSender()": "d737d0c7"
    },
    "gasEstimates": {
        "creation": {
            "codeDepositCost": "190200",
            "executionCost": "infinite",
            "totalCost": "infinite"
        },
        "external": {
            "isTrustedForwarder(address)": "2445",
            "msgData(uint256,string)": "infinite",
            "msgSender()": "3470"
        },
        "internal": {
            "_msgData()": "infinite",
            "_msgSender()": "2214"
        }
    }
}