{
    "contractName": "ERC20PermitMock",
    "abi": [
        {
            "inputs": [
                {
                    "internalType": "string",
                    "name": "name",
                    "type": "string"
                },
                {
                    "internalType": "string",
                    "name": "symbol",
                    "type": "string"
                },
                {
                    "internalType": "address",
                    "name": "initialAccount",
                    "type": "address"
                },
                {
                    "internalType": "uint256",
                    "name": "initialBalance",
                    "type": "uint256"
                }
            ],
            "stateMutability": "payable",
            "type": "constructor"
        },
        {
            "anonymous": false,
            "inputs": [
                {
                    "indexed": true,
                    "internalType": "address",
                    "name": "owner",
                    "type": "address"
                },
                {
                    "indexed": true,
                    "internalType": "address",
                    "name": "spender",
                    "type": "address"
                },
                {
                    "indexed": false,
                    "internalType": "uint256",
                    "name": "value",
                    "type": "uint256"
                }
            ],
            "name": "Approval",
            "type": "event"
        },
        {
            "anonymous": false,
            "inputs": [
                {
                    "indexed": true,
                    "internalType": "address",
                    "name": "from",
                    "type": "address"
                },
                {
                    "indexed": true,
                    "internalType": "address",
                    "name": "to",
                    "type": "address"
                },
                {
                    "indexed": false,
                    "internalType": "uint256",
                    "name": "value",
                    "type": "uint256"
                }
            ],
            "name": "Transfer",
            "type": "event"
        },
        {
            "inputs": [],
            "name": "DOMAIN_SEPARATOR",
            "outputs": [
                {
                    "internalType": "bytes32",
                    "name": "",
                    "type": "bytes32"
                }
            ],
            "stateMutability": "view",
            "type": "function"
        },
        {
            "inputs": [
                {
                    "internalType": "address",
                    "name": "owner",
                    "type": "address"
                },
                {
                    "internalType": "address",
                    "name": "spender",
                    "type": "address"
                }
            ],
            "name": "allowance",
            "outputs": [
                {
                    "internalType": "uint256",
                    "name": "",
                    "type": "uint256"
                }
            ],
            "stateMutability": "view",
            "type": "function"
        },
        {
            "inputs": [
                {
                    "internalType": "address",
                    "name": "spender",
                    "type": "address"
                },
                {
                    "internalType": "uint256",
                    "name": "amount",
                    "type": "uint256"
                }
            ],
            "name": "approve",
            "outputs": [
                {
                    "internalType": "bool",
                    "name": "",
                    "type": "bool"
                }
            ],
            "stateMutability": "nonpayable",
            "type": "function"
        },
        {
            "inputs": [
                {
                    "internalType": "address",
                    "name": "account",
                    "type": "address"
                }
            ],
            "name": "balanceOf",
            "outputs": [
                {
                    "internalType": "uint256",
                    "name": "",
                    "type": "uint256"
                }
            ],
            "stateMutability": "view",
            "type": "function"
        },
        {
            "inputs": [],
            "name": "decimals",
            "outputs": [
                {
                    "internalType": "uint8",
                    "name": "",
                    "type": "uint8"
                }
            ],
            "stateMutability": "view",
            "type": "function"
        },
        {
            "inputs": [
                {
                    "internalType": "address",
                    "name": "spender",
                    "type": "address"
                },
                {
                    "internalType": "uint256",
                    "name": "subtractedValue",
                    "type": "uint256"
                }
            ],
            "name": "decreaseAllowance",
            "outputs": [
                {
                    "internalType": "bool",
                    "name": "",
                    "type": "bool"
                }
            ],
            "stateMutability": "nonpayable",
            "type": "function"
        },
        {
            "inputs": [],
            "name": "getChainId",
            "outputs": [
                {
                    "internalType": "uint256",
                    "name": "",
                    "type": "uint256"
                }
            ],
            "stateMutability": "view",
            "type": "function"
        },
        {
            "inputs": [
                {
                    "internalType": "address",
                    "name": "spender",
                    "type": "address"
                },
                {
                    "internalType": "uint256",
                    "name": "addedValue",
                    "type": "uint256"
                }
            ],
            "name": "increaseAllowance",
            "outputs": [
                {
                    "internalType": "bool",
                    "name": "",
                    "type": "bool"
                }
            ],
            "stateMutability": "nonpayable",
            "type": "function"
        },
        {
            "inputs": [],
            "name": "name",
            "outputs": [
                {
                    "internalType": "string",
                    "name": "",
                    "type": "string"
                }
            ],
            "stateMutability": "view",
            "type": "function"
        },
        {
            "inputs": [
                {
                    "internalType": "address",
                    "name": "owner",
                    "type": "address"
                }
            ],
            "name": "nonces",
            "outputs": [
                {
                    "internalType": "uint256",
                    "name": "",
                    "type": "uint256"
                }
            ],
            "stateMutability": "view",
            "type": "function"
        },
        {
            "inputs": [
                {
                    "internalType": "address",
                    "name": "owner",
                    "type": "address"
                },
                {
                    "internalType": "address",
                    "name": "spender",
                    "type": "address"
                },
                {
                    "internalType": "uint256",
                    "name": "value",
                    "type": "uint256"
                },
                {
                    "internalType": "uint256",
                    "name": "deadline",
                    "type": "uint256"
                },
                {
                    "internalType": "uint8",
                    "name": "v",
                    "type": "uint8"
                },
                {
                    "internalType": "bytes32",
                    "name": "r",
                    "type": "bytes32"
                },
                {
                    "internalType": "bytes32",
                    "name": "s",
                    "type": "bytes32"
                }
            ],
            "name": "permit",
            "outputs": [],
            "stateMutability": "nonpayable",
            "type": "function"
        },
        {
            "inputs": [],
            "name": "symbol",
            "outputs": [
                {
                    "internalType": "string",
                    "name": "",
                    "type": "string"
                }
            ],
            "stateMutability": "view",
            "type": "function"
        },
        {
            "inputs": [],
            "name": "totalSupply",
            "outputs": [
                {
                    "internalType": "uint256",
                    "name": "",
                    "type": "uint256"
                }
            ],
            "stateMutability": "view",
            "type": "function"
        },
        {
            "inputs": [
                {
                    "internalType": "address",
                    "name": "recipient",
                    "type": "address"
                },
                {
                    "internalType": "uint256",
                    "name": "amount",
                    "type": "uint256"
                }
            ],
            "name": "transfer",
            "outputs": [
                {
                    "internalType": "bool",
                    "name": "",
                    "type": "bool"
                }
            ],
            "stateMutability": "nonpayable",
            "type": "function"
        },
        {
            "inputs": [
                {
                    "internalType": "address",
                    "name": "sender",
                    "type": "address"
                },
                {
                    "internalType": "address",
                    "name": "recipient",
                    "type": "address"
                },
                {
                    "internalType": "uint256",
                    "name": "amount",
                    "type": "uint256"
                }
            ],
            "name": "transferFrom",
            "outputs": [
                {
                    "internalType": "bool",
                    "name": "",
                    "type": "bool"
                }
            ],
            "stateMutability": "nonpayable",
            "type": "function"
        }
    ],
    "bytecode": "6101406040527f6e71edae12b1b97f4d1f60370fef10105fa2faae0126114a169c64845d6126c96101209081525060405162001339380380620013398339810160408190526200004f9162000384565b8380604051806040016040528060018152602001603160f81b815250868681600390805190602001906200008592919062000227565b5080516200009b90600490602084019062000227565b5050825160209384012082519284019290922060c083815260e08290524660a0818152604080517f8b73c3c69bb8fe3d512ecc4cf759cc79239f7b179b0ffacaa9a75d522b39400f818a01819052818301989098526060810195909552608080860193909352308583015280518086039092018252939092019092528051940193909320909252610100525062000135905082826200013f565b5050505062000491565b6001600160a01b0382166200019a5760405162461bcd60e51b815260206004820152601f60248201527f45524332303a206d696e7420746f20746865207a65726f206164647265737300604482015260640160405180910390fd5b8060026000828254620001ae919062000417565b90915550506001600160a01b03821660009081526020819052604081208054839290620001dd90849062000417565b90915550506040518181526001600160a01b038316906000907fddf252ad1be2c89b69c2b068fc378daa952ba7f163c4a11628f55a4df523b3ef9060200160405180910390a35050565b82805462000235906200043e565b90600052602060002090601f016020900481019282620002595760008555620002a4565b82601f106200027457805160ff1916838001178555620002a4565b82800160010185558215620002a4579182015b82811115620002a457825182559160200191906001019062000287565b50620002b2929150620002b6565b5090565b5b80821115620002b25760008155600101620002b7565b600082601f830112620002df57600080fd5b81516001600160401b0380821115620002fc57620002fc6200047b565b604051601f8301601f19908116603f011681019082821181831017156200032757620003276200047b565b816040528381526020925086838588010111156200034457600080fd5b600091505b8382101562000368578582018301518183018401529082019062000349565b838211156200037a5760008385830101525b9695505050505050565b600080600080608085870312156200039b57600080fd5b84516001600160401b0380821115620003b357600080fd5b620003c188838901620002cd565b95506020870151915080821115620003d857600080fd5b50620003e787828801620002cd565b604087015190945090506001600160a01b03811681146200040757600080fd5b6060959095015193969295505050565b600082198211156200043957634e487b7160e01b600052601160045260246000fd5b500190565b600181811c908216806200045357607f821691505b602082108114156200047557634e487b7160e01b600052602260045260246000fd5b50919050565b634e487b7160e01b600052604160045260246000fd5b60805160a05160c05160e0516101005161012051610e58620004e160003960006105130152600061096c015260006109bb015260006109960152600061091a015260006109430152610e586000f3fe608060405234801561001057600080fd5b50600436106100f55760003560e01c80633950935111610097578063a457c2d711610066578063a457c2d7146101d4578063a9059cbb146101e7578063d505accf146101fa578063dd62ed3e1461020f57600080fd5b8063395093511461017d57806370a08231146101905780637ecebe00146101b957806395d89b41146101cc57600080fd5b806323b872dd116100d357806323b872dd1461014d578063313ce567146101605780633408e4701461016f5780633644e5151461017557600080fd5b806306fdde03146100fa578063095ea7b31461011857806318160ddd1461013b575b600080fd5b610102610248565b60405161010f9190610d72565b60405180910390f35b61012b610126366004610d48565b6102da565b604051901515815260200161010f565b6002545b60405190815260200161010f565b61012b61015b366004610c99565b6102f0565b6040516012815260200161010f565b4661013f565b61013f61039f565b61012b61018b366004610d48565b6103ae565b61013f61019e366004610c44565b6001600160a01b031660009081526020819052604090205490565b61013f6101c7366004610c44565b6103ea565b61010261040a565b61012b6101e2366004610d48565b610419565b61012b6101f5366004610d48565b6104b2565b61020d610208366004610cd5565b6104bf565b005b61013f61021d366004610c66565b6001600160a01b03918216600090815260016020908152604080832093909416825291909152205490565b60606003805461025790610ded565b80601f016020809104026020016040519081016040528092919081815260200182805461028390610ded565b80156102d05780601f106102a5576101008083540402835291602001916102d0565b820191906000526020600020905b8154815290600101906020018083116102b357829003601f168201915b5050505050905090565b60006102e7338484610623565b50600192915050565b60006102fd848484610747565b6001600160a01b0384166000908152600160209081526040808320338452909152902054828110156103875760405162461bcd60e51b815260206004820152602860248201527f45524332303a207472616e7366657220616d6f756e74206578636565647320616044820152676c6c6f77616e636560c01b60648201526084015b60405180910390fd5b6103948533858403610623565b506001949350505050565b60006103a9610916565b905090565b3360008181526001602090815260408083206001600160a01b038716845290915281205490916102e79185906103e5908690610dc7565b610623565b6001600160a01b0381166000908152600560205260408120545b92915050565b60606004805461025790610ded565b3360009081526001602090815260408083206001600160a01b03861684529091528120548281101561049b5760405162461bcd60e51b815260206004820152602560248201527f45524332303a2064656372656173656420616c6c6f77616e63652062656c6f77604482015264207a65726f60d81b606482015260840161037e565b6104a83385858403610623565b5060019392505050565b60006102e7338484610747565b8342111561050f5760405162461bcd60e51b815260206004820152601d60248201527f45524332305065726d69743a206578706972656420646561646c696e65000000604482015260640161037e565b60007f000000000000000000000000000000000000000000000000000000000000000088888861053e8c610a09565b6040805160208101969096526001600160a01b0394851690860152929091166060840152608083015260a082015260c0810186905260e001604051602081830303815290604052805190602001209050600061059982610a31565b905060006105a982878787610a7f565b9050896001600160a01b0316816001600160a01b03161461060c5760405162461bcd60e51b815260206004820152601e60248201527f45524332305065726d69743a20696e76616c6964207369676e61747572650000604482015260640161037e565b6106178a8a8a610623565b50505050505050505050565b6001600160a01b0383166106855760405162461bcd60e51b8152602060048201526024808201527f45524332303a20617070726f76652066726f6d20746865207a65726f206164646044820152637265737360e01b606482015260840161037e565b6001600160a01b0382166106e65760405162461bcd60e51b815260206004820152602260248201527f45524332303a20617070726f766520746f20746865207a65726f206164647265604482015261737360f01b606482015260840161037e565b6001600160a01b0383811660008181526001602090815260408083209487168084529482529182902085905590518481527f8c5be1e5ebec7d5bd14f71427d1e84f3dd0314c0f7b2291e5b200ac8c7c3b925910160405180910390a3505050565b6001600160a01b0383166107ab5760405162461bcd60e51b815260206004820152602560248201527f45524332303a207472616e736665722066726f6d20746865207a65726f206164604482015264647265737360d81b606482015260840161037e565b6001600160a01b03821661080d5760405162461bcd60e51b815260206004820152602360248201527f45524332303a207472616e7366657220746f20746865207a65726f206164647260448201526265737360e81b606482015260840161037e565b6001600160a01b038316600090815260208190526040902054818110156108855760405162461bcd60e51b815260206004820152602660248201527f45524332303a207472616e7366657220616d6f756e7420657863656564732062604482015265616c616e636560d01b606482015260840161037e565b6001600160a01b038085166000908152602081905260408082208585039055918516815290812080548492906108bc908490610dc7565b92505081905550826001600160a01b0316846001600160a01b03167fddf252ad1be2c89b69c2b068fc378daa952ba7f163c4a11628f55a4df523b3ef8460405161090891815260200190565b60405180910390a350505050565b60007f000000000000000000000000000000000000000000000000000000000000000046141561096557507f000000000000000000000000000000000000000000000000000000000000000090565b50604080517f00000000000000000000000000000000000000000000000000000000000000006020808301919091527f0000000000000000000000000000000000000000000000000000000000000000828401527f000000000000000000000000000000000000000000000000000000000000000060608301524660808301523060a0808401919091528351808403909101815260c0909201909252805191012090565b6001600160a01b03811660009081526005602052604090208054600181018255905b50919050565b6000610404610a3e610916565b8360405161190160f01b6020820152602281018390526042810182905260009060620160405160208183030381529060405280519060200120905092915050565b60007f7fffffffffffffffffffffffffffffff5d576e7357a4501ddfe92f46681b20a0821115610afc5760405162461bcd60e51b815260206004820152602260248201527f45434453413a20696e76616c6964207369676e6174757265202773272076616c604482015261756560f01b606482015260840161037e565b8360ff16601b1480610b1157508360ff16601c145b610b685760405162461bcd60e51b815260206004820152602260248201527f45434453413a20696e76616c6964207369676e6174757265202776272076616c604482015261756560f01b606482015260840161037e565b6040805160008082526020820180845288905260ff871692820192909252606081018590526080810184905260019060a0016020604051602081039080840390855afa158015610bbc573d6000803e3d6000fd5b5050604051601f1901519150506001600160a01b038116610c1f5760405162461bcd60e51b815260206004820152601860248201527f45434453413a20696e76616c6964207369676e61747572650000000000000000604482015260640161037e565b95945050505050565b80356001600160a01b0381168114610c3f57600080fd5b919050565b600060208284031215610c5657600080fd5b610c5f82610c28565b9392505050565b60008060408385031215610c7957600080fd5b610c8283610c28565b9150610c9060208401610c28565b90509250929050565b600080600060608486031215610cae57600080fd5b610cb784610c28565b9250610cc560208501610c28565b9150604084013590509250925092565b600080600080600080600060e0888a031215610cf057600080fd5b610cf988610c28565b9650610d0760208901610c28565b95506040880135945060608801359350608088013560ff81168114610d2b57600080fd5b9699959850939692959460a0840135945060c09093013592915050565b60008060408385031215610d5b57600080fd5b610d6483610c28565b946020939093013593505050565b600060208083528351808285015260005b81811015610d9f57858101830151858201604001528201610d83565b81811115610db1576000604083870101525b50601f01601f1916929092016040019392505050565b60008219821115610de857634e487b7160e01b600052601160045260246000fd5b500190565b600181811c90821680610e0157607f821691505b60208210811415610a2b57634e487b7160e01b600052602260045260246000fdfea2646970667358221220b9ee0344cc8ce60463fe61342f13f8725c318896c3ffc427501789f79a6a817264736f6c63430008060033",
    "sourcePath": "/Users/Shared/crypto/nextart/contracts/mocks/ERC20PermitMock.sol",
    "compiler": {
        "name": "solc",
        "version": "0.8.6+commit.11564f7e"
    },
    "functionHashes": {
        "DOMAIN_SEPARATOR()": "3644e515",
        "allowance(address,address)": "dd62ed3e",
        "approve(address,uint256)": "095ea7b3",
        "balanceOf(address)": "70a08231",
        "decimals()": "313ce567",
        "decreaseAllowance(address,uint256)": "a457c2d7",
        "getChainId()": "3408e470",
        "increaseAllowance(address,uint256)": "39509351",
        "name()": "06fdde03",
        "nonces(address)": "7ecebe00",
        "permit(address,address,uint256,uint256,uint8,bytes32,bytes32)": "d505accf",
        "symbol()": "95d89b41",
        "totalSupply()": "18160ddd",
        "transfer(address,uint256)": "a9059cbb",
        "transferFrom(address,address,uint256)": "23b872dd"
    },
    "gasEstimates": {
        "creation": {
            "codeDepositCost": "734400",
            "executionCost": "infinite",
            "totalCost": "infinite"
        },
        "external": {
            "DOMAIN_SEPARATOR()": "infinite",
            "allowance(address,address)": "infinite",
            "approve(address,uint256)": "24642",
            "balanceOf(address)": "2585",
            "decimals()": "222",
            "decreaseAllowance(address,uint256)": "26910",
            "getChainId()": "258",
            "increaseAllowance(address,uint256)": "26957",
            "name()": "infinite",
            "nonces(address)": "2627",
            "permit(address,address,uint256,uint256,uint8,bytes32,bytes32)": "infinite",
            "symbol()": "infinite",
            "totalSupply()": "2349",
            "transfer(address,uint256)": "51209",
            "transferFrom(address,address,uint256)": "infinite"
        }
    }
}