{
    "contractName": "ERC20WrapperMock",
    "abi": [
        {
            "inputs": [
                {
                    "internalType": "contract IERC20",
                    "name": "_underlyingToken",
                    "type": "address"
                },
                {
                    "internalType": "string",
                    "name": "name",
                    "type": "string"
                },
                {
                    "internalType": "string",
                    "name": "symbol",
                    "type": "string"
                }
            ],
            "stateMutability": "nonpayable",
            "type": "constructor"
        },
        {
            "anonymous": false,
            "inputs": [
                {
                    "indexed": true,
                    "internalType": "address",
                    "name": "owner",
                    "type": "address"
                },
                {
                    "indexed": true,
                    "internalType": "address",
                    "name": "spender",
                    "type": "address"
                },
                {
                    "indexed": false,
                    "internalType": "uint256",
                    "name": "value",
                    "type": "uint256"
                }
            ],
            "name": "Approval",
            "type": "event"
        },
        {
            "anonymous": false,
            "inputs": [
                {
                    "indexed": true,
                    "internalType": "address",
                    "name": "from",
                    "type": "address"
                },
                {
                    "indexed": true,
                    "internalType": "address",
                    "name": "to",
                    "type": "address"
                },
                {
                    "indexed": false,
                    "internalType": "uint256",
                    "name": "value",
                    "type": "uint256"
                }
            ],
            "name": "Transfer",
            "type": "event"
        },
        {
            "inputs": [
                {
                    "internalType": "address",
                    "name": "owner",
                    "type": "address"
                },
                {
                    "internalType": "address",
                    "name": "spender",
                    "type": "address"
                }
            ],
            "name": "allowance",
            "outputs": [
                {
                    "internalType": "uint256",
                    "name": "",
                    "type": "uint256"
                }
            ],
            "stateMutability": "view",
            "type": "function"
        },
        {
            "inputs": [
                {
                    "internalType": "address",
                    "name": "spender",
                    "type": "address"
                },
                {
                    "internalType": "uint256",
                    "name": "amount",
                    "type": "uint256"
                }
            ],
            "name": "approve",
            "outputs": [
                {
                    "internalType": "bool",
                    "name": "",
                    "type": "bool"
                }
            ],
            "stateMutability": "nonpayable",
            "type": "function"
        },
        {
            "inputs": [
                {
                    "internalType": "address",
                    "name": "account",
                    "type": "address"
                }
            ],
            "name": "balanceOf",
            "outputs": [
                {
                    "internalType": "uint256",
                    "name": "",
                    "type": "uint256"
                }
            ],
            "stateMutability": "view",
            "type": "function"
        },
        {
            "inputs": [],
            "name": "decimals",
            "outputs": [
                {
                    "internalType": "uint8",
                    "name": "",
                    "type": "uint8"
                }
            ],
            "stateMutability": "view",
            "type": "function"
        },
        {
            "inputs": [
                {
                    "internalType": "address",
                    "name": "spender",
                    "type": "address"
                },
                {
                    "internalType": "uint256",
                    "name": "subtractedValue",
                    "type": "uint256"
                }
            ],
            "name": "decreaseAllowance",
            "outputs": [
                {
                    "internalType": "bool",
                    "name": "",
                    "type": "bool"
                }
            ],
            "stateMutability": "nonpayable",
            "type": "function"
        },
        {
            "inputs": [
                {
                    "internalType": "address",
                    "name": "account",
                    "type": "address"
                },
                {
                    "internalType": "uint256",
                    "name": "amount",
                    "type": "uint256"
                }
            ],
            "name": "depositFor",
            "outputs": [
                {
                    "internalType": "bool",
                    "name": "",
                    "type": "bool"
                }
            ],
            "stateMutability": "nonpayable",
            "type": "function"
        },
        {
            "inputs": [
                {
                    "internalType": "address",
                    "name": "spender",
                    "type": "address"
                },
                {
                    "internalType": "uint256",
                    "name": "addedValue",
                    "type": "uint256"
                }
            ],
            "name": "increaseAllowance",
            "outputs": [
                {
                    "internalType": "bool",
                    "name": "",
                    "type": "bool"
                }
            ],
            "stateMutability": "nonpayable",
            "type": "function"
        },
        {
            "inputs": [],
            "name": "name",
            "outputs": [
                {
                    "internalType": "string",
                    "name": "",
                    "type": "string"
                }
            ],
            "stateMutability": "view",
            "type": "function"
        },
        {
            "inputs": [
                {
                    "internalType": "address",
                    "name": "account",
                    "type": "address"
                }
            ],
            "name": "recover",
            "outputs": [
                {
                    "internalType": "uint256",
                    "name": "",
                    "type": "uint256"
                }
            ],
            "stateMutability": "nonpayable",
            "type": "function"
        },
        {
            "inputs": [],
            "name": "symbol",
            "outputs": [
                {
                    "internalType": "string",
                    "name": "",
                    "type": "string"
                }
            ],
            "stateMutability": "view",
            "type": "function"
        },
        {
            "inputs": [],
            "name": "totalSupply",
            "outputs": [
                {
                    "internalType": "uint256",
                    "name": "",
                    "type": "uint256"
                }
            ],
            "stateMutability": "view",
            "type": "function"
        },
        {
            "inputs": [
                {
                    "internalType": "address",
                    "name": "recipient",
                    "type": "address"
                },
                {
                    "internalType": "uint256",
                    "name": "amount",
                    "type": "uint256"
                }
            ],
            "name": "transfer",
            "outputs": [
                {
                    "internalType": "bool",
                    "name": "",
                    "type": "bool"
                }
            ],
            "stateMutability": "nonpayable",
            "type": "function"
        },
        {
            "inputs": [
                {
                    "internalType": "address",
                    "name": "sender",
                    "type": "address"
                },
                {
                    "internalType": "address",
                    "name": "recipient",
                    "type": "address"
                },
                {
                    "internalType": "uint256",
                    "name": "amount",
                    "type": "uint256"
                }
            ],
            "name": "transferFrom",
            "outputs": [
                {
                    "internalType": "bool",
                    "name": "",
                    "type": "bool"
                }
            ],
            "stateMutability": "nonpayable",
            "type": "function"
        },
        {
            "inputs": [],
            "name": "underlying",
            "outputs": [
                {
                    "internalType": "contract IERC20",
                    "name": "",
                    "type": "address"
                }
            ],
            "stateMutability": "view",
            "type": "function"
        },
        {
            "inputs": [
                {
                    "internalType": "address",
                    "name": "account",
                    "type": "address"
                },
                {
                    "internalType": "uint256",
                    "name": "amount",
                    "type": "uint256"
                }
            ],
            "name": "withdrawTo",
            "outputs": [
                {
                    "internalType": "bool",
                    "name": "",
                    "type": "bool"
                }
            ],
            "stateMutability": "nonpayable",
            "type": "function"
        }
    ],
    "bytecode": "60a06040523480156200001157600080fd5b5060405162001341380380620013418339810160408190526200003491620001df565b82828281600390805190602001906200004f92919062000082565b5080516200006590600490602084019062000082565b50505060601b6001600160601b03191660805250620002bc915050565b828054620000909062000269565b90600052602060002090601f016020900481019282620000b45760008555620000ff565b82601f10620000cf57805160ff1916838001178555620000ff565b82800160010185558215620000ff579182015b82811115620000ff578251825591602001919060010190620000e2565b506200010d92915062000111565b5090565b5b808211156200010d576000815560010162000112565b600082601f8301126200013a57600080fd5b81516001600160401b0380821115620001575762000157620002a6565b604051601f8301601f19908116603f01168101908282118183101715620001825762000182620002a6565b816040528381526020925086838588010111156200019f57600080fd5b600091505b83821015620001c35785820183015181830184015290820190620001a4565b83821115620001d55760008385830101525b9695505050505050565b600080600060608486031215620001f557600080fd5b83516001600160a01b03811681146200020d57600080fd5b60208501519093506001600160401b03808211156200022b57600080fd5b620002398783880162000128565b935060408601519150808211156200025057600080fd5b506200025f8682870162000128565b9150509250925092565b600181811c908216806200027e57607f821691505b60208210811415620002a057634e487b7160e01b600052602260045260246000fd5b50919050565b634e487b7160e01b600052604160045260246000fd5b60805160601c611051620002f0600039600081816101c40152818161035801528181610436015261069e01526110516000f3fe608060405234801561001057600080fd5b50600436106100f55760003560e01c8063313ce5671161009757806395d89b411161006657806395d89b4114610227578063a457c2d71461022f578063a9059cbb14610242578063dd62ed3e1461025557600080fd5b8063313ce5671461019d57806339509351146101ac5780636f307dc3146101bf57806370a08231146101fe57600080fd5b806318160ddd116100d357806318160ddd1461015c578063205c28781461016457806323b872dd146101775780632f4f21e21461018a57600080fd5b806306fdde03146100fa578063095ea7b3146101185780630cd865ec1461013b575b600080fd5b61010261028e565b60405161010f9190610f3c565b60405180910390f35b61012b610126366004610ebb565b610320565b604051901515815260200161010f565b61014e610149366004610e31565b610336565b60405190815260200161010f565b60025461014e565b61012b610172366004610ebb565b610347565b61012b610185366004610e7f565b61037e565b61012b610198366004610ebb565b61042f565b6040516012815260200161010f565b61012b6101ba366004610ebb565b610467565b6101e67f000000000000000000000000000000000000000000000000000000000000000081565b6040516001600160a01b03909116815260200161010f565b61014e61020c366004610e31565b6001600160a01b031660009081526020819052604090205490565b6101026104a3565b61012b61023d366004610ebb565b6104b2565b61012b610250366004610ebb565b61054b565b61014e610263366004610e4c565b6001600160a01b03918216600090815260016020908152604080832093909416825291909152205490565b60606003805461029d90610fca565b80601f01602080910402602001604051908101604052809291908181526020018280546102c990610fca565b80156103165780601f106102eb57610100808354040283529160200191610316565b820191906000526020600020905b8154815290600101906020018083116102f957829003601f168201915b5050505050905090565b600061032d338484610558565b50600192915050565b60006103418261067d565b92915050565b60006103533383610736565b61032d7f00000000000000000000000000000000000000000000000000000000000000008484610881565b600061038b8484846108e4565b6001600160a01b0384166000908152600160209081526040808320338452909152902054828110156104155760405162461bcd60e51b815260206004820152602860248201527f45524332303a207472616e7366657220616d6f756e74206578636565647320616044820152676c6c6f77616e636560c01b60648201526084015b60405180910390fd5b6104228533858403610558565b60019150505b9392505050565b600061045d7f0000000000000000000000000000000000000000000000000000000000000000333085610ab4565b61032d8383610aec565b3360008181526001602090815260408083206001600160a01b0387168452909152812054909161032d91859061049e908690610f6f565b610558565b60606004805461029d90610fca565b3360009081526001602090815260408083206001600160a01b0386168452909152812054828110156105345760405162461bcd60e51b815260206004820152602560248201527f45524332303a2064656372656173656420616c6c6f77616e63652062656c6f77604482015264207a65726f60d81b606482015260840161040c565b6105413385858403610558565b5060019392505050565b600061032d3384846108e4565b6001600160a01b0383166105ba5760405162461bcd60e51b8152602060048201526024808201527f45524332303a20617070726f76652066726f6d20746865207a65726f206164646044820152637265737360e01b606482015260840161040c565b6001600160a01b03821661061b5760405162461bcd60e51b815260206004820152602260248201527f45524332303a20617070726f766520746f20746865207a65726f206164647265604482015261737360f01b606482015260840161040c565b6001600160a01b0383811660008181526001602090815260408083209487168084529482529182902085905590518481527f8c5be1e5ebec7d5bd14f71427d1e84f3dd0314c0f7b2291e5b200ac8c7c3b92591015b60405180910390a3505050565b60008061068960025490565b6040516370a0823160e01b81523060048201527f00000000000000000000000000000000000000000000000000000000000000006001600160a01b0316906370a082319060240160206040518083038186803b1580156106e857600080fd5b505afa1580156106fc573d6000803e3d6000fd5b505050506040513d601f19601f820116820180604052508101906107209190610f07565b61072a9190610f87565b90506103418382610aec565b6001600160a01b0382166107965760405162461bcd60e51b815260206004820152602160248201527f45524332303a206275726e2066726f6d20746865207a65726f206164647265736044820152607360f81b606482015260840161040c565b6001600160a01b0382166000908152602081905260409020548181101561080a5760405162461bcd60e51b815260206004820152602260248201527f45524332303a206275726e20616d6f756e7420657863656564732062616c616e604482015261636560f01b606482015260840161040c565b6001600160a01b0383166000908152602081905260408120838303905560028054849290610839908490610f87565b90915550506040518281526000906001600160a01b038516907fddf252ad1be2c89b69c2b068fc378daa952ba7f163c4a11628f55a4df523b3ef90602001610670565b505050565b6040516001600160a01b03831660248201526044810182905261087c90849063a9059cbb60e01b906064015b60408051601f198184030181529190526020810180516001600160e01b03166001600160e01b031990931692909217909152610bcb565b6001600160a01b0383166109485760405162461bcd60e51b815260206004820152602560248201527f45524332303a207472616e736665722066726f6d20746865207a65726f206164604482015264647265737360d81b606482015260840161040c565b6001600160a01b0382166109aa5760405162461bcd60e51b815260206004820152602360248201527f45524332303a207472616e7366657220746f20746865207a65726f206164647260448201526265737360e81b606482015260840161040c565b6001600160a01b03831660009081526020819052604090205481811015610a225760405162461bcd60e51b815260206004820152602660248201527f45524332303a207472616e7366657220616d6f756e7420657863656564732062604482015265616c616e636560d01b606482015260840161040c565b6001600160a01b03808516600090815260208190526040808220858503905591851681529081208054849290610a59908490610f6f565b92505081905550826001600160a01b0316846001600160a01b03167fddf252ad1be2c89b69c2b068fc378daa952ba7f163c4a11628f55a4df523b3ef84604051610aa591815260200190565b60405180910390a35b50505050565b6040516001600160a01b0380851660248301528316604482015260648101829052610aae9085906323b872dd60e01b906084016108ad565b6001600160a01b038216610b425760405162461bcd60e51b815260206004820152601f60248201527f45524332303a206d696e7420746f20746865207a65726f206164647265737300604482015260640161040c565b8060026000828254610b549190610f6f565b90915550506001600160a01b03821660009081526020819052604081208054839290610b81908490610f6f565b90915550506040518181526001600160a01b038316906000907fddf252ad1be2c89b69c2b068fc378daa952ba7f163c4a11628f55a4df523b3ef9060200160405180910390a35050565b6000610c20826040518060400160405280602081526020017f5361666545524332303a206c6f772d6c6576656c2063616c6c206661696c6564815250856001600160a01b0316610c9d9092919063ffffffff16565b80519091501561087c5780806020019051810190610c3e9190610ee5565b61087c5760405162461bcd60e51b815260206004820152602a60248201527f5361666545524332303a204552433230206f7065726174696f6e20646964206e6044820152691bdd081cdd58d8d9595960b21b606482015260840161040c565b6060610cac8484600085610cb4565b949350505050565b606082471015610d155760405162461bcd60e51b815260206004820152602660248201527f416464726573733a20696e73756666696369656e742062616c616e636520666f6044820152651c8818d85b1b60d21b606482015260840161040c565b843b610d635760405162461bcd60e51b815260206004820152601d60248201527f416464726573733a2063616c6c20746f206e6f6e2d636f6e7472616374000000604482015260640161040c565b600080866001600160a01b03168587604051610d7f9190610f20565b60006040518083038185875af1925050503d8060008114610dbc576040519150601f19603f3d011682016040523d82523d6000602084013e610dc1565b606091505b5091509150610dd1828286610ddc565b979650505050505050565b60608315610deb575081610428565b825115610dfb5782518084602001fd5b8160405162461bcd60e51b815260040161040c9190610f3c565b80356001600160a01b0381168114610e2c57600080fd5b919050565b600060208284031215610e4357600080fd5b61042882610e15565b60008060408385031215610e5f57600080fd5b610e6883610e15565b9150610e7660208401610e15565b90509250929050565b600080600060608486031215610e9457600080fd5b610e9d84610e15565b9250610eab60208501610e15565b9150604084013590509250925092565b60008060408385031215610ece57600080fd5b610ed783610e15565b946020939093013593505050565b600060208284031215610ef757600080fd5b8151801515811461042857600080fd5b600060208284031215610f1957600080fd5b5051919050565b60008251610f32818460208701610f9e565b9190910192915050565b6020815260008251806020840152610f5b816040850160208701610f9e565b601f01601f19169190910160400192915050565b60008219821115610f8257610f82611005565b500190565b600082821015610f9957610f99611005565b500390565b60005b83811015610fb9578181015183820152602001610fa1565b83811115610aae5750506000910152565b600181811c90821680610fde57607f821691505b60208210811415610fff57634e487b7160e01b600052602260045260246000fd5b50919050565b634e487b7160e01b600052601160045260246000fdfea2646970667358221220af1d84588f34cf464b50f361a8b275213c84b04676d3d59dc7a98bd2dd18696164736f6c63430008060033",
    "sourcePath": "/Users/Shared/crypto/nextart/contracts/mocks/ERC20WrapperMock.sol",
    "compiler": {
        "name": "solc",
        "version": "0.8.6+commit.11564f7e"
    },
    "functionHashes": {
        "allowance(address,address)": "dd62ed3e",
        "approve(address,uint256)": "095ea7b3",
        "balanceOf(address)": "70a08231",
        "decimals()": "313ce567",
        "decreaseAllowance(address,uint256)": "a457c2d7",
        "depositFor(address,uint256)": "2f4f21e2",
        "increaseAllowance(address,uint256)": "39509351",
        "name()": "06fdde03",
        "recover(address)": "0cd865ec",
        "symbol()": "95d89b41",
        "totalSupply()": "18160ddd",
        "transfer(address,uint256)": "a9059cbb",
        "transferFrom(address,address,uint256)": "23b872dd",
        "underlying()": "6f307dc3",
        "withdrawTo(address,uint256)": "205c2878"
    },
    "gasEstimates": {
        "creation": {
            "codeDepositCost": "835400",
            "executionCost": "infinite",
            "totalCost": "infinite"
        },
        "external": {
            "allowance(address,address)": "infinite",
            "approve(address,uint256)": "24643",
            "balanceOf(address)": "2629",
            "decimals()": "200",
            "decreaseAllowance(address,uint256)": "26933",
            "depositFor(address,uint256)": "infinite",
            "increaseAllowance(address,uint256)": "26980",
            "name()": "infinite",
            "recover(address)": "infinite",
            "symbol()": "infinite",
            "totalSupply()": "2315",
            "transfer(address,uint256)": "51232",
            "transferFrom(address,address,uint256)": "infinite",
            "underlying()": "infinite",
            "withdrawTo(address,uint256)": "infinite"
        }
    }
}