{
    "contractName": "ERC20SnapshotMock",
    "abi": [
        {
            "inputs": [
                {
                    "internalType": "string",
                    "name": "name",
                    "type": "string"
                },
                {
                    "internalType": "string",
                    "name": "symbol",
                    "type": "string"
                },
                {
                    "internalType": "address",
                    "name": "initialAccount",
                    "type": "address"
                },
                {
                    "internalType": "uint256",
                    "name": "initialBalance",
                    "type": "uint256"
                }
            ],
            "stateMutability": "nonpayable",
            "type": "constructor"
        },
        {
            "anonymous": false,
            "inputs": [
                {
                    "indexed": true,
                    "internalType": "address",
                    "name": "owner",
                    "type": "address"
                },
                {
                    "indexed": true,
                    "internalType": "address",
                    "name": "spender",
                    "type": "address"
                },
                {
                    "indexed": false,
                    "internalType": "uint256",
                    "name": "value",
                    "type": "uint256"
                }
            ],
            "name": "Approval",
            "type": "event"
        },
        {
            "anonymous": false,
            "inputs": [
                {
                    "indexed": false,
                    "internalType": "uint256",
                    "name": "id",
                    "type": "uint256"
                }
            ],
            "name": "Snapshot",
            "type": "event"
        },
        {
            "anonymous": false,
            "inputs": [
                {
                    "indexed": true,
                    "internalType": "address",
                    "name": "from",
                    "type": "address"
                },
                {
                    "indexed": true,
                    "internalType": "address",
                    "name": "to",
                    "type": "address"
                },
                {
                    "indexed": false,
                    "internalType": "uint256",
                    "name": "value",
                    "type": "uint256"
                }
            ],
            "name": "Transfer",
            "type": "event"
        },
        {
            "inputs": [
                {
                    "internalType": "address",
                    "name": "owner",
                    "type": "address"
                },
                {
                    "internalType": "address",
                    "name": "spender",
                    "type": "address"
                }
            ],
            "name": "allowance",
            "outputs": [
                {
                    "internalType": "uint256",
                    "name": "",
                    "type": "uint256"
                }
            ],
            "stateMutability": "view",
            "type": "function"
        },
        {
            "inputs": [
                {
                    "internalType": "address",
                    "name": "spender",
                    "type": "address"
                },
                {
                    "internalType": "uint256",
                    "name": "amount",
                    "type": "uint256"
                }
            ],
            "name": "approve",
            "outputs": [
                {
                    "internalType": "bool",
                    "name": "",
                    "type": "bool"
                }
            ],
            "stateMutability": "nonpayable",
            "type": "function"
        },
        {
            "inputs": [
                {
                    "internalType": "address",
                    "name": "account",
                    "type": "address"
                }
            ],
            "name": "balanceOf",
            "outputs": [
                {
                    "internalType": "uint256",
                    "name": "",
                    "type": "uint256"
                }
            ],
            "stateMutability": "view",
            "type": "function"
        },
        {
            "inputs": [
                {
                    "internalType": "address",
                    "name": "account",
                    "type": "address"
                },
                {
                    "internalType": "uint256",
                    "name": "snapshotId",
                    "type": "uint256"
                }
            ],
            "name": "balanceOfAt",
            "outputs": [
                {
                    "internalType": "uint256",
                    "name": "",
                    "type": "uint256"
                }
            ],
            "stateMutability": "view",
            "type": "function"
        },
        {
            "inputs": [
                {
                    "internalType": "address",
                    "name": "account",
                    "type": "address"
                },
                {
                    "internalType": "uint256",
                    "name": "amount",
                    "type": "uint256"
                }
            ],
            "name": "burn",
            "outputs": [],
            "stateMutability": "nonpayable",
            "type": "function"
        },
        {
            "inputs": [],
            "name": "decimals",
            "outputs": [
                {
                    "internalType": "uint8",
                    "name": "",
                    "type": "uint8"
                }
            ],
            "stateMutability": "view",
            "type": "function"
        },
        {
            "inputs": [
                {
                    "internalType": "address",
                    "name": "spender",
                    "type": "address"
                },
                {
                    "internalType": "uint256",
                    "name": "subtractedValue",
                    "type": "uint256"
                }
            ],
            "name": "decreaseAllowance",
            "outputs": [
                {
                    "internalType": "bool",
                    "name": "",
                    "type": "bool"
                }
            ],
            "stateMutability": "nonpayable",
            "type": "function"
        },
        {
            "inputs": [
                {
                    "internalType": "address",
                    "name": "spender",
                    "type": "address"
                },
                {
                    "internalType": "uint256",
                    "name": "addedValue",
                    "type": "uint256"
                }
            ],
            "name": "increaseAllowance",
            "outputs": [
                {
                    "internalType": "bool",
                    "name": "",
                    "type": "bool"
                }
            ],
            "stateMutability": "nonpayable",
            "type": "function"
        },
        {
            "inputs": [
                {
                    "internalType": "address",
                    "name": "account",
                    "type": "address"
                },
                {
                    "internalType": "uint256",
                    "name": "amount",
                    "type": "uint256"
                }
            ],
            "name": "mint",
            "outputs": [],
            "stateMutability": "nonpayable",
            "type": "function"
        },
        {
            "inputs": [],
            "name": "name",
            "outputs": [
                {
                    "internalType": "string",
                    "name": "",
                    "type": "string"
                }
            ],
            "stateMutability": "view",
            "type": "function"
        },
        {
            "inputs": [],
            "name": "snapshot",
            "outputs": [],
            "stateMutability": "nonpayable",
            "type": "function"
        },
        {
            "inputs": [],
            "name": "symbol",
            "outputs": [
                {
                    "internalType": "string",
                    "name": "",
                    "type": "string"
                }
            ],
            "stateMutability": "view",
            "type": "function"
        },
        {
            "inputs": [],
            "name": "totalSupply",
            "outputs": [
                {
                    "internalType": "uint256",
                    "name": "",
                    "type": "uint256"
                }
            ],
            "stateMutability": "view",
            "type": "function"
        },
        {
            "inputs": [
                {
                    "internalType": "uint256",
                    "name": "snapshotId",
                    "type": "uint256"
                }
            ],
            "name": "totalSupplyAt",
            "outputs": [
                {
                    "internalType": "uint256",
                    "name": "",
                    "type": "uint256"
                }
            ],
            "stateMutability": "view",
            "type": "function"
        },
        {
            "inputs": [
                {
                    "internalType": "address",
                    "name": "recipient",
                    "type": "address"
                },
                {
                    "internalType": "uint256",
                    "name": "amount",
                    "type": "uint256"
                }
            ],
            "name": "transfer",
            "outputs": [
                {
                    "internalType": "bool",
                    "name": "",
                    "type": "bool"
                }
            ],
            "stateMutability": "nonpayable",
            "type": "function"
        },
        {
            "inputs": [
                {
                    "internalType": "address",
                    "name": "sender",
                    "type": "address"
                },
                {
                    "internalType": "address",
                    "name": "recipient",
                    "type": "address"
                },
                {
                    "internalType": "uint256",
                    "name": "amount",
                    "type": "uint256"
                }
            ],
            "name": "transferFrom",
            "outputs": [
                {
                    "internalType": "bool",
                    "name": "",
                    "type": "bool"
                }
            ],
            "stateMutability": "nonpayable",
            "type": "function"
        }
    ],
    "bytecode": "60806040523480156200001157600080fd5b50604051620015d4380380620015d4833981016040819052620000349162000445565b8351849084906200004d906003906020850190620002e8565b50805162000063906004906020840190620002e8565b5050506200007882826200008260201b60201c565b505050506200058c565b6001600160a01b038216620000dd5760405162461bcd60e51b815260206004820152601f60248201527f45524332303a206d696e7420746f20746865207a65726f206164647265737300604482015260640160405180910390fd5b620000eb6000838362000178565b8060026000828254620000ff9190620004d8565b90915550506001600160a01b038216600090815260208190526040812080548392906200012e908490620004d8565b90915550506040518181526001600160a01b038316906000907fddf252ad1be2c89b69c2b068fc378daa952ba7f163c4a11628f55a4df523b3ef9060200160405180910390a35050565b62000190838383620001b460201b620005631760201c565b6001600160a01b038316620001b957620001aa82620001e4565b620001b46200021c565b505050565b6001600160a01b038216620001d357620001aa83620001e4565b620001de83620001e4565b620001b4825b6001600160a01b038116600090815260056020908152604080832091839052909120546200021991906200022e565b6200022e565b50565b6200022c60066200021360025490565b565b60006200023a6200027d565b90508062000248846200029b565b1015620001b4578254600180820185556000858152602080822090930193909355938401805494850181558252902090910155565b6000620002966008620002e460201b620005681760201c565b905090565b8054600090620002ad57506000919050565b81548290620002bf90600190620004f3565b81548110620002d257620002d262000560565b90600052602060002001549050919050565b5490565b828054620002f6906200050d565b90600052602060002090601f0160209004810192826200031a576000855562000365565b82601f106200033557805160ff191683800117855562000365565b8280016001018555821562000365579182015b828111156200036557825182559160200191906001019062000348565b506200037392915062000377565b5090565b5b8082111562000373576000815560010162000378565b600082601f830112620003a057600080fd5b81516001600160401b0380821115620003bd57620003bd62000576565b604051601f8301601f19908116603f01168101908282118183101715620003e857620003e862000576565b816040528381526020925086838588010111156200040557600080fd5b600091505b838210156200042957858201830151818301840152908201906200040a565b838211156200043b5760008385830101525b9695505050505050565b600080600080608085870312156200045c57600080fd5b84516001600160401b03808211156200047457600080fd5b62000482888389016200038e565b955060208701519150808211156200049957600080fd5b50620004a8878288016200038e565b604087015190945090506001600160a01b0381168114620004c857600080fd5b6060959095015193969295505050565b60008219821115620004ee57620004ee6200054a565b500190565b6000828210156200050857620005086200054a565b500390565b600181811c908216806200052257607f821691505b602082108114156200054457634e487b7160e01b600052602260045260246000fd5b50919050565b634e487b7160e01b600052601160045260246000fd5b634e487b7160e01b600052603260045260246000fd5b634e487b7160e01b600052604160045260246000fd5b611038806200059c6000396000f3fe608060405234801561001057600080fd5b50600436106101005760003560e01c806370a08231116100975780639dc29fac116100665780639dc29fac14610201578063a457c2d714610214578063a9059cbb14610227578063dd62ed3e1461023a57600080fd5b806370a08231146101b557806395d89b41146101de5780639711715a146101e6578063981b24d0146101ee57600080fd5b8063313ce567116100d3578063313ce5671461016b578063395093511461017a57806340c10f191461018d5780634ee2cd7e146101a257600080fd5b806306fdde0314610105578063095ea7b31461012357806318160ddd1461014657806323b872dd14610158575b600080fd5b61010d610273565b60405161011a9190610ef5565b60405180910390f35b610136610131366004610eb2565b610305565b604051901515815260200161011a565b6002545b60405190815260200161011a565b610136610166366004610e76565b61031c565b6040516012815260200161011a565b610136610188366004610eb2565b6103cb565b6101a061019b366004610eb2565b610407565b005b61014a6101b0366004610eb2565b610415565b61014a6101c3366004610e28565b6001600160a01b031660009081526020819052604090205490565b61010d61046e565b6101a061047d565b61014a6101fc366004610edc565b610488565b6101a061020f366004610eb2565b6104b3565b610136610222366004610eb2565b6104bd565b610136610235366004610eb2565b610556565b61014a610248366004610e43565b6001600160a01b03918216600090815260016020908152604080832093909416825291909152205490565b60606003805461028290610f9b565b80601f01602080910402602001604051908101604052809291908181526020018280546102ae90610f9b565b80156102fb5780601f106102d0576101008083540402835291602001916102fb565b820191906000526020600020905b8154815290600101906020018083116102de57829003601f168201915b5050505050905090565b600061031233848461056c565b5060015b92915050565b6000610329848484610690565b6001600160a01b0384166000908152600160209081526040808320338452909152902054828110156103b35760405162461bcd60e51b815260206004820152602860248201527f45524332303a207472616e7366657220616d6f756e74206578636565647320616044820152676c6c6f77616e636560c01b60648201526084015b60405180910390fd5b6103c0853385840361056c565b506001949350505050565b3360008181526001602090815260408083206001600160a01b03871684529091528120549091610312918590610402908690610f4a565b61056c565b610411828261086a565b5050565b6001600160a01b03821660009081526005602052604081208190819061043c908590610955565b9150915081610463576001600160a01b038516600090815260208190526040902054610465565b805b95945050505050565b60606004805461028290610f9b565b610485610a4c565b50565b6000806000610498846006610955565b91509150816104a9576002546104ab565b805b949350505050565b6104118282610aa6565b3360009081526001602090815260408083206001600160a01b03861684529091528120548281101561053f5760405162461bcd60e51b815260206004820152602560248201527f45524332303a2064656372656173656420616c6c6f77616e63652062656c6f77604482015264207a65726f60d81b60648201526084016103aa565b61054c338585840361056c565b5060019392505050565b6000610312338484610690565b505050565b5490565b6001600160a01b0383166105ce5760405162461bcd60e51b8152602060048201526024808201527f45524332303a20617070726f76652066726f6d20746865207a65726f206164646044820152637265737360e01b60648201526084016103aa565b6001600160a01b03821661062f5760405162461bcd60e51b815260206004820152602260248201527f45524332303a20617070726f766520746f20746865207a65726f206164647265604482015261737360f01b60648201526084016103aa565b6001600160a01b0383811660008181526001602090815260408083209487168084529482529182902085905590518481527f8c5be1e5ebec7d5bd14f71427d1e84f3dd0314c0f7b2291e5b200ac8c7c3b925910160405180910390a3505050565b6001600160a01b0383166106f45760405162461bcd60e51b815260206004820152602560248201527f45524332303a207472616e736665722066726f6d20746865207a65726f206164604482015264647265737360d81b60648201526084016103aa565b6001600160a01b0382166107565760405162461bcd60e51b815260206004820152602360248201527f45524332303a207472616e7366657220746f20746865207a65726f206164647260448201526265737360e81b60648201526084016103aa565b610761838383610c00565b6001600160a01b038316600090815260208190526040902054818110156107d95760405162461bcd60e51b815260206004820152602660248201527f45524332303a207472616e7366657220616d6f756e7420657863656564732062604482015265616c616e636560d01b60648201526084016103aa565b6001600160a01b03808516600090815260208190526040808220858503905591851681529081208054849290610810908490610f4a565b92505081905550826001600160a01b0316846001600160a01b03167fddf252ad1be2c89b69c2b068fc378daa952ba7f163c4a11628f55a4df523b3ef8460405161085c91815260200190565b60405180910390a350505050565b6001600160a01b0382166108c05760405162461bcd60e51b815260206004820152601f60248201527f45524332303a206d696e7420746f20746865207a65726f20616464726573730060448201526064016103aa565b6108cc60008383610c00565b80600260008282546108de9190610f4a565b90915550506001600160a01b0382166000908152602081905260408120805483929061090b908490610f4a565b90915550506040518181526001600160a01b038316906000907fddf252ad1be2c89b69c2b068fc378daa952ba7f163c4a11628f55a4df523b3ef9060200160405180910390a35050565b600080600084116109a15760405162461bcd60e51b815260206004820152601660248201527504552433230536e617073686f743a20696420697320360541b60448201526064016103aa565b6109a9610c48565b8411156109f85760405162461bcd60e51b815260206004820152601d60248201527f4552433230536e617073686f743a206e6f6e6578697374656e7420696400000060448201526064016103aa565b6000610a048486610c58565b8454909150811415610a1d576000809250925050610a45565b6001846001018281548110610a3457610a34610fec565b906000526020600020015492509250505b9250929050565b6000610a5c600880546001019055565b6000610a66610c48565b90507f8030e83b04d87bef53480e26263266d6ca66863aa8506aca6f2559d18aa1cb6781604051610a9991815260200190565b60405180910390a1919050565b6001600160a01b038216610b065760405162461bcd60e51b815260206004820152602160248201527f45524332303a206275726e2066726f6d20746865207a65726f206164647265736044820152607360f81b60648201526084016103aa565b610b1282600083610c00565b6001600160a01b03821660009081526020819052604090205481811015610b865760405162461bcd60e51b815260206004820152602260248201527f45524332303a206275726e20616d6f756e7420657863656564732062616c616e604482015261636560f01b60648201526084016103aa565b6001600160a01b0383166000908152602081905260408120838303905560028054849290610bb5908490610f84565b90915550506040518281526000906001600160a01b038516907fddf252ad1be2c89b69c2b068fc378daa952ba7f163c4a11628f55a4df523b3ef9060200160405180910390a3505050565b6001600160a01b038316610c1f57610c1782610d1b565b610563610d4d565b6001600160a01b038216610c3657610c1783610d1b565b610c3f83610d1b565b61056382610d1b565b6000610c5360085490565b905090565b8154600090610c6957506000610316565b82546000905b80821015610cc5576000610c838383610d5d565b905084868281548110610c9857610c98610fec565b90600052602060002001541115610cb157809150610cbf565b610cbc816001610f4a565b92505b50610c6f565b600082118015610cfa57508385610cdd600185610f84565b81548110610ced57610ced610fec565b9060005260206000200154145b15610d1357610d0a600183610f84565b92505050610316565b509050610316565b6001600160a01b038116600090815260056020908152604080832091839052909120546104859190610d7f565b610d7f565b610d5b6006610d4860025490565b565b6000610d6c6002848418610f62565b610d7890848416610f4a565b9392505050565b6000610d89610c48565b905080610d9584610dc9565b1015610563578254600180820185556000858152602080822090930193909355938401805494850181558252902090910155565b8054600090610dda57506000919050565b81548290610dea90600190610f84565b81548110610dfa57610dfa610fec565b90600052602060002001549050919050565b919050565b80356001600160a01b0381168114610e0c57600080fd5b600060208284031215610e3a57600080fd5b610d7882610e11565b60008060408385031215610e5657600080fd5b610e5f83610e11565b9150610e6d60208401610e11565b90509250929050565b600080600060608486031215610e8b57600080fd5b610e9484610e11565b9250610ea260208501610e11565b9150604084013590509250925092565b60008060408385031215610ec557600080fd5b610ece83610e11565b946020939093013593505050565b600060208284031215610eee57600080fd5b5035919050565b600060208083528351808285015260005b81811015610f2257858101830151858201604001528201610f06565b81811115610f34576000604083870101525b50601f01601f1916929092016040019392505050565b60008219821115610f5d57610f5d610fd6565b500190565b600082610f7f57634e487b7160e01b600052601260045260246000fd5b500490565b600082821015610f9657610f96610fd6565b500390565b600181811c90821680610faf57607f821691505b60208210811415610fd057634e487b7160e01b600052602260045260246000fd5b50919050565b634e487b7160e01b600052601160045260246000fd5b634e487b7160e01b600052603260045260246000fdfea2646970667358221220a53b166b5a23bac40868ae63f6e27a93b0b5b0797e4bacbcd1db253fac8bed6364736f6c63430008060033",
    "sourcePath": "/Users/Shared/crypto/nextart/contracts/mocks/ERC20SnapshotMock.sol",
    "compiler": {
        "name": "solc",
        "version": "0.8.6+commit.11564f7e"
    },
    "functionHashes": {
        "allowance(address,address)": "dd62ed3e",
        "approve(address,uint256)": "095ea7b3",
        "balanceOf(address)": "70a08231",
        "balanceOfAt(address,uint256)": "4ee2cd7e",
        "burn(address,uint256)": "9dc29fac",
        "decimals()": "313ce567",
        "decreaseAllowance(address,uint256)": "a457c2d7",
        "increaseAllowance(address,uint256)": "39509351",
        "mint(address,uint256)": "40c10f19",
        "name()": "06fdde03",
        "snapshot()": "9711715a",
        "symbol()": "95d89b41",
        "totalSupply()": "18160ddd",
        "totalSupplyAt(uint256)": "981b24d0",
        "transfer(address,uint256)": "a9059cbb",
        "transferFrom(address,address,uint256)": "23b872dd"
    },
    "gasEstimates": {
        "creation": {
            "codeDepositCost": "830400",
            "executionCost": "infinite",
            "totalCost": "infinite"
        },
        "external": {
            "allowance(address,address)": "infinite",
            "approve(address,uint256)": "24643",
            "balanceOf(address)": "2563",
            "balanceOfAt(address,uint256)": "infinite",
            "burn(address,uint256)": "infinite",
            "decimals()": "200",
            "decreaseAllowance(address,uint256)": "26932",
            "increaseAllowance(address,uint256)": "26980",
            "mint(address,uint256)": "infinite",
            "name()": "infinite",
            "snapshot()": "27708",
            "symbol()": "infinite",
            "totalSupply()": "2349",
            "totalSupplyAt(uint256)": "infinite",
            "transfer(address,uint256)": "infinite",
            "transferFrom(address,address,uint256)": "infinite"
        }
    }
}