{
    "contractName": "ERC20NoReturnMock",
    "abi": [
        {
            "inputs": [
                {
                    "internalType": "address",
                    "name": "owner",
                    "type": "address"
                },
                {
                    "internalType": "address",
                    "name": "",
                    "type": "address"
                }
            ],
            "name": "allowance",
            "outputs": [
                {
                    "internalType": "uint256",
                    "name": "",
                    "type": "uint256"
                }
            ],
            "stateMutability": "view",
            "type": "function"
        },
        {
            "inputs": [
                {
                    "internalType": "address",
                    "name": "",
                    "type": "address"
                },
                {
                    "internalType": "uint256",
                    "name": "",
                    "type": "uint256"
                }
            ],
            "name": "approve",
            "outputs": [],
            "stateMutability": "nonpayable",
            "type": "function"
        },
        {
            "inputs": [
                {
                    "internalType": "uint256",
                    "name": "allowance_",
                    "type": "uint256"
                }
            ],
            "name": "setAllowance",
            "outputs": [],
            "stateMutability": "nonpayable",
            "type": "function"
        },
        {
            "inputs": [
                {
                    "internalType": "address",
                    "name": "",
                    "type": "address"
                },
                {
                    "internalType": "uint256",
                    "name": "",
                    "type": "uint256"
                }
            ],
            "name": "transfer",
            "outputs": [],
            "stateMutability": "nonpayable",
            "type": "function"
        },
        {
            "inputs": [
                {
                    "internalType": "address",
                    "name": "",
                    "type": "address"
                },
                {
                    "internalType": "address",
                    "name": "",
                    "type": "address"
                },
                {
                    "internalType": "uint256",
                    "name": "",
                    "type": "uint256"
                }
            ],
            "name": "transferFrom",
            "outputs": [],
            "stateMutability": "nonpayable",
            "type": "function"
        }
    ],
    "bytecode": "608060405234801561001057600080fd5b506101ed806100206000396000f3fe608060405234801561001057600080fd5b50600436106100575760003560e01c8063095ea7b31461005c57806323b872dd146100755780633ba93f261461008d578063a9059cbb1461005c578063dd62ed3e146100ad575b600080fd5b61007361006a366004610174565b50506000600155565b005b610073610083366004610138565b5050600060015550565b61007361009b36600461019e565b33600090815260208190526040902055565b6100d76100bb366004610105565b506001600160a01b031660009081526020819052604090205490565b60405190815260200160405180910390f35b80356001600160a01b038116811461010057600080fd5b919050565b6000806040838503121561011857600080fd5b610121836100e9565b915061012f602084016100e9565b90509250929050565b60008060006060848603121561014d57600080fd5b610156846100e9565b9250610164602085016100e9565b9150604084013590509250925092565b6000806040838503121561018757600080fd5b610190836100e9565b946020939093013593505050565b6000602082840312156101b057600080fd5b503591905056fea26469706673582212200ef09c0d2827b00b4026c381f3a7bb105bad6c0729904c0467bc1ba570c4156664736f6c63430008060033",
    "sourcePath": "/Users/Shared/crypto/nextart/contracts/mocks/SafeERC20Helper.sol",
    "compiler": {
        "name": "solc",
        "version": "0.8.6+commit.11564f7e"
    },
    "functionHashes": {
        "allowance(address,address)": "dd62ed3e",
        "approve(address,uint256)": "095ea7b3",
        "setAllowance(uint256)": "3ba93f26",
        "transfer(address,uint256)": "a9059cbb",
        "transferFrom(address,address,uint256)": "23b872dd"
    },
    "gasEstimates": {
        "creation": {
            "codeDepositCost": "98600",
            "executionCost": "147",
            "totalCost": "98747"
        },
        "external": {
            "allowance(address,address)": "infinite",
            "approve(address,uint256)": "5299",
            "setAllowance(uint256)": "22405",
            "transfer(address,uint256)": "5365",
            "transferFrom(address,address,uint256)": "infinite"
        }
    }
}