{
    "contractName": "ERC721PausableMock",
    "abi": [
        {
            "inputs": [
                {
                    "internalType": "string",
                    "name": "name",
                    "type": "string"
                },
                {
                    "internalType": "string",
                    "name": "symbol",
                    "type": "string"
                }
            ],
            "stateMutability": "nonpayable",
            "type": "constructor"
        },
        {
            "anonymous": false,
            "inputs": [
                {
                    "indexed": true,
                    "internalType": "address",
                    "name": "owner",
                    "type": "address"
                },
                {
                    "indexed": true,
                    "internalType": "address",
                    "name": "approved",
                    "type": "address"
                },
                {
                    "indexed": true,
                    "internalType": "uint256",
                    "name": "tokenId",
                    "type": "uint256"
                }
            ],
            "name": "Approval",
            "type": "event"
        },
        {
            "anonymous": false,
            "inputs": [
                {
                    "indexed": true,
                    "internalType": "address",
                    "name": "owner",
                    "type": "address"
                },
                {
                    "indexed": true,
                    "internalType": "address",
                    "name": "operator",
                    "type": "address"
                },
                {
                    "indexed": false,
                    "internalType": "bool",
                    "name": "approved",
                    "type": "bool"
                }
            ],
            "name": "ApprovalForAll",
            "type": "event"
        },
        {
            "anonymous": false,
            "inputs": [
                {
                    "indexed": false,
                    "internalType": "address",
                    "name": "account",
                    "type": "address"
                }
            ],
            "name": "Paused",
            "type": "event"
        },
        {
            "anonymous": false,
            "inputs": [
                {
                    "indexed": true,
                    "internalType": "address",
                    "name": "from",
                    "type": "address"
                },
                {
                    "indexed": true,
                    "internalType": "address",
                    "name": "to",
                    "type": "address"
                },
                {
                    "indexed": true,
                    "internalType": "uint256",
                    "name": "tokenId",
                    "type": "uint256"
                }
            ],
            "name": "Transfer",
            "type": "event"
        },
        {
            "anonymous": false,
            "inputs": [
                {
                    "indexed": false,
                    "internalType": "address",
                    "name": "account",
                    "type": "address"
                }
            ],
            "name": "Unpaused",
            "type": "event"
        },
        {
            "inputs": [
                {
                    "internalType": "address",
                    "name": "to",
                    "type": "address"
                },
                {
                    "internalType": "uint256",
                    "name": "tokenId",
                    "type": "uint256"
                }
            ],
            "name": "approve",
            "outputs": [],
            "stateMutability": "nonpayable",
            "type": "function"
        },
        {
            "inputs": [
                {
                    "internalType": "address",
                    "name": "owner",
                    "type": "address"
                }
            ],
            "name": "balanceOf",
            "outputs": [
                {
                    "internalType": "uint256",
                    "name": "",
                    "type": "uint256"
                }
            ],
            "stateMutability": "view",
            "type": "function"
        },
        {
            "inputs": [
                {
                    "internalType": "uint256",
                    "name": "tokenId",
                    "type": "uint256"
                }
            ],
            "name": "burn",
            "outputs": [],
            "stateMutability": "nonpayable",
            "type": "function"
        },
        {
            "inputs": [
                {
                    "internalType": "uint256",
                    "name": "tokenId",
                    "type": "uint256"
                }
            ],
            "name": "exists",
            "outputs": [
                {
                    "internalType": "bool",
                    "name": "",
                    "type": "bool"
                }
            ],
            "stateMutability": "view",
            "type": "function"
        },
        {
            "inputs": [
                {
                    "internalType": "uint256",
                    "name": "tokenId",
                    "type": "uint256"
                }
            ],
            "name": "getApproved",
            "outputs": [
                {
                    "internalType": "address",
                    "name": "",
                    "type": "address"
                }
            ],
            "stateMutability": "view",
            "type": "function"
        },
        {
            "inputs": [
                {
                    "internalType": "address",
                    "name": "owner",
                    "type": "address"
                },
                {
                    "internalType": "address",
                    "name": "operator",
                    "type": "address"
                }
            ],
            "name": "isApprovedForAll",
            "outputs": [
                {
                    "internalType": "bool",
                    "name": "",
                    "type": "bool"
                }
            ],
            "stateMutability": "view",
            "type": "function"
        },
        {
            "inputs": [
                {
                    "internalType": "address",
                    "name": "to",
                    "type": "address"
                },
                {
                    "internalType": "uint256",
                    "name": "tokenId",
                    "type": "uint256"
                }
            ],
            "name": "mint",
            "outputs": [],
            "stateMutability": "nonpayable",
            "type": "function"
        },
        {
            "inputs": [],
            "name": "name",
            "outputs": [
                {
                    "internalType": "string",
                    "name": "",
                    "type": "string"
                }
            ],
            "stateMutability": "view",
            "type": "function"
        },
        {
            "inputs": [
                {
                    "internalType": "uint256",
                    "name": "tokenId",
                    "type": "uint256"
                }
            ],
            "name": "ownerOf",
            "outputs": [
                {
                    "internalType": "address",
                    "name": "",
                    "type": "address"
                }
            ],
            "stateMutability": "view",
            "type": "function"
        },
        {
            "inputs": [],
            "name": "pause",
            "outputs": [],
            "stateMutability": "nonpayable",
            "type": "function"
        },
        {
            "inputs": [],
            "name": "paused",
            "outputs": [
                {
                    "internalType": "bool",
                    "name": "",
                    "type": "bool"
                }
            ],
            "stateMutability": "view",
            "type": "function"
        },
        {
            "inputs": [
                {
                    "internalType": "address",
                    "name": "to",
                    "type": "address"
                },
                {
                    "internalType": "uint256",
                    "name": "tokenId",
                    "type": "uint256"
                },
                {
                    "internalType": "bytes",
                    "name": "_data",
                    "type": "bytes"
                }
            ],
            "name": "safeMint",
            "outputs": [],
            "stateMutability": "nonpayable",
            "type": "function"
        },
        {
            "inputs": [
                {
                    "internalType": "address",
                    "name": "to",
                    "type": "address"
                },
                {
                    "internalType": "uint256",
                    "name": "tokenId",
                    "type": "uint256"
                }
            ],
            "name": "safeMint",
            "outputs": [],
            "stateMutability": "nonpayable",
            "type": "function"
        },
        {
            "inputs": [
                {
                    "internalType": "address",
                    "name": "from",
                    "type": "address"
                },
                {
                    "internalType": "address",
                    "name": "to",
                    "type": "address"
                },
                {
                    "internalType": "uint256",
                    "name": "tokenId",
                    "type": "uint256"
                }
            ],
            "name": "safeTransferFrom",
            "outputs": [],
            "stateMutability": "nonpayable",
            "type": "function"
        },
        {
            "inputs": [
                {
                    "internalType": "address",
                    "name": "from",
                    "type": "address"
                },
                {
                    "internalType": "address",
                    "name": "to",
                    "type": "address"
                },
                {
                    "internalType": "uint256",
                    "name": "tokenId",
                    "type": "uint256"
                },
                {
                    "internalType": "bytes",
                    "name": "_data",
                    "type": "bytes"
                }
            ],
            "name": "safeTransferFrom",
            "outputs": [],
            "stateMutability": "nonpayable",
            "type": "function"
        },
        {
            "inputs": [
                {
                    "internalType": "address",
                    "name": "operator",
                    "type": "address"
                },
                {
                    "internalType": "bool",
                    "name": "approved",
                    "type": "bool"
                }
            ],
            "name": "setApprovalForAll",
            "outputs": [],
            "stateMutability": "nonpayable",
            "type": "function"
        },
        {
            "inputs": [
                {
                    "internalType": "bytes4",
                    "name": "interfaceId",
                    "type": "bytes4"
                }
            ],
            "name": "supportsInterface",
            "outputs": [
                {
                    "internalType": "bool",
                    "name": "",
                    "type": "bool"
                }
            ],
            "stateMutability": "view",
            "type": "function"
        },
        {
            "inputs": [],
            "name": "symbol",
            "outputs": [
                {
                    "internalType": "string",
                    "name": "",
                    "type": "string"
                }
            ],
            "stateMutability": "view",
            "type": "function"
        },
        {
            "inputs": [
                {
                    "internalType": "uint256",
                    "name": "tokenId",
                    "type": "uint256"
                }
            ],
            "name": "tokenURI",
            "outputs": [
                {
                    "internalType": "string",
                    "name": "",
                    "type": "string"
                }
            ],
            "stateMutability": "view",
            "type": "function"
        },
        {
            "inputs": [
                {
                    "internalType": "address",
                    "name": "from",
                    "type": "address"
                },
                {
                    "internalType": "address",
                    "name": "to",
                    "type": "address"
                },
                {
                    "internalType": "uint256",
                    "name": "tokenId",
                    "type": "uint256"
                }
            ],
            "name": "transferFrom",
            "outputs": [],
            "stateMutability": "nonpayable",
            "type": "function"
        },
        {
            "inputs": [],
            "name": "unpause",
            "outputs": [],
            "stateMutability": "nonpayable",
            "type": "function"
        }
    ],
    "bytecode": "60806040523480156200001157600080fd5b5060405162001a5a38038062001a5a8339810160408190526200003491620001d6565b8151829082906200004d90600090602085019062000079565b5080516200006390600190602084019062000079565b50506006805460ff191690555062000293915050565b828054620000879062000240565b90600052602060002090601f016020900481019282620000ab5760008555620000f6565b82601f10620000c657805160ff1916838001178555620000f6565b82800160010185558215620000f6579182015b82811115620000f6578251825591602001919060010190620000d9565b506200010492915062000108565b5090565b5b8082111562000104576000815560010162000109565b600082601f8301126200013157600080fd5b81516001600160401b03808211156200014e576200014e6200027d565b604051601f8301601f19908116603f011681019082821181831017156200017957620001796200027d565b816040528381526020925086838588010111156200019657600080fd5b600091505b83821015620001ba57858201830151818301840152908201906200019b565b83821115620001cc5760008385830101525b9695505050505050565b60008060408385031215620001ea57600080fd5b82516001600160401b03808211156200020257600080fd5b62000210868387016200011f565b935060208501519150808211156200022757600080fd5b5062000236858286016200011f565b9150509250929050565b600181811c908216806200025557607f821691505b602082108114156200027757634e487b7160e01b600052602260045260246000fd5b50919050565b634e487b7160e01b600052604160045260246000fd5b6117b780620002a36000396000f3fe608060405234801561001057600080fd5b50600436106101375760003560e01c80635c975abb116100b857806395d89b411161007c57806395d89b411461027a578063a144819414610282578063a22cb46514610295578063b88d4fde146102a8578063c87b56dd146102bb578063e985e9c5146102ce57600080fd5b80635c975abb146102205780636352211e1461022b57806370a082311461023e5780638456cb591461025f5780638832e6e31461026757600080fd5b80633f4ba83a116100ff5780633f4ba83a146101cc57806340c10f19146101d457806342842e0e146101e757806342966c68146101fa5780634f558e791461020d57600080fd5b806301ffc9a71461013c57806306fdde0314610164578063081812fc14610179578063095ea7b3146101a457806323b872dd146101b9575b600080fd5b61014f61014a366004611499565b61030a565b60405190151581526020015b60405180910390f35b61016c61035c565b60405161015b9190611584565b61018c6101873660046114d3565b6103ee565b6040516001600160a01b03909116815260200161015b565b6101b76101b2366004611418565b610488565b005b6101b76101c7366004611338565b61059e565b6101b76105cf565b6101b76101e2366004611418565b6105d9565b6101b76101f5366004611338565b6105e7565b6101b76102083660046114d3565b610602565b61014f61021b3660046114d3565b61060e565b60065460ff1661014f565b61018c6102393660046114d3565b61062d565b61025161024c3660046112ea565b6106a4565b60405190815260200161015b565b6101b761072b565b6101b7610275366004611442565b610733565b61016c61073e565b6101b7610290366004611418565b61074d565b6101b76102a33660046113dc565b610757565b6101b76102b6366004611374565b61081c565b61016c6102c93660046114d3565b610854565b61014f6102dc366004611305565b6001600160a01b03918216600090815260056020908152604080832093909416825291909152205460ff1690565b60006001600160e01b031982166380ac58cd60e01b148061033b57506001600160e01b03198216635b5e139f60e01b145b8061035657506301ffc9a760e01b6001600160e01b03198316145b92915050565b60606000805461036b906116a9565b80601f0160208091040260200160405190810160405280929190818152602001828054610397906116a9565b80156103e45780601f106103b9576101008083540402835291602001916103e4565b820191906000526020600020905b8154815290600101906020018083116103c757829003601f168201915b5050505050905090565b6000818152600260205260408120546001600160a01b031661046c5760405162461bcd60e51b815260206004820152602c60248201527f4552433732313a20617070726f76656420717565727920666f72206e6f6e657860448201526b34b9ba32b73a103a37b5b2b760a11b60648201526084015b60405180910390fd5b506000908152600460205260409020546001600160a01b031690565b60006104938261062d565b9050806001600160a01b0316836001600160a01b031614156105015760405162461bcd60e51b815260206004820152602160248201527f4552433732313a20617070726f76616c20746f2063757272656e74206f776e656044820152603960f91b6064820152608401610463565b336001600160a01b038216148061051d575061051d81336102dc565b61058f5760405162461bcd60e51b815260206004820152603860248201527f4552433732313a20617070726f76652063616c6c6572206973206e6f74206f7760448201527f6e6572206e6f7220617070726f76656420666f7220616c6c00000000000000006064820152608401610463565b610599838361093c565b505050565b6105a833826109aa565b6105c45760405162461bcd60e51b8152600401610463906115e9565b610599838383610aa1565b6105d7610c4c565b565b6105e38282610cdf565b5050565b6105998383836040518060200160405280600081525061081c565b61060b81610e2d565b50565b6000818152600260205260408120546001600160a01b03161515610356565b6000818152600260205260408120546001600160a01b0316806103565760405162461bcd60e51b815260206004820152602960248201527f4552433732313a206f776e657220717565727920666f72206e6f6e657869737460448201526832b73a103a37b5b2b760b91b6064820152608401610463565b60006001600160a01b03821661070f5760405162461bcd60e51b815260206004820152602a60248201527f4552433732313a2062616c616e636520717565727920666f7220746865207a65604482015269726f206164647265737360b01b6064820152608401610463565b506001600160a01b031660009081526003602052604090205490565b6105d7610ed4565b610599838383610f4f565b60606001805461036b906116a9565b6105e38282610f82565b6001600160a01b0382163314156107b05760405162461bcd60e51b815260206004820152601960248201527f4552433732313a20617070726f766520746f2063616c6c6572000000000000006044820152606401610463565b3360008181526005602090815260408083206001600160a01b03871680855290835292819020805460ff191686151590811790915590519081529192917f17307eab39ab6107e8899845ad3d59bd9653f200f220920489ca2b5937696c31910160405180910390a35050565b61082633836109aa565b6108425760405162461bcd60e51b8152600401610463906115e9565b61084e84848484610f9c565b50505050565b6000818152600260205260409020546060906001600160a01b03166108d35760405162461bcd60e51b815260206004820152602f60248201527f4552433732314d657461646174613a2055524920717565727920666f72206e6f60448201526e3732bc34b9ba32b73a103a37b5b2b760891b6064820152608401610463565b60006108ea60408051602081019091526000815290565b9050600081511161090a5760405180602001604052806000815250610935565b8061091484610fcf565b604051602001610925929190611518565b6040516020818303038152906040525b9392505050565b600081815260046020526040902080546001600160a01b0319166001600160a01b03841690811790915581906109718261062d565b6001600160a01b03167f8c5be1e5ebec7d5bd14f71427d1e84f3dd0314c0f7b2291e5b200ac8c7c3b92560405160405180910390a45050565b6000818152600260205260408120546001600160a01b0316610a235760405162461bcd60e51b815260206004820152602c60248201527f4552433732313a206f70657261746f7220717565727920666f72206e6f6e657860448201526b34b9ba32b73a103a37b5b2b760a11b6064820152608401610463565b6000610a2e8361062d565b9050806001600160a01b0316846001600160a01b03161480610a695750836001600160a01b0316610a5e846103ee565b6001600160a01b0316145b80610a9957506001600160a01b0380821660009081526005602090815260408083209388168352929052205460ff165b949350505050565b826001600160a01b0316610ab48261062d565b6001600160a01b031614610b1c5760405162461bcd60e51b815260206004820152602960248201527f4552433732313a207472616e73666572206f6620746f6b656e2074686174206960448201526839903737ba1037bbb760b91b6064820152608401610463565b6001600160a01b038216610b7e5760405162461bcd60e51b8152602060048201526024808201527f4552433732313a207472616e7366657220746f20746865207a65726f206164646044820152637265737360e01b6064820152608401610463565b610b898383836110cd565b610b9460008261093c565b6001600160a01b0383166000908152600360205260408120805460019290610bbd908490611666565b90915550506001600160a01b0382166000908152600360205260408120805460019290610beb90849061163a565b909155505060008181526002602052604080822080546001600160a01b0319166001600160a01b0386811691821790925591518493918716917fddf252ad1be2c89b69c2b068fc378daa952ba7f163c4a11628f55a4df523b3ef91a4505050565b60065460ff16610c955760405162461bcd60e51b815260206004820152601460248201527314185d5cd8589b194e881b9bdd081c185d5cd95960621b6044820152606401610463565b6006805460ff191690557f5db9ee0a495bf2e6ff9c91a7834c1ba4fdd244a5e8aa4e537bd38aeae4b073aa335b6040516001600160a01b03909116815260200160405180910390a1565b6001600160a01b038216610d355760405162461bcd60e51b815260206004820181905260248201527f4552433732313a206d696e7420746f20746865207a65726f20616464726573736044820152606401610463565b6000818152600260205260409020546001600160a01b031615610d9a5760405162461bcd60e51b815260206004820152601c60248201527f4552433732313a20746f6b656e20616c7265616479206d696e746564000000006044820152606401610463565b610da6600083836110cd565b6001600160a01b0382166000908152600360205260408120805460019290610dcf90849061163a565b909155505060008181526002602052604080822080546001600160a01b0319166001600160a01b03861690811790915590518392907fddf252ad1be2c89b69c2b068fc378daa952ba7f163c4a11628f55a4df523b3ef908290a45050565b6000610e388261062d565b9050610e46816000846110cd565b610e5160008361093c565b6001600160a01b0381166000908152600360205260408120805460019290610e7a908490611666565b909155505060008281526002602052604080822080546001600160a01b0319169055518391906001600160a01b038416907fddf252ad1be2c89b69c2b068fc378daa952ba7f163c4a11628f55a4df523b3ef908390a45050565b60065460ff1615610f1a5760405162461bcd60e51b815260206004820152601060248201526f14185d5cd8589b194e881c185d5cd95960821b6044820152606401610463565b6006805460ff191660011790557f62e78cea01bee320cd4e420270b5ea74000d11b0c9f74754ebdbfc544b05a258610cc23390565b610f598383610cdf565b610f666000848484611134565b6105995760405162461bcd60e51b815260040161046390611597565b6105e3828260405180602001604052806000815250610f4f565b610fa7848484610aa1565b610fb384848484611134565b61084e5760405162461bcd60e51b815260040161046390611597565b606081610ff35750506040805180820190915260018152600360fc1b602082015290565b8160005b811561101d5780611007816116e4565b91506110169050600a83611652565b9150610ff7565b60008167ffffffffffffffff81111561103857611038611755565b6040519080825280601f01601f191660200182016040528015611062576020820181803683370190505b5090505b8415610a9957611077600183611666565b9150611084600a866116ff565b61108f90603061163a565b60f81b8183815181106110a4576110a461173f565b60200101906001600160f81b031916908160001a9053506110c6600a86611652565b9450611066565b60065460ff16156105995760405162461bcd60e51b815260206004820152602b60248201527f4552433732315061757361626c653a20746f6b656e207472616e73666572207760448201526a1a1a5b19481c185d5cd95960aa1b6064820152608401610463565b60006001600160a01b0384163b1561123657604051630a85bd0160e11b81526001600160a01b0385169063150b7a0290611178903390899088908890600401611547565b602060405180830381600087803b15801561119257600080fd5b505af19250505080156111c2575060408051601f3d908101601f191682019092526111bf918101906114b6565b60015b61121c573d8080156111f0576040519150601f19603f3d011682016040523d82523d6000602084013e6111f5565b606091505b5080516112145760405162461bcd60e51b815260040161046390611597565b805181602001fd5b6001600160e01b031916630a85bd0160e11b149050610a99565b506001949350505050565b80356001600160a01b038116811461125857600080fd5b919050565b600082601f83011261126e57600080fd5b813567ffffffffffffffff8082111561128957611289611755565b604051601f8301601f19908116603f011681019082821181831017156112b1576112b1611755565b816040528381528660208588010111156112ca57600080fd5b836020870160208301376000602085830101528094505050505092915050565b6000602082840312156112fc57600080fd5b61093582611241565b6000806040838503121561131857600080fd5b61132183611241565b915061132f60208401611241565b90509250929050565b60008060006060848603121561134d57600080fd5b61135684611241565b925061136460208501611241565b9150604084013590509250925092565b6000806000806080858703121561138a57600080fd5b61139385611241565b93506113a160208601611241565b925060408501359150606085013567ffffffffffffffff8111156113c457600080fd5b6113d08782880161125d565b91505092959194509250565b600080604083850312156113ef57600080fd5b6113f883611241565b91506020830135801515811461140d57600080fd5b809150509250929050565b6000806040838503121561142b57600080fd5b61143483611241565b946020939093013593505050565b60008060006060848603121561145757600080fd5b61146084611241565b925060208401359150604084013567ffffffffffffffff81111561148357600080fd5b61148f8682870161125d565b9150509250925092565b6000602082840312156114ab57600080fd5b81356109358161176b565b6000602082840312156114c857600080fd5b81516109358161176b565b6000602082840312156114e557600080fd5b5035919050565b6000815180845261150481602086016020860161167d565b601f01601f19169290920160200192915050565b6000835161152a81846020880161167d565b83519083019061153e81836020880161167d565b01949350505050565b6001600160a01b038581168252841660208201526040810183905260806060820181905260009061157a908301846114ec565b9695505050505050565b60208152600061093560208301846114ec565b60208082526032908201527f4552433732313a207472616e7366657220746f206e6f6e20455243373231526560408201527131b2b4bb32b91034b6b83632b6b2b73a32b960711b606082015260800190565b60208082526031908201527f4552433732313a207472616e736665722063616c6c6572206973206e6f74206f6040820152701ddb995c881b9bdc88185c1c1c9bdd9959607a1b606082015260800190565b6000821982111561164d5761164d611713565b500190565b60008261166157611661611729565b500490565b60008282101561167857611678611713565b500390565b60005b83811015611698578181015183820152602001611680565b8381111561084e5750506000910152565b600181811c908216806116bd57607f821691505b602082108114156116de57634e487b7160e01b600052602260045260246000fd5b50919050565b60006000198214156116f8576116f8611713565b5060010190565b60008261170e5761170e611729565b500690565b634e487b7160e01b600052601160045260246000fd5b634e487b7160e01b600052601260045260246000fd5b634e487b7160e01b600052603260045260246000fd5b634e487b7160e01b600052604160045260246000fd5b6001600160e01b03198116811461060b57600080fdfea26469706673582212205e3bc58fe9b15c6ba53b90efa940c67a315912140ff691c60a77ee0d5de29d5c64736f6c63430008060033",
    "sourcePath": "/Users/Shared/crypto/nextart/contracts/mocks/ERC721PausableMock.sol",
    "compiler": {
        "name": "solc",
        "version": "0.8.6+commit.11564f7e"
    },
    "functionHashes": {
        "approve(address,uint256)": "095ea7b3",
        "balanceOf(address)": "70a08231",
        "burn(uint256)": "42966c68",
        "exists(uint256)": "4f558e79",
        "getApproved(uint256)": "081812fc",
        "isApprovedForAll(address,address)": "e985e9c5",
        "mint(address,uint256)": "40c10f19",
        "name()": "06fdde03",
        "ownerOf(uint256)": "6352211e",
        "pause()": "8456cb59",
        "paused()": "5c975abb",
        "safeMint(address,uint256)": "a1448194",
        "safeMint(address,uint256,bytes)": "8832e6e3",
        "safeTransferFrom(address,address,uint256)": "42842e0e",
        "safeTransferFrom(address,address,uint256,bytes)": "b88d4fde",
        "setApprovalForAll(address,bool)": "a22cb465",
        "supportsInterface(bytes4)": "01ffc9a7",
        "symbol()": "95d89b41",
        "tokenURI(uint256)": "c87b56dd",
        "transferFrom(address,address,uint256)": "23b872dd",
        "unpause()": "3f4ba83a"
    },
    "gasEstimates": {
        "creation": {
            "codeDepositCost": "1214200",
            "executionCost": "infinite",
            "totalCost": "infinite"
        },
        "external": {
            "approve(address,uint256)": "infinite",
            "balanceOf(address)": "2656",
            "burn(uint256)": "infinite",
            "exists(uint256)": "2599",
            "getApproved(uint256)": "4760",
            "isApprovedForAll(address,address)": "infinite",
            "mint(address,uint256)": "55429",
            "name()": "infinite",
            "ownerOf(uint256)": "2601",
            "pause()": "27699",
            "paused()": "2316",
            "safeMint(address,uint256)": "infinite",
            "safeMint(address,uint256,bytes)": "infinite",
            "safeTransferFrom(address,address,uint256)": "infinite",
            "safeTransferFrom(address,address,uint256,bytes)": "infinite",
            "setApprovalForAll(address,bool)": "26694",
            "supportsInterface(bytes4)": "534",
            "symbol()": "infinite",
            "tokenURI(uint256)": "infinite",
            "transferFrom(address,address,uint256)": "infinite",
            "unpause()": "27610"
        }
    }
}