{
    "contractName": "ERC721URIStorageMock",
    "abi": [
        {
            "inputs": [
                {
                    "internalType": "string",
                    "name": "name",
                    "type": "string"
                },
                {
                    "internalType": "string",
                    "name": "symbol",
                    "type": "string"
                }
            ],
            "stateMutability": "nonpayable",
            "type": "constructor"
        },
        {
            "anonymous": false,
            "inputs": [
                {
                    "indexed": true,
                    "internalType": "address",
                    "name": "owner",
                    "type": "address"
                },
                {
                    "indexed": true,
                    "internalType": "address",
                    "name": "approved",
                    "type": "address"
                },
                {
                    "indexed": true,
                    "internalType": "uint256",
                    "name": "tokenId",
                    "type": "uint256"
                }
            ],
            "name": "Approval",
            "type": "event"
        },
        {
            "anonymous": false,
            "inputs": [
                {
                    "indexed": true,
                    "internalType": "address",
                    "name": "owner",
                    "type": "address"
                },
                {
                    "indexed": true,
                    "internalType": "address",
                    "name": "operator",
                    "type": "address"
                },
                {
                    "indexed": false,
                    "internalType": "bool",
                    "name": "approved",
                    "type": "bool"
                }
            ],
            "name": "ApprovalForAll",
            "type": "event"
        },
        {
            "anonymous": false,
            "inputs": [
                {
                    "indexed": true,
                    "internalType": "address",
                    "name": "from",
                    "type": "address"
                },
                {
                    "indexed": true,
                    "internalType": "address",
                    "name": "to",
                    "type": "address"
                },
                {
                    "indexed": true,
                    "internalType": "uint256",
                    "name": "tokenId",
                    "type": "uint256"
                }
            ],
            "name": "Transfer",
            "type": "event"
        },
        {
            "inputs": [
                {
                    "internalType": "address",
                    "name": "to",
                    "type": "address"
                },
                {
                    "internalType": "uint256",
                    "name": "tokenId",
                    "type": "uint256"
                }
            ],
            "name": "approve",
            "outputs": [],
            "stateMutability": "nonpayable",
            "type": "function"
        },
        {
            "inputs": [
                {
                    "internalType": "address",
                    "name": "owner",
                    "type": "address"
                }
            ],
            "name": "balanceOf",
            "outputs": [
                {
                    "internalType": "uint256",
                    "name": "",
                    "type": "uint256"
                }
            ],
            "stateMutability": "view",
            "type": "function"
        },
        {
            "inputs": [],
            "name": "baseURI",
            "outputs": [
                {
                    "internalType": "string",
                    "name": "",
                    "type": "string"
                }
            ],
            "stateMutability": "view",
            "type": "function"
        },
        {
            "inputs": [
                {
                    "internalType": "uint256",
                    "name": "tokenId",
                    "type": "uint256"
                }
            ],
            "name": "burn",
            "outputs": [],
            "stateMutability": "nonpayable",
            "type": "function"
        },
        {
            "inputs": [
                {
                    "internalType": "uint256",
                    "name": "tokenId",
                    "type": "uint256"
                }
            ],
            "name": "exists",
            "outputs": [
                {
                    "internalType": "bool",
                    "name": "",
                    "type": "bool"
                }
            ],
            "stateMutability": "view",
            "type": "function"
        },
        {
            "inputs": [
                {
                    "internalType": "uint256",
                    "name": "tokenId",
                    "type": "uint256"
                }
            ],
            "name": "getApproved",
            "outputs": [
                {
                    "internalType": "address",
                    "name": "",
                    "type": "address"
                }
            ],
            "stateMutability": "view",
            "type": "function"
        },
        {
            "inputs": [
                {
                    "internalType": "address",
                    "name": "owner",
                    "type": "address"
                },
                {
                    "internalType": "address",
                    "name": "operator",
                    "type": "address"
                }
            ],
            "name": "isApprovedForAll",
            "outputs": [
                {
                    "internalType": "bool",
                    "name": "",
                    "type": "bool"
                }
            ],
            "stateMutability": "view",
            "type": "function"
        },
        {
            "inputs": [
                {
                    "internalType": "address",
                    "name": "to",
                    "type": "address"
                },
                {
                    "internalType": "uint256",
                    "name": "tokenId",
                    "type": "uint256"
                }
            ],
            "name": "mint",
            "outputs": [],
            "stateMutability": "nonpayable",
            "type": "function"
        },
        {
            "inputs": [],
            "name": "name",
            "outputs": [
                {
                    "internalType": "string",
                    "name": "",
                    "type": "string"
                }
            ],
            "stateMutability": "view",
            "type": "function"
        },
        {
            "inputs": [
                {
                    "internalType": "uint256",
                    "name": "tokenId",
                    "type": "uint256"
                }
            ],
            "name": "ownerOf",
            "outputs": [
                {
                    "internalType": "address",
                    "name": "",
                    "type": "address"
                }
            ],
            "stateMutability": "view",
            "type": "function"
        },
        {
            "inputs": [
                {
                    "internalType": "address",
                    "name": "to",
                    "type": "address"
                },
                {
                    "internalType": "uint256",
                    "name": "tokenId",
                    "type": "uint256"
                },
                {
                    "internalType": "bytes",
                    "name": "_data",
                    "type": "bytes"
                }
            ],
            "name": "safeMint",
            "outputs": [],
            "stateMutability": "nonpayable",
            "type": "function"
        },
        {
            "inputs": [
                {
                    "internalType": "address",
                    "name": "to",
                    "type": "address"
                },
                {
                    "internalType": "uint256",
                    "name": "tokenId",
                    "type": "uint256"
                }
            ],
            "name": "safeMint",
            "outputs": [],
            "stateMutability": "nonpayable",
            "type": "function"
        },
        {
            "inputs": [
                {
                    "internalType": "address",
                    "name": "from",
                    "type": "address"
                },
                {
                    "internalType": "address",
                    "name": "to",
                    "type": "address"
                },
                {
                    "internalType": "uint256",
                    "name": "tokenId",
                    "type": "uint256"
                }
            ],
            "name": "safeTransferFrom",
            "outputs": [],
            "stateMutability": "nonpayable",
            "type": "function"
        },
        {
            "inputs": [
                {
                    "internalType": "address",
                    "name": "from",
                    "type": "address"
                },
                {
                    "internalType": "address",
                    "name": "to",
                    "type": "address"
                },
                {
                    "internalType": "uint256",
                    "name": "tokenId",
                    "type": "uint256"
                },
                {
                    "internalType": "bytes",
                    "name": "_data",
                    "type": "bytes"
                }
            ],
            "name": "safeTransferFrom",
            "outputs": [],
            "stateMutability": "nonpayable",
            "type": "function"
        },
        {
            "inputs": [
                {
                    "internalType": "address",
                    "name": "operator",
                    "type": "address"
                },
                {
                    "internalType": "bool",
                    "name": "approved",
                    "type": "bool"
                }
            ],
            "name": "setApprovalForAll",
            "outputs": [],
            "stateMutability": "nonpayable",
            "type": "function"
        },
        {
            "inputs": [
                {
                    "internalType": "string",
                    "name": "newBaseTokenURI",
                    "type": "string"
                }
            ],
            "name": "setBaseURI",
            "outputs": [],
            "stateMutability": "nonpayable",
            "type": "function"
        },
        {
            "inputs": [
                {
                    "internalType": "uint256",
                    "name": "tokenId",
                    "type": "uint256"
                },
                {
                    "internalType": "string",
                    "name": "_tokenURI",
                    "type": "string"
                }
            ],
            "name": "setTokenURI",
            "outputs": [],
            "stateMutability": "nonpayable",
            "type": "function"
        },
        {
            "inputs": [
                {
                    "internalType": "bytes4",
                    "name": "interfaceId",
                    "type": "bytes4"
                }
            ],
            "name": "supportsInterface",
            "outputs": [
                {
                    "internalType": "bool",
                    "name": "",
                    "type": "bool"
                }
            ],
            "stateMutability": "view",
            "type": "function"
        },
        {
            "inputs": [],
            "name": "symbol",
            "outputs": [
                {
                    "internalType": "string",
                    "name": "",
                    "type": "string"
                }
            ],
            "stateMutability": "view",
            "type": "function"
        },
        {
            "inputs": [
                {
                    "internalType": "uint256",
                    "name": "tokenId",
                    "type": "uint256"
                }
            ],
            "name": "tokenURI",
            "outputs": [
                {
                    "internalType": "string",
                    "name": "",
                    "type": "string"
                }
            ],
            "stateMutability": "view",
            "type": "function"
        },
        {
            "inputs": [
                {
                    "internalType": "address",
                    "name": "from",
                    "type": "address"
                },
                {
                    "internalType": "address",
                    "name": "to",
                    "type": "address"
                },
                {
                    "internalType": "uint256",
                    "name": "tokenId",
                    "type": "uint256"
                }
            ],
            "name": "transferFrom",
            "outputs": [],
            "stateMutability": "nonpayable",
            "type": "function"
        }
    ],
    "bytecode": "60806040523480156200001157600080fd5b5060405162001cf938038062001cf98339810160408190526200003491620001cb565b8151829082906200004d9060009060208501906200006e565b508051620000639060019060208401906200006e565b505050505062000288565b8280546200007c9062000235565b90600052602060002090601f016020900481019282620000a05760008555620000eb565b82601f10620000bb57805160ff1916838001178555620000eb565b82800160010185558215620000eb579182015b82811115620000eb578251825591602001919060010190620000ce565b50620000f9929150620000fd565b5090565b5b80821115620000f95760008155600101620000fe565b600082601f8301126200012657600080fd5b81516001600160401b038082111562000143576200014362000272565b604051601f8301601f19908116603f011681019082821181831017156200016e576200016e62000272565b816040528381526020925086838588010111156200018b57600080fd5b600091505b83821015620001af578582018301518183018401529082019062000190565b83821115620001c15760008385830101525b9695505050505050565b60008060408385031215620001df57600080fd5b82516001600160401b0380821115620001f757600080fd5b620002058683870162000114565b935060208501519150808211156200021c57600080fd5b506200022b8582860162000114565b9150509250929050565b600181811c908216806200024a57607f821691505b602082108114156200026c57634e487b7160e01b600052602260045260246000fd5b50919050565b634e487b7160e01b600052604160045260246000fd5b611a6180620002986000396000f3fe608060405234801561001057600080fd5b50600436106101375760003560e01c806355f804b3116100b857806395d89b411161007c57806395d89b411461028d578063a144819414610295578063a22cb465146102a8578063b88d4fde146102bb578063c87b56dd146102ce578063e985e9c5146102e157600080fd5b806355f804b31461022b5780636352211e1461023e5780636c0360eb1461025157806370a08231146102595780638832e6e31461027a57600080fd5b806323b872dd116100ff57806323b872dd146101cc57806340c10f19146101df57806342842e0e146101f257806342966c68146102055780634f558e791461021857600080fd5b806301ffc9a71461013c57806306fdde0314610164578063081812fc14610179578063095ea7b3146101a4578063162094c4146101b9575b600080fd5b61014f61014a366004611676565b61031d565b60405190151581526020015b60405180910390f35b61016c61036f565b60405161015b919061182e565b61018c610187366004611722565b610401565b6040516001600160a01b03909116815260200161015b565b6101b76101b23660046115f5565b61048e565b005b6101b76101c736600461173b565b6105a4565b6101b76101da366004611515565b6105b2565b6101b76101ed3660046115f5565b6105e3565b6101b7610200366004611515565b6105ed565b6101b7610213366004611722565b610608565b61014f610226366004611722565b610614565b6101b76102393660046116b0565b61061f565b61018c61024c366004611722565b61062b565b61016c6106a2565b61026c6102673660046114c7565b6106b1565b60405190815260200161015b565b6101b761028836600461161f565b610738565b61016c610743565b6101b76102a33660046115f5565b610752565b6101b76102b63660046115b9565b61075c565b6101b76102c9366004611551565b610821565b61016c6102dc366004611722565b610859565b61014f6102ef3660046114e2565b6001600160a01b03918216600090815260056020908152604080832093909416825291909152205460ff1690565b60006001600160e01b031982166380ac58cd60e01b148061034e57506001600160e01b03198216635b5e139f60e01b145b8061036957506301ffc9a760e01b6001600160e01b03198316145b92915050565b60606000805461037e90611953565b80601f01602080910402602001604051908101604052809291908181526020018280546103aa90611953565b80156103f75780601f106103cc576101008083540402835291602001916103f7565b820191906000526020600020905b8154815290600101906020018083116103da57829003601f168201915b5050505050905090565b600061040c826109c3565b6104725760405162461bcd60e51b815260206004820152602c60248201527f4552433732313a20617070726f76656420717565727920666f72206e6f6e657860448201526b34b9ba32b73a103a37b5b2b760a11b60648201526084015b60405180910390fd5b506000908152600460205260409020546001600160a01b031690565b60006104998261062b565b9050806001600160a01b0316836001600160a01b031614156105075760405162461bcd60e51b815260206004820152602160248201527f4552433732313a20617070726f76616c20746f2063757272656e74206f776e656044820152603960f91b6064820152608401610469565b336001600160a01b0382161480610523575061052381336102ef565b6105955760405162461bcd60e51b815260206004820152603860248201527f4552433732313a20617070726f76652063616c6c6572206973206e6f74206f7760448201527f6e6572206e6f7220617070726f76656420666f7220616c6c00000000000000006064820152608401610469565b61059f83836109e0565b505050565b6105ae8282610a4e565b5050565b6105bc3382610ad9565b6105d85760405162461bcd60e51b815260040161046990611893565b61059f838383610bbf565b6105ae8282610d5f565b61059f83838360405180602001604052806000815250610821565b61061181610e92565b50565b6000610369826109c3565b61059f600783836112d2565b6000818152600260205260408120546001600160a01b0316806103695760405162461bcd60e51b815260206004820152602960248201527f4552433732313a206f776e657220717565727920666f72206e6f6e657869737460448201526832b73a103a37b5b2b760b91b6064820152608401610469565b60606106ac610ed2565b905090565b60006001600160a01b03821661071c5760405162461bcd60e51b815260206004820152602a60248201527f4552433732313a2062616c616e636520717565727920666f7220746865207a65604482015269726f206164647265737360b01b6064820152608401610469565b506001600160a01b031660009081526003602052604090205490565b61059f838383610ee1565b60606001805461037e90611953565b6105ae8282610f14565b6001600160a01b0382163314156107b55760405162461bcd60e51b815260206004820152601960248201527f4552433732313a20617070726f766520746f2063616c6c6572000000000000006044820152606401610469565b3360008181526005602090815260408083206001600160a01b03871680855290835292819020805460ff191686151590811790915590519081529192917f17307eab39ab6107e8899845ad3d59bd9653f200f220920489ca2b5937696c31910160405180910390a35050565b61082b3383610ad9565b6108475760405162461bcd60e51b815260040161046990611893565b61085384848484610f2e565b50505050565b6060610864826109c3565b6108ca5760405162461bcd60e51b815260206004820152603160248201527f45524337323155524953746f726167653a2055524920717565727920666f72206044820152703737b732bc34b9ba32b73a103a37b5b2b760791b6064820152608401610469565b600082815260066020526040812080546108e390611953565b80601f016020809104026020016040519081016040528092919081815260200182805461090f90611953565b801561095c5780601f106109315761010080835404028352916020019161095c565b820191906000526020600020905b81548152906001019060200180831161093f57829003601f168201915b50505050509050600061096d610ed2565b9050805160001415610980575092915050565b8151156109b257808260405160200161099a9291906117c2565b60405160208183030381529060405292505050919050565b6109bb84610f61565b949350505050565b6000908152600260205260409020546001600160a01b0316151590565b600081815260046020526040902080546001600160a01b0319166001600160a01b0384169081179091558190610a158261062b565b6001600160a01b03167f8c5be1e5ebec7d5bd14f71427d1e84f3dd0314c0f7b2291e5b200ac8c7c3b92560405160405180910390a45050565b610a57826109c3565b610aba5760405162461bcd60e51b815260206004820152602e60248201527f45524337323155524953746f726167653a2055524920736574206f66206e6f6e60448201526d32bc34b9ba32b73a103a37b5b2b760911b6064820152608401610469565b6000828152600660209081526040909120825161059f92840190611356565b6000610ae4826109c3565b610b455760405162461bcd60e51b815260206004820152602c60248201527f4552433732313a206f70657261746f7220717565727920666f72206e6f6e657860448201526b34b9ba32b73a103a37b5b2b760a11b6064820152608401610469565b6000610b508361062b565b9050806001600160a01b0316846001600160a01b03161480610b8b5750836001600160a01b0316610b8084610401565b6001600160a01b0316145b806109bb57506001600160a01b0380821660009081526005602090815260408083209388168352929052205460ff166109bb565b826001600160a01b0316610bd28261062b565b6001600160a01b031614610c3a5760405162461bcd60e51b815260206004820152602960248201527f4552433732313a207472616e73666572206f6620746f6b656e2074686174206960448201526839903737ba1037bbb760b91b6064820152608401610469565b6001600160a01b038216610c9c5760405162461bcd60e51b8152602060048201526024808201527f4552433732313a207472616e7366657220746f20746865207a65726f206164646044820152637265737360e01b6064820152608401610469565b610ca76000826109e0565b6001600160a01b0383166000908152600360205260408120805460019290610cd0908490611910565b90915550506001600160a01b0382166000908152600360205260408120805460019290610cfe9084906118e4565b909155505060008181526002602052604080822080546001600160a01b0319166001600160a01b0386811691821790925591518493918716917fddf252ad1be2c89b69c2b068fc378daa952ba7f163c4a11628f55a4df523b3ef91a4505050565b6001600160a01b038216610db55760405162461bcd60e51b815260206004820181905260248201527f4552433732313a206d696e7420746f20746865207a65726f20616464726573736044820152606401610469565b610dbe816109c3565b15610e0b5760405162461bcd60e51b815260206004820152601c60248201527f4552433732313a20746f6b656e20616c7265616479206d696e746564000000006044820152606401610469565b6001600160a01b0382166000908152600360205260408120805460019290610e349084906118e4565b909155505060008181526002602052604080822080546001600160a01b0319166001600160a01b03861690811790915590518392907fddf252ad1be2c89b69c2b068fc378daa952ba7f163c4a11628f55a4df523b3ef908290a45050565b610e9b8161102c565b60008181526006602052604090208054610eb490611953565b159050610611576000818152600660205260408120610611916113ca565b60606007805461037e90611953565b610eeb8383610d5f565b610ef860008484846110c7565b61059f5760405162461bcd60e51b815260040161046990611841565b6105ae828260405180602001604052806000815250610ee1565b610f39848484610bbf565b610f45848484846110c7565b6108535760405162461bcd60e51b815260040161046990611841565b6060610f6c826109c3565b610fd05760405162461bcd60e51b815260206004820152602f60248201527f4552433732314d657461646174613a2055524920717565727920666f72206e6f60448201526e3732bc34b9ba32b73a103a37b5b2b760891b6064820152608401610469565b6000610fda610ed2565b90506000815111610ffa5760405180602001604052806000815250611025565b80611004846111d4565b6040516020016110159291906117c2565b6040516020818303038152906040525b9392505050565b60006110378261062b565b90506110446000836109e0565b6001600160a01b038116600090815260036020526040812080546001929061106d908490611910565b909155505060008281526002602052604080822080546001600160a01b0319169055518391906001600160a01b038416907fddf252ad1be2c89b69c2b068fc378daa952ba7f163c4a11628f55a4df523b3ef908390a45050565b60006001600160a01b0384163b156111c957604051630a85bd0160e11b81526001600160a01b0385169063150b7a029061110b9033908990889088906004016117f1565b602060405180830381600087803b15801561112557600080fd5b505af1925050508015611155575060408051601f3d908101601f1916820190925261115291810190611693565b60015b6111af573d808015611183576040519150601f19603f3d011682016040523d82523d6000602084013e611188565b606091505b5080516111a75760405162461bcd60e51b815260040161046990611841565b805181602001fd5b6001600160e01b031916630a85bd0160e11b1490506109bb565b506001949350505050565b6060816111f85750506040805180820190915260018152600360fc1b602082015290565b8160005b8115611222578061120c8161198e565b915061121b9050600a836118fc565b91506111fc565b60008167ffffffffffffffff81111561123d5761123d6119ff565b6040519080825280601f01601f191660200182016040528015611267576020820181803683370190505b5090505b84156109bb5761127c600183611910565b9150611289600a866119a9565b6112949060306118e4565b60f81b8183815181106112a9576112a96119e9565b60200101906001600160f81b031916908160001a9053506112cb600a866118fc565b945061126b565b8280546112de90611953565b90600052602060002090601f0160209004810192826113005760008555611346565b82601f106113195782800160ff19823516178555611346565b82800160010185558215611346579182015b8281111561134657823582559160200191906001019061132b565b50611352929150611400565b5090565b82805461136290611953565b90600052602060002090601f0160209004810192826113845760008555611346565b82601f1061139d57805160ff1916838001178555611346565b82800160010185558215611346579182015b828111156113465782518255916020019190600101906113af565b5080546113d690611953565b6000825580601f106113e6575050565b601f01602090049060005260206000209081019061061191905b5b808211156113525760008155600101611401565b600067ffffffffffffffff80841115611430576114306119ff565b604051601f8501601f19908116603f01168101908282118183101715611458576114586119ff565b8160405280935085815286868601111561147157600080fd5b858560208301376000602087830101525050509392505050565b80356001600160a01b03811681146114a257600080fd5b919050565b600082601f8301126114b857600080fd5b61102583833560208501611415565b6000602082840312156114d957600080fd5b6110258261148b565b600080604083850312156114f557600080fd5b6114fe8361148b565b915061150c6020840161148b565b90509250929050565b60008060006060848603121561152a57600080fd5b6115338461148b565b92506115416020850161148b565b9150604084013590509250925092565b6000806000806080858703121561156757600080fd5b6115708561148b565b935061157e6020860161148b565b925060408501359150606085013567ffffffffffffffff8111156115a157600080fd5b6115ad878288016114a7565b91505092959194509250565b600080604083850312156115cc57600080fd5b6115d58361148b565b9150602083013580151581146115ea57600080fd5b809150509250929050565b6000806040838503121561160857600080fd5b6116118361148b565b946020939093013593505050565b60008060006060848603121561163457600080fd5b61163d8461148b565b925060208401359150604084013567ffffffffffffffff81111561166057600080fd5b61166c868287016114a7565b9150509250925092565b60006020828403121561168857600080fd5b813561102581611a15565b6000602082840312156116a557600080fd5b815161102581611a15565b600080602083850312156116c357600080fd5b823567ffffffffffffffff808211156116db57600080fd5b818501915085601f8301126116ef57600080fd5b8135818111156116fe57600080fd5b86602082850101111561171057600080fd5b60209290920196919550909350505050565b60006020828403121561173457600080fd5b5035919050565b6000806040838503121561174e57600080fd5b82359150602083013567ffffffffffffffff81111561176c57600080fd5b8301601f8101851361177d57600080fd5b61178c85823560208401611415565b9150509250929050565b600081518084526117ae816020860160208601611927565b601f01601f19169290920160200192915050565b600083516117d4818460208801611927565b8351908301906117e8818360208801611927565b01949350505050565b6001600160a01b038581168252841660208201526040810183905260806060820181905260009061182490830184611796565b9695505050505050565b6020815260006110256020830184611796565b60208082526032908201527f4552433732313a207472616e7366657220746f206e6f6e20455243373231526560408201527131b2b4bb32b91034b6b83632b6b2b73a32b960711b606082015260800190565b60208082526031908201527f4552433732313a207472616e736665722063616c6c6572206973206e6f74206f6040820152701ddb995c881b9bdc88185c1c1c9bdd9959607a1b606082015260800190565b600082198211156118f7576118f76119bd565b500190565b60008261190b5761190b6119d3565b500490565b600082821015611922576119226119bd565b500390565b60005b8381101561194257818101518382015260200161192a565b838111156108535750506000910152565b600181811c9082168061196757607f821691505b6020821081141561198857634e487b7160e01b600052602260045260246000fd5b50919050565b60006000198214156119a2576119a26119bd565b5060010190565b6000826119b8576119b86119d3565b500690565b634e487b7160e01b600052601160045260246000fd5b634e487b7160e01b600052601260045260246000fd5b634e487b7160e01b600052603260045260246000fd5b634e487b7160e01b600052604160045260246000fd5b6001600160e01b03198116811461061157600080fdfea2646970667358221220fe698ddf2f66518aa335dc75e034db3439efd93a0f90254ec17a69c26c135ac164736f6c63430008060033",
    "sourcePath": "/Users/Shared/crypto/nextart/contracts/mocks/ERC721URIStorageMock.sol",
    "compiler": {
        "name": "solc",
        "version": "0.8.6+commit.11564f7e"
    },
    "functionHashes": {
        "approve(address,uint256)": "095ea7b3",
        "balanceOf(address)": "70a08231",
        "baseURI()": "6c0360eb",
        "burn(uint256)": "42966c68",
        "exists(uint256)": "4f558e79",
        "getApproved(uint256)": "081812fc",
        "isApprovedForAll(address,address)": "e985e9c5",
        "mint(address,uint256)": "40c10f19",
        "name()": "06fdde03",
        "ownerOf(uint256)": "6352211e",
        "safeMint(address,uint256)": "a1448194",
        "safeMint(address,uint256,bytes)": "8832e6e3",
        "safeTransferFrom(address,address,uint256)": "42842e0e",
        "safeTransferFrom(address,address,uint256,bytes)": "b88d4fde",
        "setApprovalForAll(address,bool)": "a22cb465",
        "setBaseURI(string)": "55f804b3",
        "setTokenURI(uint256,string)": "162094c4",
        "supportsInterface(bytes4)": "01ffc9a7",
        "symbol()": "95d89b41",
        "tokenURI(uint256)": "c87b56dd",
        "transferFrom(address,address,uint256)": "23b872dd"
    },
    "gasEstimates": {
        "creation": {
            "codeDepositCost": "1350600",
            "executionCost": "infinite",
            "totalCost": "infinite"
        },
        "external": {
            "approve(address,uint256)": "infinite",
            "balanceOf(address)": "2678",
            "baseURI()": "infinite",
            "burn(uint256)": "infinite",
            "exists(uint256)": "2620",
            "getApproved(uint256)": "4799",
            "isApprovedForAll(address,address)": "infinite",
            "mint(address,uint256)": "53300",
            "name()": "infinite",
            "ownerOf(uint256)": "2601",
            "safeMint(address,uint256)": "infinite",
            "safeMint(address,uint256,bytes)": "infinite",
            "safeTransferFrom(address,address,uint256)": "infinite",
            "safeTransferFrom(address,address,uint256,bytes)": "infinite",
            "setApprovalForAll(address,bool)": "26694",
            "setBaseURI(string)": "infinite",
            "setTokenURI(uint256,string)": "infinite",
            "supportsInterface(bytes4)": "534",
            "symbol()": "infinite",
            "tokenURI(uint256)": "infinite",
            "transferFrom(address,address,uint256)": "infinite"
        },
        "internal": {
            "_baseURI()": "infinite"
        }
    }
}