{
    "contractName": "ERC721EnumerableMock",
    "abi": [
        {
            "inputs": [
                {
                    "internalType": "string",
                    "name": "name",
                    "type": "string"
                },
                {
                    "internalType": "string",
                    "name": "symbol",
                    "type": "string"
                }
            ],
            "stateMutability": "nonpayable",
            "type": "constructor"
        },
        {
            "anonymous": false,
            "inputs": [
                {
                    "indexed": true,
                    "internalType": "address",
                    "name": "owner",
                    "type": "address"
                },
                {
                    "indexed": true,
                    "internalType": "address",
                    "name": "approved",
                    "type": "address"
                },
                {
                    "indexed": true,
                    "internalType": "uint256",
                    "name": "tokenId",
                    "type": "uint256"
                }
            ],
            "name": "Approval",
            "type": "event"
        },
        {
            "anonymous": false,
            "inputs": [
                {
                    "indexed": true,
                    "internalType": "address",
                    "name": "owner",
                    "type": "address"
                },
                {
                    "indexed": true,
                    "internalType": "address",
                    "name": "operator",
                    "type": "address"
                },
                {
                    "indexed": false,
                    "internalType": "bool",
                    "name": "approved",
                    "type": "bool"
                }
            ],
            "name": "ApprovalForAll",
            "type": "event"
        },
        {
            "anonymous": false,
            "inputs": [
                {
                    "indexed": true,
                    "internalType": "address",
                    "name": "from",
                    "type": "address"
                },
                {
                    "indexed": true,
                    "internalType": "address",
                    "name": "to",
                    "type": "address"
                },
                {
                    "indexed": true,
                    "internalType": "uint256",
                    "name": "tokenId",
                    "type": "uint256"
                }
            ],
            "name": "Transfer",
            "type": "event"
        },
        {
            "inputs": [
                {
                    "internalType": "address",
                    "name": "to",
                    "type": "address"
                },
                {
                    "internalType": "uint256",
                    "name": "tokenId",
                    "type": "uint256"
                }
            ],
            "name": "approve",
            "outputs": [],
            "stateMutability": "nonpayable",
            "type": "function"
        },
        {
            "inputs": [
                {
                    "internalType": "address",
                    "name": "owner",
                    "type": "address"
                }
            ],
            "name": "balanceOf",
            "outputs": [
                {
                    "internalType": "uint256",
                    "name": "",
                    "type": "uint256"
                }
            ],
            "stateMutability": "view",
            "type": "function"
        },
        {
            "inputs": [],
            "name": "baseURI",
            "outputs": [
                {
                    "internalType": "string",
                    "name": "",
                    "type": "string"
                }
            ],
            "stateMutability": "view",
            "type": "function"
        },
        {
            "inputs": [
                {
                    "internalType": "uint256",
                    "name": "tokenId",
                    "type": "uint256"
                }
            ],
            "name": "burn",
            "outputs": [],
            "stateMutability": "nonpayable",
            "type": "function"
        },
        {
            "inputs": [
                {
                    "internalType": "uint256",
                    "name": "tokenId",
                    "type": "uint256"
                }
            ],
            "name": "exists",
            "outputs": [
                {
                    "internalType": "bool",
                    "name": "",
                    "type": "bool"
                }
            ],
            "stateMutability": "view",
            "type": "function"
        },
        {
            "inputs": [
                {
                    "internalType": "uint256",
                    "name": "tokenId",
                    "type": "uint256"
                }
            ],
            "name": "getApproved",
            "outputs": [
                {
                    "internalType": "address",
                    "name": "",
                    "type": "address"
                }
            ],
            "stateMutability": "view",
            "type": "function"
        },
        {
            "inputs": [
                {
                    "internalType": "address",
                    "name": "owner",
                    "type": "address"
                },
                {
                    "internalType": "address",
                    "name": "operator",
                    "type": "address"
                }
            ],
            "name": "isApprovedForAll",
            "outputs": [
                {
                    "internalType": "bool",
                    "name": "",
                    "type": "bool"
                }
            ],
            "stateMutability": "view",
            "type": "function"
        },
        {
            "inputs": [
                {
                    "internalType": "address",
                    "name": "to",
                    "type": "address"
                },
                {
                    "internalType": "uint256",
                    "name": "tokenId",
                    "type": "uint256"
                }
            ],
            "name": "mint",
            "outputs": [],
            "stateMutability": "nonpayable",
            "type": "function"
        },
        {
            "inputs": [],
            "name": "name",
            "outputs": [
                {
                    "internalType": "string",
                    "name": "",
                    "type": "string"
                }
            ],
            "stateMutability": "view",
            "type": "function"
        },
        {
            "inputs": [
                {
                    "internalType": "uint256",
                    "name": "tokenId",
                    "type": "uint256"
                }
            ],
            "name": "ownerOf",
            "outputs": [
                {
                    "internalType": "address",
                    "name": "",
                    "type": "address"
                }
            ],
            "stateMutability": "view",
            "type": "function"
        },
        {
            "inputs": [
                {
                    "internalType": "address",
                    "name": "to",
                    "type": "address"
                },
                {
                    "internalType": "uint256",
                    "name": "tokenId",
                    "type": "uint256"
                },
                {
                    "internalType": "bytes",
                    "name": "_data",
                    "type": "bytes"
                }
            ],
            "name": "safeMint",
            "outputs": [],
            "stateMutability": "nonpayable",
            "type": "function"
        },
        {
            "inputs": [
                {
                    "internalType": "address",
                    "name": "to",
                    "type": "address"
                },
                {
                    "internalType": "uint256",
                    "name": "tokenId",
                    "type": "uint256"
                }
            ],
            "name": "safeMint",
            "outputs": [],
            "stateMutability": "nonpayable",
            "type": "function"
        },
        {
            "inputs": [
                {
                    "internalType": "address",
                    "name": "from",
                    "type": "address"
                },
                {
                    "internalType": "address",
                    "name": "to",
                    "type": "address"
                },
                {
                    "internalType": "uint256",
                    "name": "tokenId",
                    "type": "uint256"
                }
            ],
            "name": "safeTransferFrom",
            "outputs": [],
            "stateMutability": "nonpayable",
            "type": "function"
        },
        {
            "inputs": [
                {
                    "internalType": "address",
                    "name": "from",
                    "type": "address"
                },
                {
                    "internalType": "address",
                    "name": "to",
                    "type": "address"
                },
                {
                    "internalType": "uint256",
                    "name": "tokenId",
                    "type": "uint256"
                },
                {
                    "internalType": "bytes",
                    "name": "_data",
                    "type": "bytes"
                }
            ],
            "name": "safeTransferFrom",
            "outputs": [],
            "stateMutability": "nonpayable",
            "type": "function"
        },
        {
            "inputs": [
                {
                    "internalType": "address",
                    "name": "operator",
                    "type": "address"
                },
                {
                    "internalType": "bool",
                    "name": "approved",
                    "type": "bool"
                }
            ],
            "name": "setApprovalForAll",
            "outputs": [],
            "stateMutability": "nonpayable",
            "type": "function"
        },
        {
            "inputs": [
                {
                    "internalType": "string",
                    "name": "newBaseTokenURI",
                    "type": "string"
                }
            ],
            "name": "setBaseURI",
            "outputs": [],
            "stateMutability": "nonpayable",
            "type": "function"
        },
        {
            "inputs": [
                {
                    "internalType": "bytes4",
                    "name": "interfaceId",
                    "type": "bytes4"
                }
            ],
            "name": "supportsInterface",
            "outputs": [
                {
                    "internalType": "bool",
                    "name": "",
                    "type": "bool"
                }
            ],
            "stateMutability": "view",
            "type": "function"
        },
        {
            "inputs": [],
            "name": "symbol",
            "outputs": [
                {
                    "internalType": "string",
                    "name": "",
                    "type": "string"
                }
            ],
            "stateMutability": "view",
            "type": "function"
        },
        {
            "inputs": [
                {
                    "internalType": "uint256",
                    "name": "index",
                    "type": "uint256"
                }
            ],
            "name": "tokenByIndex",
            "outputs": [
                {
                    "internalType": "uint256",
                    "name": "",
                    "type": "uint256"
                }
            ],
            "stateMutability": "view",
            "type": "function"
        },
        {
            "inputs": [
                {
                    "internalType": "address",
                    "name": "owner",
                    "type": "address"
                },
                {
                    "internalType": "uint256",
                    "name": "index",
                    "type": "uint256"
                }
            ],
            "name": "tokenOfOwnerByIndex",
            "outputs": [
                {
                    "internalType": "uint256",
                    "name": "",
                    "type": "uint256"
                }
            ],
            "stateMutability": "view",
            "type": "function"
        },
        {
            "inputs": [
                {
                    "internalType": "uint256",
                    "name": "tokenId",
                    "type": "uint256"
                }
            ],
            "name": "tokenURI",
            "outputs": [
                {
                    "internalType": "string",
                    "name": "",
                    "type": "string"
                }
            ],
            "stateMutability": "view",
            "type": "function"
        },
        {
            "inputs": [],
            "name": "totalSupply",
            "outputs": [
                {
                    "internalType": "uint256",
                    "name": "",
                    "type": "uint256"
                }
            ],
            "stateMutability": "view",
            "type": "function"
        },
        {
            "inputs": [
                {
                    "internalType": "address",
                    "name": "from",
                    "type": "address"
                },
                {
                    "internalType": "address",
                    "name": "to",
                    "type": "address"
                },
                {
                    "internalType": "uint256",
                    "name": "tokenId",
                    "type": "uint256"
                }
            ],
            "name": "transferFrom",
            "outputs": [],
            "stateMutability": "nonpayable",
            "type": "function"
        }
    ],
    "bytecode": "60806040523480156200001157600080fd5b5060405162001de038038062001de08339810160408190526200003491620001cb565b8151829082906200004d9060009060208501906200006e565b508051620000639060019060208401906200006e565b505050505062000288565b8280546200007c9062000235565b90600052602060002090601f016020900481019282620000a05760008555620000eb565b82601f10620000bb57805160ff1916838001178555620000eb565b82800160010185558215620000eb579182015b82811115620000eb578251825591602001919060010190620000ce565b50620000f9929150620000fd565b5090565b5b80821115620000f95760008155600101620000fe565b600082601f8301126200012657600080fd5b81516001600160401b038082111562000143576200014362000272565b604051601f8301601f19908116603f011681019082821181831017156200016e576200016e62000272565b816040528381526020925086838588010111156200018b57600080fd5b600091505b83821015620001af578582018301518183018401529082019062000190565b83821115620001c15760008385830101525b9695505050505050565b60008060408385031215620001df57600080fd5b82516001600160401b0380821115620001f757600080fd5b620002058683870162000114565b935060208501519150808211156200021c57600080fd5b506200022b8582860162000114565b9150509250929050565b600181811c908216806200024a57607f821691505b602082108114156200026c57634e487b7160e01b600052602260045260246000fd5b50919050565b634e487b7160e01b600052604160045260246000fd5b611b4880620002986000396000f3fe608060405234801561001057600080fd5b506004361061014d5760003560e01c80634f6ccce7116100c357806395d89b411161007c57806395d89b41146102ba578063a1448194146102c2578063a22cb465146102d5578063b88d4fde146102e8578063c87b56dd146102fb578063e985e9c51461030e57600080fd5b80634f6ccce71461025357806355f804b3146102665780636352211e146102795780636c0360eb1461028c57806370a08231146102945780638832e6e3146102a757600080fd5b806323b872dd1161011557806323b872dd146101e15780632f745c59146101f457806340c10f191461020757806342842e0e1461021a57806342966c681461022d5780634f558e791461024057600080fd5b806301ffc9a71461015257806306fdde031461017a578063081812fc1461018f578063095ea7b3146101ba57806318160ddd146101cf575b600080fd5b6101656101603660046117a2565b61034a565b60405190151581526020015b60405180910390f35b610182610375565b60405161017191906118ff565b6101a261019d36600461184e565b610407565b6040516001600160a01b039091168152602001610171565b6101cd6101c8366004611721565b6104a1565b005b6008545b604051908152602001610171565b6101cd6101ef366004611641565b6105b7565b6101d3610202366004611721565b6105e8565b6101cd610215366004611721565b61067e565b6101cd610228366004611641565b61068c565b6101cd61023b36600461184e565b6106a7565b61016561024e36600461184e565b6106b3565b6101d361026136600461184e565b6106d2565b6101cd6102743660046117dc565b610765565b6101a261028736600461184e565b610771565b6101826107e8565b6101d36102a23660046115f3565b6107f7565b6101cd6102b536600461174b565b61087e565b610182610889565b6101cd6102d0366004611721565b610898565b6101cd6102e33660046116e5565b6108a2565b6101cd6102f636600461167d565b610967565b61018261030936600461184e565b61099f565b61016561031c36600461160e565b6001600160a01b03918216600090815260056020908152604080832093909416825291909152205460ff1690565b60006001600160e01b0319821663780e9d6360e01b148061036f575061036f82610a7a565b92915050565b60606000805461038490611a24565b80601f01602080910402602001604051908101604052809291908181526020018280546103b090611a24565b80156103fd5780601f106103d2576101008083540402835291602001916103fd565b820191906000526020600020905b8154815290600101906020018083116103e057829003601f168201915b5050505050905090565b6000818152600260205260408120546001600160a01b03166104855760405162461bcd60e51b815260206004820152602c60248201527f4552433732313a20617070726f76656420717565727920666f72206e6f6e657860448201526b34b9ba32b73a103a37b5b2b760a11b60648201526084015b60405180910390fd5b506000908152600460205260409020546001600160a01b031690565b60006104ac82610771565b9050806001600160a01b0316836001600160a01b0316141561051a5760405162461bcd60e51b815260206004820152602160248201527f4552433732313a20617070726f76616c20746f2063757272656e74206f776e656044820152603960f91b606482015260840161047c565b336001600160a01b03821614806105365750610536813361031c565b6105a85760405162461bcd60e51b815260206004820152603860248201527f4552433732313a20617070726f76652063616c6c6572206973206e6f74206f7760448201527f6e6572206e6f7220617070726f76656420666f7220616c6c0000000000000000606482015260840161047c565b6105b28383610aca565b505050565b6105c13382610b38565b6105dd5760405162461bcd60e51b815260040161047c90611964565b6105b2838383610c2f565b60006105f3836107f7565b82106106555760405162461bcd60e51b815260206004820152602b60248201527f455243373231456e756d657261626c653a206f776e657220696e646578206f7560448201526a74206f6620626f756e647360a81b606482015260840161047c565b506001600160a01b03919091166000908152600660209081526040808320938352929052205490565b6106888282610dda565b5050565b6105b283838360405180602001604052806000815250610967565b6106b081610f28565b50565b6000818152600260205260408120546001600160a01b0316151561036f565b60006106dd60085490565b82106107405760405162461bcd60e51b815260206004820152602c60248201527f455243373231456e756d657261626c653a20676c6f62616c20696e646578206f60448201526b7574206f6620626f756e647360a01b606482015260840161047c565b6008828154811061075357610753611ad0565b90600052602060002001549050919050565b6105b2600a83836114b1565b6000818152600260205260408120546001600160a01b03168061036f5760405162461bcd60e51b815260206004820152602960248201527f4552433732313a206f776e657220717565727920666f72206e6f6e657869737460448201526832b73a103a37b5b2b760b91b606482015260840161047c565b60606107f2610fcf565b905090565b60006001600160a01b0382166108625760405162461bcd60e51b815260206004820152602a60248201527f4552433732313a2062616c616e636520717565727920666f7220746865207a65604482015269726f206164647265737360b01b606482015260840161047c565b506001600160a01b031660009081526003602052604090205490565b6105b2838383610fde565b60606001805461038490611a24565b6106888282611011565b6001600160a01b0382163314156108fb5760405162461bcd60e51b815260206004820152601960248201527f4552433732313a20617070726f766520746f2063616c6c657200000000000000604482015260640161047c565b3360008181526005602090815260408083206001600160a01b03871680855290835292819020805460ff191686151590811790915590519081529192917f17307eab39ab6107e8899845ad3d59bd9653f200f220920489ca2b5937696c31910160405180910390a35050565b6109713383610b38565b61098d5760405162461bcd60e51b815260040161047c90611964565b6109998484848461102b565b50505050565b6000818152600260205260409020546060906001600160a01b0316610a1e5760405162461bcd60e51b815260206004820152602f60248201527f4552433732314d657461646174613a2055524920717565727920666f72206e6f60448201526e3732bc34b9ba32b73a103a37b5b2b760891b606482015260840161047c565b6000610a28610fcf565b90506000815111610a485760405180602001604052806000815250610a73565b80610a528461105e565b604051602001610a63929190611893565b6040516020818303038152906040525b9392505050565b60006001600160e01b031982166380ac58cd60e01b1480610aab57506001600160e01b03198216635b5e139f60e01b145b8061036f57506301ffc9a760e01b6001600160e01b031983161461036f565b600081815260046020526040902080546001600160a01b0319166001600160a01b0384169081179091558190610aff82610771565b6001600160a01b03167f8c5be1e5ebec7d5bd14f71427d1e84f3dd0314c0f7b2291e5b200ac8c7c3b92560405160405180910390a45050565b6000818152600260205260408120546001600160a01b0316610bb15760405162461bcd60e51b815260206004820152602c60248201527f4552433732313a206f70657261746f7220717565727920666f72206e6f6e657860448201526b34b9ba32b73a103a37b5b2b760a11b606482015260840161047c565b6000610bbc83610771565b9050806001600160a01b0316846001600160a01b03161480610bf75750836001600160a01b0316610bec84610407565b6001600160a01b0316145b80610c2757506001600160a01b0380821660009081526005602090815260408083209388168352929052205460ff165b949350505050565b826001600160a01b0316610c4282610771565b6001600160a01b031614610caa5760405162461bcd60e51b815260206004820152602960248201527f4552433732313a207472616e73666572206f6620746f6b656e2074686174206960448201526839903737ba1037bbb760b91b606482015260840161047c565b6001600160a01b038216610d0c5760405162461bcd60e51b8152602060048201526024808201527f4552433732313a207472616e7366657220746f20746865207a65726f206164646044820152637265737360e01b606482015260840161047c565b610d1783838361115c565b610d22600082610aca565b6001600160a01b0383166000908152600360205260408120805460019290610d4b9084906119e1565b90915550506001600160a01b0382166000908152600360205260408120805460019290610d799084906119b5565b909155505060008181526002602052604080822080546001600160a01b0319166001600160a01b0386811691821790925591518493918716917fddf252ad1be2c89b69c2b068fc378daa952ba7f163c4a11628f55a4df523b3ef91a4505050565b6001600160a01b038216610e305760405162461bcd60e51b815260206004820181905260248201527f4552433732313a206d696e7420746f20746865207a65726f2061646472657373604482015260640161047c565b6000818152600260205260409020546001600160a01b031615610e955760405162461bcd60e51b815260206004820152601c60248201527f4552433732313a20746f6b656e20616c7265616479206d696e74656400000000604482015260640161047c565b610ea16000838361115c565b6001600160a01b0382166000908152600360205260408120805460019290610eca9084906119b5565b909155505060008181526002602052604080822080546001600160a01b0319166001600160a01b03861690811790915590518392907fddf252ad1be2c89b69c2b068fc378daa952ba7f163c4a11628f55a4df523b3ef908290a45050565b6000610f3382610771565b9050610f418160008461115c565b610f4c600083610aca565b6001600160a01b0381166000908152600360205260408120805460019290610f759084906119e1565b909155505060008281526002602052604080822080546001600160a01b0319169055518391906001600160a01b038416907fddf252ad1be2c89b69c2b068fc378daa952ba7f163c4a11628f55a4df523b3ef908390a45050565b6060600a805461038490611a24565b610fe88383610dda565b610ff56000848484611214565b6105b25760405162461bcd60e51b815260040161047c90611912565b610688828260405180602001604052806000815250610fde565b611036848484610c2f565b61104284848484611214565b6109995760405162461bcd60e51b815260040161047c90611912565b6060816110825750506040805180820190915260018152600360fc1b602082015290565b8160005b81156110ac578061109681611a5f565b91506110a59050600a836119cd565b9150611086565b60008167ffffffffffffffff8111156110c7576110c7611ae6565b6040519080825280601f01601f1916602001820160405280156110f1576020820181803683370190505b5090505b8415610c27576111066001836119e1565b9150611113600a86611a7a565b61111e9060306119b5565b60f81b81838151811061113357611133611ad0565b60200101906001600160f81b031916908160001a905350611155600a866119cd565b94506110f5565b6001600160a01b0383166111b7576111b281600880546000838152600960205260408120829055600182018355919091527ff3f7a9fe364faab93b216da50a3214154f22a0a2b415b23a84c8169e8b636ee30155565b6111da565b816001600160a01b0316836001600160a01b0316146111da576111da8382611321565b6001600160a01b0382166111f1576105b2816113be565b826001600160a01b0316826001600160a01b0316146105b2576105b2828261146d565b60006001600160a01b0384163b1561131657604051630a85bd0160e11b81526001600160a01b0385169063150b7a02906112589033908990889088906004016118c2565b602060405180830381600087803b15801561127257600080fd5b505af19250505080156112a2575060408051601f3d908101601f1916820190925261129f918101906117bf565b60015b6112fc573d8080156112d0576040519150601f19603f3d011682016040523d82523d6000602084013e6112d5565b606091505b5080516112f45760405162461bcd60e51b815260040161047c90611912565b805181602001fd5b6001600160e01b031916630a85bd0160e11b149050610c27565b506001949350505050565b6000600161132e846107f7565b61133891906119e1565b60008381526007602052604090205490915080821461138b576001600160a01b03841660009081526006602090815260408083208584528252808320548484528184208190558352600790915290208190555b5060009182526007602090815260408084208490556001600160a01b039094168352600681528383209183525290812055565b6008546000906113d0906001906119e1565b600083815260096020526040812054600880549394509092849081106113f8576113f8611ad0565b90600052602060002001549050806008838154811061141957611419611ad0565b600091825260208083209091019290925582815260099091526040808220849055858252812055600880548061145157611451611aba565b6001900381819060005260206000200160009055905550505050565b6000611478836107f7565b6001600160a01b039093166000908152600660209081526040808320868452825280832085905593825260079052919091209190915550565b8280546114bd90611a24565b90600052602060002090601f0160209004810192826114df5760008555611525565b82601f106114f85782800160ff19823516178555611525565b82800160010185558215611525579182015b8281111561152557823582559160200191906001019061150a565b50611531929150611535565b5090565b5b808211156115315760008155600101611536565b80356001600160a01b038116811461156157600080fd5b919050565b600082601f83011261157757600080fd5b813567ffffffffffffffff8082111561159257611592611ae6565b604051601f8301601f19908116603f011681019082821181831017156115ba576115ba611ae6565b816040528381528660208588010111156115d357600080fd5b836020870160208301376000602085830101528094505050505092915050565b60006020828403121561160557600080fd5b610a738261154a565b6000806040838503121561162157600080fd5b61162a8361154a565b91506116386020840161154a565b90509250929050565b60008060006060848603121561165657600080fd5b61165f8461154a565b925061166d6020850161154a565b9150604084013590509250925092565b6000806000806080858703121561169357600080fd5b61169c8561154a565b93506116aa6020860161154a565b925060408501359150606085013567ffffffffffffffff8111156116cd57600080fd5b6116d987828801611566565b91505092959194509250565b600080604083850312156116f857600080fd5b6117018361154a565b91506020830135801515811461171657600080fd5b809150509250929050565b6000806040838503121561173457600080fd5b61173d8361154a565b946020939093013593505050565b60008060006060848603121561176057600080fd5b6117698461154a565b925060208401359150604084013567ffffffffffffffff81111561178c57600080fd5b61179886828701611566565b9150509250925092565b6000602082840312156117b457600080fd5b8135610a7381611afc565b6000602082840312156117d157600080fd5b8151610a7381611afc565b600080602083850312156117ef57600080fd5b823567ffffffffffffffff8082111561180757600080fd5b818501915085601f83011261181b57600080fd5b81358181111561182a57600080fd5b86602082850101111561183c57600080fd5b60209290920196919550909350505050565b60006020828403121561186057600080fd5b5035919050565b6000815180845261187f8160208601602086016119f8565b601f01601f19169290920160200192915050565b600083516118a58184602088016119f8565b8351908301906118b98183602088016119f8565b01949350505050565b6001600160a01b03858116825284166020820152604081018390526080606082018190526000906118f590830184611867565b9695505050505050565b602081526000610a736020830184611867565b60208082526032908201527f4552433732313a207472616e7366657220746f206e6f6e20455243373231526560408201527131b2b4bb32b91034b6b83632b6b2b73a32b960711b606082015260800190565b60208082526031908201527f4552433732313a207472616e736665722063616c6c6572206973206e6f74206f6040820152701ddb995c881b9bdc88185c1c1c9bdd9959607a1b606082015260800190565b600082198211156119c8576119c8611a8e565b500190565b6000826119dc576119dc611aa4565b500490565b6000828210156119f3576119f3611a8e565b500390565b60005b83811015611a135781810151838201526020016119fb565b838111156109995750506000910152565b600181811c90821680611a3857607f821691505b60208210811415611a5957634e487b7160e01b600052602260045260246000fd5b50919050565b6000600019821415611a7357611a73611a8e565b5060010190565b600082611a8957611a89611aa4565b500690565b634e487b7160e01b600052601160045260246000fd5b634e487b7160e01b600052601260045260246000fd5b634e487b7160e01b600052603160045260246000fd5b634e487b7160e01b600052603260045260246000fd5b634e487b7160e01b600052604160045260246000fd5b6001600160e01b0319811681146106b057600080fdfea2646970667358221220cefd2bb24be9a36a8e0c309062c103172c580b6953148459c63909cebd78476f64736f6c63430008060033",
    "sourcePath": "/Users/Shared/crypto/nextart/contracts/mocks/ERC721EnumerableMock.sol",
    "compiler": {
        "name": "solc",
        "version": "0.8.6+commit.11564f7e"
    },
    "functionHashes": {
        "approve(address,uint256)": "095ea7b3",
        "balanceOf(address)": "70a08231",
        "baseURI()": "6c0360eb",
        "burn(uint256)": "42966c68",
        "exists(uint256)": "4f558e79",
        "getApproved(uint256)": "081812fc",
        "isApprovedForAll(address,address)": "e985e9c5",
        "mint(address,uint256)": "40c10f19",
        "name()": "06fdde03",
        "ownerOf(uint256)": "6352211e",
        "safeMint(address,uint256)": "a1448194",
        "safeMint(address,uint256,bytes)": "8832e6e3",
        "safeTransferFrom(address,address,uint256)": "42842e0e",
        "safeTransferFrom(address,address,uint256,bytes)": "b88d4fde",
        "setApprovalForAll(address,bool)": "a22cb465",
        "setBaseURI(string)": "55f804b3",
        "supportsInterface(bytes4)": "01ffc9a7",
        "symbol()": "95d89b41",
        "tokenByIndex(uint256)": "4f6ccce7",
        "tokenOfOwnerByIndex(address,uint256)": "2f745c59",
        "tokenURI(uint256)": "c87b56dd",
        "totalSupply()": "18160ddd",
        "transferFrom(address,address,uint256)": "23b872dd"
    },
    "gasEstimates": {
        "creation": {
            "codeDepositCost": "1396800",
            "executionCost": "infinite",
            "totalCost": "infinite"
        },
        "external": {
            "approve(address,uint256)": "infinite",
            "balanceOf(address)": "2700",
            "baseURI()": "infinite",
            "burn(uint256)": "infinite",
            "exists(uint256)": "2621",
            "getApproved(uint256)": "4760",
            "isApprovedForAll(address,address)": "infinite",
            "mint(address,uint256)": "211459",
            "name()": "infinite",
            "ownerOf(uint256)": "2623",
            "safeMint(address,uint256)": "infinite",
            "safeMint(address,uint256,bytes)": "infinite",
            "safeTransferFrom(address,address,uint256)": "infinite",
            "safeTransferFrom(address,address,uint256,bytes)": "infinite",
            "setApprovalForAll(address,bool)": "26694",
            "setBaseURI(string)": "infinite",
            "supportsInterface(bytes4)": "infinite",
            "symbol()": "infinite",
            "tokenByIndex(uint256)": "6738",
            "tokenOfOwnerByIndex(address,uint256)": "4975",
            "tokenURI(uint256)": "infinite",
            "totalSupply()": "2393",
            "transferFrom(address,address,uint256)": "infinite"
        },
        "internal": {
            "_baseURI()": "infinite"
        }
    }
}