{
    "contractName": "ERC777Mock",
    "abi": [
        {
            "inputs": [
                {
                    "internalType": "address",
                    "name": "initialHolder",
                    "type": "address"
                },
                {
                    "internalType": "uint256",
                    "name": "initialBalance",
                    "type": "uint256"
                },
                {
                    "internalType": "string",
                    "name": "name",
                    "type": "string"
                },
                {
                    "internalType": "string",
                    "name": "symbol",
                    "type": "string"
                },
                {
                    "internalType": "address[]",
                    "name": "defaultOperators",
                    "type": "address[]"
                }
            ],
            "stateMutability": "nonpayable",
            "type": "constructor"
        },
        {
            "anonymous": false,
            "inputs": [
                {
                    "indexed": true,
                    "internalType": "address",
                    "name": "owner",
                    "type": "address"
                },
                {
                    "indexed": true,
                    "internalType": "address",
                    "name": "spender",
                    "type": "address"
                },
                {
                    "indexed": false,
                    "internalType": "uint256",
                    "name": "value",
                    "type": "uint256"
                }
            ],
            "name": "Approval",
            "type": "event"
        },
        {
            "anonymous": false,
            "inputs": [
                {
                    "indexed": true,
                    "internalType": "address",
                    "name": "operator",
                    "type": "address"
                },
                {
                    "indexed": true,
                    "internalType": "address",
                    "name": "tokenHolder",
                    "type": "address"
                }
            ],
            "name": "AuthorizedOperator",
            "type": "event"
        },
        {
            "anonymous": false,
            "inputs": [],
            "name": "BeforeTokenTransfer",
            "type": "event"
        },
        {
            "anonymous": false,
            "inputs": [
                {
                    "indexed": true,
                    "internalType": "address",
                    "name": "operator",
                    "type": "address"
                },
                {
                    "indexed": true,
                    "internalType": "address",
                    "name": "from",
                    "type": "address"
                },
                {
                    "indexed": false,
                    "internalType": "uint256",
                    "name": "amount",
                    "type": "uint256"
                },
                {
                    "indexed": false,
                    "internalType": "bytes",
                    "name": "data",
                    "type": "bytes"
                },
                {
                    "indexed": false,
                    "internalType": "bytes",
                    "name": "operatorData",
                    "type": "bytes"
                }
            ],
            "name": "Burned",
            "type": "event"
        },
        {
            "anonymous": false,
            "inputs": [
                {
                    "indexed": true,
                    "internalType": "address",
                    "name": "operator",
                    "type": "address"
                },
                {
                    "indexed": true,
                    "internalType": "address",
                    "name": "to",
                    "type": "address"
                },
                {
                    "indexed": false,
                    "internalType": "uint256",
                    "name": "amount",
                    "type": "uint256"
                },
                {
                    "indexed": false,
                    "internalType": "bytes",
                    "name": "data",
                    "type": "bytes"
                },
                {
                    "indexed": false,
                    "internalType": "bytes",
                    "name": "operatorData",
                    "type": "bytes"
                }
            ],
            "name": "Minted",
            "type": "event"
        },
        {
            "anonymous": false,
            "inputs": [
                {
                    "indexed": true,
                    "internalType": "address",
                    "name": "operator",
                    "type": "address"
                },
                {
                    "indexed": true,
                    "internalType": "address",
                    "name": "tokenHolder",
                    "type": "address"
                }
            ],
            "name": "RevokedOperator",
            "type": "event"
        },
        {
            "anonymous": false,
            "inputs": [
                {
                    "indexed": true,
                    "internalType": "address",
                    "name": "operator",
                    "type": "address"
                },
                {
                    "indexed": true,
                    "internalType": "address",
                    "name": "from",
                    "type": "address"
                },
                {
                    "indexed": true,
                    "internalType": "address",
                    "name": "to",
                    "type": "address"
                },
                {
                    "indexed": false,
                    "internalType": "uint256",
                    "name": "amount",
                    "type": "uint256"
                },
                {
                    "indexed": false,
                    "internalType": "bytes",
                    "name": "data",
                    "type": "bytes"
                },
                {
                    "indexed": false,
                    "internalType": "bytes",
                    "name": "operatorData",
                    "type": "bytes"
                }
            ],
            "name": "Sent",
            "type": "event"
        },
        {
            "anonymous": false,
            "inputs": [
                {
                    "indexed": true,
                    "internalType": "address",
                    "name": "from",
                    "type": "address"
                },
                {
                    "indexed": true,
                    "internalType": "address",
                    "name": "to",
                    "type": "address"
                },
                {
                    "indexed": false,
                    "internalType": "uint256",
                    "name": "value",
                    "type": "uint256"
                }
            ],
            "name": "Transfer",
            "type": "event"
        },
        {
            "inputs": [
                {
                    "internalType": "address",
                    "name": "holder",
                    "type": "address"
                },
                {
                    "internalType": "address",
                    "name": "spender",
                    "type": "address"
                }
            ],
            "name": "allowance",
            "outputs": [
                {
                    "internalType": "uint256",
                    "name": "",
                    "type": "uint256"
                }
            ],
            "stateMutability": "view",
            "type": "function"
        },
        {
            "inputs": [
                {
                    "internalType": "address",
                    "name": "spender",
                    "type": "address"
                },
                {
                    "internalType": "uint256",
                    "name": "value",
                    "type": "uint256"
                }
            ],
            "name": "approve",
            "outputs": [
                {
                    "internalType": "bool",
                    "name": "",
                    "type": "bool"
                }
            ],
            "stateMutability": "nonpayable",
            "type": "function"
        },
        {
            "inputs": [
                {
                    "internalType": "address",
                    "name": "holder",
                    "type": "address"
                },
                {
                    "internalType": "address",
                    "name": "spender",
                    "type": "address"
                },
                {
                    "internalType": "uint256",
                    "name": "value",
                    "type": "uint256"
                }
            ],
            "name": "approveInternal",
            "outputs": [],
            "stateMutability": "nonpayable",
            "type": "function"
        },
        {
            "inputs": [
                {
                    "internalType": "address",
                    "name": "operator",
                    "type": "address"
                }
            ],
            "name": "authorizeOperator",
            "outputs": [],
            "stateMutability": "nonpayable",
            "type": "function"
        },
        {
            "inputs": [
                {
                    "internalType": "address",
                    "name": "tokenHolder",
                    "type": "address"
                }
            ],
            "name": "balanceOf",
            "outputs": [
                {
                    "internalType": "uint256",
                    "name": "",
                    "type": "uint256"
                }
            ],
            "stateMutability": "view",
            "type": "function"
        },
        {
            "inputs": [
                {
                    "internalType": "uint256",
                    "name": "amount",
                    "type": "uint256"
                },
                {
                    "internalType": "bytes",
                    "name": "data",
                    "type": "bytes"
                }
            ],
            "name": "burn",
            "outputs": [],
            "stateMutability": "nonpayable",
            "type": "function"
        },
        {
            "inputs": [],
            "name": "decimals",
            "outputs": [
                {
                    "internalType": "uint8",
                    "name": "",
                    "type": "uint8"
                }
            ],
            "stateMutability": "pure",
            "type": "function"
        },
        {
            "inputs": [],
            "name": "defaultOperators",
            "outputs": [
                {
                    "internalType": "address[]",
                    "name": "",
                    "type": "address[]"
                }
            ],
            "stateMutability": "view",
            "type": "function"
        },
        {
            "inputs": [],
            "name": "granularity",
            "outputs": [
                {
                    "internalType": "uint256",
                    "name": "",
                    "type": "uint256"
                }
            ],
            "stateMutability": "view",
            "type": "function"
        },
        {
            "inputs": [
                {
                    "internalType": "address",
                    "name": "operator",
                    "type": "address"
                },
                {
                    "internalType": "address",
                    "name": "tokenHolder",
                    "type": "address"
                }
            ],
            "name": "isOperatorFor",
            "outputs": [
                {
                    "internalType": "bool",
                    "name": "",
                    "type": "bool"
                }
            ],
            "stateMutability": "view",
            "type": "function"
        },
        {
            "inputs": [
                {
                    "internalType": "address",
                    "name": "to",
                    "type": "address"
                },
                {
                    "internalType": "uint256",
                    "name": "amount",
                    "type": "uint256"
                },
                {
                    "internalType": "bytes",
                    "name": "userData",
                    "type": "bytes"
                },
                {
                    "internalType": "bytes",
                    "name": "operatorData",
                    "type": "bytes"
                }
            ],
            "name": "mintInternal",
            "outputs": [],
            "stateMutability": "nonpayable",
            "type": "function"
        },
        {
            "inputs": [
                {
                    "internalType": "address",
                    "name": "to",
                    "type": "address"
                },
                {
                    "internalType": "uint256",
                    "name": "amount",
                    "type": "uint256"
                },
                {
                    "internalType": "bytes",
                    "name": "userData",
                    "type": "bytes"
                },
                {
                    "internalType": "bytes",
                    "name": "operatorData",
                    "type": "bytes"
                },
                {
                    "internalType": "bool",
                    "name": "requireReceptionAck",
                    "type": "bool"
                }
            ],
            "name": "mintInternalExtended",
            "outputs": [],
            "stateMutability": "nonpayable",
            "type": "function"
        },
        {
            "inputs": [],
            "name": "name",
            "outputs": [
                {
                    "internalType": "string",
                    "name": "",
                    "type": "string"
                }
            ],
            "stateMutability": "view",
            "type": "function"
        },
        {
            "inputs": [
                {
                    "internalType": "address",
                    "name": "account",
                    "type": "address"
                },
                {
                    "internalType": "uint256",
                    "name": "amount",
                    "type": "uint256"
                },
                {
                    "internalType": "bytes",
                    "name": "data",
                    "type": "bytes"
                },
                {
                    "internalType": "bytes",
                    "name": "operatorData",
                    "type": "bytes"
                }
            ],
            "name": "operatorBurn",
            "outputs": [],
            "stateMutability": "nonpayable",
            "type": "function"
        },
        {
            "inputs": [
                {
                    "internalType": "address",
                    "name": "sender",
                    "type": "address"
                },
                {
                    "internalType": "address",
                    "name": "recipient",
                    "type": "address"
                },
                {
                    "internalType": "uint256",
                    "name": "amount",
                    "type": "uint256"
                },
                {
                    "internalType": "bytes",
                    "name": "data",
                    "type": "bytes"
                },
                {
                    "internalType": "bytes",
                    "name": "operatorData",
                    "type": "bytes"
                }
            ],
            "name": "operatorSend",
            "outputs": [],
            "stateMutability": "nonpayable",
            "type": "function"
        },
        {
            "inputs": [
                {
                    "internalType": "address",
                    "name": "operator",
                    "type": "address"
                }
            ],
            "name": "revokeOperator",
            "outputs": [],
            "stateMutability": "nonpayable",
            "type": "function"
        },
        {
            "inputs": [
                {
                    "internalType": "address",
                    "name": "recipient",
                    "type": "address"
                },
                {
                    "internalType": "uint256",
                    "name": "amount",
                    "type": "uint256"
                },
                {
                    "internalType": "bytes",
                    "name": "data",
                    "type": "bytes"
                }
            ],
            "name": "send",
            "outputs": [],
            "stateMutability": "nonpayable",
            "type": "function"
        },
        {
            "inputs": [],
            "name": "symbol",
            "outputs": [
                {
                    "internalType": "string",
                    "name": "",
                    "type": "string"
                }
            ],
            "stateMutability": "view",
            "type": "function"
        },
        {
            "inputs": [],
            "name": "totalSupply",
            "outputs": [
                {
                    "internalType": "uint256",
                    "name": "",
                    "type": "uint256"
                }
            ],
            "stateMutability": "view",
            "type": "function"
        },
        {
            "inputs": [
                {
                    "internalType": "address",
                    "name": "recipient",
                    "type": "address"
                },
                {
                    "internalType": "uint256",
                    "name": "amount",
                    "type": "uint256"
                }
            ],
            "name": "transfer",
            "outputs": [
                {
                    "internalType": "bool",
                    "name": "",
                    "type": "bool"
                }
            ],
            "stateMutability": "nonpayable",
            "type": "function"
        },
        {
            "inputs": [
                {
                    "internalType": "address",
                    "name": "holder",
                    "type": "address"
                },
                {
                    "internalType": "address",
                    "name": "recipient",
                    "type": "address"
                },
                {
                    "internalType": "uint256",
                    "name": "amount",
                    "type": "uint256"
                }
            ],
            "name": "transferFrom",
            "outputs": [
                {
                    "internalType": "bool",
                    "name": "",
                    "type": "bool"
                }
            ],
            "stateMutability": "nonpayable",
            "type": "function"
        }
    ],
    "bytecode": "60806040523480156200001157600080fd5b506040516200254c3803806200254c8339810160408190526200003491620007a7565b82828282600290805190602001906200004f929190620005f3565b50815162000065906003906020850190620005f3565b5080516200007b90600490602084019062000682565b5060005b8151811015620000eb57600160056000848481518110620000a457620000a462000a8a565b6020908102919091018101516001600160a01b03168252810191909152604001600020805460ff191691151591909117905580620000e28162000a56565b9150506200007f565b506040516329965a1d60e01b815230600482018190527fac7fbab5f54a3ca8194167523c6753bfeb96a445279294b6125b68cce217705460248301526044820152731820a4b7618bde71dce8cdc73aab6c95905fad24906329965a1d90606401600060405180830381600087803b1580156200016657600080fd5b505af11580156200017b573d6000803e3d6000fd5b50506040516329965a1d60e01b815230600482018190527faea199e31a596269b42cdafd93407f14436db6e4cad65417994c2eb37381e05a60248301526044820152731820a4b7618bde71dce8cdc73aab6c95905fad2492506329965a1d9150606401600060405180830381600087803b158015620001f957600080fd5b505af11580156200020e573d6000803e3d6000fd5b5050505050505062000247858560405180602001604052806000815250604051806020016040528060008152506200025260201b60201c565b505050505062000ab6565b6200026284848484600162000268565b50505050565b6001600160a01b038516620002c45760405162461bcd60e51b815260206004820181905260248201527f4552433737373a206d696e7420746f20746865207a65726f206164647265737360448201526064015b60405180910390fd5b33620002d48160008888620003c9565b8460016000828254620002e89190620009cf565b90915550506001600160a01b0386166000908152602081905260408120805487929062000317908490620009cf565b909155506200032f90508160008888888888620003f8565b856001600160a01b0316816001600160a01b03167f2fe5be0146f74c5bce36c0b80911af6c7d86ff27e89d5cfa61fc681327954e5d878787604051620003789392919062000963565b60405180910390a36040518581526001600160a01b038716906000907fddf252ad1be2c89b69c2b068fc378daa952ba7f163c4a11628f55a4df523b3ef9060200160405180910390a3505050505050565b6040517f52316ab8e8b0687ce803e403dfe429541bccd4f6c4683ec65d254d382f15a26590600090a150505050565b60405163555ddc6560e11b81526001600160a01b03861660048201527fb281fc8c12954d22544db45de3159a39272895b169a852b314f9cc762e44c53b6024820152600090731820a4b7618bde71dce8cdc73aab6c95905fad249063aabbb8ca9060440160206040518083038186803b1580156200047557600080fd5b505afa1580156200048a573d6000803e3d6000fd5b505050506040513d601f19601f82011682018060405250810190620004b0919062000782565b90506001600160a01b0381161562000532576040516223de2960e01b81526001600160a01b038216906223de2990620004f8908b908b908b908b908b908b9060040162000905565b600060405180830381600087803b1580156200051357600080fd5b505af115801562000528573d6000803e3d6000fd5b50505050620005e3565b8115620005e35762000558866001600160a01b0316620005ed60201b62000a4e1760201c565b15620005e35760405162461bcd60e51b815260206004820152604d60248201527f4552433737373a20746f6b656e20726563697069656e7420636f6e747261637460448201527f20686173206e6f20696d706c656d656e74657220666f7220455243373737546f60648201526c1ad95b9cd49958da5c1a595b9d609a1b608482015260a401620002bb565b5050505050505050565b3b151590565b828054620006019062000a19565b90600052602060002090601f01602090048101928262000625576000855562000670565b82601f106200064057805160ff191683800117855562000670565b8280016001018555821562000670579182015b828111156200067057825182559160200191906001019062000653565b506200067e929150620006da565b5090565b82805482825590600052602060002090810192821562000670579160200282015b828111156200067057825182546001600160a01b0319166001600160a01b03909116178255602090920191600190910190620006a3565b5b808211156200067e5760008155600101620006db565b80516001600160a01b03811681146200070957600080fd5b919050565b600082601f8301126200072057600080fd5b81516001600160401b038111156200073c576200073c62000aa0565b62000751601f8201601f19166020016200099c565b8181528460208386010111156200076757600080fd5b6200077a826020830160208701620009ea565b949350505050565b6000602082840312156200079557600080fd5b620007a082620006f1565b9392505050565b600080600080600060a08688031215620007c057600080fd5b620007cb86620006f1565b60208781015160408901519297509550906001600160401b0380821115620007f257600080fd5b620008008a838b016200070e565b955060608901519150808211156200081757600080fd5b620008258a838b016200070e565b945060808901519150808211156200083c57600080fd5b818901915089601f8301126200085157600080fd5b81518181111562000866576200086662000aa0565b8060051b9150620008798483016200099c565b8181528481019084860184860187018e10156200089557600080fd5b600095505b83861015620008c357620008ae81620006f1565b8352600195909501949186019186016200089a565b508096505050505050509295509295909350565b60008151808452620008f1816020860160208601620009ea565b601f01601f19169290920160200192915050565b6001600160a01b0387811682528681166020830152851660408201526060810184905260c0608082018190526000906200094290830185620008d7565b82810360a0840152620009568185620008d7565b9998505050505050505050565b8381526060602082015260006200097e6060830185620008d7565b8281036040840152620009928185620008d7565b9695505050505050565b604051601f8201601f191681016001600160401b0381118282101715620009c757620009c762000aa0565b604052919050565b60008219821115620009e557620009e562000a74565b500190565b60005b8381101562000a07578181015183820152602001620009ed565b83811115620002625750506000910152565b600181811c9082168062000a2e57607f821691505b6020821081141562000a5057634e487b7160e01b600052602260045260246000fd5b50919050565b600060001982141562000a6d5762000a6d62000a74565b5060010190565b634e487b7160e01b600052601160045260246000fd5b634e487b7160e01b600052603260045260246000fd5b634e487b7160e01b600052604160045260246000fd5b611a868062000ac66000396000f3fe608060405234801561001057600080fd5b50600436106101375760003560e01c8063959b8c3f116100b8578063cfbfab0b1161007c578063cfbfab0b14610272578063d95b637114610285578063dd62ed3e14610298578063fad8b32a146102d1578063fc673c4f146102e4578063fe9d9303146102f757600080fd5b8063959b8c3f1461021e57806395d89b41146102315780639bd9bbc614610239578063a9059cbb1461024c578063b1f0b5be1461025f57600080fd5b8063313ce567116100ff578063313ce567146101b7578063556f0dc7146101c657806356189cb4146101cd57806362ad1b83146101e257806370a08231146101f557600080fd5b806306e485381461013c57806306fdde031461015a578063095ea7b31461016f57806318160ddd1461019257806323b872dd146101a4575b600080fd5b61014461030a565b604051610151919061187d565b60405180910390f35b61016261036c565b60405161015191906118ca565b61018261017d3660046115f0565b6103f5565b6040519015158152602001610151565b6001545b604051908152602001610151565b6101826101b236600461151c565b61040d565b60405160128152602001610151565b6001610196565b6101e06101db36600461151c565b6105d6565b005b6101e06101f036600461155d565b6105e6565b6101966102033660046114a9565b6001600160a01b031660009081526020819052604090205490565b6101e061022c3660046114a9565b610622565b610162610740565b6101e061024736600461161c565b61074f565b61018261025a3660046115f0565b61076d565b6101e061026d366004611675565b610820565b6101e06102803660046116f5565b610832565b6101826102933660046114e3565b61083f565b6101966102a63660046114e3565b6001600160a01b03918216600090815260086020908152604080832093909416825291909152205490565b6101e06102df3660046114a9565b6108e1565b6101e06102f2366004611675565b6109fd565b6101e061030536600461178f565b610a2f565b6060600480548060200260200160405190810160405280929190818152602001828054801561036257602002820191906000526020600020905b81546001600160a01b03168152600190910190602001808311610344575b5050505050905090565b60606002805461037b906119d1565b80601f01602080910402602001604051908101604052809291908181526020018280546103a7906119d1565b80156103625780601f106103c957610100808354040283529160200191610362565b820191906000526020600020905b8154815290600101906020018083116103d757509395945050505050565b600033610403818585610a54565b5060019392505050565b60006001600160a01b03831661043e5760405162461bcd60e51b8152600401610435906118dd565b60405180910390fd5b6001600160a01b0384166104a35760405162461bcd60e51b815260206004820152602660248201527f4552433737373a207472616e736665722066726f6d20746865207a65726f206160448201526564647265737360d01b6064820152608401610435565b60003390506104d4818686866040518060200160405280600081525060405180602001604052806000815250610b7b565b610500818686866040518060200160405280600081525060405180602001604052806000815250610cb2565b6001600160a01b03808616600090815260086020908152604080832093851683529290522054838110156105885760405162461bcd60e51b815260206004820152602960248201527f4552433737373a207472616e7366657220616d6f756e74206578636565647320604482015268616c6c6f77616e636560b81b6064820152608401610435565b61059c868361059787856119ba565b610a54565b6105ca8287878760405180602001604052806000815250604051806020016040528060008152506000610e24565b50600195945050505050565b6105e1838383610a54565b505050565b6105f0338661083f565b61060c5760405162461bcd60e51b815260040161043590611921565b61061b85858585856001610ff8565b5050505050565b336001600160a01b03821614156106875760405162461bcd60e51b8152602060048201526024808201527f4552433737373a20617574686f72697a696e672073656c66206173206f70657260448201526330ba37b960e11b6064820152608401610435565b6001600160a01b03811660009081526005602052604090205460ff16156106d8573360009081526007602090815260408083206001600160a01b03851684529091529020805460ff19169055610707565b3360009081526006602090815260408083206001600160a01b03851684529091529020805460ff191660011790555b60405133906001600160a01b038316907ff4caeb2d6ca8932a215a353d0703c326ec2d81fc68170f320eb2ab49e9df61f990600090a350565b60606003805461037b906119d1565b6105e133848484604051806020016040528060008152506001610ff8565b60006001600160a01b0383166107955760405162461bcd60e51b8152600401610435906118dd565b60003390506107c6818286866040518060200160405280600081525060405180602001604052806000815250610b7b565b6107f2818286866040518060200160405280600081525060405180602001604052806000815250610cb2565b6104038182868660405180602001604052806000815250604051806020016040528060008152506000610e24565b61082c848484846110db565b50505050565b61061b85858585856110e5565b6000816001600160a01b0316836001600160a01b031614806108aa57506001600160a01b03831660009081526005602052604090205460ff1680156108aa57506001600160a01b0380831660009081526007602090815260408083209387168352929052205460ff16155b806108da57506001600160a01b0380831660009081526006602090815260408083209387168352929052205460ff165b9392505050565b6001600160a01b0381163314156109445760405162461bcd60e51b815260206004820152602160248201527f4552433737373a207265766f6b696e672073656c66206173206f70657261746f6044820152603960f91b6064820152608401610435565b6001600160a01b03811660009081526005602052604090205460ff1615610998573360009081526007602090815260408083206001600160a01b03851684529091529020805460ff191660011790556109c4565b3360009081526006602090815260408083206001600160a01b03851684529091529020805460ff191690555b60405133906001600160a01b038316907f50546e66e5f44d728365dc3908c63bc5cfeeab470722c1677e3073a6ac294aa190600090a350565b610a07338561083f565b610a235760405162461bcd60e51b815260040161043590611921565b61082c84848484611237565b610a4a33838360405180602001604052806000815250611237565b5050565b3b151590565b6001600160a01b038316610ab85760405162461bcd60e51b815260206004820152602560248201527f4552433737373a20617070726f76652066726f6d20746865207a65726f206164604482015264647265737360d81b6064820152608401610435565b6001600160a01b038216610b1a5760405162461bcd60e51b815260206004820152602360248201527f4552433737373a20617070726f766520746f20746865207a65726f206164647260448201526265737360e81b6064820152608401610435565b6001600160a01b0383811660008181526008602090815260408083209487168084529482529182902085905590518481527f8c5be1e5ebec7d5bd14f71427d1e84f3dd0314c0f7b2291e5b200ac8c7c3b925910160405180910390a3505050565b60405163555ddc6560e11b81526001600160a01b03861660048201527f29ddb589b1fb5fc7cf394961c1adf5f8c6454761adf795e67fe149f658abe8956024820152600090731820a4b7618bde71dce8cdc73aab6c95905fad249063aabbb8ca9060440160206040518083038186803b158015610bf757600080fd5b505afa158015610c0b573d6000803e3d6000fd5b505050506040513d601f19601f82011682018060405250810190610c2f91906114c6565b90506001600160a01b03811615610ca957604051633ad5cbc160e11b81526001600160a01b038216906375ab978290610c76908a908a908a908a908a908a90600401611823565b600060405180830381600087803b158015610c9057600080fd5b505af1158015610ca4573d6000803e3d6000fd5b505050505b50505050505050565b610cbe868686866113ed565b6001600160a01b03851660009081526020819052604090205483811015610d375760405162461bcd60e51b815260206004820152602760248201527f4552433737373a207472616e7366657220616d6f756e7420657863656564732060448201526662616c616e636560c81b6064820152608401610435565b6001600160a01b03808716600090815260208190526040808220878503905591871681529081208054869290610d6e9084906119a2565b92505081905550846001600160a01b0316866001600160a01b0316886001600160a01b03167f06b541ddaa720db2b10a4d0cdac39b8d360425fc073085fac19bc82614677987878787604051610dc69392919061196d565b60405180910390a4846001600160a01b0316866001600160a01b03167fddf252ad1be2c89b69c2b068fc378daa952ba7f163c4a11628f55a4df523b3ef86604051610e1391815260200190565b60405180910390a350505050505050565b60405163555ddc6560e11b81526001600160a01b03861660048201527fb281fc8c12954d22544db45de3159a39272895b169a852b314f9cc762e44c53b6024820152600090731820a4b7618bde71dce8cdc73aab6c95905fad249063aabbb8ca9060440160206040518083038186803b158015610ea057600080fd5b505afa158015610eb4573d6000803e3d6000fd5b505050506040513d601f19601f82011682018060405250810190610ed891906114c6565b90506001600160a01b03811615610f54576040516223de2960e01b81526001600160a01b038216906223de2990610f1d908b908b908b908b908b908b90600401611823565b600060405180830381600087803b158015610f3757600080fd5b505af1158015610f4b573d6000803e3d6000fd5b50505050610fee565b8115610fee576001600160a01b0386163b15610fee5760405162461bcd60e51b815260206004820152604d60248201527f4552433737373a20746f6b656e20726563697069656e7420636f6e747261637460448201527f20686173206e6f20696d706c656d656e74657220666f7220455243373737546f60648201526c1ad95b9cd49958da5c1a595b9d609a1b608482015260a401610435565b5050505050505050565b6001600160a01b0386166110595760405162461bcd60e51b815260206004820152602260248201527f4552433737373a2073656e642066726f6d20746865207a65726f206164647265604482015261737360f01b6064820152608401610435565b6001600160a01b0385166110af5760405162461bcd60e51b815260206004820181905260248201527f4552433737373a2073656e6420746f20746865207a65726f20616464726573736044820152606401610435565b336110be818888888888610b7b565b6110cc818888888888610cb2565b610ca981888888888888610e24565b61082c8484848460015b6001600160a01b03851661113b5760405162461bcd60e51b815260206004820181905260248201527f4552433737373a206d696e7420746f20746865207a65726f20616464726573736044820152606401610435565b3361114981600088886113ed565b846001600082825461115b91906119a2565b90915550506001600160a01b038616600090815260208190526040812080548792906111889084906119a2565b9091555061119e90508160008888888888610e24565b856001600160a01b0316816001600160a01b03167f2fe5be0146f74c5bce36c0b80911af6c7d86ff27e89d5cfa61fc681327954e5d8787876040516111e59392919061196d565b60405180910390a36040518581526001600160a01b038716906000907fddf252ad1be2c89b69c2b068fc378daa952ba7f163c4a11628f55a4df523b3ef906020015b60405180910390a3505050505050565b6001600160a01b0384166112985760405162461bcd60e51b815260206004820152602260248201527f4552433737373a206275726e2066726f6d20746865207a65726f206164647265604482015261737360f01b6064820152608401610435565b336112a881866000878787610b7b565b6112b581866000876113ed565b6001600160a01b0385166000908152602081905260409020548481101561132a5760405162461bcd60e51b815260206004820152602360248201527f4552433737373a206275726e20616d6f756e7420657863656564732062616c616044820152626e636560e81b6064820152608401610435565b6001600160a01b03861660009081526020819052604081208683039055600180548792906113599084906119ba565b92505081905550856001600160a01b0316826001600160a01b03167fa78a9be3a7b862d26933ad85fb11d80ef66b8f972d7cbba06621d583943a40988787876040516113a79392919061196d565b60405180910390a36040518581526000906001600160a01b038816907fddf252ad1be2c89b69c2b068fc378daa952ba7f163c4a11628f55a4df523b3ef90602001611227565b6040517f52316ab8e8b0687ce803e403dfe429541bccd4f6c4683ec65d254d382f15a26590600090a150505050565b600082601f83011261142d57600080fd5b813567ffffffffffffffff8082111561144857611448611a22565b604051601f8301601f19908116603f0116810190828211818310171561147057611470611a22565b8160405283815286602085880101111561148957600080fd5b836020870160208301376000602085830101528094505050505092915050565b6000602082840312156114bb57600080fd5b81356108da81611a38565b6000602082840312156114d857600080fd5b81516108da81611a38565b600080604083850312156114f657600080fd5b823561150181611a38565b9150602083013561151181611a38565b809150509250929050565b60008060006060848603121561153157600080fd5b833561153c81611a38565b9250602084013561154c81611a38565b929592945050506040919091013590565b600080600080600060a0868803121561157557600080fd5b853561158081611a38565b9450602086013561159081611a38565b935060408601359250606086013567ffffffffffffffff808211156115b457600080fd5b6115c089838a0161141c565b935060808801359150808211156115d657600080fd5b506115e38882890161141c565b9150509295509295909350565b6000806040838503121561160357600080fd5b823561160e81611a38565b946020939093013593505050565b60008060006060848603121561163157600080fd5b833561163c81611a38565b925060208401359150604084013567ffffffffffffffff81111561165f57600080fd5b61166b8682870161141c565b9150509250925092565b6000806000806080858703121561168b57600080fd5b843561169681611a38565b935060208501359250604085013567ffffffffffffffff808211156116ba57600080fd5b6116c68883890161141c565b935060608701359150808211156116dc57600080fd5b506116e98782880161141c565b91505092959194509250565b600080600080600060a0868803121561170d57600080fd5b853561171881611a38565b945060208601359350604086013567ffffffffffffffff8082111561173c57600080fd5b61174889838a0161141c565b9450606088013591508082111561175e57600080fd5b5061176b8882890161141c565b9250506080860135801515811461178157600080fd5b809150509295509295909350565b600080604083850312156117a257600080fd5b82359150602083013567ffffffffffffffff8111156117c057600080fd5b6117cc8582860161141c565b9150509250929050565b6000815180845260005b818110156117fc576020818501810151868301820152016117e0565b8181111561180e576000602083870101525b50601f01601f19169290920160200192915050565b6001600160a01b0387811682528681166020830152851660408201526060810184905260c06080820181905260009061185e908301856117d6565b82810360a084015261187081856117d6565b9998505050505050505050565b6020808252825182820181905260009190848201906040850190845b818110156118be5783516001600160a01b031683529284019291840191600101611899565b50909695505050505050565b6020815260006108da60208301846117d6565b60208082526024908201527f4552433737373a207472616e7366657220746f20746865207a65726f206164646040820152637265737360e01b606082015260800190565b6020808252602c908201527f4552433737373a2063616c6c6572206973206e6f7420616e206f70657261746f60408201526b39103337b9103437b63232b960a11b606082015260800190565b83815260606020820152600061198660608301856117d6565b828103604084015261199881856117d6565b9695505050505050565b600082198211156119b5576119b5611a0c565b500190565b6000828210156119cc576119cc611a0c565b500390565b600181811c908216806119e557607f821691505b60208210811415611a0657634e487b7160e01b600052602260045260246000fd5b50919050565b634e487b7160e01b600052601160045260246000fd5b634e487b7160e01b600052604160045260246000fd5b6001600160a01b0381168114611a4d57600080fd5b5056fea2646970667358221220202d329050aebd132ca037b64b870dc304b9980d3f0ba78c4e274e742882e91164736f6c63430008060033",
    "sourcePath": "/Users/Shared/crypto/nextart/contracts/mocks/ERC777Mock.sol",
    "compiler": {
        "name": "solc",
        "version": "0.8.6+commit.11564f7e"
    },
    "functionHashes": {
        "allowance(address,address)": "dd62ed3e",
        "approve(address,uint256)": "095ea7b3",
        "approveInternal(address,address,uint256)": "56189cb4",
        "authorizeOperator(address)": "959b8c3f",
        "balanceOf(address)": "70a08231",
        "burn(uint256,bytes)": "fe9d9303",
        "decimals()": "313ce567",
        "defaultOperators()": "06e48538",
        "granularity()": "556f0dc7",
        "isOperatorFor(address,address)": "d95b6371",
        "mintInternal(address,uint256,bytes,bytes)": "b1f0b5be",
        "mintInternalExtended(address,uint256,bytes,bytes,bool)": "cfbfab0b",
        "name()": "06fdde03",
        "operatorBurn(address,uint256,bytes,bytes)": "fc673c4f",
        "operatorSend(address,address,uint256,bytes,bytes)": "62ad1b83",
        "revokeOperator(address)": "fad8b32a",
        "send(address,uint256,bytes)": "9bd9bbc6",
        "symbol()": "95d89b41",
        "totalSupply()": "18160ddd",
        "transfer(address,uint256)": "a9059cbb",
        "transferFrom(address,address,uint256)": "23b872dd"
    },
    "gasEstimates": {
        "creation": {
            "codeDepositCost": "1358000",
            "executionCost": "infinite",
            "totalCost": "infinite"
        },
        "external": {
            "allowance(address,address)": "infinite",
            "approve(address,uint256)": "24663",
            "approveInternal(address,address,uint256)": "infinite",
            "authorizeOperator(address)": "28511",
            "balanceOf(address)": "2645",
            "burn(uint256,bytes)": "infinite",
            "decimals()": "200",
            "defaultOperators()": "infinite",
            "granularity()": "237",
            "isOperatorFor(address,address)": "infinite",
            "mintInternal(address,uint256,bytes,bytes)": "infinite",
            "mintInternalExtended(address,uint256,bytes,bytes,bool)": "infinite",
            "name()": "infinite",
            "operatorBurn(address,uint256,bytes,bytes)": "infinite",
            "operatorSend(address,address,uint256,bytes,bytes)": "infinite",
            "revokeOperator(address)": "28582",
            "send(address,uint256,bytes)": "infinite",
            "symbol()": "infinite",
            "totalSupply()": "2371",
            "transfer(address,uint256)": "infinite",
            "transferFrom(address,address,uint256)": "infinite"
        },
        "internal": {
            "_beforeTokenTransfer(address,address,address,uint256)": "794"
        }
    }
}