{
    "contractName": "MathMock",
    "abi": [
        {
            "inputs": [
                {
                    "internalType": "uint256",
                    "name": "a",
                    "type": "uint256"
                },
                {
                    "internalType": "uint256",
                    "name": "b",
                    "type": "uint256"
                }
            ],
            "name": "average",
            "outputs": [
                {
                    "internalType": "uint256",
                    "name": "",
                    "type": "uint256"
                }
            ],
            "stateMutability": "pure",
            "type": "function"
        },
        {
            "inputs": [
                {
                    "internalType": "uint256",
                    "name": "a",
                    "type": "uint256"
                },
                {
                    "internalType": "uint256",
                    "name": "b",
                    "type": "uint256"
                }
            ],
            "name": "ceilDiv",
            "outputs": [
                {
                    "internalType": "uint256",
                    "name": "",
                    "type": "uint256"
                }
            ],
            "stateMutability": "pure",
            "type": "function"
        },
        {
            "inputs": [
                {
                    "internalType": "uint256",
                    "name": "a",
                    "type": "uint256"
                },
                {
                    "internalType": "uint256",
                    "name": "b",
                    "type": "uint256"
                }
            ],
            "name": "max",
            "outputs": [
                {
                    "internalType": "uint256",
                    "name": "",
                    "type": "uint256"
                }
            ],
            "stateMutability": "pure",
            "type": "function"
        },
        {
            "inputs": [
                {
                    "internalType": "uint256",
                    "name": "a",
                    "type": "uint256"
                },
                {
                    "internalType": "uint256",
                    "name": "b",
                    "type": "uint256"
                }
            ],
            "name": "min",
            "outputs": [
                {
                    "internalType": "uint256",
                    "name": "",
                    "type": "uint256"
                }
            ],
            "stateMutability": "pure",
            "type": "function"
        }
    ],
    "bytecode": "608060405234801561001057600080fd5b50610215806100206000396000f3fe608060405234801561001057600080fd5b506004361061004c5760003560e01c80632b7423ab146100515780636d5433e6146100765780637ae2b5c7146100895780639cb353271461009c575b600080fd5b61006461005f366004610159565b6100af565b60405190815260200160405180910390f35b610064610084366004610159565b6100c2565b610064610097366004610159565b6100ce565b6100646100aa366004610159565b6100da565b60006100bb83836100e6565b9392505050565b60006100bb8383610101565b60006100bb8383610118565b60006100bb8383610127565b60006100f560028484186101a1565b6100bb9084841661017b565b60008183101561011157816100bb565b5090919050565b600081831061011157816100bb565b600061013382846101b5565b1561013f576001610142565b60005b60ff1661014f83856101a1565b6100bb919061017b565b6000806040838503121561016c57600080fd5b50508035926020909101359150565b6000821982111561019c57634e487b7160e01b600052601160045260246000fd5b500190565b6000826101b0576101b06101c9565b500490565b6000826101c4576101c46101c9565b500690565b634e487b7160e01b600052601260045260246000fdfea2646970667358221220f363ea26cd43c09fde7912367801b7ac030c360bd8d526ab08e32b5b91b6883a64736f6c63430008060033",
    "sourcePath": "/Users/Shared/crypto/nextart/contracts/mocks/MathMock.sol",
    "compiler": {
        "name": "solc",
        "version": "0.8.6+commit.11564f7e"
    },
    "functionHashes": {
        "average(uint256,uint256)": "2b7423ab",
        "ceilDiv(uint256,uint256)": "9cb35327",
        "max(uint256,uint256)": "6d5433e6",
        "min(uint256,uint256)": "7ae2b5c7"
    },
    "gasEstimates": {
        "creation": {
            "codeDepositCost": "106600",
            "executionCost": "153",
            "totalCost": "106753"
        },
        "external": {
            "average(uint256,uint256)": "infinite",
            "ceilDiv(uint256,uint256)": "infinite",
            "max(uint256,uint256)": "376",
            "min(uint256,uint256)": "395"
        }
    }
}