{
    "contractName": "MulticallTest",
    "abi": [
        {
            "inputs": [
                {
                    "internalType": "contract MulticallTokenMock",
                    "name": "multicallToken",
                    "type": "address"
                },
                {
                    "internalType": "address[]",
                    "name": "recipients",
                    "type": "address[]"
                },
                {
                    "internalType": "uint256[]",
                    "name": "amounts",
                    "type": "uint256[]"
                }
            ],
            "name": "testReturnValues",
            "outputs": [],
            "stateMutability": "nonpayable",
            "type": "function"
        }
    ],
    "bytecode": "608060405234801561001057600080fd5b506105ec806100206000396000f3fe608060405234801561001057600080fd5b506004361061002b5760003560e01c8063bc548f7614610030575b600080fd5b61004361003e3660046103eb565b610045565b005b60008367ffffffffffffffff81111561006057610060610588565b60405190808252806020026020018201604052801561009357816020015b606081526020019060019003908161007e5790505b50905060005b8481101561015a578585828181106100b3576100b3610572565b90506020020160208101906100c8919061028c565b8484838181106100da576100da610572565b6040516001600160a01b039094166024850152602002919091013560448301525060640160408051601f198184030181529190526020810180516001600160e01b031663a9059cbb60e01b179052825183908390811061013c5761013c610572565b6020026020010181905250808061015290610549565b915050610099565b50604051631592ca1b60e31b81526000906001600160a01b0388169063ac9650d89061018a90859060040161046e565b600060405180830381600087803b1580156101a457600080fd5b505af11580156101b8573d6000803e3d6000fd5b505050506040513d6000823e601f3d908101601f191682016040526101e091908101906102b0565b905060005b81518110156102365781818151811061020057610200610572565b602002602001015180602001905181019061021b91906103c9565b61022457600080fd5b8061022e81610549565b9150506101e5565b5050505050505050565b60008083601f84011261025257600080fd5b50813567ffffffffffffffff81111561026a57600080fd5b6020830191508360208260051b850101111561028557600080fd5b9250929050565b60006020828403121561029e57600080fd5b81356102a98161059e565b9392505050565b600060208083850312156102c357600080fd5b825167ffffffffffffffff808211156102db57600080fd5b8185019150601f86818401126102f057600080fd5b82518281111561030257610302610588565b8060051b6103118682016104e8565b8281528681019086880183880189018c101561032c57600080fd5b600093505b848410156103ba5780518781111561034857600080fd5b8801603f81018d1361035957600080fd5b8981015160408982111561036f5761036f610588565b610380828a01601f19168d016104e8565b8281528f8284860101111561039457600080fd5b6103a3838e8301848701610519565b865250505060019390930192918801918801610331565b509a9950505050505050505050565b6000602082840312156103db57600080fd5b815180151581146102a957600080fd5b60008060008060006060868803121561040357600080fd5b853561040e8161059e565b9450602086013567ffffffffffffffff8082111561042b57600080fd5b61043789838a01610240565b9096509450604088013591508082111561045057600080fd5b5061045d88828901610240565b969995985093965092949392505050565b6000602080830181845280855180835260408601915060408160051b870101925083870160005b828110156104db57878503603f19018452815180518087526104bc818989018a8501610519565b601f01601f191695909501860194509285019290850190600101610495565b5092979650505050505050565b604051601f8201601f1916810167ffffffffffffffff8111828210171561051157610511610588565b604052919050565b60005b8381101561053457818101518382015260200161051c565b83811115610543576000848401525b50505050565b600060001982141561056b57634e487b7160e01b600052601160045260246000fd5b5060010190565b634e487b7160e01b600052603260045260246000fd5b634e487b7160e01b600052604160045260246000fd5b6001600160a01b03811681146105b357600080fd5b5056fea264697066735822122048edd67d083d2166089ebeeea3eafb74c830513c234f5b2b15a611e4e718cfaf64736f6c63430008060033",
    "sourcePath": "/Users/Shared/crypto/nextart/contracts/mocks/MulticallTest.sol",
    "compiler": {
        "name": "solc",
        "version": "0.8.6+commit.11564f7e"
    },
    "functionHashes": {
        "testReturnValues(address,address[],uint256[])": "bc548f76"
    },
    "gasEstimates": {
        "creation": {
            "codeDepositCost": "303200",
            "executionCost": "343",
            "totalCost": "303543"
        },
        "external": {
            "testReturnValues(address,address[],uint256[])": "infinite"
        }
    }
}