{
    "contractName": "MulticallTokenMock",
    "abi": [
        {
            "inputs": [
                {
                    "internalType": "uint256",
                    "name": "initialBalance",
                    "type": "uint256"
                }
            ],
            "stateMutability": "nonpayable",
            "type": "constructor"
        },
        {
            "anonymous": false,
            "inputs": [
                {
                    "indexed": true,
                    "internalType": "address",
                    "name": "owner",
                    "type": "address"
                },
                {
                    "indexed": true,
                    "internalType": "address",
                    "name": "spender",
                    "type": "address"
                },
                {
                    "indexed": false,
                    "internalType": "uint256",
                    "name": "value",
                    "type": "uint256"
                }
            ],
            "name": "Approval",
            "type": "event"
        },
        {
            "anonymous": false,
            "inputs": [
                {
                    "indexed": true,
                    "internalType": "address",
                    "name": "from",
                    "type": "address"
                },
                {
                    "indexed": true,
                    "internalType": "address",
                    "name": "to",
                    "type": "address"
                },
                {
                    "indexed": false,
                    "internalType": "uint256",
                    "name": "value",
                    "type": "uint256"
                }
            ],
            "name": "Transfer",
            "type": "event"
        },
        {
            "inputs": [
                {
                    "internalType": "address",
                    "name": "owner",
                    "type": "address"
                },
                {
                    "internalType": "address",
                    "name": "spender",
                    "type": "address"
                }
            ],
            "name": "allowance",
            "outputs": [
                {
                    "internalType": "uint256",
                    "name": "",
                    "type": "uint256"
                }
            ],
            "stateMutability": "view",
            "type": "function"
        },
        {
            "inputs": [
                {
                    "internalType": "address",
                    "name": "spender",
                    "type": "address"
                },
                {
                    "internalType": "uint256",
                    "name": "amount",
                    "type": "uint256"
                }
            ],
            "name": "approve",
            "outputs": [
                {
                    "internalType": "bool",
                    "name": "",
                    "type": "bool"
                }
            ],
            "stateMutability": "nonpayable",
            "type": "function"
        },
        {
            "inputs": [
                {
                    "internalType": "address",
                    "name": "owner",
                    "type": "address"
                },
                {
                    "internalType": "address",
                    "name": "spender",
                    "type": "address"
                },
                {
                    "internalType": "uint256",
                    "name": "value",
                    "type": "uint256"
                }
            ],
            "name": "approveInternal",
            "outputs": [],
            "stateMutability": "nonpayable",
            "type": "function"
        },
        {
            "inputs": [
                {
                    "internalType": "address",
                    "name": "account",
                    "type": "address"
                }
            ],
            "name": "balanceOf",
            "outputs": [
                {
                    "internalType": "uint256",
                    "name": "",
                    "type": "uint256"
                }
            ],
            "stateMutability": "view",
            "type": "function"
        },
        {
            "inputs": [
                {
                    "internalType": "address",
                    "name": "account",
                    "type": "address"
                },
                {
                    "internalType": "uint256",
                    "name": "amount",
                    "type": "uint256"
                }
            ],
            "name": "burn",
            "outputs": [],
            "stateMutability": "nonpayable",
            "type": "function"
        },
        {
            "inputs": [],
            "name": "decimals",
            "outputs": [
                {
                    "internalType": "uint8",
                    "name": "",
                    "type": "uint8"
                }
            ],
            "stateMutability": "view",
            "type": "function"
        },
        {
            "inputs": [
                {
                    "internalType": "address",
                    "name": "spender",
                    "type": "address"
                },
                {
                    "internalType": "uint256",
                    "name": "subtractedValue",
                    "type": "uint256"
                }
            ],
            "name": "decreaseAllowance",
            "outputs": [
                {
                    "internalType": "bool",
                    "name": "",
                    "type": "bool"
                }
            ],
            "stateMutability": "nonpayable",
            "type": "function"
        },
        {
            "inputs": [
                {
                    "internalType": "address",
                    "name": "spender",
                    "type": "address"
                },
                {
                    "internalType": "uint256",
                    "name": "addedValue",
                    "type": "uint256"
                }
            ],
            "name": "increaseAllowance",
            "outputs": [
                {
                    "internalType": "bool",
                    "name": "",
                    "type": "bool"
                }
            ],
            "stateMutability": "nonpayable",
            "type": "function"
        },
        {
            "inputs": [
                {
                    "internalType": "address",
                    "name": "account",
                    "type": "address"
                },
                {
                    "internalType": "uint256",
                    "name": "amount",
                    "type": "uint256"
                }
            ],
            "name": "mint",
            "outputs": [],
            "stateMutability": "nonpayable",
            "type": "function"
        },
        {
            "inputs": [
                {
                    "internalType": "bytes[]",
                    "name": "data",
                    "type": "bytes[]"
                }
            ],
            "name": "multicall",
            "outputs": [
                {
                    "internalType": "bytes[]",
                    "name": "results",
                    "type": "bytes[]"
                }
            ],
            "stateMutability": "nonpayable",
            "type": "function"
        },
        {
            "inputs": [],
            "name": "name",
            "outputs": [
                {
                    "internalType": "string",
                    "name": "",
                    "type": "string"
                }
            ],
            "stateMutability": "view",
            "type": "function"
        },
        {
            "inputs": [],
            "name": "symbol",
            "outputs": [
                {
                    "internalType": "string",
                    "name": "",
                    "type": "string"
                }
            ],
            "stateMutability": "view",
            "type": "function"
        },
        {
            "inputs": [],
            "name": "totalSupply",
            "outputs": [
                {
                    "internalType": "uint256",
                    "name": "",
                    "type": "uint256"
                }
            ],
            "stateMutability": "view",
            "type": "function"
        },
        {
            "inputs": [
                {
                    "internalType": "address",
                    "name": "recipient",
                    "type": "address"
                },
                {
                    "internalType": "uint256",
                    "name": "amount",
                    "type": "uint256"
                }
            ],
            "name": "transfer",
            "outputs": [
                {
                    "internalType": "bool",
                    "name": "",
                    "type": "bool"
                }
            ],
            "stateMutability": "nonpayable",
            "type": "function"
        },
        {
            "inputs": [
                {
                    "internalType": "address",
                    "name": "sender",
                    "type": "address"
                },
                {
                    "internalType": "address",
                    "name": "recipient",
                    "type": "address"
                },
                {
                    "internalType": "uint256",
                    "name": "amount",
                    "type": "uint256"
                }
            ],
            "name": "transferFrom",
            "outputs": [
                {
                    "internalType": "bool",
                    "name": "",
                    "type": "bool"
                }
            ],
            "stateMutability": "nonpayable",
            "type": "function"
        },
        {
            "inputs": [
                {
                    "internalType": "address",
                    "name": "from",
                    "type": "address"
                },
                {
                    "internalType": "address",
                    "name": "to",
                    "type": "address"
                },
                {
                    "internalType": "uint256",
                    "name": "value",
                    "type": "uint256"
                }
            ],
            "name": "transferInternal",
            "outputs": [],
            "stateMutability": "nonpayable",
            "type": "function"
        }
    ],
    "bytecode": "60806040523480156200001157600080fd5b50604051620012d0380380620012d0833981016040819052620000349162000257565b6040518060400160405280600e81526020016d26bab63a34b1b0b6362a37b5b2b760911b815250604051806040016040528060038152602001621090d560ea1b81525033838383816003908051906020019062000093929190620001b1565b508051620000a9906004906020840190620001b1565b505050620000be8282620000c960201b60201c565b5050505050620002d5565b6001600160a01b038216620001245760405162461bcd60e51b815260206004820152601f60248201527f45524332303a206d696e7420746f20746865207a65726f206164647265737300604482015260640160405180910390fd5b806002600082825462000138919062000271565b90915550506001600160a01b038216600090815260208190526040812080548392906200016790849062000271565b90915550506040518181526001600160a01b038316906000907fddf252ad1be2c89b69c2b068fc378daa952ba7f163c4a11628f55a4df523b3ef9060200160405180910390a35050565b828054620001bf9062000298565b90600052602060002090601f016020900481019282620001e357600085556200022e565b82601f10620001fe57805160ff19168380011785556200022e565b828001600101855582156200022e579182015b828111156200022e57825182559160200191906001019062000211565b506200023c92915062000240565b5090565b5b808211156200023c576000815560010162000241565b6000602082840312156200026a57600080fd5b5051919050565b600082198211156200029357634e487b7160e01b600052601160045260246000fd5b500190565b600181811c90821680620002ad57607f821691505b60208210811415620002cf57634e487b7160e01b600052602260045260246000fd5b50919050565b610feb80620002e56000396000f3fe608060405234801561001057600080fd5b50600436106101005760003560e01c806356189cb411610097578063a457c2d711610066578063a457c2d71461020c578063a9059cbb1461021f578063ac9650d814610232578063dd62ed3e1461025257600080fd5b806356189cb4146101b557806370a08231146101c857806395d89b41146101f15780639dc29fac146101f957600080fd5b806323b872dd116100d357806323b872dd1461016d578063313ce56714610180578063395093511461018f57806340c10f19146101a257600080fd5b806306fdde0314610105578063095ea7b31461012357806318160ddd14610146578063222f5be014610158575b600080fd5b61010d61028b565b60405161011a9190610e3a565b60405180910390f35b610136610131366004610cf1565b61031d565b604051901515815260200161011a565b6002545b60405190815260200161011a565b61016b610166366004610cb5565b610333565b005b61013661017b366004610cb5565b610343565b6040516012815260200161011a565b61013661019d366004610cf1565b6103f4565b61016b6101b0366004610cf1565b610430565b61016b6101c3366004610cb5565b61043e565b61014a6101d6366004610c67565b6001600160a01b031660009081526020819052604090205490565b61010d610449565b61016b610207366004610cf1565b610458565b61013661021a366004610cf1565b610462565b61013661022d366004610cf1565b6104fb565b610245610240366004610d1b565b610508565b60405161011a9190610dd8565b61014a610260366004610c82565b6001600160a01b03918216600090815260016020908152604080832093909416825291909152205490565b60606003805461029a90610ef6565b80601f01602080910402602001604051908101604052809291908181526020018280546102c690610ef6565b80156103135780601f106102e857610100808354040283529160200191610313565b820191906000526020600020905b8154815290600101906020018083116102f657829003601f168201915b5050505050905090565b600061032a3384846105fd565b50600192915050565b61033e838383610721565b505050565b6000610350848484610721565b6001600160a01b0384166000908152600160209081526040808320338452909152902054828110156103da5760405162461bcd60e51b815260206004820152602860248201527f45524332303a207472616e7366657220616d6f756e74206578636565647320616044820152676c6c6f77616e636560c01b60648201526084015b60405180910390fd5b6103e785338584036105fd565b60019150505b9392505050565b3360008181526001602090815260408083206001600160a01b0387168452909152812054909161032a91859061042b908690610e9b565b6105fd565b61043a82826108f1565b5050565b61033e8383836105fd565b60606004805461029a90610ef6565b61043a82826109d0565b3360009081526001602090815260408083206001600160a01b0386168452909152812054828110156104e45760405162461bcd60e51b815260206004820152602560248201527f45524332303a2064656372656173656420616c6c6f77616e63652062656c6f77604482015264207a65726f60d81b60648201526084016103d1565b6104f133858584036105fd565b5060019392505050565b600061032a338484610721565b60608167ffffffffffffffff81111561052357610523610f78565b60405190808252806020026020018201604052801561055657816020015b60608152602001906001900390816105415790505b50905060005b828110156105f6576105c63085858481811061057a5761057a610f62565b905060200281019061058c9190610e4d565b8080601f016020809104026020016040519081016040528093929190818152602001838380828437600092019190915250610b1e92505050565b8282815181106105d8576105d8610f62565b602002602001018190525080806105ee90610f31565b91505061055c565b5092915050565b6001600160a01b03831661065f5760405162461bcd60e51b8152602060048201526024808201527f45524332303a20617070726f76652066726f6d20746865207a65726f206164646044820152637265737360e01b60648201526084016103d1565b6001600160a01b0382166106c05760405162461bcd60e51b815260206004820152602260248201527f45524332303a20617070726f766520746f20746865207a65726f206164647265604482015261737360f01b60648201526084016103d1565b6001600160a01b0383811660008181526001602090815260408083209487168084529482529182902085905590518481527f8c5be1e5ebec7d5bd14f71427d1e84f3dd0314c0f7b2291e5b200ac8c7c3b925910160405180910390a3505050565b6001600160a01b0383166107855760405162461bcd60e51b815260206004820152602560248201527f45524332303a207472616e736665722066726f6d20746865207a65726f206164604482015264647265737360d81b60648201526084016103d1565b6001600160a01b0382166107e75760405162461bcd60e51b815260206004820152602360248201527f45524332303a207472616e7366657220746f20746865207a65726f206164647260448201526265737360e81b60648201526084016103d1565b6001600160a01b0383166000908152602081905260409020548181101561085f5760405162461bcd60e51b815260206004820152602660248201527f45524332303a207472616e7366657220616d6f756e7420657863656564732062604482015265616c616e636560d01b60648201526084016103d1565b6001600160a01b03808516600090815260208190526040808220858503905591851681529081208054849290610896908490610e9b565b92505081905550826001600160a01b0316846001600160a01b03167fddf252ad1be2c89b69c2b068fc378daa952ba7f163c4a11628f55a4df523b3ef846040516108e291815260200190565b60405180910390a35b50505050565b6001600160a01b0382166109475760405162461bcd60e51b815260206004820152601f60248201527f45524332303a206d696e7420746f20746865207a65726f20616464726573730060448201526064016103d1565b80600260008282546109599190610e9b565b90915550506001600160a01b03821660009081526020819052604081208054839290610986908490610e9b565b90915550506040518181526001600160a01b038316906000907fddf252ad1be2c89b69c2b068fc378daa952ba7f163c4a11628f55a4df523b3ef9060200160405180910390a35050565b6001600160a01b038216610a305760405162461bcd60e51b815260206004820152602160248201527f45524332303a206275726e2066726f6d20746865207a65726f206164647265736044820152607360f81b60648201526084016103d1565b6001600160a01b03821660009081526020819052604090205481811015610aa45760405162461bcd60e51b815260206004820152602260248201527f45524332303a206275726e20616d6f756e7420657863656564732062616c616e604482015261636560f01b60648201526084016103d1565b6001600160a01b0383166000908152602081905260408120838303905560028054849290610ad3908490610eb3565b90915550506040518281526000906001600160a01b038516907fddf252ad1be2c89b69c2b068fc378daa952ba7f163c4a11628f55a4df523b3ef9060200160405180910390a3505050565b60606103ed8383604051806060016040528060278152602001610f8f602791396060833b610b9d5760405162461bcd60e51b815260206004820152602660248201527f416464726573733a2064656c65676174652063616c6c20746f206e6f6e2d636f6044820152651b9d1c9858dd60d21b60648201526084016103d1565b600080856001600160a01b031685604051610bb89190610dbc565b600060405180830381855af49150503d8060008114610bf3576040519150601f19603f3d011682016040523d82523d6000602084013e610bf8565b606091505b5091509150610c08828286610c12565b9695505050505050565b60608315610c215750816103ed565b825115610c315782518084602001fd5b8160405162461bcd60e51b81526004016103d19190610e3a565b80356001600160a01b0381168114610c6257600080fd5b919050565b600060208284031215610c7957600080fd5b6103ed82610c4b565b60008060408385031215610c9557600080fd5b610c9e83610c4b565b9150610cac60208401610c4b565b90509250929050565b600080600060608486031215610cca57600080fd5b610cd384610c4b565b9250610ce160208501610c4b565b9150604084013590509250925092565b60008060408385031215610d0457600080fd5b610d0d83610c4b565b946020939093013593505050565b60008060208385031215610d2e57600080fd5b823567ffffffffffffffff80821115610d4657600080fd5b818501915085601f830112610d5a57600080fd5b813581811115610d6957600080fd5b8660208260051b8501011115610d7e57600080fd5b60209290920196919550909350505050565b60008151808452610da8816020860160208601610eca565b601f01601f19169290920160200192915050565b60008251610dce818460208701610eca565b9190910192915050565b6000602080830181845280855180835260408601915060408160051b870101925083870160005b82811015610e2d57603f19888603018452610e1b858351610d90565b94509285019290850190600101610dff565b5092979650505050505050565b6020815260006103ed6020830184610d90565b6000808335601e19843603018112610e6457600080fd5b83018035915067ffffffffffffffff821115610e7f57600080fd5b602001915036819003821315610e9457600080fd5b9250929050565b60008219821115610eae57610eae610f4c565b500190565b600082821015610ec557610ec5610f4c565b500390565b60005b83811015610ee5578181015183820152602001610ecd565b838111156108eb5750506000910152565b600181811c90821680610f0a57607f821691505b60208210811415610f2b57634e487b7160e01b600052602260045260246000fd5b50919050565b6000600019821415610f4557610f45610f4c565b5060010190565b634e487b7160e01b600052601160045260246000fd5b634e487b7160e01b600052603260045260246000fd5b634e487b7160e01b600052604160045260246000fdfe416464726573733a206c6f772d6c6576656c2064656c65676174652063616c6c206661696c6564a264697066735822122040ed7a789f8c1d0e52b32d5cf9dcb2071480234911165b54d5e94971b70c8dfa64736f6c63430008060033",
    "sourcePath": "/Users/Shared/crypto/nextart/contracts/mocks/MulticallTokenMock.sol",
    "compiler": {
        "name": "solc",
        "version": "0.8.6+commit.11564f7e"
    },
    "functionHashes": {
        "allowance(address,address)": "dd62ed3e",
        "approve(address,uint256)": "095ea7b3",
        "approveInternal(address,address,uint256)": "56189cb4",
        "balanceOf(address)": "70a08231",
        "burn(address,uint256)": "9dc29fac",
        "decimals()": "313ce567",
        "decreaseAllowance(address,uint256)": "a457c2d7",
        "increaseAllowance(address,uint256)": "39509351",
        "mint(address,uint256)": "40c10f19",
        "multicall(bytes[])": "ac9650d8",
        "name()": "06fdde03",
        "symbol()": "95d89b41",
        "totalSupply()": "18160ddd",
        "transfer(address,uint256)": "a9059cbb",
        "transferFrom(address,address,uint256)": "23b872dd",
        "transferInternal(address,address,uint256)": "222f5be0"
    },
    "gasEstimates": {
        "creation": {
            "codeDepositCost": "815000",
            "executionCost": "infinite",
            "totalCost": "infinite"
        },
        "external": {
            "allowance(address,address)": "infinite",
            "approve(address,uint256)": "24642",
            "approveInternal(address,address,uint256)": "infinite",
            "balanceOf(address)": "2585",
            "burn(address,uint256)": "51043",
            "decimals()": "222",
            "decreaseAllowance(address,uint256)": "26910",
            "increaseAllowance(address,uint256)": "27001",
            "mint(address,uint256)": "infinite",
            "multicall(bytes[])": "infinite",
            "name()": "infinite",
            "symbol()": "infinite",
            "totalSupply()": "2349",
            "transfer(address,uint256)": "51210",
            "transferFrom(address,address,uint256)": "infinite",
            "transferInternal(address,address,uint256)": "infinite"
        }
    }
}