{
    "contractName": "SafeERC20Wrapper",
    "abi": [
        {
            "inputs": [
                {
                    "internalType": "contract IERC20",
                    "name": "token",
                    "type": "address"
                }
            ],
            "stateMutability": "nonpayable",
            "type": "constructor"
        },
        {
            "inputs": [],
            "name": "allowance",
            "outputs": [
                {
                    "internalType": "uint256",
                    "name": "",
                    "type": "uint256"
                }
            ],
            "stateMutability": "view",
            "type": "function"
        },
        {
            "inputs": [
                {
                    "internalType": "uint256",
                    "name": "amount",
                    "type": "uint256"
                }
            ],
            "name": "approve",
            "outputs": [],
            "stateMutability": "nonpayable",
            "type": "function"
        },
        {
            "inputs": [
                {
                    "internalType": "uint256",
                    "name": "amount",
                    "type": "uint256"
                }
            ],
            "name": "decreaseAllowance",
            "outputs": [],
            "stateMutability": "nonpayable",
            "type": "function"
        },
        {
            "inputs": [
                {
                    "internalType": "uint256",
                    "name": "amount",
                    "type": "uint256"
                }
            ],
            "name": "increaseAllowance",
            "outputs": [],
            "stateMutability": "nonpayable",
            "type": "function"
        },
        {
            "inputs": [
                {
                    "internalType": "uint256",
                    "name": "allowance_",
                    "type": "uint256"
                }
            ],
            "name": "setAllowance",
            "outputs": [],
            "stateMutability": "nonpayable",
            "type": "function"
        },
        {
            "inputs": [],
            "name": "transfer",
            "outputs": [],
            "stateMutability": "nonpayable",
            "type": "function"
        },
        {
            "inputs": [],
            "name": "transferFrom",
            "outputs": [],
            "stateMutability": "nonpayable",
            "type": "function"
        }
    ],
    "bytecode": "608060405234801561001057600080fd5b50604051610a21380380610a2183398101604081905261002f91610054565b600080546001600160a01b0319166001600160a01b0392909216919091179055610084565b60006020828403121561006657600080fd5b81516001600160a01b038116811461007d57600080fd5b9392505050565b61098e806100936000396000f3fe608060405234801561001057600080fd5b506004361061007d5760003560e01c8063811c34d31161005b578063811c34d3146100bd5780638a4068dd146100c5578063b759f954146100cd578063de242ff4146100e057600080fd5b806310bad4cf1461008257806311e330b2146100975780633ba93f26146100aa575b600080fd5b610095610090366004610885565b6100fa565b005b6100956100a5366004610885565b610117565b6100956100b8366004610885565b610131565b610095610192565b6100956101af565b6100956100db366004610885565b6101c9565b6100e86101e3565b60405190815260200160405180910390f35b60008054610114916001600160a01b03909116908361026c565b50565b60008054610114916001600160a01b0390911690836103bf565b600054604051631dd49f9360e11b8152600481018390526001600160a01b0390911690633ba93f2690602401600060405180830381600087803b15801561017757600080fd5b505af115801561018b573d6000803e3d6000fd5b5050505050565b600080546101ad916001600160a01b03909116908080610486565b565b600080546101ad916001600160a01b0390911690806104be565b60008054610114916001600160a01b0390911690836104f3565b60008054604051636eb1769f60e11b815260048101839052602481018390526001600160a01b039091169063dd62ed3e9060440160206040518083038186803b15801561022f57600080fd5b505afa158015610243573d6000803e3d6000fd5b505050506040513d601f19601f82011682018060405250810190610267919061089e565b905090565b604051636eb1769f60e11b81523060048201526001600160a01b0383811660248301526000919085169063dd62ed3e9060440160206040518083038186803b1580156102b757600080fd5b505afa1580156102cb573d6000803e3d6000fd5b505050506040513d601f19601f820116820180604052508101906102ef919061089e565b9050818110156103585760405162461bcd60e51b815260206004820152602960248201527f5361666545524332303a2064656372656173656420616c6c6f77616e63652062604482015268656c6f77207a65726f60b81b60648201526084015b60405180910390fd5b6040516001600160a01b0384166024820152828203604482018190529061018b90869063095ea7b360e01b906064015b60408051601f198184030181529190526020810180516001600160e01b03166001600160e01b031990931692909217909152610617565b604051636eb1769f60e11b81523060048201526001600160a01b038381166024830152600091839186169063dd62ed3e9060440160206040518083038186803b15801561040b57600080fd5b505afa15801561041f573d6000803e3d6000fd5b505050506040513d601f19601f82011682018060405250810190610443919061089e565b61044d9190610906565b6040516001600160a01b03851660248201526044810182905290915061048090859063095ea7b360e01b90606401610388565b50505050565b6040516001600160a01b03808516602483015283166044820152606481018290526104809085906323b872dd60e01b90608401610388565b6040516001600160a01b0383166024820152604481018290526104ee90849063a9059cbb60e01b90606401610388565b505050565b80158061057c5750604051636eb1769f60e11b81523060048201526001600160a01b03838116602483015284169063dd62ed3e9060440160206040518083038186803b15801561054257600080fd5b505afa158015610556573d6000803e3d6000fd5b505050506040513d601f19601f8201168201806040525081019061057a919061089e565b155b6105e75760405162461bcd60e51b815260206004820152603660248201527f5361666545524332303a20617070726f76652066726f6d206e6f6e2d7a65726f60448201527520746f206e6f6e2d7a65726f20616c6c6f77616e636560501b606482015260840161034f565b6040516001600160a01b0383166024820152604481018290526104ee90849063095ea7b360e01b90606401610388565b600061066c826040518060400160405280602081526020017f5361666545524332303a206c6f772d6c6576656c2063616c6c206661696c6564815250856001600160a01b03166106e99092919063ffffffff16565b8051909150156104ee578080602001905181019061068a9190610863565b6104ee5760405162461bcd60e51b815260206004820152602a60248201527f5361666545524332303a204552433230206f7065726174696f6e20646964206e6044820152691bdd081cdd58d8d9595960b21b606482015260840161034f565b60606106f88484600085610702565b90505b9392505050565b6060824710156107635760405162461bcd60e51b815260206004820152602660248201527f416464726573733a20696e73756666696369656e742062616c616e636520666f6044820152651c8818d85b1b60d21b606482015260840161034f565b843b6107b15760405162461bcd60e51b815260206004820152601d60248201527f416464726573733a2063616c6c20746f206e6f6e2d636f6e7472616374000000604482015260640161034f565b600080866001600160a01b031685876040516107cd91906108b7565b60006040518083038185875af1925050503d806000811461080a576040519150601f19603f3d011682016040523d82523d6000602084013e61080f565b606091505b509150915061081f82828661082a565b979650505050505050565b606083156108395750816106fb565b8251156108495782518084602001fd5b8160405162461bcd60e51b815260040161034f91906108d3565b60006020828403121561087557600080fd5b815180151581146106fb57600080fd5b60006020828403121561089757600080fd5b5035919050565b6000602082840312156108b057600080fd5b5051919050565b600082516108c981846020870161092c565b9190910192915050565b60208152600082518060208401526108f281604085016020870161092c565b601f01601f19169190910160400192915050565b6000821982111561092757634e487b7160e01b600052601160045260246000fd5b500190565b60005b8381101561094757818101518382015260200161092f565b83811115610480575050600091015256fea2646970667358221220d62efb3e42d16e9d0330f4ccfb65eb90f614ae36c815010addaf55657da39af664736f6c63430008060033",
    "sourcePath": "/Users/Shared/crypto/nextart/contracts/mocks/SafeERC20Helper.sol",
    "compiler": {
        "name": "solc",
        "version": "0.8.6+commit.11564f7e"
    },
    "functionHashes": {
        "allowance()": "de242ff4",
        "approve(uint256)": "b759f954",
        "decreaseAllowance(uint256)": "10bad4cf",
        "increaseAllowance(uint256)": "11e330b2",
        "setAllowance(uint256)": "3ba93f26",
        "transfer()": "8a4068dd",
        "transferFrom()": "811c34d3"
    },
    "gasEstimates": {
        "creation": {
            "codeDepositCost": "489200",
            "executionCost": "infinite",
            "totalCost": "infinite"
        },
        "external": {
            "allowance()": "infinite",
            "approve(uint256)": "infinite",
            "decreaseAllowance(uint256)": "infinite",
            "increaseAllowance(uint256)": "infinite",
            "setAllowance(uint256)": "infinite",
            "transfer()": "infinite",
            "transferFrom()": "infinite"
        }
    }
}