{
    "contractName": "SampleFather",
    "abi": [
        {
            "inputs": [],
            "name": "father",
            "outputs": [
                {
                    "internalType": "uint256",
                    "name": "",
                    "type": "uint256"
                }
            ],
            "stateMutability": "view",
            "type": "function"
        },
        {
            "inputs": [],
            "name": "gramps",
            "outputs": [
                {
                    "internalType": "string",
                    "name": "",
                    "type": "string"
                }
            ],
            "stateMutability": "view",
            "type": "function"
        },
        {
            "inputs": [],
            "name": "initialize",
            "outputs": [],
            "stateMutability": "nonpayable",
            "type": "function"
        },
        {
            "inputs": [
                {
                    "internalType": "string",
                    "name": "_gramps",
                    "type": "string"
                },
                {
                    "internalType": "uint256",
                    "name": "_father",
                    "type": "uint256"
                }
            ],
            "name": "initialize",
            "outputs": [],
            "stateMutability": "nonpayable",
            "type": "function"
        },
        {
            "inputs": [
                {
                    "internalType": "string",
                    "name": "value",
                    "type": "string"
                }
            ],
            "name": "initialize",
            "outputs": [],
            "stateMutability": "nonpayable",
            "type": "function"
        },
        {
            "inputs": [],
            "name": "isHuman",
            "outputs": [
                {
                    "internalType": "bool",
                    "name": "",
                    "type": "bool"
                }
            ],
            "stateMutability": "view",
            "type": "function"
        }
    ],
    "bytecode": "608060405234801561001057600080fd5b506105d6806100206000396000f3fe608060405234801561001057600080fd5b50600436106100625760003560e01c80631c8aca3b146100675780634a6c9db6146100835780638129fc1c146100a65780638beaf7d7146100b0578063f62d1888146100c3578063fa39851f146100d6575b600080fd5b61007060025481565b6040519081526020015b60405180910390f35b6000546100969062010000900460ff1681565b604051901515815260200161007a565b6100ae6100eb565b005b6100ae6100be366004610467565b610171565b6100ae6100d136600461042a565b6101ed565b6100de610276565b60405161007a91906104ac565b600054610100900460ff1680610104575060005460ff16155b6101295760405162461bcd60e51b815260040161012090610501565b60405180910390fd5b600054610100900460ff1615801561014b576000805461ffff19166101011790555b6000805462ff0000191662010000179055801561016e576000805461ff00191690555b50565b600054610100900460ff168061018a575060005460ff16155b6101a65760405162461bcd60e51b815260040161012090610501565b600054610100900460ff161580156101c8576000805461ffff19166101011790555b6101d1836101ed565b600282905580156101e8576000805461ff00191690555b505050565b600054610100900460ff1680610206575060005460ff16155b6102225760405162461bcd60e51b815260040161012090610501565b600054610100900460ff16158015610244576000805461ffff19166101011790555b61024c6100eb565b815161025f906001906020850190610304565b508015610272576000805461ff00191690555b5050565b600180546102839061054f565b80601f01602080910402602001604051908101604052809291908181526020018280546102af9061054f565b80156102fc5780601f106102d1576101008083540402835291602001916102fc565b820191906000526020600020905b8154815290600101906020018083116102df57829003601f168201915b505050505081565b8280546103109061054f565b90600052602060002090601f0160209004810192826103325760008555610378565b82601f1061034b57805160ff1916838001178555610378565b82800160010185558215610378579182015b8281111561037857825182559160200191906001019061035d565b50610384929150610388565b5090565b5b808211156103845760008155600101610389565b600082601f8301126103ae57600080fd5b813567ffffffffffffffff808211156103c9576103c961058a565b604051601f8301601f19908116603f011681019082821181831017156103f1576103f161058a565b8160405283815286602085880101111561040a57600080fd5b836020870160208301376000602085830101528094505050505092915050565b60006020828403121561043c57600080fd5b813567ffffffffffffffff81111561045357600080fd5b61045f8482850161039d565b949350505050565b6000806040838503121561047a57600080fd5b823567ffffffffffffffff81111561049157600080fd5b61049d8582860161039d565b95602094909401359450505050565b600060208083528351808285015260005b818110156104d9578581018301518582016040015282016104bd565b818111156104eb576000604083870101525b50601f01601f1916929092016040019392505050565b6020808252602e908201527f496e697469616c697a61626c653a20636f6e747261637420697320616c72656160408201526d191e481a5b9a5d1a585b1a5e995960921b606082015260800190565b600181811c9082168061056357607f821691505b6020821081141561058457634e487b7160e01b600052602260045260246000fd5b50919050565b634e487b7160e01b600052604160045260246000fdfea26469706673582212200ed4e941bb2f07fb0e2dd91c65d2dfb9ddd257b002173d21ec078051cd37095f64736f6c63430008060033",
    "sourcePath": "/Users/Shared/crypto/nextart/contracts/mocks/MultipleInheritanceInitializableMocks.sol",
    "compiler": {
        "name": "solc",
        "version": "0.8.6+commit.11564f7e"
    },
    "functionHashes": {
        "father()": "1c8aca3b",
        "gramps()": "fa39851f",
        "initialize()": "8129fc1c",
        "initialize(string)": "f62d1888",
        "initialize(string,uint256)": "8beaf7d7",
        "isHuman()": "4a6c9db6"
    },
    "gasEstimates": {
        "creation": {
            "codeDepositCost": "298800",
            "executionCost": "337",
            "totalCost": "299137"
        },
        "external": {
            "father()": "2262",
            "gramps()": "infinite",
            "initialize()": "79262",
            "initialize(string)": "infinite",
            "initialize(string,uint256)": "infinite",
            "isHuman()": "2321"
        }
    }
}