{
    "contractName": "SignatureCheckerMock",
    "abi": [
        {
            "inputs": [
                {
                    "internalType": "address",
                    "name": "signer",
                    "type": "address"
                },
                {
                    "internalType": "bytes32",
                    "name": "hash",
                    "type": "bytes32"
                },
                {
                    "internalType": "bytes",
                    "name": "signature",
                    "type": "bytes"
                }
            ],
            "name": "isValidSignatureNow",
            "outputs": [
                {
                    "internalType": "bool",
                    "name": "",
                    "type": "bool"
                }
            ],
            "stateMutability": "view",
            "type": "function"
        }
    ],
    "bytecode": "608060405234801561001057600080fd5b5061056f806100206000396000f3fe608060405234801561001057600080fd5b506004361061002b5760003560e01c80636ccea65214610030575b600080fd5b61004361003e3660046103c3565b610057565b604051901515815260200160405180910390f35b600061006d6001600160a01b0385168484610077565b90505b9392505050565b6000833b1561011c57604051630b135d3f60e11b81526001600160a01b03851690631626ba7e906100ae90869086906004016104c6565b60206040518083038186803b1580156100c657600080fd5b505afa9250505080156100f6575060408051601f3d908101601f191682019092526100f39181019061049c565b60015b61010257506000610070565b6001600160e01b031916630b135d3f60e11b149050610070565b836001600160a01b03166101308484610141565b6001600160a01b0316149050610070565b60008151604114156101755760208201516040830151606084015160001a61016b868285856101f0565b93505050506101ea565b81516040141561019d5760208201516040830151610194858383610399565b925050506101ea565b60405162461bcd60e51b815260206004820152601f60248201527f45434453413a20696e76616c6964207369676e6174757265206c656e6774680060448201526064015b60405180910390fd5b92915050565b60007f7fffffffffffffffffffffffffffffff5d576e7357a4501ddfe92f46681b20a082111561026d5760405162461bcd60e51b815260206004820152602260248201527f45434453413a20696e76616c6964207369676e6174757265202773272076616c604482015261756560f01b60648201526084016101e1565b8360ff16601b148061028257508360ff16601c145b6102d95760405162461bcd60e51b815260206004820152602260248201527f45434453413a20696e76616c6964207369676e6174757265202776272076616c604482015261756560f01b60648201526084016101e1565b6040805160008082526020820180845288905260ff871692820192909252606081018590526080810184905260019060a0016020604051602081039080840390855afa15801561032d573d6000803e3d6000fd5b5050604051601f1901519150506001600160a01b0381166103905760405162461bcd60e51b815260206004820152601860248201527f45434453413a20696e76616c6964207369676e6174757265000000000000000060448201526064016101e1565b95945050505050565b60006001600160ff1b03821660ff83901c601b016103b9868287856101f0565b9695505050505050565b6000806000606084860312156103d857600080fd5b83356001600160a01b03811681146103ef57600080fd5b925060208401359150604084013567ffffffffffffffff8082111561041357600080fd5b818601915086601f83011261042757600080fd5b81358181111561043957610439610523565b604051601f8201601f19908116603f0116810190838211818310171561046157610461610523565b8160405282815289602084870101111561047a57600080fd5b8260208601602083013760006020848301015280955050505050509250925092565b6000602082840312156104ae57600080fd5b81516001600160e01b03198116811461007057600080fd5b82815260006020604081840152835180604085015260005b818110156104fa578581018301518582016060015282016104de565b8181111561050c576000606083870101525b50601f01601f191692909201606001949350505050565b634e487b7160e01b600052604160045260246000fdfea26469706673582212201b7c0e520f555a1f08770fc06750e5eb2e4caad54a4bbd420bd8d06d7bbabcac64736f6c63430008060033",
    "sourcePath": "/Users/Shared/crypto/nextart/contracts/mocks/SignatureCheckerMock.sol",
    "compiler": {
        "name": "solc",
        "version": "0.8.6+commit.11564f7e"
    },
    "functionHashes": {
        "isValidSignatureNow(address,bytes32,bytes)": "6ccea652"
    },
    "gasEstimates": {
        "creation": {
            "codeDepositCost": "278200",
            "executionCost": "318",
            "totalCost": "278518"
        },
        "external": {
            "isValidSignatureNow(address,bytes32,bytes)": "infinite"
        }
    }
}