{
  "_format": "hh-sol-artifact-1",
  "contractName": "AccessControlEnumerableMock",
  "sourceName": "contracts/mocks/AccessControlEnumerableMock.sol",
  "abi": [
    {
      "inputs": [],
      "stateMutability": "nonpayable",
      "type": "constructor"
    },
    {
      "anonymous": false,
      "inputs": [
        {
          "indexed": true,
          "internalType": "bytes32",
          "name": "role",
          "type": "bytes32"
        },
        {
          "indexed": true,
          "internalType": "bytes32",
          "name": "previousAdminRole",
          "type": "bytes32"
        },
        {
          "indexed": true,
          "internalType": "bytes32",
          "name": "newAdminRole",
          "type": "bytes32"
        }
      ],
      "name": "RoleAdminChanged",
      "type": "event"
    },
    {
      "anonymous": false,
      "inputs": [
        {
          "indexed": true,
          "internalType": "bytes32",
          "name": "role",
          "type": "bytes32"
        },
        {
          "indexed": true,
          "internalType": "address",
          "name": "account",
          "type": "address"
        },
        {
          "indexed": true,
          "internalType": "address",
          "name": "sender",
          "type": "address"
        }
      ],
      "name": "RoleGranted",
      "type": "event"
    },
    {
      "anonymous": false,
      "inputs": [
        {
          "indexed": true,
          "internalType": "bytes32",
          "name": "role",
          "type": "bytes32"
        },
        {
          "indexed": true,
          "internalType": "address",
          "name": "account",
          "type": "address"
        },
        {
          "indexed": true,
          "internalType": "address",
          "name": "sender",
          "type": "address"
        }
      ],
      "name": "RoleRevoked",
      "type": "event"
    },
    {
      "inputs": [],
      "name": "DEFAULT_ADMIN_ROLE",
      "outputs": [
        {
          "internalType": "bytes32",
          "name": "",
          "type": "bytes32"
        }
      ],
      "stateMutability": "view",
      "type": "function"
    },
    {
      "inputs": [
        {
          "internalType": "bytes32",
          "name": "role",
          "type": "bytes32"
        }
      ],
      "name": "getRoleAdmin",
      "outputs": [
        {
          "internalType": "bytes32",
          "name": "",
          "type": "bytes32"
        }
      ],
      "stateMutability": "view",
      "type": "function"
    },
    {
      "inputs": [
        {
          "internalType": "bytes32",
          "name": "role",
          "type": "bytes32"
        },
        {
          "internalType": "uint256",
          "name": "index",
          "type": "uint256"
        }
      ],
      "name": "getRoleMember",
      "outputs": [
        {
          "internalType": "address",
          "name": "",
          "type": "address"
        }
      ],
      "stateMutability": "view",
      "type": "function"
    },
    {
      "inputs": [
        {
          "internalType": "bytes32",
          "name": "role",
          "type": "bytes32"
        }
      ],
      "name": "getRoleMemberCount",
      "outputs": [
        {
          "internalType": "uint256",
          "name": "",
          "type": "uint256"
        }
      ],
      "stateMutability": "view",
      "type": "function"
    },
    {
      "inputs": [
        {
          "internalType": "bytes32",
          "name": "role",
          "type": "bytes32"
        },
        {
          "internalType": "address",
          "name": "account",
          "type": "address"
        }
      ],
      "name": "grantRole",
      "outputs": [],
      "stateMutability": "nonpayable",
      "type": "function"
    },
    {
      "inputs": [
        {
          "internalType": "bytes32",
          "name": "role",
          "type": "bytes32"
        },
        {
          "internalType": "address",
          "name": "account",
          "type": "address"
        }
      ],
      "name": "hasRole",
      "outputs": [
        {
          "internalType": "bool",
          "name": "",
          "type": "bool"
        }
      ],
      "stateMutability": "view",
      "type": "function"
    },
    {
      "inputs": [
        {
          "internalType": "bytes32",
          "name": "role",
          "type": "bytes32"
        },
        {
          "internalType": "address",
          "name": "account",
          "type": "address"
        }
      ],
      "name": "renounceRole",
      "outputs": [],
      "stateMutability": "nonpayable",
      "type": "function"
    },
    {
      "inputs": [
        {
          "internalType": "bytes32",
          "name": "role",
          "type": "bytes32"
        },
        {
          "internalType": "address",
          "name": "account",
          "type": "address"
        }
      ],
      "name": "revokeRole",
      "outputs": [],
      "stateMutability": "nonpayable",
      "type": "function"
    },
    {
      "inputs": [
        {
          "internalType": "bytes32",
          "name": "roleId",
          "type": "bytes32"
        }
      ],
      "name": "senderProtected",
      "outputs": [],
      "stateMutability": "nonpayable",
      "type": "function"
    },
    {
      "inputs": [
        {
          "internalType": "bytes32",
          "name": "roleId",
          "type": "bytes32"
        },
        {
          "internalType": "bytes32",
          "name": "adminRoleId",
          "type": "bytes32"
        }
      ],
      "name": "setRoleAdmin",
      "outputs": [],
      "stateMutability": "nonpayable",
      "type": "function"
    },
    {
      "inputs": [
        {
          "internalType": "bytes4",
          "name": "interfaceId",
          "type": "bytes4"
        }
      ],
      "name": "supportsInterface",
      "outputs": [
        {
          "internalType": "bool",
          "name": "",
          "type": "bool"
        }
      ],
      "stateMutability": "view",
      "type": "function"
    }
  ],
  "bytecode": "0x608060405234801561001057600080fd5b5061001c600033610021565b610177565b610035828261005e60201b6102b81760201c565b60008281526001602090815260409091206100599183906102c261006c821b17901c565b505050565b610068828261008a565b5050565b6000610081836001600160a01b038416610128565b90505b92915050565b6000828152602081815260408083206001600160a01b038516845290915290205460ff16610068576000828152602081815260408083206001600160a01b03851684529091529020805460ff191660011790556100e43390565b6001600160a01b0316816001600160a01b0316837f2f8788117e7eff1d82e926ec794901d17c78024a50270940304540a733656f0d60405160405180910390a45050565b600081815260018301602052604081205461016f57508154600181810184556000848152602080822090930184905584548482528286019093526040902091909155610084565b506000610084565b610b44806101866000396000f3fe608060405234801561001057600080fd5b50600436106100a95760003560e01c80634b9304a4116100715780634b9304a4146101425780639010d07c1461015557806391d1485414610180578063a217fddf14610193578063ca15c8731461019b578063d547741f146101ae576100a9565b806301ffc9a7146100ae5780631e4e0091146100d6578063248a9ca3146100eb5780632f2ff15d1461011c57806336568abe1461012f575b600080fd5b6100c16100bc366004610993565b6101c1565b60405190151581526020015b60405180910390f35b6100e96100e4366004610972565b6101ec565b005b61010e6100f9366004610920565b60009081526020819052604090206001015490565b6040519081526020016100cd565b6100e961012a366004610938565b6101fa565b6100e961013d366004610938565b610221565b6100e9610150366004610920565b610243565b610168610163366004610972565b61024f565b6040516001600160a01b0390911681526020016100cd565b6100c161018e366004610938565b61026e565b61010e600081565b61010e6101a9366004610920565b610297565b6100e96101bc366004610938565b6102ae565b60006001600160e01b03198216635a05180f60e01b14806101e657506101e6826102d7565b92915050565b6101f6828261030c565b5050565b6102048282610357565b600082815260016020526040902061021c90826102c2565b505050565b61022b828261037d565b600082815260016020526040902061021c90826103fc565b806101f681335b610411565b60008281526001602052604081206102679083610475565b9392505050565b6000918252602082815260408084206001600160a01b0393909316845291905290205460ff1690565b60008181526001602052604081206101e690610481565b61022b828261048b565b6101f682826104b1565b6000610267836001600160a01b038416610535565b60006001600160e01b03198216637965db0b60e01b14806101e657506301ffc9a760e01b6001600160e01b03198316146101e6565b600082815260208190526040808220600101805490849055905190918391839186917fbd79b86ffe0ab8e8776151514217cd7cacd52c909f66475c3af44e129f0b00ff9190a4505050565b600082815260208190526040902060010154610373813361024a565b61021c83836104b1565b6001600160a01b03811633146103f25760405162461bcd60e51b815260206004820152602f60248201527f416363657373436f6e74726f6c3a2063616e206f6e6c792072656e6f756e636560448201526e103937b632b9903337b91039b2b63360891b60648201526084015b60405180910390fd5b6101f68282610584565b6000610267836001600160a01b0384166105e9565b61041b828261026e565b6101f657610433816001600160a01b03166014610706565b61043e836020610706565b60405160200161044f9291906109bb565b60408051601f198184030181529082905262461bcd60e51b82526103e991600401610a30565b600061026783836108e8565b60006101e6825490565b6000828152602081905260409020600101546104a7813361024a565b61021c8383610584565b6104bb828261026e565b6101f6576000828152602081815260408083206001600160a01b03851684529091529020805460ff191660011790556104f13390565b6001600160a01b0316816001600160a01b0316837f2f8788117e7eff1d82e926ec794901d17c78024a50270940304540a733656f0d60405160405180910390a45050565b600081815260018301602052604081205461057c575081546001818101845560008481526020808220909301849055845484825282860190935260409020919091556101e6565b5060006101e6565b61058e828261026e565b156101f6576000828152602081815260408083206001600160a01b0385168085529252808320805460ff1916905551339285917ff6391f5c32d9c69d2a47ea670b442974b53935d1edc7fd64eb21e047a839171b9190a45050565b600081815260018301602052604081205480156106fc57600061060d600183610a9a565b855490915060009061062190600190610a9a565b90508181146106a257600086600001828154811061064f57634e487b7160e01b600052603260045260246000fd5b906000526020600020015490508087600001848154811061068057634e487b7160e01b600052603260045260246000fd5b6000918252602080832090910192909255918252600188019052604090208390555b85548690806106c157634e487b7160e01b600052603160045260246000fd5b6001900381819060005260206000200160009055905585600101600086815260200190815260200160002060009055600193505050506101e6565b60009150506101e6565b60606000610715836002610a7b565b610720906002610a63565b67ffffffffffffffff81111561074657634e487b7160e01b600052604160045260246000fd5b6040519080825280601f01601f191660200182016040528015610770576020820181803683370190505b509050600360fc1b8160008151811061079957634e487b7160e01b600052603260045260246000fd5b60200101906001600160f81b031916908160001a905350600f60fb1b816001815181106107d657634e487b7160e01b600052603260045260246000fd5b60200101906001600160f81b031916908160001a90535060006107fa846002610a7b565b610805906001610a63565b90505b6001811115610899576f181899199a1a9b1b9c1cb0b131b232b360811b85600f166010811061084757634e487b7160e01b600052603260045260246000fd5b1a60f81b82828151811061086b57634e487b7160e01b600052603260045260246000fd5b60200101906001600160f81b031916908160001a90535060049490941c9361089281610ae1565b9050610808565b5083156102675760405162461bcd60e51b815260206004820181905260248201527f537472696e67733a20686578206c656e67746820696e73756666696369656e7460448201526064016103e9565b600082600001828154811061090d57634e487b7160e01b600052603260045260246000fd5b9060005260206000200154905092915050565b600060208284031215610931578081fd5b5035919050565b6000806040838503121561094a578081fd5b8235915060208301356001600160a01b0381168114610967578182fd5b809150509250929050565b60008060408385031215610984578182fd5b50508035926020909101359150565b6000602082840312156109a4578081fd5b81356001600160e01b031981168114610267578182fd5b60007f416363657373436f6e74726f6c3a206163636f756e7420000000000000000000825283516109f3816017850160208801610ab1565b7001034b99036b4b9b9b4b733903937b6329607d1b6017918401918201528351610a24816028840160208801610ab1565b01602801949350505050565b6000602082528251806020840152610a4f816040850160208701610ab1565b601f01601f19169190910160400192915050565b60008219821115610a7657610a76610af8565b500190565b6000816000190483118215151615610a9557610a95610af8565b500290565b600082821015610aac57610aac610af8565b500390565b60005b83811015610acc578181015183820152602001610ab4565b83811115610adb576000848401525b50505050565b600081610af057610af0610af8565b506000190190565b634e487b7160e01b600052601160045260246000fdfea2646970667358221220ce877627bec9a8ca053d40f910171a44f2806c16c9aa86cb656ff24194aca6d464736f6c63430008030033",
  "linkReferences": {},
  "deployedLinkReferences": {}
}