{
  "_format": "hh-sol-artifact-1",
  "contractName": "ERC20VotesCompMock",
  "sourceName": "contracts/mocks/ERC20VotesCompMock.sol",
  "abi": [
    {
      "inputs": [
        {
          "internalType": "string",
          "name": "name",
          "type": "string"
        },
        {
          "internalType": "string",
          "name": "symbol",
          "type": "string"
        }
      ],
      "stateMutability": "nonpayable",
      "type": "constructor"
    },
    {
      "anonymous": false,
      "inputs": [
        {
          "indexed": true,
          "internalType": "address",
          "name": "owner",
          "type": "address"
        },
        {
          "indexed": true,
          "internalType": "address",
          "name": "spender",
          "type": "address"
        },
        {
          "indexed": false,
          "internalType": "uint256",
          "name": "value",
          "type": "uint256"
        }
      ],
      "name": "Approval",
      "type": "event"
    },
    {
      "anonymous": false,
      "inputs": [
        {
          "indexed": true,
          "internalType": "address",
          "name": "delegator",
          "type": "address"
        },
        {
          "indexed": true,
          "internalType": "address",
          "name": "fromDelegate",
          "type": "address"
        },
        {
          "indexed": true,
          "internalType": "address",
          "name": "toDelegate",
          "type": "address"
        }
      ],
      "name": "DelegateChanged",
      "type": "event"
    },
    {
      "anonymous": false,
      "inputs": [
        {
          "indexed": true,
          "internalType": "address",
          "name": "delegate",
          "type": "address"
        },
        {
          "indexed": false,
          "internalType": "uint256",
          "name": "previousBalance",
          "type": "uint256"
        },
        {
          "indexed": false,
          "internalType": "uint256",
          "name": "newBalance",
          "type": "uint256"
        }
      ],
      "name": "DelegateVotesChanged",
      "type": "event"
    },
    {
      "anonymous": false,
      "inputs": [
        {
          "indexed": true,
          "internalType": "address",
          "name": "from",
          "type": "address"
        },
        {
          "indexed": true,
          "internalType": "address",
          "name": "to",
          "type": "address"
        },
        {
          "indexed": false,
          "internalType": "uint256",
          "name": "value",
          "type": "uint256"
        }
      ],
      "name": "Transfer",
      "type": "event"
    },
    {
      "inputs": [],
      "name": "DOMAIN_SEPARATOR",
      "outputs": [
        {
          "internalType": "bytes32",
          "name": "",
          "type": "bytes32"
        }
      ],
      "stateMutability": "view",
      "type": "function"
    },
    {
      "inputs": [
        {
          "internalType": "address",
          "name": "owner",
          "type": "address"
        },
        {
          "internalType": "address",
          "name": "spender",
          "type": "address"
        }
      ],
      "name": "allowance",
      "outputs": [
        {
          "internalType": "uint256",
          "name": "",
          "type": "uint256"
        }
      ],
      "stateMutability": "view",
      "type": "function"
    },
    {
      "inputs": [
        {
          "internalType": "address",
          "name": "spender",
          "type": "address"
        },
        {
          "internalType": "uint256",
          "name": "amount",
          "type": "uint256"
        }
      ],
      "name": "approve",
      "outputs": [
        {
          "internalType": "bool",
          "name": "",
          "type": "bool"
        }
      ],
      "stateMutability": "nonpayable",
      "type": "function"
    },
    {
      "inputs": [
        {
          "internalType": "address",
          "name": "account",
          "type": "address"
        }
      ],
      "name": "balanceOf",
      "outputs": [
        {
          "internalType": "uint256",
          "name": "",
          "type": "uint256"
        }
      ],
      "stateMutability": "view",
      "type": "function"
    },
    {
      "inputs": [
        {
          "internalType": "address",
          "name": "account",
          "type": "address"
        },
        {
          "internalType": "uint256",
          "name": "amount",
          "type": "uint256"
        }
      ],
      "name": "burn",
      "outputs": [],
      "stateMutability": "nonpayable",
      "type": "function"
    },
    {
      "inputs": [
        {
          "internalType": "address",
          "name": "account",
          "type": "address"
        },
        {
          "internalType": "uint32",
          "name": "pos",
          "type": "uint32"
        }
      ],
      "name": "checkpoints",
      "outputs": [
        {
          "components": [
            {
              "internalType": "uint32",
              "name": "fromBlock",
              "type": "uint32"
            },
            {
              "internalType": "uint224",
              "name": "votes",
              "type": "uint224"
            }
          ],
          "internalType": "struct ERC20Votes.Checkpoint",
          "name": "",
          "type": "tuple"
        }
      ],
      "stateMutability": "view",
      "type": "function"
    },
    {
      "inputs": [],
      "name": "decimals",
      "outputs": [
        {
          "internalType": "uint8",
          "name": "",
          "type": "uint8"
        }
      ],
      "stateMutability": "view",
      "type": "function"
    },
    {
      "inputs": [
        {
          "internalType": "address",
          "name": "spender",
          "type": "address"
        },
        {
          "internalType": "uint256",
          "name": "subtractedValue",
          "type": "uint256"
        }
      ],
      "name": "decreaseAllowance",
      "outputs": [
        {
          "internalType": "bool",
          "name": "",
          "type": "bool"
        }
      ],
      "stateMutability": "nonpayable",
      "type": "function"
    },
    {
      "inputs": [
        {
          "internalType": "address",
          "name": "delegatee",
          "type": "address"
        }
      ],
      "name": "delegate",
      "outputs": [],
      "stateMutability": "nonpayable",
      "type": "function"
    },
    {
      "inputs": [
        {
          "internalType": "address",
          "name": "delegatee",
          "type": "address"
        },
        {
          "internalType": "uint256",
          "name": "nonce",
          "type": "uint256"
        },
        {
          "internalType": "uint256",
          "name": "expiry",
          "type": "uint256"
        },
        {
          "internalType": "uint8",
          "name": "v",
          "type": "uint8"
        },
        {
          "internalType": "bytes32",
          "name": "r",
          "type": "bytes32"
        },
        {
          "internalType": "bytes32",
          "name": "s",
          "type": "bytes32"
        }
      ],
      "name": "delegateBySig",
      "outputs": [],
      "stateMutability": "nonpayable",
      "type": "function"
    },
    {
      "inputs": [
        {
          "internalType": "address",
          "name": "account",
          "type": "address"
        }
      ],
      "name": "delegates",
      "outputs": [
        {
          "internalType": "address",
          "name": "",
          "type": "address"
        }
      ],
      "stateMutability": "view",
      "type": "function"
    },
    {
      "inputs": [],
      "name": "getChainId",
      "outputs": [
        {
          "internalType": "uint256",
          "name": "",
          "type": "uint256"
        }
      ],
      "stateMutability": "view",
      "type": "function"
    },
    {
      "inputs": [
        {
          "internalType": "address",
          "name": "account",
          "type": "address"
        }
      ],
      "name": "getCurrentVotes",
      "outputs": [
        {
          "internalType": "uint96",
          "name": "",
          "type": "uint96"
        }
      ],
      "stateMutability": "view",
      "type": "function"
    },
    {
      "inputs": [
        {
          "internalType": "uint256",
          "name": "blockNumber",
          "type": "uint256"
        }
      ],
      "name": "getPastTotalSupply",
      "outputs": [
        {
          "internalType": "uint256",
          "name": "",
          "type": "uint256"
        }
      ],
      "stateMutability": "view",
      "type": "function"
    },
    {
      "inputs": [
        {
          "internalType": "address",
          "name": "account",
          "type": "address"
        },
        {
          "internalType": "uint256",
          "name": "blockNumber",
          "type": "uint256"
        }
      ],
      "name": "getPastVotes",
      "outputs": [
        {
          "internalType": "uint256",
          "name": "",
          "type": "uint256"
        }
      ],
      "stateMutability": "view",
      "type": "function"
    },
    {
      "inputs": [
        {
          "internalType": "address",
          "name": "account",
          "type": "address"
        },
        {
          "internalType": "uint256",
          "name": "blockNumber",
          "type": "uint256"
        }
      ],
      "name": "getPriorVotes",
      "outputs": [
        {
          "internalType": "uint96",
          "name": "",
          "type": "uint96"
        }
      ],
      "stateMutability": "view",
      "type": "function"
    },
    {
      "inputs": [
        {
          "internalType": "address",
          "name": "account",
          "type": "address"
        }
      ],
      "name": "getVotes",
      "outputs": [
        {
          "internalType": "uint256",
          "name": "",
          "type": "uint256"
        }
      ],
      "stateMutability": "view",
      "type": "function"
    },
    {
      "inputs": [
        {
          "internalType": "address",
          "name": "spender",
          "type": "address"
        },
        {
          "internalType": "uint256",
          "name": "addedValue",
          "type": "uint256"
        }
      ],
      "name": "increaseAllowance",
      "outputs": [
        {
          "internalType": "bool",
          "name": "",
          "type": "bool"
        }
      ],
      "stateMutability": "nonpayable",
      "type": "function"
    },
    {
      "inputs": [
        {
          "internalType": "address",
          "name": "account",
          "type": "address"
        },
        {
          "internalType": "uint256",
          "name": "amount",
          "type": "uint256"
        }
      ],
      "name": "mint",
      "outputs": [],
      "stateMutability": "nonpayable",
      "type": "function"
    },
    {
      "inputs": [],
      "name": "name",
      "outputs": [
        {
          "internalType": "string",
          "name": "",
          "type": "string"
        }
      ],
      "stateMutability": "view",
      "type": "function"
    },
    {
      "inputs": [
        {
          "internalType": "address",
          "name": "owner",
          "type": "address"
        }
      ],
      "name": "nonces",
      "outputs": [
        {
          "internalType": "uint256",
          "name": "",
          "type": "uint256"
        }
      ],
      "stateMutability": "view",
      "type": "function"
    },
    {
      "inputs": [
        {
          "internalType": "address",
          "name": "account",
          "type": "address"
        }
      ],
      "name": "numCheckpoints",
      "outputs": [
        {
          "internalType": "uint32",
          "name": "",
          "type": "uint32"
        }
      ],
      "stateMutability": "view",
      "type": "function"
    },
    {
      "inputs": [
        {
          "internalType": "address",
          "name": "owner",
          "type": "address"
        },
        {
          "internalType": "address",
          "name": "spender",
          "type": "address"
        },
        {
          "internalType": "uint256",
          "name": "value",
          "type": "uint256"
        },
        {
          "internalType": "uint256",
          "name": "deadline",
          "type": "uint256"
        },
        {
          "internalType": "uint8",
          "name": "v",
          "type": "uint8"
        },
        {
          "internalType": "bytes32",
          "name": "r",
          "type": "bytes32"
        },
        {
          "internalType": "bytes32",
          "name": "s",
          "type": "bytes32"
        }
      ],
      "name": "permit",
      "outputs": [],
      "stateMutability": "nonpayable",
      "type": "function"
    },
    {
      "inputs": [],
      "name": "symbol",
      "outputs": [
        {
          "internalType": "string",
          "name": "",
          "type": "string"
        }
      ],
      "stateMutability": "view",
      "type": "function"
    },
    {
      "inputs": [],
      "name": "totalSupply",
      "outputs": [
        {
          "internalType": "uint256",
          "name": "",
          "type": "uint256"
        }
      ],
      "stateMutability": "view",
      "type": "function"
    },
    {
      "inputs": [
        {
          "internalType": "address",
          "name": "recipient",
          "type": "address"
        },
        {
          "internalType": "uint256",
          "name": "amount",
          "type": "uint256"
        }
      ],
      "name": "transfer",
      "outputs": [
        {
          "internalType": "bool",
          "name": "",
          "type": "bool"
        }
      ],
      "stateMutability": "nonpayable",
      "type": "function"
    },
    {
      "inputs": [
        {
          "internalType": "address",
          "name": "sender",
          "type": "address"
        },
        {
          "internalType": "address",
          "name": "recipient",
          "type": "address"
        },
        {
          "internalType": "uint256",
          "name": "amount",
          "type": "uint256"
        }
      ],
      "name": "transferFrom",
      "outputs": [
        {
          "internalType": "bool",
          "name": "",
          "type": "bool"
        }
      ],
      "stateMutability": "nonpayable",
      "type": "function"
    }
  ],
  "bytecode": "0x6101406040527f6e71edae12b1b97f4d1f60370fef10105fa2faae0126114a169c64845d6126c9610120523480156200003757600080fd5b506040516200216a3803806200216a8339810160408190526200005a9162000295565b8180604051806040016040528060018152602001603160f81b81525084848160039080519060200190620000909291906200013c565b508051620000a69060049060208401906200013c565b5050825160209384012082519284019290922060c083815260e08290524660a0818152604080517f8b73c3c69bb8fe3d512ecc4cf759cc79239f7b179b0ffacaa9a75d522b39400f818a0181905281830198909852606081019590955260808086019390935230858301528051808603909201825293909201909252805194019390932090925261010052506200034f92505050565b8280546200014a90620002fc565b90600052602060002090601f0160209004810192826200016e5760008555620001b9565b82601f106200018957805160ff1916838001178555620001b9565b82800160010185558215620001b9579182015b82811115620001b95782518255916020019190600101906200019c565b50620001c7929150620001cb565b5090565b5b80821115620001c75760008155600101620001cc565b600082601f830112620001f3578081fd5b81516001600160401b038082111562000210576200021062000339565b604051601f8301601f19908116603f011681019082821181831017156200023b576200023b62000339565b8160405283815260209250868385880101111562000257578485fd5b8491505b838210156200027a57858201830151818301840152908201906200025b565b838211156200028b57848385830101525b9695505050505050565b60008060408385031215620002a8578182fd5b82516001600160401b0380821115620002bf578384fd5b620002cd86838701620001e2565b93506020850151915080821115620002e3578283fd5b50620002f285828601620001e2565b9150509250929050565b600181811c908216806200031157607f821691505b602082108114156200033357634e487b7160e01b600052602260045260246000fd5b50919050565b634e487b7160e01b600052604160045260246000fd5b60805160a05160c05160e0516101005161012051611dcb6200039f6000396000610a4a01526000610f4201526000610f9101526000610f6c01526000610eee01526000610f170152611dcb6000f3fe608060405234801561001057600080fd5b50600436106101a95760003560e01c806370a08231116100f9578063a457c2d711610097578063c3cda52011610071578063c3cda520146103b3578063d505accf146103c6578063dd62ed3e146103d9578063f1127ed814610412576101a9565b8063a457c2d71461037a578063a9059cbb1461038d578063b4b5ea57146103a0576101a9565b80638e539e8c116100d35780638e539e8c1461033957806395d89b411461034c5780639ab24eb0146103545780639dc29fac14610367576101a9565b806370a08231146102d2578063782d6fe1146102fb5780637ecebe0014610326576101a9565b80633644e5151161016657806340c10f191161014057806340c10f1914610257578063587cde1e1461026c5780635c19a95c146102975780636fcfff45146102aa576101a9565b80633644e5151461022957806339509351146102315780633a46b1a814610244576101a9565b806306fdde03146101ae578063095ea7b3146101cc57806318160ddd146101ef57806323b872dd14610201578063313ce567146102145780633408e47014610223575b600080fd5b6101b661044f565b6040516101c39190611ca8565b60405180910390f35b6101df6101da366004611bd2565b6104e2565b60405190151581526020016101c3565b6002545b6040519081526020016101c3565b6101df61020f366004611b2e565b6104f8565b604051601281526020016101c3565b466101f3565b6101f36105a7565b6101df61023f366004611bd2565b6105b6565b6101f3610252366004611bd2565b6105f2565b61026a610265366004611bd2565b61066c565b005b61027f61027a366004611ae2565b61067a565b6040516001600160a01b0390911681526020016101c3565b61026a6102a5366004611ae2565b61069b565b6102bd6102b8366004611ae2565b6106a8565b60405163ffffffff90911681526020016101c3565b6101f36102e0366004611ae2565b6001600160a01b031660009081526020819052604090205490565b61030e610309366004611bd2565b6106d0565b6040516001600160601b0390911681526020016101c3565b6101f3610334366004611ae2565b6106e4565b6101f3610347366004611c90565b610702565b6101b661075e565b6101f3610362366004611ae2565b61076d565b61026a610375366004611bd2565b610802565b6101df610388366004611bd2565b61080c565b6101df61039b366004611bd2565b6108a5565b61030e6103ae366004611ae2565b6108b2565b61026a6103c1366004611bfb565b6108c0565b61026a6103d4366004611b69565b6109f6565b6101f36103e7366004611afc565b6001600160a01b03918216600090815260016020908152604080832093909416825291909152205490565b610425610420366004611c52565b610b5a565b60408051825163ffffffff1681526020928301516001600160e01b031692810192909252016101c3565b60606003805461045e90611d4a565b80601f016020809104026020016040519081016040528092919081815260200182805461048a90611d4a565b80156104d75780601f106104ac576101008083540402835291602001916104d7565b820191906000526020600020905b8154815290600101906020018083116104ba57829003601f168201915b505050505090505b90565b60006104ef338484610bec565b50600192915050565b6000610505848484610d10565b6001600160a01b03841660009081526001602090815260408083203384529091529020548281101561058f5760405162461bcd60e51b815260206004820152602860248201527f45524332303a207472616e7366657220616d6f756e74206578636565647320616044820152676c6c6f77616e636560c01b60648201526084015b60405180910390fd5b61059c8533858403610bec565b506001949350505050565b60006105b1610eea565b905090565b3360008181526001602090815260408083206001600160a01b038716845290915281205490916104ef9185906105ed908690611cfb565b610bec565b60004382106106435760405162461bcd60e51b815260206004820152601f60248201527f4552433230566f7465733a20626c6f636b206e6f7420796574206d696e6564006044820152606401610586565b6001600160a01b03831660009081526007602052604090206106659083610fe1565b9392505050565b61067682826110ba565b5050565b6001600160a01b03808216600090815260066020526040902054165b919050565b6106a53382611144565b50565b6001600160a01b0381166000908152600760205260408120546106ca906111da565b92915050565b60006106656106df84846105f2565b611243565b6001600160a01b0381166000908152600560205260408120546106ca565b60004382106107535760405162461bcd60e51b815260206004820152601f60248201527f4552433230566f7465733a20626c6f636b206e6f7420796574206d696e6564006044820152606401610586565b6106ca600883610fe1565b60606004805461045e90611d4a565b6001600160a01b03811660009081526007602052604081205480156107ef576001600160a01b03831660009081526007602052604090206107af600183611d33565b815481106107cd57634e487b7160e01b600052603260045260246000fd5b60009182526020909120015464010000000090046001600160e01b03166107f2565b60005b6001600160e01b03169392505050565b61067682826112ab565b3360009081526001602090815260408083206001600160a01b03861684529091528120548281101561088e5760405162461bcd60e51b815260206004820152602560248201527f45524332303a2064656372656173656420616c6c6f77616e63652062656c6f77604482015264207a65726f60d81b6064820152608401610586565b61089b3385858403610bec565b5060019392505050565b60006104ef338484610d10565b60006106ca6106df8361076d565b834211156109105760405162461bcd60e51b815260206004820152601d60248201527f4552433230566f7465733a207369676e617475726520657870697265640000006044820152606401610586565b604080517fe48329057bfd03d55e49b547132e39cffd9c1820ad7b9d4c5307691425d15adf60208201526001600160a01b03881691810191909152606081018690526080810185905260009061098a906109829060a001604051602081830303815290604052805190602001206112c3565b858585611311565b9050610995816114ba565b86146109e35760405162461bcd60e51b815260206004820152601960248201527f4552433230566f7465733a20696e76616c6964206e6f6e6365000000000000006044820152606401610586565b6109ed8188611144565b50505050505050565b83421115610a465760405162461bcd60e51b815260206004820152601d60248201527f45524332305065726d69743a206578706972656420646561646c696e650000006044820152606401610586565b60007f0000000000000000000000000000000000000000000000000000000000000000888888610a758c6114ba565b6040805160208101969096526001600160a01b0394851690860152929091166060840152608083015260a082015260c0810186905260e0016040516020818303038152906040528051906020012090506000610ad0826112c3565b90506000610ae082878787611311565b9050896001600160a01b0316816001600160a01b031614610b435760405162461bcd60e51b815260206004820152601e60248201527f45524332305065726d69743a20696e76616c6964207369676e617475726500006044820152606401610586565b610b4e8a8a8a610bec565b50505050505050505050565b60408051808201909152600080825260208201526001600160a01b0383166000908152600760205260409020805463ffffffff8416908110610bac57634e487b7160e01b600052603260045260246000fd5b60009182526020918290206040805180820190915291015463ffffffff8116825264010000000090046001600160e01b0316918101919091529392505050565b6001600160a01b038316610c4e5760405162461bcd60e51b8152602060048201526024808201527f45524332303a20617070726f76652066726f6d20746865207a65726f206164646044820152637265737360e01b6064820152608401610586565b6001600160a01b038216610caf5760405162461bcd60e51b815260206004820152602260248201527f45524332303a20617070726f766520746f20746865207a65726f206164647265604482015261737360f01b6064820152608401610586565b6001600160a01b0383811660008181526001602090815260408083209487168084529482529182902085905590518481527f8c5be1e5ebec7d5bd14f71427d1e84f3dd0314c0f7b2291e5b200ac8c7c3b925910160405180910390a3505050565b6001600160a01b038316610d745760405162461bcd60e51b815260206004820152602560248201527f45524332303a207472616e736665722066726f6d20746865207a65726f206164604482015264647265737360d81b6064820152608401610586565b6001600160a01b038216610dd65760405162461bcd60e51b815260206004820152602360248201527f45524332303a207472616e7366657220746f20746865207a65726f206164647260448201526265737360e81b6064820152608401610586565b6001600160a01b03831660009081526020819052604090205481811015610e4e5760405162461bcd60e51b815260206004820152602660248201527f45524332303a207472616e7366657220616d6f756e7420657863656564732062604482015265616c616e636560d01b6064820152608401610586565b6001600160a01b03808516600090815260208190526040808220858503905591851681529081208054849290610e85908490611cfb565b92505081905550826001600160a01b0316846001600160a01b03167fddf252ad1be2c89b69c2b068fc378daa952ba7f163c4a11628f55a4df523b3ef84604051610ed191815260200190565b60405180910390a3610ee48484846114e7565b50505050565b60007f0000000000000000000000000000000000000000000000000000000000000000461415610f3b57507f00000000000000000000000000000000000000000000000000000000000000006104df565b50604080517f00000000000000000000000000000000000000000000000000000000000000006020808301919091527f0000000000000000000000000000000000000000000000000000000000000000828401527f000000000000000000000000000000000000000000000000000000000000000060608301524660808301523060a0808401919091528351808403909101815260c090920190925280519101206104df565b8154600090815b81811015611053576000610ffc8284611502565b90508486828154811061101f57634e487b7160e01b600052603260045260246000fd5b60009182526020909120015463ffffffff16111561103f5780925061104d565b61104a816001611cfb565b91505b50610fe8565b81156110a55784611065600184611d33565b8154811061108357634e487b7160e01b600052603260045260246000fd5b60009182526020909120015464010000000090046001600160e01b03166110a8565b60005b6001600160e01b031695945050505050565b6110c4828261151d565b6002546001600160601b0310156111365760405162461bcd60e51b815260206004820152603060248201527f4552433230566f7465733a20746f74616c20737570706c79207269736b73206f60448201526f766572666c6f77696e6720766f74657360801b6064820152608401610586565b610ee4600861160483611610565b600061114f8361067a565b90506000611172846001600160a01b031660009081526020819052604090205490565b6001600160a01b0385811660008181526006602052604080822080546001600160a01b031916898616908117909155905194955093928616927f3134e8a2e6d97e929a7e54011ea5485d7d196dd5f0ba4d4ef95803e8e3fc257f9190a4610ee48284836117b3565b600063ffffffff82111561123f5760405162461bcd60e51b815260206004820152602660248201527f53616665436173743a2076616c756520646f65736e27742066697420696e203360448201526532206269747360d01b6064820152608401610586565b5090565b60006001600160601b0382111561123f5760405162461bcd60e51b815260206004820152602660248201527f53616665436173743a2076616c756520646f65736e27742066697420696e203960448201526536206269747360d01b6064820152608401610586565b6112b582826118f0565b610ee46008611a4583611610565b60006106ca6112d0610eea565b8360405161190160f01b6020820152602281018390526042810182905260009060620160405160208183030381529060405280519060200120905092915050565b60007f7fffffffffffffffffffffffffffffff5d576e7357a4501ddfe92f46681b20a082111561138e5760405162461bcd60e51b815260206004820152602260248201527f45434453413a20696e76616c6964207369676e6174757265202773272076616c604482015261756560f01b6064820152608401610586565b8360ff16601b14806113a357508360ff16601c145b6113fa5760405162461bcd60e51b815260206004820152602260248201527f45434453413a20696e76616c6964207369676e6174757265202776272076616c604482015261756560f01b6064820152608401610586565b6040805160008082526020820180845288905260ff871692820192909252606081018590526080810184905260019060a0016020604051602081039080840390855afa15801561144e573d6000803e3d6000fd5b5050604051601f1901519150506001600160a01b0381166114b15760405162461bcd60e51b815260206004820152601860248201527f45434453413a20696e76616c6964207369676e617475726500000000000000006044820152606401610586565b95945050505050565b6001600160a01b03811660009081526005602052604090208054600181018255905b50919050565b505050565b6114e26114f38461067a565b6114fc8461067a565b836117b3565b60006115116002848418611d13565b61066590848416611cfb565b6001600160a01b0382166115735760405162461bcd60e51b815260206004820152601f60248201527f45524332303a206d696e7420746f20746865207a65726f2061646472657373006044820152606401610586565b80600260008282546115859190611cfb565b90915550506001600160a01b038216600090815260208190526040812080548392906115b2908490611cfb565b90915550506040518181526001600160a01b038316906000907fddf252ad1be2c89b69c2b068fc378daa952ba7f163c4a11628f55a4df523b3ef9060200160405180910390a3610676600083836114e7565b60006106658284611cfb565b8254600090819080156116695785611629600183611d33565b8154811061164757634e487b7160e01b600052603260045260246000fd5b60009182526020909120015464010000000090046001600160e01b031661166c565b60005b6001600160e01b0316925061168583858763ffffffff16565b91506000811180156116d15750438661169f600184611d33565b815481106116bd57634e487b7160e01b600052603260045260246000fd5b60009182526020909120015463ffffffff16145b1561173f576116df82611a51565b866116eb600184611d33565b8154811061170957634e487b7160e01b600052603260045260246000fd5b9060005260206000200160000160046101000a8154816001600160e01b0302191690836001600160e01b031602179055506117aa565b856040518060400160405280611754436111da565b63ffffffff16815260200161176885611a51565b6001600160e01b0390811690915282546001810184556000938452602093849020835194909301519091166401000000000263ffffffff909316929092179101555b50935093915050565b816001600160a01b0316836001600160a01b0316141580156117d55750600081115b156114e2576001600160a01b03831615611863576001600160a01b0383166000908152600760205260408120819061181090611a4585611610565b91509150846001600160a01b03167fdec2bacdd2f05b59de34da9b523dff8be42e5e38e818c82fdb0bae774387a7248383604051611858929190918252602082015260400190565b60405180910390a250505b6001600160a01b038216156114e2576001600160a01b038216600090815260076020526040812081906118999061160485611610565b91509150836001600160a01b03167fdec2bacdd2f05b59de34da9b523dff8be42e5e38e818c82fdb0bae774387a72483836040516118e1929190918252602082015260400190565b60405180910390a25050505050565b6001600160a01b0382166119505760405162461bcd60e51b815260206004820152602160248201527f45524332303a206275726e2066726f6d20746865207a65726f206164647265736044820152607360f81b6064820152608401610586565b6001600160a01b038216600090815260208190526040902054818110156119c45760405162461bcd60e51b815260206004820152602260248201527f45524332303a206275726e20616d6f756e7420657863656564732062616c616e604482015261636560f01b6064820152608401610586565b6001600160a01b03831660009081526020819052604081208383039055600280548492906119f3908490611d33565b90915550506040518281526000906001600160a01b038516907fddf252ad1be2c89b69c2b068fc378daa952ba7f163c4a11628f55a4df523b3ef9060200160405180910390a36114e2836000846114e7565b60006106658284611d33565b60006001600160e01b0382111561123f5760405162461bcd60e51b815260206004820152602760248201527f53616665436173743a2076616c756520646f65736e27742066697420696e20326044820152663234206269747360c81b6064820152608401610586565b80356001600160a01b038116811461069657600080fd5b803560ff8116811461069657600080fd5b600060208284031215611af3578081fd5b61066582611aba565b60008060408385031215611b0e578081fd5b611b1783611aba565b9150611b2560208401611aba565b90509250929050565b600080600060608486031215611b42578081fd5b611b4b84611aba565b9250611b5960208501611aba565b9150604084013590509250925092565b600080600080600080600060e0888a031215611b83578283fd5b611b8c88611aba565b9650611b9a60208901611aba565b95506040880135945060608801359350611bb660808901611ad1565b925060a0880135915060c0880135905092959891949750929550565b60008060408385031215611be4578182fd5b611bed83611aba565b946020939093013593505050565b60008060008060008060c08789031215611c13578182fd5b611c1c87611aba565b95506020870135945060408701359350611c3860608801611ad1565b92506080870135915060a087013590509295509295509295565b60008060408385031215611c64578182fd5b611c6d83611aba565b9150602083013563ffffffff81168114611c85578182fd5b809150509250929050565b600060208284031215611ca1578081fd5b5035919050565b6000602080835283518082850152825b81811015611cd457858101830151858201604001528201611cb8565b81811115611ce55783604083870101525b50601f01601f1916929092016040019392505050565b60008219821115611d0e57611d0e611d7f565b500190565b600082611d2e57634e487b7160e01b81526012600452602481fd5b500490565b600082821015611d4557611d45611d7f565b500390565b600181811c90821680611d5e57607f821691505b602082108114156114dc57634e487b7160e01b600052602260045260246000fd5b634e487b7160e01b600052601160045260246000fdfea2646970667358221220156bb9e3983fcc652fc8810a4b933f58b266ea34837114b50256048157bd5ec264736f6c63430008030033",
  "linkReferences": {},
  "deployedLinkReferences": {}
}