{
  "_format": "hh-sol-artifact-1",
  "contractName": "ERC20WrapperMock",
  "sourceName": "contracts/mocks/ERC20WrapperMock.sol",
  "abi": [
    {
      "inputs": [
        {
          "internalType": "contract IERC20",
          "name": "_underlyingToken",
          "type": "address"
        },
        {
          "internalType": "string",
          "name": "name",
          "type": "string"
        },
        {
          "internalType": "string",
          "name": "symbol",
          "type": "string"
        }
      ],
      "stateMutability": "nonpayable",
      "type": "constructor"
    },
    {
      "anonymous": false,
      "inputs": [
        {
          "indexed": true,
          "internalType": "address",
          "name": "owner",
          "type": "address"
        },
        {
          "indexed": true,
          "internalType": "address",
          "name": "spender",
          "type": "address"
        },
        {
          "indexed": false,
          "internalType": "uint256",
          "name": "value",
          "type": "uint256"
        }
      ],
      "name": "Approval",
      "type": "event"
    },
    {
      "anonymous": false,
      "inputs": [
        {
          "indexed": true,
          "internalType": "address",
          "name": "from",
          "type": "address"
        },
        {
          "indexed": true,
          "internalType": "address",
          "name": "to",
          "type": "address"
        },
        {
          "indexed": false,
          "internalType": "uint256",
          "name": "value",
          "type": "uint256"
        }
      ],
      "name": "Transfer",
      "type": "event"
    },
    {
      "inputs": [
        {
          "internalType": "address",
          "name": "owner",
          "type": "address"
        },
        {
          "internalType": "address",
          "name": "spender",
          "type": "address"
        }
      ],
      "name": "allowance",
      "outputs": [
        {
          "internalType": "uint256",
          "name": "",
          "type": "uint256"
        }
      ],
      "stateMutability": "view",
      "type": "function"
    },
    {
      "inputs": [
        {
          "internalType": "address",
          "name": "spender",
          "type": "address"
        },
        {
          "internalType": "uint256",
          "name": "amount",
          "type": "uint256"
        }
      ],
      "name": "approve",
      "outputs": [
        {
          "internalType": "bool",
          "name": "",
          "type": "bool"
        }
      ],
      "stateMutability": "nonpayable",
      "type": "function"
    },
    {
      "inputs": [
        {
          "internalType": "address",
          "name": "account",
          "type": "address"
        }
      ],
      "name": "balanceOf",
      "outputs": [
        {
          "internalType": "uint256",
          "name": "",
          "type": "uint256"
        }
      ],
      "stateMutability": "view",
      "type": "function"
    },
    {
      "inputs": [],
      "name": "decimals",
      "outputs": [
        {
          "internalType": "uint8",
          "name": "",
          "type": "uint8"
        }
      ],
      "stateMutability": "view",
      "type": "function"
    },
    {
      "inputs": [
        {
          "internalType": "address",
          "name": "spender",
          "type": "address"
        },
        {
          "internalType": "uint256",
          "name": "subtractedValue",
          "type": "uint256"
        }
      ],
      "name": "decreaseAllowance",
      "outputs": [
        {
          "internalType": "bool",
          "name": "",
          "type": "bool"
        }
      ],
      "stateMutability": "nonpayable",
      "type": "function"
    },
    {
      "inputs": [
        {
          "internalType": "address",
          "name": "account",
          "type": "address"
        },
        {
          "internalType": "uint256",
          "name": "amount",
          "type": "uint256"
        }
      ],
      "name": "depositFor",
      "outputs": [
        {
          "internalType": "bool",
          "name": "",
          "type": "bool"
        }
      ],
      "stateMutability": "nonpayable",
      "type": "function"
    },
    {
      "inputs": [
        {
          "internalType": "address",
          "name": "spender",
          "type": "address"
        },
        {
          "internalType": "uint256",
          "name": "addedValue",
          "type": "uint256"
        }
      ],
      "name": "increaseAllowance",
      "outputs": [
        {
          "internalType": "bool",
          "name": "",
          "type": "bool"
        }
      ],
      "stateMutability": "nonpayable",
      "type": "function"
    },
    {
      "inputs": [],
      "name": "name",
      "outputs": [
        {
          "internalType": "string",
          "name": "",
          "type": "string"
        }
      ],
      "stateMutability": "view",
      "type": "function"
    },
    {
      "inputs": [
        {
          "internalType": "address",
          "name": "account",
          "type": "address"
        }
      ],
      "name": "recover",
      "outputs": [
        {
          "internalType": "uint256",
          "name": "",
          "type": "uint256"
        }
      ],
      "stateMutability": "nonpayable",
      "type": "function"
    },
    {
      "inputs": [],
      "name": "symbol",
      "outputs": [
        {
          "internalType": "string",
          "name": "",
          "type": "string"
        }
      ],
      "stateMutability": "view",
      "type": "function"
    },
    {
      "inputs": [],
      "name": "totalSupply",
      "outputs": [
        {
          "internalType": "uint256",
          "name": "",
          "type": "uint256"
        }
      ],
      "stateMutability": "view",
      "type": "function"
    },
    {
      "inputs": [
        {
          "internalType": "address",
          "name": "recipient",
          "type": "address"
        },
        {
          "internalType": "uint256",
          "name": "amount",
          "type": "uint256"
        }
      ],
      "name": "transfer",
      "outputs": [
        {
          "internalType": "bool",
          "name": "",
          "type": "bool"
        }
      ],
      "stateMutability": "nonpayable",
      "type": "function"
    },
    {
      "inputs": [
        {
          "internalType": "address",
          "name": "sender",
          "type": "address"
        },
        {
          "internalType": "address",
          "name": "recipient",
          "type": "address"
        },
        {
          "internalType": "uint256",
          "name": "amount",
          "type": "uint256"
        }
      ],
      "name": "transferFrom",
      "outputs": [
        {
          "internalType": "bool",
          "name": "",
          "type": "bool"
        }
      ],
      "stateMutability": "nonpayable",
      "type": "function"
    },
    {
      "inputs": [],
      "name": "underlying",
      "outputs": [
        {
          "internalType": "contract IERC20",
          "name": "",
          "type": "address"
        }
      ],
      "stateMutability": "view",
      "type": "function"
    },
    {
      "inputs": [
        {
          "internalType": "address",
          "name": "account",
          "type": "address"
        },
        {
          "internalType": "uint256",
          "name": "amount",
          "type": "uint256"
        }
      ],
      "name": "withdrawTo",
      "outputs": [
        {
          "internalType": "bool",
          "name": "",
          "type": "bool"
        }
      ],
      "stateMutability": "nonpayable",
      "type": "function"
    }
  ],
  "bytecode": "0x60a06040523480156200001157600080fd5b506040516200132f3803806200132f8339810160408190526200003491620001db565b82828281600390805190602001906200004f92919062000082565b5080516200006590600490602084019062000082565b50505060601b6001600160601b03191660805250620002b4915050565b828054620000909062000261565b90600052602060002090601f016020900481019282620000b45760008555620000ff565b82601f10620000cf57805160ff1916838001178555620000ff565b82800160010185558215620000ff579182015b82811115620000ff578251825591602001919060010190620000e2565b506200010d92915062000111565b5090565b5b808211156200010d576000815560010162000112565b600082601f83011262000139578081fd5b81516001600160401b03808211156200015657620001566200029e565b604051601f8301601f19908116603f011681019082821181831017156200018157620001816200029e565b816040528381526020925086838588010111156200019d578485fd5b8491505b83821015620001c05785820183015181830184015290820190620001a1565b83821115620001d157848385830101525b9695505050505050565b600080600060608486031215620001f0578283fd5b83516001600160a01b038116811462000207578384fd5b60208501519093506001600160401b038082111562000224578384fd5b620002328783880162000128565b9350604086015191508082111562000248578283fd5b50620002578682870162000128565b9150509250925092565b600181811c908216806200027657607f821691505b602082108114156200029857634e487b7160e01b600052602260045260246000fd5b50919050565b634e487b7160e01b600052604160045260246000fd5b60805160601c611047620002e8600039600081816101c40152818161035a0152818161043801526106a001526110476000f3fe608060405234801561001057600080fd5b50600436106100f55760003560e01c8063313ce5671161009757806395d89b411161006657806395d89b4114610227578063a457c2d71461022f578063a9059cbb14610242578063dd62ed3e14610255576100f5565b8063313ce5671461019d57806339509351146101ac5780636f307dc3146101bf57806370a08231146101fe576100f5565b806318160ddd116100d357806318160ddd1461015c578063205c28781461016457806323b872dd146101775780632f4f21e21461018a576100f5565b806306fdde03146100fa578063095ea7b3146101185780630cd865ec1461013b575b600080fd5b61010261028e565b60405161010f9190610f32565b60405180910390f35b61012b610126366004610eb5565b610320565b604051901515815260200161010f565b61014e610149366004610e2e565b610336565b60405190815260200161010f565b60025461014e565b61012b610172366004610eb5565b610349565b61012b610185366004610e7a565b610380565b61012b610198366004610eb5565b610431565b6040516012815260200161010f565b61012b6101ba366004610eb5565b610469565b6101e67f000000000000000000000000000000000000000000000000000000000000000081565b6040516001600160a01b03909116815260200161010f565b61014e61020c366004610e2e565b6001600160a01b031660009081526020819052604090205490565b6101026104a5565b61012b61023d366004610eb5565b6104b4565b61012b610250366004610eb5565b61054d565b61014e610263366004610e48565b6001600160a01b03918216600090815260016020908152604080832093909416825291909152205490565b60606003805461029d90610fc0565b80601f01602080910402602001604051908101604052809291908181526020018280546102c990610fc0565b80156103165780601f106102eb57610100808354040283529160200191610316565b820191906000526020600020905b8154815290600101906020018083116102f957829003601f168201915b5050505050905090565b600061032d33848461055a565b50600192915050565b60006103418261067f565b90505b919050565b60006103553383610738565b61032d7f00000000000000000000000000000000000000000000000000000000000000008484610883565b600061038d8484846108e6565b6001600160a01b0384166000908152600160209081526040808320338452909152902054828110156104175760405162461bcd60e51b815260206004820152602860248201527f45524332303a207472616e7366657220616d6f756e74206578636565647320616044820152676c6c6f77616e636560c01b60648201526084015b60405180910390fd5b610424853385840361055a565b60019150505b9392505050565b600061045f7f0000000000000000000000000000000000000000000000000000000000000000333085610ab6565b61032d8383610aee565b3360008181526001602090815260408083206001600160a01b0387168452909152812054909161032d9185906104a0908690610f65565b61055a565b60606004805461029d90610fc0565b3360009081526001602090815260408083206001600160a01b0386168452909152812054828110156105365760405162461bcd60e51b815260206004820152602560248201527f45524332303a2064656372656173656420616c6c6f77616e63652062656c6f77604482015264207a65726f60d81b606482015260840161040e565b610543338585840361055a565b5060019392505050565b600061032d3384846108e6565b6001600160a01b0383166105bc5760405162461bcd60e51b8152602060048201526024808201527f45524332303a20617070726f76652066726f6d20746865207a65726f206164646044820152637265737360e01b606482015260840161040e565b6001600160a01b03821661061d5760405162461bcd60e51b815260206004820152602260248201527f45524332303a20617070726f766520746f20746865207a65726f206164647265604482015261737360f01b606482015260840161040e565b6001600160a01b0383811660008181526001602090815260408083209487168084529482529182902085905590518481527f8c5be1e5ebec7d5bd14f71427d1e84f3dd0314c0f7b2291e5b200ac8c7c3b92591015b60405180910390a3505050565b60008061068b60025490565b6040516370a0823160e01b81523060048201527f00000000000000000000000000000000000000000000000000000000000000006001600160a01b0316906370a082319060240160206040518083038186803b1580156106ea57600080fd5b505afa1580156106fe573d6000803e3d6000fd5b505050506040513d601f19601f820116820180604052508101906107229190610efe565b61072c9190610f7d565b90506103418382610aee565b6001600160a01b0382166107985760405162461bcd60e51b815260206004820152602160248201527f45524332303a206275726e2066726f6d20746865207a65726f206164647265736044820152607360f81b606482015260840161040e565b6001600160a01b0382166000908152602081905260409020548181101561080c5760405162461bcd60e51b815260206004820152602260248201527f45524332303a206275726e20616d6f756e7420657863656564732062616c616e604482015261636560f01b606482015260840161040e565b6001600160a01b038316600090815260208190526040812083830390556002805484929061083b908490610f7d565b90915550506040518281526000906001600160a01b038516907fddf252ad1be2c89b69c2b068fc378daa952ba7f163c4a11628f55a4df523b3ef90602001610672565b505050565b6040516001600160a01b03831660248201526044810182905261087e90849063a9059cbb60e01b906064015b60408051601f198184030181529190526020810180516001600160e01b03166001600160e01b031990931692909217909152610bcd565b6001600160a01b03831661094a5760405162461bcd60e51b815260206004820152602560248201527f45524332303a207472616e736665722066726f6d20746865207a65726f206164604482015264647265737360d81b606482015260840161040e565b6001600160a01b0382166109ac5760405162461bcd60e51b815260206004820152602360248201527f45524332303a207472616e7366657220746f20746865207a65726f206164647260448201526265737360e81b606482015260840161040e565b6001600160a01b03831660009081526020819052604090205481811015610a245760405162461bcd60e51b815260206004820152602660248201527f45524332303a207472616e7366657220616d6f756e7420657863656564732062604482015265616c616e636560d01b606482015260840161040e565b6001600160a01b03808516600090815260208190526040808220858503905591851681529081208054849290610a5b908490610f65565b92505081905550826001600160a01b0316846001600160a01b03167fddf252ad1be2c89b69c2b068fc378daa952ba7f163c4a11628f55a4df523b3ef84604051610aa791815260200190565b60405180910390a35b50505050565b6040516001600160a01b0380851660248301528316604482015260648101829052610ab09085906323b872dd60e01b906084016108af565b6001600160a01b038216610b445760405162461bcd60e51b815260206004820152601f60248201527f45524332303a206d696e7420746f20746865207a65726f206164647265737300604482015260640161040e565b8060026000828254610b569190610f65565b90915550506001600160a01b03821660009081526020819052604081208054839290610b83908490610f65565b90915550506040518181526001600160a01b038316906000907fddf252ad1be2c89b69c2b068fc378daa952ba7f163c4a11628f55a4df523b3ef9060200160405180910390a35050565b6000610c22826040518060400160405280602081526020017f5361666545524332303a206c6f772d6c6576656c2063616c6c206661696c6564815250856001600160a01b0316610c9f9092919063ffffffff16565b80519091501561087e5780806020019051810190610c409190610ede565b61087e5760405162461bcd60e51b815260206004820152602a60248201527f5361666545524332303a204552433230206f7065726174696f6e20646964206e6044820152691bdd081cdd58d8d9595960b21b606482015260840161040e565b6060610cae8484600085610cb6565b949350505050565b606082471015610d175760405162461bcd60e51b815260206004820152602660248201527f416464726573733a20696e73756666696369656e742062616c616e636520666f6044820152651c8818d85b1b60d21b606482015260840161040e565b843b610d655760405162461bcd60e51b815260206004820152601d60248201527f416464726573733a2063616c6c20746f206e6f6e2d636f6e7472616374000000604482015260640161040e565b600080866001600160a01b03168587604051610d819190610f16565b60006040518083038185875af1925050503d8060008114610dbe576040519150601f19603f3d011682016040523d82523d6000602084013e610dc3565b606091505b5091509150610dd3828286610dde565b979650505050505050565b60608315610ded57508161042a565b825115610dfd5782518084602001fd5b8160405162461bcd60e51b815260040161040e9190610f32565b80356001600160a01b038116811461034457600080fd5b600060208284031215610e3f578081fd5b61042a82610e17565b60008060408385031215610e5a578081fd5b610e6383610e17565b9150610e7160208401610e17565b90509250929050565b600080600060608486031215610e8e578081fd5b610e9784610e17565b9250610ea560208501610e17565b9150604084013590509250925092565b60008060408385031215610ec7578182fd5b610ed083610e17565b946020939093013593505050565b600060208284031215610eef578081fd5b8151801515811461042a578182fd5b600060208284031215610f0f578081fd5b5051919050565b60008251610f28818460208701610f94565b9190910192915050565b6000602082528251806020840152610f51816040850160208701610f94565b601f01601f19169190910160400192915050565b60008219821115610f7857610f78610ffb565b500190565b600082821015610f8f57610f8f610ffb565b500390565b60005b83811015610faf578181015183820152602001610f97565b83811115610ab05750506000910152565b600181811c90821680610fd457607f821691505b60208210811415610ff557634e487b7160e01b600052602260045260246000fd5b50919050565b634e487b7160e01b600052601160045260246000fdfea2646970667358221220397487aa972176d52b2f4fe95bc2cf6d3e2e983c00368982a8e838150db0b05e64736f6c63430008030033",
  "linkReferences": {},
  "deployedLinkReferences": {}
}