{
  "_format": "hh-sol-artifact-1",
  "contractName": "ERC20VotesMock",
  "sourceName": "contracts/mocks/ERC20VotesMock.sol",
  "abi": [
    {
      "inputs": [
        {
          "internalType": "string",
          "name": "name",
          "type": "string"
        },
        {
          "internalType": "string",
          "name": "symbol",
          "type": "string"
        }
      ],
      "stateMutability": "nonpayable",
      "type": "constructor"
    },
    {
      "anonymous": false,
      "inputs": [
        {
          "indexed": true,
          "internalType": "address",
          "name": "owner",
          "type": "address"
        },
        {
          "indexed": true,
          "internalType": "address",
          "name": "spender",
          "type": "address"
        },
        {
          "indexed": false,
          "internalType": "uint256",
          "name": "value",
          "type": "uint256"
        }
      ],
      "name": "Approval",
      "type": "event"
    },
    {
      "anonymous": false,
      "inputs": [
        {
          "indexed": true,
          "internalType": "address",
          "name": "delegator",
          "type": "address"
        },
        {
          "indexed": true,
          "internalType": "address",
          "name": "fromDelegate",
          "type": "address"
        },
        {
          "indexed": true,
          "internalType": "address",
          "name": "toDelegate",
          "type": "address"
        }
      ],
      "name": "DelegateChanged",
      "type": "event"
    },
    {
      "anonymous": false,
      "inputs": [
        {
          "indexed": true,
          "internalType": "address",
          "name": "delegate",
          "type": "address"
        },
        {
          "indexed": false,
          "internalType": "uint256",
          "name": "previousBalance",
          "type": "uint256"
        },
        {
          "indexed": false,
          "internalType": "uint256",
          "name": "newBalance",
          "type": "uint256"
        }
      ],
      "name": "DelegateVotesChanged",
      "type": "event"
    },
    {
      "anonymous": false,
      "inputs": [
        {
          "indexed": true,
          "internalType": "address",
          "name": "from",
          "type": "address"
        },
        {
          "indexed": true,
          "internalType": "address",
          "name": "to",
          "type": "address"
        },
        {
          "indexed": false,
          "internalType": "uint256",
          "name": "value",
          "type": "uint256"
        }
      ],
      "name": "Transfer",
      "type": "event"
    },
    {
      "inputs": [],
      "name": "DOMAIN_SEPARATOR",
      "outputs": [
        {
          "internalType": "bytes32",
          "name": "",
          "type": "bytes32"
        }
      ],
      "stateMutability": "view",
      "type": "function"
    },
    {
      "inputs": [
        {
          "internalType": "address",
          "name": "owner",
          "type": "address"
        },
        {
          "internalType": "address",
          "name": "spender",
          "type": "address"
        }
      ],
      "name": "allowance",
      "outputs": [
        {
          "internalType": "uint256",
          "name": "",
          "type": "uint256"
        }
      ],
      "stateMutability": "view",
      "type": "function"
    },
    {
      "inputs": [
        {
          "internalType": "address",
          "name": "spender",
          "type": "address"
        },
        {
          "internalType": "uint256",
          "name": "amount",
          "type": "uint256"
        }
      ],
      "name": "approve",
      "outputs": [
        {
          "internalType": "bool",
          "name": "",
          "type": "bool"
        }
      ],
      "stateMutability": "nonpayable",
      "type": "function"
    },
    {
      "inputs": [
        {
          "internalType": "address",
          "name": "account",
          "type": "address"
        }
      ],
      "name": "balanceOf",
      "outputs": [
        {
          "internalType": "uint256",
          "name": "",
          "type": "uint256"
        }
      ],
      "stateMutability": "view",
      "type": "function"
    },
    {
      "inputs": [
        {
          "internalType": "address",
          "name": "account",
          "type": "address"
        },
        {
          "internalType": "uint256",
          "name": "amount",
          "type": "uint256"
        }
      ],
      "name": "burn",
      "outputs": [],
      "stateMutability": "nonpayable",
      "type": "function"
    },
    {
      "inputs": [
        {
          "internalType": "address",
          "name": "account",
          "type": "address"
        },
        {
          "internalType": "uint32",
          "name": "pos",
          "type": "uint32"
        }
      ],
      "name": "checkpoints",
      "outputs": [
        {
          "components": [
            {
              "internalType": "uint32",
              "name": "fromBlock",
              "type": "uint32"
            },
            {
              "internalType": "uint224",
              "name": "votes",
              "type": "uint224"
            }
          ],
          "internalType": "struct ERC20Votes.Checkpoint",
          "name": "",
          "type": "tuple"
        }
      ],
      "stateMutability": "view",
      "type": "function"
    },
    {
      "inputs": [],
      "name": "decimals",
      "outputs": [
        {
          "internalType": "uint8",
          "name": "",
          "type": "uint8"
        }
      ],
      "stateMutability": "view",
      "type": "function"
    },
    {
      "inputs": [
        {
          "internalType": "address",
          "name": "spender",
          "type": "address"
        },
        {
          "internalType": "uint256",
          "name": "subtractedValue",
          "type": "uint256"
        }
      ],
      "name": "decreaseAllowance",
      "outputs": [
        {
          "internalType": "bool",
          "name": "",
          "type": "bool"
        }
      ],
      "stateMutability": "nonpayable",
      "type": "function"
    },
    {
      "inputs": [
        {
          "internalType": "address",
          "name": "delegatee",
          "type": "address"
        }
      ],
      "name": "delegate",
      "outputs": [],
      "stateMutability": "nonpayable",
      "type": "function"
    },
    {
      "inputs": [
        {
          "internalType": "address",
          "name": "delegatee",
          "type": "address"
        },
        {
          "internalType": "uint256",
          "name": "nonce",
          "type": "uint256"
        },
        {
          "internalType": "uint256",
          "name": "expiry",
          "type": "uint256"
        },
        {
          "internalType": "uint8",
          "name": "v",
          "type": "uint8"
        },
        {
          "internalType": "bytes32",
          "name": "r",
          "type": "bytes32"
        },
        {
          "internalType": "bytes32",
          "name": "s",
          "type": "bytes32"
        }
      ],
      "name": "delegateBySig",
      "outputs": [],
      "stateMutability": "nonpayable",
      "type": "function"
    },
    {
      "inputs": [
        {
          "internalType": "address",
          "name": "account",
          "type": "address"
        }
      ],
      "name": "delegates",
      "outputs": [
        {
          "internalType": "address",
          "name": "",
          "type": "address"
        }
      ],
      "stateMutability": "view",
      "type": "function"
    },
    {
      "inputs": [],
      "name": "getChainId",
      "outputs": [
        {
          "internalType": "uint256",
          "name": "",
          "type": "uint256"
        }
      ],
      "stateMutability": "view",
      "type": "function"
    },
    {
      "inputs": [
        {
          "internalType": "uint256",
          "name": "blockNumber",
          "type": "uint256"
        }
      ],
      "name": "getPastTotalSupply",
      "outputs": [
        {
          "internalType": "uint256",
          "name": "",
          "type": "uint256"
        }
      ],
      "stateMutability": "view",
      "type": "function"
    },
    {
      "inputs": [
        {
          "internalType": "address",
          "name": "account",
          "type": "address"
        },
        {
          "internalType": "uint256",
          "name": "blockNumber",
          "type": "uint256"
        }
      ],
      "name": "getPastVotes",
      "outputs": [
        {
          "internalType": "uint256",
          "name": "",
          "type": "uint256"
        }
      ],
      "stateMutability": "view",
      "type": "function"
    },
    {
      "inputs": [
        {
          "internalType": "address",
          "name": "account",
          "type": "address"
        }
      ],
      "name": "getVotes",
      "outputs": [
        {
          "internalType": "uint256",
          "name": "",
          "type": "uint256"
        }
      ],
      "stateMutability": "view",
      "type": "function"
    },
    {
      "inputs": [
        {
          "internalType": "address",
          "name": "spender",
          "type": "address"
        },
        {
          "internalType": "uint256",
          "name": "addedValue",
          "type": "uint256"
        }
      ],
      "name": "increaseAllowance",
      "outputs": [
        {
          "internalType": "bool",
          "name": "",
          "type": "bool"
        }
      ],
      "stateMutability": "nonpayable",
      "type": "function"
    },
    {
      "inputs": [
        {
          "internalType": "address",
          "name": "account",
          "type": "address"
        },
        {
          "internalType": "uint256",
          "name": "amount",
          "type": "uint256"
        }
      ],
      "name": "mint",
      "outputs": [],
      "stateMutability": "nonpayable",
      "type": "function"
    },
    {
      "inputs": [],
      "name": "name",
      "outputs": [
        {
          "internalType": "string",
          "name": "",
          "type": "string"
        }
      ],
      "stateMutability": "view",
      "type": "function"
    },
    {
      "inputs": [
        {
          "internalType": "address",
          "name": "owner",
          "type": "address"
        }
      ],
      "name": "nonces",
      "outputs": [
        {
          "internalType": "uint256",
          "name": "",
          "type": "uint256"
        }
      ],
      "stateMutability": "view",
      "type": "function"
    },
    {
      "inputs": [
        {
          "internalType": "address",
          "name": "account",
          "type": "address"
        }
      ],
      "name": "numCheckpoints",
      "outputs": [
        {
          "internalType": "uint32",
          "name": "",
          "type": "uint32"
        }
      ],
      "stateMutability": "view",
      "type": "function"
    },
    {
      "inputs": [
        {
          "internalType": "address",
          "name": "owner",
          "type": "address"
        },
        {
          "internalType": "address",
          "name": "spender",
          "type": "address"
        },
        {
          "internalType": "uint256",
          "name": "value",
          "type": "uint256"
        },
        {
          "internalType": "uint256",
          "name": "deadline",
          "type": "uint256"
        },
        {
          "internalType": "uint8",
          "name": "v",
          "type": "uint8"
        },
        {
          "internalType": "bytes32",
          "name": "r",
          "type": "bytes32"
        },
        {
          "internalType": "bytes32",
          "name": "s",
          "type": "bytes32"
        }
      ],
      "name": "permit",
      "outputs": [],
      "stateMutability": "nonpayable",
      "type": "function"
    },
    {
      "inputs": [],
      "name": "symbol",
      "outputs": [
        {
          "internalType": "string",
          "name": "",
          "type": "string"
        }
      ],
      "stateMutability": "view",
      "type": "function"
    },
    {
      "inputs": [],
      "name": "totalSupply",
      "outputs": [
        {
          "internalType": "uint256",
          "name": "",
          "type": "uint256"
        }
      ],
      "stateMutability": "view",
      "type": "function"
    },
    {
      "inputs": [
        {
          "internalType": "address",
          "name": "recipient",
          "type": "address"
        },
        {
          "internalType": "uint256",
          "name": "amount",
          "type": "uint256"
        }
      ],
      "name": "transfer",
      "outputs": [
        {
          "internalType": "bool",
          "name": "",
          "type": "bool"
        }
      ],
      "stateMutability": "nonpayable",
      "type": "function"
    },
    {
      "inputs": [
        {
          "internalType": "address",
          "name": "sender",
          "type": "address"
        },
        {
          "internalType": "address",
          "name": "recipient",
          "type": "address"
        },
        {
          "internalType": "uint256",
          "name": "amount",
          "type": "uint256"
        }
      ],
      "name": "transferFrom",
      "outputs": [
        {
          "internalType": "bool",
          "name": "",
          "type": "bool"
        }
      ],
      "stateMutability": "nonpayable",
      "type": "function"
    }
  ],
  "bytecode": "0x6101406040527f6e71edae12b1b97f4d1f60370fef10105fa2faae0126114a169c64845d6126c9610120523480156200003757600080fd5b506040516200206c3803806200206c8339810160408190526200005a9162000295565b8180604051806040016040528060018152602001603160f81b81525084848160039080519060200190620000909291906200013c565b508051620000a69060049060208401906200013c565b5050825160209384012082519284019290922060c083815260e08290524660a0818152604080517f8b73c3c69bb8fe3d512ecc4cf759cc79239f7b179b0ffacaa9a75d522b39400f818a0181905281830198909852606081019590955260808086019390935230858301528051808603909201825293909201909252805194019390932090925261010052506200034f92505050565b8280546200014a90620002fc565b90600052602060002090601f0160209004810192826200016e5760008555620001b9565b82601f106200018957805160ff1916838001178555620001b9565b82800160010185558215620001b9579182015b82811115620001b95782518255916020019190600101906200019c565b50620001c7929150620001cb565b5090565b5b80821115620001c75760008155600101620001cc565b600082601f830112620001f3578081fd5b81516001600160401b038082111562000210576200021062000339565b604051601f8301601f19908116603f011681019082821181831017156200023b576200023b62000339565b8160405283815260209250868385880101111562000257578485fd5b8491505b838210156200027a57858201830151818301840152908201906200025b565b838211156200028b57848385830101525b9695505050505050565b60008060408385031215620002a8578182fd5b82516001600160401b0380821115620002bf578384fd5b620002cd86838701620001e2565b93506020850151915080821115620002e3578283fd5b50620002f285828601620001e2565b9150509250929050565b600181811c908216806200031157607f821691505b602082108114156200033357634e487b7160e01b600052602260045260246000fd5b50919050565b634e487b7160e01b600052604160045260246000fd5b60805160a05160c05160e0516101005161012051611ccd6200039f60003960006109b401526000610eac01526000610efb01526000610ed601526000610e5801526000610e810152611ccd6000f3fe608060405234801561001057600080fd5b50600436106101735760003560e01c80636fcfff45116100de5780639dc29fac11610097578063c3cda52011610071578063c3cda5201461033f578063d505accf14610352578063dd62ed3e14610365578063f1127ed81461039e57610173565b80639dc29fac14610306578063a457c2d714610319578063a9059cbb1461032c57610173565b80636fcfff451461027457806370a082311461029c5780637ecebe00146102c55780638e539e8c146102d857806395d89b41146102eb5780639ab24eb0146102f357610173565b80633644e515116101305780633644e515146101f357806339509351146101fb5780633a46b1a81461020e57806340c10f1914610221578063587cde1e146102365780635c19a95c1461026157610173565b806306fdde0314610178578063095ea7b31461019657806318160ddd146101b957806323b872dd146101cb578063313ce567146101de5780633408e470146101ed575b600080fd5b6101806103db565b60405161018d9190611baa565b60405180910390f35b6101a96101a4366004611ad4565b61046e565b604051901515815260200161018d565b6002545b60405190815260200161018d565b6101a96101d9366004611a30565b610484565b6040516012815260200161018d565b466101bd565b6101bd610533565b6101a9610209366004611ad4565b610542565b6101bd61021c366004611ad4565b61057e565b61023461022f366004611ad4565b6105f8565b005b6102496102443660046119e4565b610606565b6040516001600160a01b03909116815260200161018d565b61023461026f3660046119e4565b610627565b6102876102823660046119e4565b610634565b60405163ffffffff909116815260200161018d565b6101bd6102aa3660046119e4565b6001600160a01b031660009081526020819052604090205490565b6101bd6102d33660046119e4565b61065c565b6101bd6102e6366004611b92565b61067a565b6101806106d6565b6101bd6103013660046119e4565b6106e5565b610234610314366004611ad4565b61077a565b6101a9610327366004611ad4565b610784565b6101a961033a366004611ad4565b61081d565b61023461034d366004611afd565b61082a565b610234610360366004611a6b565b610960565b6101bd6103733660046119fe565b6001600160a01b03918216600090815260016020908152604080832093909416825291909152205490565b6103b16103ac366004611b54565b610ac4565b60408051825163ffffffff1681526020928301516001600160e01b0316928101929092520161018d565b6060600380546103ea90611c4c565b80601f016020809104026020016040519081016040528092919081815260200182805461041690611c4c565b80156104635780601f1061043857610100808354040283529160200191610463565b820191906000526020600020905b81548152906001019060200180831161044657829003601f168201915b505050505090505b90565b600061047b338484610b56565b50600192915050565b6000610491848484610c7a565b6001600160a01b03841660009081526001602090815260408083203384529091529020548281101561051b5760405162461bcd60e51b815260206004820152602860248201527f45524332303a207472616e7366657220616d6f756e74206578636565647320616044820152676c6c6f77616e636560c01b60648201526084015b60405180910390fd5b6105288533858403610b56565b506001949350505050565b600061053d610e54565b905090565b3360008181526001602090815260408083206001600160a01b0387168452909152812054909161047b918590610579908690611bfd565b610b56565b60004382106105cf5760405162461bcd60e51b815260206004820152601f60248201527f4552433230566f7465733a20626c6f636b206e6f7420796574206d696e6564006044820152606401610512565b6001600160a01b03831660009081526007602052604090206105f19083610f4b565b9392505050565b6106028282611024565b5050565b6001600160a01b03808216600090815260066020526040902054165b919050565b61063133826110ae565b50565b6001600160a01b03811660009081526007602052604081205461065690611144565b92915050565b6001600160a01b038116600090815260056020526040812054610656565b60004382106106cb5760405162461bcd60e51b815260206004820152601f60248201527f4552433230566f7465733a20626c6f636b206e6f7420796574206d696e6564006044820152606401610512565b610656600883610f4b565b6060600480546103ea90611c4c565b6001600160a01b0381166000908152600760205260408120548015610767576001600160a01b0383166000908152600760205260409020610727600183611c35565b8154811061074557634e487b7160e01b600052603260045260246000fd5b60009182526020909120015464010000000090046001600160e01b031661076a565b60005b6001600160e01b03169392505050565b61060282826111ad565b3360009081526001602090815260408083206001600160a01b0386168452909152812054828110156108065760405162461bcd60e51b815260206004820152602560248201527f45524332303a2064656372656173656420616c6c6f77616e63652062656c6f77604482015264207a65726f60d81b6064820152608401610512565b6108133385858403610b56565b5060019392505050565b600061047b338484610c7a565b8342111561087a5760405162461bcd60e51b815260206004820152601d60248201527f4552433230566f7465733a207369676e617475726520657870697265640000006044820152606401610512565b604080517fe48329057bfd03d55e49b547132e39cffd9c1820ad7b9d4c5307691425d15adf60208201526001600160a01b0388169181019190915260608101869052608081018590526000906108f4906108ec9060a001604051602081830303815290604052805190602001206111c5565b858585611213565b90506108ff816113bc565b861461094d5760405162461bcd60e51b815260206004820152601960248201527f4552433230566f7465733a20696e76616c6964206e6f6e6365000000000000006044820152606401610512565b61095781886110ae565b50505050505050565b834211156109b05760405162461bcd60e51b815260206004820152601d60248201527f45524332305065726d69743a206578706972656420646561646c696e650000006044820152606401610512565b60007f00000000000000000000000000000000000000000000000000000000000000008888886109df8c6113bc565b6040805160208101969096526001600160a01b0394851690860152929091166060840152608083015260a082015260c0810186905260e0016040516020818303038152906040528051906020012090506000610a3a826111c5565b90506000610a4a82878787611213565b9050896001600160a01b0316816001600160a01b031614610aad5760405162461bcd60e51b815260206004820152601e60248201527f45524332305065726d69743a20696e76616c6964207369676e617475726500006044820152606401610512565b610ab88a8a8a610b56565b50505050505050505050565b60408051808201909152600080825260208201526001600160a01b0383166000908152600760205260409020805463ffffffff8416908110610b1657634e487b7160e01b600052603260045260246000fd5b60009182526020918290206040805180820190915291015463ffffffff8116825264010000000090046001600160e01b0316918101919091529392505050565b6001600160a01b038316610bb85760405162461bcd60e51b8152602060048201526024808201527f45524332303a20617070726f76652066726f6d20746865207a65726f206164646044820152637265737360e01b6064820152608401610512565b6001600160a01b038216610c195760405162461bcd60e51b815260206004820152602260248201527f45524332303a20617070726f766520746f20746865207a65726f206164647265604482015261737360f01b6064820152608401610512565b6001600160a01b0383811660008181526001602090815260408083209487168084529482529182902085905590518481527f8c5be1e5ebec7d5bd14f71427d1e84f3dd0314c0f7b2291e5b200ac8c7c3b925910160405180910390a3505050565b6001600160a01b038316610cde5760405162461bcd60e51b815260206004820152602560248201527f45524332303a207472616e736665722066726f6d20746865207a65726f206164604482015264647265737360d81b6064820152608401610512565b6001600160a01b038216610d405760405162461bcd60e51b815260206004820152602360248201527f45524332303a207472616e7366657220746f20746865207a65726f206164647260448201526265737360e81b6064820152608401610512565b6001600160a01b03831660009081526020819052604090205481811015610db85760405162461bcd60e51b815260206004820152602660248201527f45524332303a207472616e7366657220616d6f756e7420657863656564732062604482015265616c616e636560d01b6064820152608401610512565b6001600160a01b03808516600090815260208190526040808220858503905591851681529081208054849290610def908490611bfd565b92505081905550826001600160a01b0316846001600160a01b03167fddf252ad1be2c89b69c2b068fc378daa952ba7f163c4a11628f55a4df523b3ef84604051610e3b91815260200190565b60405180910390a3610e4e8484846113e9565b50505050565b60007f0000000000000000000000000000000000000000000000000000000000000000461415610ea557507f000000000000000000000000000000000000000000000000000000000000000061046b565b50604080517f00000000000000000000000000000000000000000000000000000000000000006020808301919091527f0000000000000000000000000000000000000000000000000000000000000000828401527f000000000000000000000000000000000000000000000000000000000000000060608301524660808301523060a0808401919091528351808403909101815260c0909201909252805191012061046b565b8154600090815b81811015610fbd576000610f668284611404565b905084868281548110610f8957634e487b7160e01b600052603260045260246000fd5b60009182526020909120015463ffffffff161115610fa957809250610fb7565b610fb4816001611bfd565b91505b50610f52565b811561100f5784610fcf600184611c35565b81548110610fed57634e487b7160e01b600052603260045260246000fd5b60009182526020909120015464010000000090046001600160e01b0316611012565b60005b6001600160e01b031695945050505050565b61102e828261141f565b6002546001600160e01b0310156110a05760405162461bcd60e51b815260206004820152603060248201527f4552433230566f7465733a20746f74616c20737570706c79207269736b73206f60448201526f766572666c6f77696e6720766f74657360801b6064820152608401610512565b610e4e600861150683611512565b60006110b983610606565b905060006110dc846001600160a01b031660009081526020819052604090205490565b6001600160a01b0385811660008181526006602052604080822080546001600160a01b031916898616908117909155905194955093928616927f3134e8a2e6d97e929a7e54011ea5485d7d196dd5f0ba4d4ef95803e8e3fc257f9190a4610e4e8284836116b5565b600063ffffffff8211156111a95760405162461bcd60e51b815260206004820152602660248201527f53616665436173743a2076616c756520646f65736e27742066697420696e203360448201526532206269747360d01b6064820152608401610512565b5090565b6111b782826117f2565b610e4e600861194783611512565b60006106566111d2610e54565b8360405161190160f01b6020820152602281018390526042810182905260009060620160405160208183030381529060405280519060200120905092915050565b60007f7fffffffffffffffffffffffffffffff5d576e7357a4501ddfe92f46681b20a08211156112905760405162461bcd60e51b815260206004820152602260248201527f45434453413a20696e76616c6964207369676e6174757265202773272076616c604482015261756560f01b6064820152608401610512565b8360ff16601b14806112a557508360ff16601c145b6112fc5760405162461bcd60e51b815260206004820152602260248201527f45434453413a20696e76616c6964207369676e6174757265202776272076616c604482015261756560f01b6064820152608401610512565b6040805160008082526020820180845288905260ff871692820192909252606081018590526080810184905260019060a0016020604051602081039080840390855afa158015611350573d6000803e3d6000fd5b5050604051601f1901519150506001600160a01b0381166113b35760405162461bcd60e51b815260206004820152601860248201527f45434453413a20696e76616c6964207369676e617475726500000000000000006044820152606401610512565b95945050505050565b6001600160a01b03811660009081526005602052604090208054600181018255905b50919050565b505050565b6113e46113f584610606565b6113fe84610606565b836116b5565b60006114136002848418611c15565b6105f190848416611bfd565b6001600160a01b0382166114755760405162461bcd60e51b815260206004820152601f60248201527f45524332303a206d696e7420746f20746865207a65726f2061646472657373006044820152606401610512565b80600260008282546114879190611bfd565b90915550506001600160a01b038216600090815260208190526040812080548392906114b4908490611bfd565b90915550506040518181526001600160a01b038316906000907fddf252ad1be2c89b69c2b068fc378daa952ba7f163c4a11628f55a4df523b3ef9060200160405180910390a3610602600083836113e9565b60006105f18284611bfd565b82546000908190801561156b578561152b600183611c35565b8154811061154957634e487b7160e01b600052603260045260246000fd5b60009182526020909120015464010000000090046001600160e01b031661156e565b60005b6001600160e01b0316925061158783858763ffffffff16565b91506000811180156115d3575043866115a1600184611c35565b815481106115bf57634e487b7160e01b600052603260045260246000fd5b60009182526020909120015463ffffffff16145b15611641576115e182611953565b866115ed600184611c35565b8154811061160b57634e487b7160e01b600052603260045260246000fd5b9060005260206000200160000160046101000a8154816001600160e01b0302191690836001600160e01b031602179055506116ac565b85604051806040016040528061165643611144565b63ffffffff16815260200161166a85611953565b6001600160e01b0390811690915282546001810184556000938452602093849020835194909301519091166401000000000263ffffffff909316929092179101555b50935093915050565b816001600160a01b0316836001600160a01b0316141580156116d75750600081115b156113e4576001600160a01b03831615611765576001600160a01b038316600090815260076020526040812081906117129061194785611512565b91509150846001600160a01b03167fdec2bacdd2f05b59de34da9b523dff8be42e5e38e818c82fdb0bae774387a724838360405161175a929190918252602082015260400190565b60405180910390a250505b6001600160a01b038216156113e4576001600160a01b0382166000908152600760205260408120819061179b9061150685611512565b91509150836001600160a01b03167fdec2bacdd2f05b59de34da9b523dff8be42e5e38e818c82fdb0bae774387a72483836040516117e3929190918252602082015260400190565b60405180910390a25050505050565b6001600160a01b0382166118525760405162461bcd60e51b815260206004820152602160248201527f45524332303a206275726e2066726f6d20746865207a65726f206164647265736044820152607360f81b6064820152608401610512565b6001600160a01b038216600090815260208190526040902054818110156118c65760405162461bcd60e51b815260206004820152602260248201527f45524332303a206275726e20616d6f756e7420657863656564732062616c616e604482015261636560f01b6064820152608401610512565b6001600160a01b03831660009081526020819052604081208383039055600280548492906118f5908490611c35565b90915550506040518281526000906001600160a01b038516907fddf252ad1be2c89b69c2b068fc378daa952ba7f163c4a11628f55a4df523b3ef9060200160405180910390a36113e4836000846113e9565b60006105f18284611c35565b60006001600160e01b038211156111a95760405162461bcd60e51b815260206004820152602760248201527f53616665436173743a2076616c756520646f65736e27742066697420696e20326044820152663234206269747360c81b6064820152608401610512565b80356001600160a01b038116811461062257600080fd5b803560ff8116811461062257600080fd5b6000602082840312156119f5578081fd5b6105f1826119bc565b60008060408385031215611a10578081fd5b611a19836119bc565b9150611a27602084016119bc565b90509250929050565b600080600060608486031215611a44578081fd5b611a4d846119bc565b9250611a5b602085016119bc565b9150604084013590509250925092565b600080600080600080600060e0888a031215611a85578283fd5b611a8e886119bc565b9650611a9c602089016119bc565b95506040880135945060608801359350611ab8608089016119d3565b925060a0880135915060c0880135905092959891949750929550565b60008060408385031215611ae6578182fd5b611aef836119bc565b946020939093013593505050565b60008060008060008060c08789031215611b15578182fd5b611b1e876119bc565b95506020870135945060408701359350611b3a606088016119d3565b92506080870135915060a087013590509295509295509295565b60008060408385031215611b66578182fd5b611b6f836119bc565b9150602083013563ffffffff81168114611b87578182fd5b809150509250929050565b600060208284031215611ba3578081fd5b5035919050565b6000602080835283518082850152825b81811015611bd657858101830151858201604001528201611bba565b81811115611be75783604083870101525b50601f01601f1916929092016040019392505050565b60008219821115611c1057611c10611c81565b500190565b600082611c3057634e487b7160e01b81526012600452602481fd5b500490565b600082821015611c4757611c47611c81565b500390565b600181811c90821680611c6057607f821691505b602082108114156113de57634e487b7160e01b600052602260045260246000fd5b634e487b7160e01b600052601160045260246000fdfea2646970667358221220d3e2923b48f32ff42eb6a9540c3d988ce855ff426155e5ec7850e1d0fa9ed56164736f6c63430008030033",
  "linkReferences": {},
  "deployedLinkReferences": {}
}