{
  "_format": "hh-sol-artifact-1",
  "contractName": "EtherReceiverMock",
  "sourceName": "contracts/mocks/EtherReceiverMock.sol",
  "abi": [
    {
      "inputs": [
        {
          "internalType": "bool",
          "name": "acceptEther",
          "type": "bool"
        }
      ],
      "name": "setAcceptEther",
      "outputs": [],
      "stateMutability": "nonpayable",
      "type": "function"
    },
    {
      "stateMutability": "payable",
      "type": "receive"
    }
  ],
  "bytecode": "0x608060405234801561001057600080fd5b5060bd8061001f6000396000f3fe608060405260043610601f5760003560e01c80634fea120c146038576033565b3660335760005460ff16603157600080fd5b005b600080fd5b348015604357600080fd5b506031604f3660046062565b6000805460ff1916911515919091179055565b6000602082840312156072578081fd5b813580151581146080578182fd5b939250505056fea264697066735822122003153847dab3d582d896ea92eed642eb28805d308f20aaa128fa780b963dfee964736f6c63430008030033",
  "linkReferences": {},
  "deployedLinkReferences": {}
}