{
  "_format": "hh-sol-artifact-1",
  "contractName": "UUPSUpgradeableMock",
  "sourceName": "contracts/mocks/UUPS/TestInProd.sol",
  "abi": [
    {
      "anonymous": false,
      "inputs": [
        {
          "indexed": false,
          "internalType": "address",
          "name": "previousAdmin",
          "type": "address"
        },
        {
          "indexed": false,
          "internalType": "address",
          "name": "newAdmin",
          "type": "address"
        }
      ],
      "name": "AdminChanged",
      "type": "event"
    },
    {
      "anonymous": false,
      "inputs": [
        {
          "indexed": true,
          "internalType": "address",
          "name": "beacon",
          "type": "address"
        }
      ],
      "name": "BeaconUpgraded",
      "type": "event"
    },
    {
      "anonymous": false,
      "inputs": [
        {
          "indexed": true,
          "internalType": "address",
          "name": "implementation",
          "type": "address"
        }
      ],
      "name": "Upgraded",
      "type": "event"
    },
    {
      "inputs": [],
      "name": "current",
      "outputs": [
        {
          "internalType": "uint256",
          "name": "",
          "type": "uint256"
        }
      ],
      "stateMutability": "view",
      "type": "function"
    },
    {
      "inputs": [],
      "name": "decrement",
      "outputs": [],
      "stateMutability": "nonpayable",
      "type": "function"
    },
    {
      "inputs": [],
      "name": "increment",
      "outputs": [],
      "stateMutability": "nonpayable",
      "type": "function"
    },
    {
      "inputs": [],
      "name": "reset",
      "outputs": [],
      "stateMutability": "nonpayable",
      "type": "function"
    },
    {
      "inputs": [
        {
          "internalType": "address",
          "name": "newImplementation",
          "type": "address"
        }
      ],
      "name": "upgradeTo",
      "outputs": [],
      "stateMutability": "nonpayable",
      "type": "function"
    },
    {
      "inputs": [
        {
          "internalType": "address",
          "name": "newImplementation",
          "type": "address"
        },
        {
          "internalType": "bytes",
          "name": "data",
          "type": "bytes"
        }
      ],
      "name": "upgradeToAndCall",
      "outputs": [],
      "stateMutability": "payable",
      "type": "function"
    }
  ],
  "bytecode": "0x608060405234801561001057600080fd5b50610741806100206000396000f3fe6080604052600436106100555760003560e01c80632baeceb71461005a5780633659cfe6146100715780634f1ef286146100915780639fa6a6e3146100a4578063d09de08a146100cb578063d826f88f146100e0575b600080fd5b34801561006657600080fd5b5061006f6100f5565b005b34801561007d57600080fd5b5061006f61008c366004610578565b610101565b61006f61009f366004610592565b61011f565b3480156100b057600080fd5b506100b961012f565b60405190815260200160405180910390f35b3480156100d757600080fd5b5061006f610140565b3480156100ec57600080fd5b5061006f61014e565b6100ff6000610157565b565b61011c816040518060200160405280600081525060006101b3565b50565b61012b828260016101b3565b5050565b600061013b600061033b565b905090565b6100ff600080546001019055565b6100ff60008055565b8054806101ab5760405162461bcd60e51b815260206004820152601b60248201527f436f756e7465723a2064656372656d656e74206f766572666c6f77000000000060448201526064015b60405180910390fd5b600019019055565b60006101e67f360894a13ba1a3210667c828492db98dca3e2076cc3735a920a3ca505d382bbc546001600160a01b031690565b90506101f184610343565b6000835111806101fe5750815b1561020f5761020d84846103e8565b505b7f4910fdfa16fed3260ed0e7147f7cc6da11a60208b5b9406d12a635614ffd9143805460ff1661033457805460ff191660011781556040516001600160a01b038316602482015261028e90869060440160408051601f198184030181529190526020810180516001600160e01b0316631b2ce7f360e11b1790526103e8565b50805460ff191681557f360894a13ba1a3210667c828492db98dca3e2076cc3735a920a3ca505d382bbc546001600160a01b0383811691161461032b5760405162461bcd60e51b815260206004820152602f60248201527f45524331393637557067726164653a207570677261646520627265616b73206660448201526e75727468657220757067726164657360881b60648201526084016101a2565b61033485610414565b5050505050565b80545b919050565b803b6103a75760405162461bcd60e51b815260206004820152602d60248201527f455243313936373a206e657720696d706c656d656e746174696f6e206973206e60448201526c1bdd08184818dbdb9d1c9858dd609a1b60648201526084016101a2565b7f360894a13ba1a3210667c828492db98dca3e2076cc3735a920a3ca505d382bbc80546001600160a01b0319166001600160a01b0392909216919091179055565b606061040d83836040518060600160405280602781526020016106e560279139610454565b9392505050565b61041d81610343565b6040516001600160a01b038216907fbc7cd75a20ee27fd9adebab32041f755214dbc6bffa90cc0225b39da2e5c2d3b90600090a250565b6060833b6104b35760405162461bcd60e51b815260206004820152602660248201527f416464726573733a2064656c65676174652063616c6c20746f206e6f6e2d636f6044820152651b9d1c9858dd60d21b60648201526084016101a2565b600080856001600160a01b0316856040516104ce919061064f565b600060405180830381855af49150503d8060008114610509576040519150601f19603f3d011682016040523d82523d6000602084013e61050e565b606091505b509150915061051e828286610528565b9695505050505050565b6060831561053757508161040d565b8251156105475782518084602001fd5b8160405162461bcd60e51b81526004016101a2919061066b565b80356001600160a01b038116811461033e57600080fd5b600060208284031215610589578081fd5b61040d82610561565b600080604083850312156105a4578081fd5b6105ad83610561565b9150602083013567ffffffffffffffff808211156105c9578283fd5b818501915085601f8301126105dc578283fd5b8135818111156105ee576105ee6106ce565b604051601f8201601f19908116603f01168101908382118183101715610616576106166106ce565b8160405282815288602084870101111561062e578586fd5b82602086016020830137856020848301015280955050505050509250929050565b6000825161066181846020870161069e565b9190910192915050565b600060208252825180602084015261068a81604085016020870161069e565b601f01601f19169190910160400192915050565b60005b838110156106b95781810151838201526020016106a1565b838111156106c8576000848401525b50505050565b634e487b7160e01b600052604160045260246000fdfe416464726573733a206c6f772d6c6576656c2064656c65676174652063616c6c206661696c6564a2646970667358221220568a3b0a2694803010765cf8c08320e088a2fbc473dc98053a9ce72f41384cc664736f6c63430008030033",
  "linkReferences": {},
  "deployedLinkReferences": {}
}