{
  "_format": "hh-sol-artifact-1",
  "contractName": "UUPSUpgradeableBrokenMock",
  "sourceName": "contracts/mocks/UUPS/TestInProd.sol",
  "abi": [
    {
      "anonymous": false,
      "inputs": [
        {
          "indexed": false,
          "internalType": "address",
          "name": "previousAdmin",
          "type": "address"
        },
        {
          "indexed": false,
          "internalType": "address",
          "name": "newAdmin",
          "type": "address"
        }
      ],
      "name": "AdminChanged",
      "type": "event"
    },
    {
      "anonymous": false,
      "inputs": [
        {
          "indexed": true,
          "internalType": "address",
          "name": "beacon",
          "type": "address"
        }
      ],
      "name": "BeaconUpgraded",
      "type": "event"
    },
    {
      "anonymous": false,
      "inputs": [
        {
          "indexed": true,
          "internalType": "address",
          "name": "implementation",
          "type": "address"
        }
      ],
      "name": "Upgraded",
      "type": "event"
    },
    {
      "inputs": [],
      "name": "current",
      "outputs": [
        {
          "internalType": "uint256",
          "name": "",
          "type": "uint256"
        }
      ],
      "stateMutability": "view",
      "type": "function"
    },
    {
      "inputs": [],
      "name": "decrement",
      "outputs": [],
      "stateMutability": "nonpayable",
      "type": "function"
    },
    {
      "inputs": [],
      "name": "increment",
      "outputs": [],
      "stateMutability": "nonpayable",
      "type": "function"
    },
    {
      "inputs": [],
      "name": "reset",
      "outputs": [],
      "stateMutability": "nonpayable",
      "type": "function"
    },
    {
      "inputs": [
        {
          "internalType": "address",
          "name": "",
          "type": "address"
        }
      ],
      "name": "upgradeTo",
      "outputs": [],
      "stateMutability": "nonpayable",
      "type": "function"
    },
    {
      "inputs": [
        {
          "internalType": "address",
          "name": "",
          "type": "address"
        },
        {
          "internalType": "bytes",
          "name": "",
          "type": "bytes"
        }
      ],
      "name": "upgradeToAndCall",
      "outputs": [],
      "stateMutability": "payable",
      "type": "function"
    }
  ],
  "bytecode": "0x608060405234801561001057600080fd5b506102ca806100206000396000f3fe6080604052600436106100555760003560e01c80632baeceb71461005a5780633659cfe6146100715780634f1ef2861461008f5780639fa6a6e3146100a1578063d09de08a146100c8578063d826f88f146100dd575b600080fd5b34801561006657600080fd5b5061006f6100f2565b005b34801561007d57600080fd5b5061006f61008c3660046101a0565b50565b61006f61009d3660046101c1565b5050565b3480156100ad57600080fd5b506100b66100fe565b60405190815260200160405180910390f35b3480156100d457600080fd5b5061006f61010f565b3480156100e957600080fd5b5061006f61011d565b6100fc6000610126565b565b600061010a6000610181565b905090565b6100fc600080546001019055565b6100fc60008055565b8054806101795760405162461bcd60e51b815260206004820152601b60248201527f436f756e7465723a2064656372656d656e74206f766572666c6f770000000000604482015260640160405180910390fd5b600019019055565b80545b919050565b80356001600160a01b038116811461018457600080fd5b6000602082840312156101b1578081fd5b6101ba82610189565b9392505050565b600080604083850312156101d3578081fd5b6101dc83610189565b9150602083013567ffffffffffffffff808211156101f8578283fd5b818501915085601f83011261020b578283fd5b81358181111561021d5761021d61027e565b604051601f8201601f19908116603f011681019083821181831017156102455761024561027e565b8160405282815288602084870101111561025d578586fd5b82602086016020830137856020848301015280955050505050509250929050565b634e487b7160e01b600052604160045260246000fdfea264697066735822122014e51925d1238cbea2241814e435c9ed5492adc055c6ce2e71b5a6e3b76b21a764736f6c63430008030033",
  "linkReferences": {},
  "deployedLinkReferences": {}
}