{
  "_format": "hh-sol-artifact-1",
  "contractName": "EnumerableAddressSetMock",
  "sourceName": "contracts/mocks/EnumerableSetMock.sol",
  "abi": [
    {
      "anonymous": false,
      "inputs": [
        {
          "indexed": false,
          "internalType": "bool",
          "name": "result",
          "type": "bool"
        }
      ],
      "name": "OperationResult",
      "type": "event"
    },
    {
      "inputs": [
        {
          "internalType": "address",
          "name": "value",
          "type": "address"
        }
      ],
      "name": "add",
      "outputs": [],
      "stateMutability": "nonpayable",
      "type": "function"
    },
    {
      "inputs": [
        {
          "internalType": "uint256",
          "name": "index",
          "type": "uint256"
        }
      ],
      "name": "at",
      "outputs": [
        {
          "internalType": "address",
          "name": "",
          "type": "address"
        }
      ],
      "stateMutability": "view",
      "type": "function"
    },
    {
      "inputs": [
        {
          "internalType": "address",
          "name": "value",
          "type": "address"
        }
      ],
      "name": "contains",
      "outputs": [
        {
          "internalType": "bool",
          "name": "",
          "type": "bool"
        }
      ],
      "stateMutability": "view",
      "type": "function"
    },
    {
      "inputs": [],
      "name": "length",
      "outputs": [
        {
          "internalType": "uint256",
          "name": "",
          "type": "uint256"
        }
      ],
      "stateMutability": "view",
      "type": "function"
    },
    {
      "inputs": [
        {
          "internalType": "address",
          "name": "value",
          "type": "address"
        }
      ],
      "name": "remove",
      "outputs": [],
      "stateMutability": "nonpayable",
      "type": "function"
    }
  ],
  "bytecode": "0x608060405234801561001057600080fd5b5061041a806100206000396000f3fe608060405234801561001057600080fd5b50600436106100575760003560e01c80630a3b0a4f1461005c5780631f7b6d321461007157806329092d0e1461008c5780635dbe47e81461009f578063e0886f90146100c2575b600080fd5b61006f61006a366004610382565b6100ed565b005b61007961013a565b6040519081526020015b60405180910390f35b61006f61009a366004610382565b61014b565b6100b26100ad366004610382565b610157565b6040519015158152602001610083565b6100d56100d03660046103a9565b610169565b6040516001600160a01b039091168152602001610083565b60006100f98183610175565b90507fed9840e0775590557ad736875d96c95cf1458b766335f74339951a32c82a9e338160405161012e911515815260200190565b60405180910390a15050565b60006101466000610191565b905090565b60006100f9818361019b565b600061016381836101b0565b92915050565b600061016381836101d2565b600061018a836001600160a01b0384166101de565b9392505050565b6000610163825490565b600061018a836001600160a01b03841661022d565b6001600160a01b0381166000908152600183016020526040812054151561018a565b600061018a838361034a565b600081815260018301602052604081205461022557508154600181810184556000848152602080822090930184905584548482528286019093526040902091909155610163565b506000610163565b600081815260018301602052604081205480156103405760006102516001836103c1565b8554909150600090610265906001906103c1565b90508181146102e657600086600001828154811061029357634e487b7160e01b600052603260045260246000fd5b90600052602060002001549050808760000184815481106102c457634e487b7160e01b600052603260045260246000fd5b6000918252602080832090910192909255918252600188019052604090208390555b855486908061030557634e487b7160e01b600052603160045260246000fd5b600190038181906000526020600020016000905590558560010160008681526020019081526020016000206000905560019350505050610163565b6000915050610163565b600082600001828154811061036f57634e487b7160e01b600052603260045260246000fd5b9060005260206000200154905092915050565b600060208284031215610393578081fd5b81356001600160a01b038116811461018a578182fd5b6000602082840312156103ba578081fd5b5035919050565b6000828210156103df57634e487b7160e01b81526011600452602481fd5b50039056fea26469706673582212208e7b6acd7e73b6edfd4504fdeb434b993e073fc60e5f5884dfce9faf2601c83e64736f6c63430008030033",
  "linkReferences": {},
  "deployedLinkReferences": {}
}