{
  "_format": "hh-sol-artifact-1",
  "contractName": "EnumerableUintSetMock",
  "sourceName": "contracts/mocks/EnumerableSetMock.sol",
  "abi": [
    {
      "anonymous": false,
      "inputs": [
        {
          "indexed": false,
          "internalType": "bool",
          "name": "result",
          "type": "bool"
        }
      ],
      "name": "OperationResult",
      "type": "event"
    },
    {
      "inputs": [
        {
          "internalType": "uint256",
          "name": "value",
          "type": "uint256"
        }
      ],
      "name": "add",
      "outputs": [],
      "stateMutability": "nonpayable",
      "type": "function"
    },
    {
      "inputs": [
        {
          "internalType": "uint256",
          "name": "index",
          "type": "uint256"
        }
      ],
      "name": "at",
      "outputs": [
        {
          "internalType": "uint256",
          "name": "",
          "type": "uint256"
        }
      ],
      "stateMutability": "view",
      "type": "function"
    },
    {
      "inputs": [
        {
          "internalType": "uint256",
          "name": "value",
          "type": "uint256"
        }
      ],
      "name": "contains",
      "outputs": [
        {
          "internalType": "bool",
          "name": "",
          "type": "bool"
        }
      ],
      "stateMutability": "view",
      "type": "function"
    },
    {
      "inputs": [],
      "name": "length",
      "outputs": [
        {
          "internalType": "uint256",
          "name": "",
          "type": "uint256"
        }
      ],
      "stateMutability": "view",
      "type": "function"
    },
    {
      "inputs": [
        {
          "internalType": "uint256",
          "name": "value",
          "type": "uint256"
        }
      ],
      "name": "remove",
      "outputs": [],
      "stateMutability": "nonpayable",
      "type": "function"
    }
  ],
  "bytecode": "0x608060405234801561001057600080fd5b506103bf806100206000396000f3fe608060405234801561001057600080fd5b50600436106100575760003560e01c80631003e2d21461005c5780631f7b6d32146100715780634cc822151461008c578063c34052e01461009f578063e0886f90146100c2575b600080fd5b61006f61006a36600461034e565b6100d5565b005b610079610122565b6040519081526020015b60405180910390f35b61006f61009a36600461034e565b610133565b6100b26100ad36600461034e565b61013f565b6040519015158152602001610083565b6100796100d036600461034e565b610151565b60006100e1818361015d565b90507fed9840e0775590557ad736875d96c95cf1458b766335f74339951a32c82a9e3381604051610116911515815260200190565b60405180910390a15050565b600061012e6000610170565b905090565b60006100e1818361017a565b600061014b8183610186565b92915050565b600061014b818361019e565b600061016983836101aa565b9392505050565b600061014b825490565b600061016983836101f9565b60008181526001830160205260408120541515610169565b60006101698383610316565b60008181526001830160205260408120546101f15750815460018181018455600084815260208082209093018490558454848252828601909352604090209190915561014b565b50600061014b565b6000818152600183016020526040812054801561030c57600061021d600183610366565b855490915060009061023190600190610366565b90508181146102b257600086600001828154811061025f57634e487b7160e01b600052603260045260246000fd5b906000526020600020015490508087600001848154811061029057634e487b7160e01b600052603260045260246000fd5b6000918252602080832090910192909255918252600188019052604090208390555b85548690806102d157634e487b7160e01b600052603160045260246000fd5b60019003818190600052602060002001600090559055856001016000868152602001908152602001600020600090556001935050505061014b565b600091505061014b565b600082600001828154811061033b57634e487b7160e01b600052603260045260246000fd5b9060005260206000200154905092915050565b60006020828403121561035f578081fd5b5035919050565b60008282101561038457634e487b7160e01b81526011600452602481fd5b50039056fea2646970667358221220ad8e9830423ea8d82dc6fae811e05d72a0b73d60f52fdac23199afd0cdb9f70564736f6c63430008030033",
  "linkReferences": {},
  "deployedLinkReferences": {}
}