{
  "_format": "hh-sol-artifact-1",
  "contractName": "EnumerableBytes32SetMock",
  "sourceName": "contracts/mocks/EnumerableSetMock.sol",
  "abi": [
    {
      "anonymous": false,
      "inputs": [
        {
          "indexed": false,
          "internalType": "bool",
          "name": "result",
          "type": "bool"
        }
      ],
      "name": "OperationResult",
      "type": "event"
    },
    {
      "inputs": [
        {
          "internalType": "bytes32",
          "name": "value",
          "type": "bytes32"
        }
      ],
      "name": "add",
      "outputs": [],
      "stateMutability": "nonpayable",
      "type": "function"
    },
    {
      "inputs": [
        {
          "internalType": "uint256",
          "name": "index",
          "type": "uint256"
        }
      ],
      "name": "at",
      "outputs": [
        {
          "internalType": "bytes32",
          "name": "",
          "type": "bytes32"
        }
      ],
      "stateMutability": "view",
      "type": "function"
    },
    {
      "inputs": [
        {
          "internalType": "bytes32",
          "name": "value",
          "type": "bytes32"
        }
      ],
      "name": "contains",
      "outputs": [
        {
          "internalType": "bool",
          "name": "",
          "type": "bool"
        }
      ],
      "stateMutability": "view",
      "type": "function"
    },
    {
      "inputs": [],
      "name": "length",
      "outputs": [
        {
          "internalType": "uint256",
          "name": "",
          "type": "uint256"
        }
      ],
      "stateMutability": "view",
      "type": "function"
    },
    {
      "inputs": [
        {
          "internalType": "bytes32",
          "name": "value",
          "type": "bytes32"
        }
      ],
      "name": "remove",
      "outputs": [],
      "stateMutability": "nonpayable",
      "type": "function"
    }
  ],
  "bytecode": "0x608060405234801561001057600080fd5b506103bb806100206000396000f3fe608060405234801561001057600080fd5b50600436106100575760003560e01c80631d1a696d1461005c5780631f7b6d3214610084578063446bffba1461009a57806395bc2673146100af578063e0886f90146100c2575b600080fd5b61006f61006a36600461034a565b6100d5565b60405190151581526020015b60405180910390f35b61008c6100e7565b60405190815260200161007b565b6100ad6100a836600461034a565b6100f8565b005b6100ad6100bd36600461034a565b610145565b61008c6100d036600461034a565b610151565b60006100e1818361015d565b92915050565b60006100f36000610178565b905090565b60006101048183610182565b90507fed9840e0775590557ad736875d96c95cf1458b766335f74339951a32c82a9e3381604051610139911515815260200190565b60405180910390a15050565b6000610104818361018e565b60006100e1818361019a565b600081815260018301602052604081205415155b9392505050565b60006100e1825490565b600061017183836101a6565b600061017183836101f5565b60006101718383610312565b60008181526001830160205260408120546101ed575081546001818101845560008481526020808220909301849055845484825282860190935260409020919091556100e1565b5060006100e1565b60008181526001830160205260408120548015610308576000610219600183610362565b855490915060009061022d90600190610362565b90508181146102ae57600086600001828154811061025b57634e487b7160e01b600052603260045260246000fd5b906000526020600020015490508087600001848154811061028c57634e487b7160e01b600052603260045260246000fd5b6000918252602080832090910192909255918252600188019052604090208390555b85548690806102cd57634e487b7160e01b600052603160045260246000fd5b6001900381819060005260206000200160009055905585600101600086815260200190815260200160002060009055600193505050506100e1565b60009150506100e1565b600082600001828154811061033757634e487b7160e01b600052603260045260246000fd5b9060005260206000200154905092915050565b60006020828403121561035b578081fd5b5035919050565b60008282101561038057634e487b7160e01b81526011600452602481fd5b50039056fea264697066735822122047f305fd76d919572886a61e0a428ede1a7bdcaf59ec8021977879f31c492ee864736f6c63430008030033",
  "linkReferences": {},
  "deployedLinkReferences": {}
}